{
	"contracts/struct_enums.sol": {
		"School": {
			"abi": [
				{
					"inputs": [
						{
							"internalType": "uint256",
							"name": "_id",
							"type": "uint256"
						},
						{
							"internalType": "string",
							"name": "_name",
							"type": "string"
						},
						{
							"internalType": "uint256",
							"name": "_age",
							"type": "uint256"
						}
					],
					"stateMutability": "nonpayable",
					"type": "constructor"
				},
				{
					"inputs": [
						{
							"internalType": "uint256",
							"name": "_id",
							"type": "uint256"
						},
						{
							"internalType": "string",
							"name": "_name",
							"type": "string"
						},
						{
							"internalType": "uint256",
							"name": "_age",
							"type": "uint256"
						},
						{
							"internalType": "address",
							"name": "_location",
							"type": "address"
						}
					],
					"name": "change_struct_values",
					"outputs": [],
					"stateMutability": "nonpayable",
					"type": "function"
				},
				{
					"inputs": [],
					"name": "pupil_1",
					"outputs": [
						{
							"internalType": "uint256",
							"name": "id",
							"type": "uint256"
						},
						{
							"internalType": "string",
							"name": "name",
							"type": "string"
						},
						{
							"internalType": "uint256",
							"name": "age",
							"type": "uint256"
						},
						{
							"internalType": "address",
							"name": "location",
							"type": "address"
						}
					],
					"stateMutability": "view",
					"type": "function"
				}
			],
			"devdoc": {
				"kind": "dev",
				"methods": {},
				"version": 1
			},
			"evm": {
				"assembly": "    /* \"contracts/struct_enums.sol\":158:757  contract School{\r... */\n  mstore(0x40, 0x80)\n    /* \"contracts/struct_enums.sol\":238:426  constructor(uint _id,string memory _name,uint _age){\r... */\n  callvalue\n  dup1\n  iszero\n  tag_1\n  jumpi\n  0x00\n  dup1\n  revert\ntag_1:\n  pop\n  mload(0x40)\n  sub(codesize, bytecodeSize)\n  dup1\n  bytecodeSize\n  dup4\n  codecopy\n  dup2\n  dup2\n  add\n  0x40\n  mstore\n  dup2\n  add\n  swap1\n  tag_2\n  swap2\n  swap1\n  tag_3\n  jump\t// in\ntag_2:\n    /* \"contracts/struct_enums.sol\":313:316  _id */\n  dup3\n    /* \"contracts/struct_enums.sol\":300:307  pupil_1 */\n  0x00\n    /* \"contracts/struct_enums.sol\":300:310  pupil_1.id */\n  dup1\n  add\n    /* \"contracts/struct_enums.sol\":300:316  pupil_1.id = _id */\n  dup2\n  swap1\n  sstore\n  pop\n    /* \"contracts/struct_enums.sol\":342:347  _name */\n  dup2\n    /* \"contracts/struct_enums.sol\":327:334  pupil_1 */\n  0x00\n    /* \"contracts/struct_enums.sol\":327:339  pupil_1.name */\n  0x01\n  add\n    /* \"contracts/struct_enums.sol\":327:347  pupil_1.name = _name */\n  swap1\n  dup1\n  mload\n  swap1\n  0x20\n  add\n  swap1\n  tag_6\n  swap3\n  swap2\n  swap1\n  tag_7\n  jump\t// in\ntag_6:\n  pop\n    /* \"contracts/struct_enums.sol\":372:376  _age */\n  dup1\n    /* \"contracts/struct_enums.sol\":358:365  pupil_1 */\n  0x00\n    /* \"contracts/struct_enums.sol\":358:369  pupil_1.age */\n  0x02\n  add\n    /* \"contracts/struct_enums.sol\":358:376  pupil_1.age = _age */\n  dup2\n  swap1\n  sstore\n  pop\n    /* \"contracts/struct_enums.sol\":406:416  msg.sender */\n  caller\n    /* \"contracts/struct_enums.sol\":387:394  pupil_1 */\n  0x00\n    /* \"contracts/struct_enums.sol\":387:403  pupil_1.location */\n  0x03\n  add\n  0x00\n    /* \"contracts/struct_enums.sol\":387:416  pupil_1.location = msg.sender */\n  0x0100\n  exp\n  dup2\n  sload\n  dup2\n  0xffffffffffffffffffffffffffffffffffffffff\n  mul\n  not\n  and\n  swap1\n  dup4\n  0xffffffffffffffffffffffffffffffffffffffff\n  and\n  mul\n  or\n  swap1\n  sstore\n  pop\n    /* \"contracts/struct_enums.sol\":238:426  constructor(uint _id,string memory _name,uint _age){\r... */\n  pop\n  pop\n  pop\n    /* \"contracts/struct_enums.sol\":158:757  contract School{\r... */\n  jump(tag_8)\ntag_7:\n  dup3\n  dup1\n  sload\n  tag_9\n  swap1\n  tag_10\n  jump\t// in\ntag_9:\n  swap1\n  0x00\n  mstore\n  keccak256(0x00, 0x20)\n  swap1\n  0x1f\n  add\n  0x20\n  swap1\n  div\n  dup2\n  add\n  swap3\n  dup3\n  tag_12\n  jumpi\n  0x00\n  dup6\n  sstore\n  jump(tag_11)\ntag_12:\n  dup3\n  0x1f\n  lt\n  tag_13\n  jumpi\n  dup1\n  mload\n  not(0xff)\n  and\n  dup4\n  dup1\n  add\n  or\n  dup6\n  sstore\n  jump(tag_11)\ntag_13:\n  dup3\n  dup1\n  add\n  0x01\n  add\n  dup6\n  sstore\n  dup3\n  iszero\n  tag_11\n  jumpi\n  swap2\n  dup3\n  add\ntag_14:\n  dup3\n  dup2\n  gt\n  iszero\n  tag_15\n  jumpi\n  dup3\n  mload\n  dup3\n  sstore\n  swap2\n  0x20\n  add\n  swap2\n  swap1\n  0x01\n  add\n  swap1\n  jump(tag_14)\ntag_15:\ntag_11:\n  pop\n  swap1\n  pop\n  tag_16\n  swap2\n  swap1\n  tag_17\n  jump\t// in\ntag_16:\n  pop\n  swap1\n  jump\t// out\ntag_17:\ntag_18:\n  dup1\n  dup3\n  gt\n  iszero\n  tag_19\n  jumpi\n  0x00\n  dup2\n  0x00\n  swap1\n  sstore\n  pop\n  0x01\n  add\n  jump(tag_18)\ntag_19:\n  pop\n  swap1\n  jump\t// out\n    /* \"#utility.yul\":7:360   */\ntag_21:\n  0x00\n    /* \"#utility.yul\":121:186   */\n  tag_23\n    /* \"#utility.yul\":136:185   */\n  tag_24\n    /* \"#utility.yul\":178:184   */\n  dup5\n    /* \"#utility.yul\":136:185   */\n  tag_25\n  jump\t// in\ntag_24:\n    /* \"#utility.yul\":121:186   */\n  tag_26\n  jump\t// in\ntag_23:\n    /* \"#utility.yul\":112:186   */\n  swap1\n  pop\n    /* \"#utility.yul\":209:215   */\n  dup3\n    /* \"#utility.yul\":202:207   */\n  dup2\n    /* \"#utility.yul\":195:216   */\n  mstore\n    /* \"#utility.yul\":247:251   */\n  0x20\n    /* \"#utility.yul\":240:245   */\n  dup2\n    /* \"#utility.yul\":236:252   */\n  add\n    /* \"#utility.yul\":285:288   */\n  dup5\n    /* \"#utility.yul\":276:282   */\n  dup5\n    /* \"#utility.yul\":271:274   */\n  dup5\n    /* \"#utility.yul\":267:283   */\n  add\n    /* \"#utility.yul\":264:289   */\n  gt\n    /* \"#utility.yul\":261:263   */\n  iszero\n  tag_27\n  jumpi\n    /* \"#utility.yul\":302:303   */\n  0x00\n    /* \"#utility.yul\":299:300   */\n  dup1\n    /* \"#utility.yul\":292:304   */\n  revert\n    /* \"#utility.yul\":261:263   */\ntag_27:\n    /* \"#utility.yul\":315:354   */\n  tag_28\n    /* \"#utility.yul\":347:353   */\n  dup5\n    /* \"#utility.yul\":342:345   */\n  dup3\n    /* \"#utility.yul\":337:340   */\n  dup6\n    /* \"#utility.yul\":315:354   */\n  tag_29\n  jump\t// in\ntag_28:\n    /* \"#utility.yul\":102:360   */\n  pop\n  swap4\n  swap3\n  pop\n  pop\n  pop\n  jump\t// out\n    /* \"#utility.yul\":380:668   */\ntag_30:\n  0x00\n    /* \"#utility.yul\":496:499   */\n  dup3\n    /* \"#utility.yul\":489:493   */\n  0x1f\n    /* \"#utility.yul\":481:487   */\n  dup4\n    /* \"#utility.yul\":477:494   */\n  add\n    /* \"#utility.yul\":473:500   */\n  slt\n    /* \"#utility.yul\":463:465   */\n  tag_32\n  jumpi\n    /* \"#utility.yul\":514:515   */\n  0x00\n    /* \"#utility.yul\":511:512   */\n  dup1\n    /* \"#utility.yul\":504:516   */\n  revert\n    /* \"#utility.yul\":463:465   */\ntag_32:\n    /* \"#utility.yul\":547:553   */\n  dup2\n    /* \"#utility.yul\":541:554   */\n  mload\n    /* \"#utility.yul\":572:662   */\n  tag_33\n    /* \"#utility.yul\":658:661   */\n  dup5\n    /* \"#utility.yul\":650:656   */\n  dup3\n    /* \"#utility.yul\":643:647   */\n  0x20\n    /* \"#utility.yul\":635:641   */\n  dup7\n    /* \"#utility.yul\":631:648   */\n  add\n    /* \"#utility.yul\":572:662   */\n  tag_21\n  jump\t// in\ntag_33:\n    /* \"#utility.yul\":563:662   */\n  swap2\n  pop\n    /* \"#utility.yul\":453:668   */\n  pop\n  swap3\n  swap2\n  pop\n  pop\n  jump\t// out\n    /* \"#utility.yul\":674:817   */\ntag_34:\n  0x00\n    /* \"#utility.yul\":762:768   */\n  dup2\n    /* \"#utility.yul\":756:769   */\n  mload\n    /* \"#utility.yul\":747:769   */\n  swap1\n  pop\n    /* \"#utility.yul\":778:811   */\n  tag_36\n    /* \"#utility.yul\":805:810   */\n  dup2\n    /* \"#utility.yul\":778:811   */\n  tag_37\n  jump\t// in\ntag_36:\n    /* \"#utility.yul\":737:817   */\n  swap3\n  swap2\n  pop\n  pop\n  jump\t// out\n    /* \"#utility.yul\":823:1525   */\ntag_3:\n  0x00\n  dup1\n  0x00\n    /* \"#utility.yul\":986:988   */\n  0x60\n    /* \"#utility.yul\":974:983   */\n  dup5\n    /* \"#utility.yul\":965:972   */\n  dup7\n    /* \"#utility.yul\":961:984   */\n  sub\n    /* \"#utility.yul\":957:989   */\n  slt\n    /* \"#utility.yul\":954:956   */\n  iszero\n  tag_39\n  jumpi\n    /* \"#utility.yul\":1002:1003   */\n  0x00\n    /* \"#utility.yul\":999:1000   */\n  dup1\n    /* \"#utility.yul\":992:1004   */\n  revert\n    /* \"#utility.yul\":954:956   */\ntag_39:\n    /* \"#utility.yul\":1045:1046   */\n  0x00\n    /* \"#utility.yul\":1070:1134   */\n  tag_40\n    /* \"#utility.yul\":1126:1133   */\n  dup7\n    /* \"#utility.yul\":1117:1123   */\n  dup3\n    /* \"#utility.yul\":1106:1115   */\n  dup8\n    /* \"#utility.yul\":1102:1124   */\n  add\n    /* \"#utility.yul\":1070:1134   */\n  tag_34\n  jump\t// in\ntag_40:\n    /* \"#utility.yul\":1060:1134   */\n  swap4\n  pop\n    /* \"#utility.yul\":1016:1144   */\n  pop\n    /* \"#utility.yul\":1204:1206   */\n  0x20\n    /* \"#utility.yul\":1193:1202   */\n  dup5\n    /* \"#utility.yul\":1189:1207   */\n  add\n    /* \"#utility.yul\":1183:1208   */\n  mload\n    /* \"#utility.yul\":1235:1253   */\n  0xffffffffffffffff\n    /* \"#utility.yul\":1227:1233   */\n  dup2\n    /* \"#utility.yul\":1224:1254   */\n  gt\n    /* \"#utility.yul\":1221:1223   */\n  iszero\n  tag_41\n  jumpi\n    /* \"#utility.yul\":1267:1268   */\n  0x00\n    /* \"#utility.yul\":1264:1265   */\n  dup1\n    /* \"#utility.yul\":1257:1269   */\n  revert\n    /* \"#utility.yul\":1221:1223   */\ntag_41:\n    /* \"#utility.yul\":1295:1369   */\n  tag_42\n    /* \"#utility.yul\":1361:1368   */\n  dup7\n    /* \"#utility.yul\":1352:1358   */\n  dup3\n    /* \"#utility.yul\":1341:1350   */\n  dup8\n    /* \"#utility.yul\":1337:1359   */\n  add\n    /* \"#utility.yul\":1295:1369   */\n  tag_30\n  jump\t// in\ntag_42:\n    /* \"#utility.yul\":1285:1369   */\n  swap3\n  pop\n    /* \"#utility.yul\":1154:1379   */\n  pop\n    /* \"#utility.yul\":1418:1420   */\n  0x40\n    /* \"#utility.yul\":1444:1508   */\n  tag_43\n    /* \"#utility.yul\":1500:1507   */\n  dup7\n    /* \"#utility.yul\":1491:1497   */\n  dup3\n    /* \"#utility.yul\":1480:1489   */\n  dup8\n    /* \"#utility.yul\":1476:1498   */\n  add\n    /* \"#utility.yul\":1444:1508   */\n  tag_34\n  jump\t// in\ntag_43:\n    /* \"#utility.yul\":1434:1508   */\n  swap2\n  pop\n    /* \"#utility.yul\":1389:1518   */\n  pop\n    /* \"#utility.yul\":944:1525   */\n  swap3\n  pop\n  swap3\n  pop\n  swap3\n  jump\t// out\n    /* \"#utility.yul\":1531:1814   */\ntag_26:\n  0x00\n    /* \"#utility.yul\":1597:1599   */\n  0x40\n    /* \"#utility.yul\":1591:1600   */\n  mload\n    /* \"#utility.yul\":1581:1600   */\n  swap1\n  pop\n    /* \"#utility.yul\":1639:1643   */\n  dup2\n    /* \"#utility.yul\":1631:1637   */\n  dup2\n    /* \"#utility.yul\":1627:1644   */\n  add\n    /* \"#utility.yul\":1746:1752   */\n  dup2\n    /* \"#utility.yul\":1734:1744   */\n  dup2\n    /* \"#utility.yul\":1731:1753   */\n  lt\n    /* \"#utility.yul\":1710:1728   */\n  0xffffffffffffffff\n    /* \"#utility.yul\":1698:1708   */\n  dup3\n    /* \"#utility.yul\":1695:1729   */\n  gt\n    /* \"#utility.yul\":1692:1754   */\n  or\n    /* \"#utility.yul\":1689:1691   */\n  iszero\n  tag_45\n  jumpi\n    /* \"#utility.yul\":1757:1775   */\n  tag_46\n  tag_47\n  jump\t// in\ntag_46:\n    /* \"#utility.yul\":1689:1691   */\ntag_45:\n    /* \"#utility.yul\":1797:1807   */\n  dup1\n    /* \"#utility.yul\":1793:1795   */\n  0x40\n    /* \"#utility.yul\":1786:1808   */\n  mstore\n    /* \"#utility.yul\":1571:1814   */\n  pop\n  swap2\n  swap1\n  pop\n  jump\t// out\n    /* \"#utility.yul\":1820:2152   */\ntag_25:\n  0x00\n    /* \"#utility.yul\":1972:1990   */\n  0xffffffffffffffff\n    /* \"#utility.yul\":1964:1970   */\n  dup3\n    /* \"#utility.yul\":1961:1991   */\n  gt\n    /* \"#utility.yul\":1958:1960   */\n  iszero\n  tag_49\n  jumpi\n    /* \"#utility.yul\":1994:2012   */\n  tag_50\n  tag_47\n  jump\t// in\ntag_50:\n    /* \"#utility.yul\":1958:1960   */\ntag_49:\n    /* \"#utility.yul\":2079:2083   */\n  0x1f\n    /* \"#utility.yul\":2075:2084   */\n  not\n    /* \"#utility.yul\":2068:2072   */\n  0x1f\n    /* \"#utility.yul\":2060:2066   */\n  dup4\n    /* \"#utility.yul\":2056:2073   */\n  add\n    /* \"#utility.yul\":2052:2085   */\n  and\n    /* \"#utility.yul\":2044:2085   */\n  swap1\n  pop\n    /* \"#utility.yul\":2140:2144   */\n  0x20\n    /* \"#utility.yul\":2134:2138   */\n  dup2\n    /* \"#utility.yul\":2130:2145   */\n  add\n    /* \"#utility.yul\":2122:2145   */\n  swap1\n  pop\n    /* \"#utility.yul\":1887:2152   */\n  swap2\n  swap1\n  pop\n  jump\t// out\n    /* \"#utility.yul\":2158:2235   */\ntag_51:\n  0x00\n    /* \"#utility.yul\":2224:2229   */\n  dup2\n    /* \"#utility.yul\":2213:2229   */\n  swap1\n  pop\n    /* \"#utility.yul\":2203:2235   */\n  swap2\n  swap1\n  pop\n  jump\t// out\n    /* \"#utility.yul\":2241:2548   */\ntag_29:\n    /* \"#utility.yul\":2309:2310   */\n  0x00\n    /* \"#utility.yul\":2319:2432   */\ntag_54:\n    /* \"#utility.yul\":2333:2339   */\n  dup4\n    /* \"#utility.yul\":2330:2331   */\n  dup2\n    /* \"#utility.yul\":2327:2340   */\n  lt\n    /* \"#utility.yul\":2319:2432   */\n  iszero\n  tag_56\n  jumpi\n    /* \"#utility.yul\":2418:2419   */\n  dup1\n    /* \"#utility.yul\":2413:2416   */\n  dup3\n    /* \"#utility.yul\":2409:2420   */\n  add\n    /* \"#utility.yul\":2403:2421   */\n  mload\n    /* \"#utility.yul\":2399:2400   */\n  dup2\n    /* \"#utility.yul\":2394:2397   */\n  dup5\n    /* \"#utility.yul\":2390:2401   */\n  add\n    /* \"#utility.yul\":2383:2422   */\n  mstore\n    /* \"#utility.yul\":2355:2357   */\n  0x20\n    /* \"#utility.yul\":2352:2353   */\n  dup2\n    /* \"#utility.yul\":2348:2358   */\n  add\n    /* \"#utility.yul\":2343:2358   */\n  swap1\n  pop\n    /* \"#utility.yul\":2319:2432   */\n  jump(tag_54)\ntag_56:\n    /* \"#utility.yul\":2450:2456   */\n  dup4\n    /* \"#utility.yul\":2447:2448   */\n  dup2\n    /* \"#utility.yul\":2444:2457   */\n  gt\n    /* \"#utility.yul\":2441:2443   */\n  iszero\n  tag_57\n  jumpi\n    /* \"#utility.yul\":2530:2531   */\n  0x00\n    /* \"#utility.yul\":2521:2527   */\n  dup5\n    /* \"#utility.yul\":2516:2519   */\n  dup5\n    /* \"#utility.yul\":2512:2528   */\n  add\n    /* \"#utility.yul\":2505:2532   */\n  mstore\n    /* \"#utility.yul\":2441:2443   */\ntag_57:\n    /* \"#utility.yul\":2290:2548   */\n  pop\n  pop\n  pop\n  pop\n  jump\t// out\n    /* \"#utility.yul\":2554:2874   */\ntag_10:\n  0x00\n    /* \"#utility.yul\":2635:2636   */\n  0x02\n    /* \"#utility.yul\":2629:2633   */\n  dup3\n    /* \"#utility.yul\":2625:2637   */\n  div\n    /* \"#utility.yul\":2615:2637   */\n  swap1\n  pop\n    /* \"#utility.yul\":2682:2683   */\n  0x01\n    /* \"#utility.yul\":2676:2680   */\n  dup3\n    /* \"#utility.yul\":2672:2684   */\n  and\n    /* \"#utility.yul\":2703:2721   */\n  dup1\n    /* \"#utility.yul\":2693:2695   */\n  tag_59\n  jumpi\n    /* \"#utility.yul\":2759:2763   */\n  0x7f\n    /* \"#utility.yul\":2751:2757   */\n  dup3\n    /* \"#utility.yul\":2747:2764   */\n  and\n    /* \"#utility.yul\":2737:2764   */\n  swap2\n  pop\n    /* \"#utility.yul\":2693:2695   */\ntag_59:\n    /* \"#utility.yul\":2821:2823   */\n  0x20\n    /* \"#utility.yul\":2813:2819   */\n  dup3\n    /* \"#utility.yul\":2810:2824   */\n  lt\n    /* \"#utility.yul\":2790:2808   */\n  dup2\n    /* \"#utility.yul\":2787:2825   */\n  eq\n    /* \"#utility.yul\":2784:2786   */\n  iszero\n  tag_60\n  jumpi\n    /* \"#utility.yul\":2840:2858   */\n  tag_61\n  tag_62\n  jump\t// in\ntag_61:\n    /* \"#utility.yul\":2784:2786   */\ntag_60:\n    /* \"#utility.yul\":2605:2874   */\n  pop\n  swap2\n  swap1\n  pop\n  jump\t// out\n    /* \"#utility.yul\":2880:3060   */\ntag_62:\n    /* \"#utility.yul\":2928:3005   */\n  0x4e487b7100000000000000000000000000000000000000000000000000000000\n    /* \"#utility.yul\":2925:2926   */\n  0x00\n    /* \"#utility.yul\":2918:3006   */\n  mstore\n    /* \"#utility.yul\":3025:3029   */\n  0x22\n    /* \"#utility.yul\":3022:3023   */\n  0x04\n    /* \"#utility.yul\":3015:3030   */\n  mstore\n    /* \"#utility.yul\":3049:3053   */\n  0x24\n    /* \"#utility.yul\":3046:3047   */\n  0x00\n    /* \"#utility.yul\":3039:3054   */\n  revert\n    /* \"#utility.yul\":3066:3246   */\ntag_47:\n    /* \"#utility.yul\":3114:3191   */\n  0x4e487b7100000000000000000000000000000000000000000000000000000000\n    /* \"#utility.yul\":3111:3112   */\n  0x00\n    /* \"#utility.yul\":3104:3192   */\n  mstore\n    /* \"#utility.yul\":3211:3215   */\n  0x41\n    /* \"#utility.yul\":3208:3209   */\n  0x04\n    /* \"#utility.yul\":3201:3216   */\n  mstore\n    /* \"#utility.yul\":3235:3239   */\n  0x24\n    /* \"#utility.yul\":3232:3233   */\n  0x00\n    /* \"#utility.yul\":3225:3240   */\n  revert\n    /* \"#utility.yul\":3252:3374   */\ntag_37:\n    /* \"#utility.yul\":3325:3349   */\n  tag_66\n    /* \"#utility.yul\":3343:3348   */\n  dup2\n    /* \"#utility.yul\":3325:3349   */\n  tag_51\n  jump\t// in\ntag_66:\n    /* \"#utility.yul\":3318:3323   */\n  dup2\n    /* \"#utility.yul\":3315:3350   */\n  eq\n    /* \"#utility.yul\":3305:3307   */\n  tag_67\n  jumpi\n    /* \"#utility.yul\":3364:3365   */\n  0x00\n    /* \"#utility.yul\":3361:3362   */\n  dup1\n    /* \"#utility.yul\":3354:3366   */\n  revert\n    /* \"#utility.yul\":3305:3307   */\ntag_67:\n    /* \"#utility.yul\":3295:3374   */\n  pop\n  jump\t// out\n    /* \"contracts/struct_enums.sol\":158:757  contract School{\r... */\ntag_8:\n  dataSize(sub_0)\n  dup1\n  dataOffset(sub_0)\n  0x00\n  codecopy\n  0x00\n  return\nstop\n\nsub_0: assembly {\n        /* \"contracts/struct_enums.sol\":158:757  contract School{\r... */\n      mstore(0x40, 0x80)\n      callvalue\n      dup1\n      iszero\n      tag_1\n      jumpi\n      0x00\n      dup1\n      revert\n    tag_1:\n      pop\n      jumpi(tag_2, lt(calldatasize, 0x04))\n      shr(0xe0, calldataload(0x00))\n      dup1\n      0x78e667b4\n      eq\n      tag_3\n      jumpi\n      dup1\n      0xee950a03\n      eq\n      tag_4\n      jumpi\n    tag_2:\n      0x00\n      dup1\n      revert\n        /* \"contracts/struct_enums.sol\":207:229  Student public pupil_1 */\n    tag_3:\n      tag_5\n      tag_6\n      jump\t// in\n    tag_5:\n      mload(0x40)\n      tag_7\n      swap5\n      swap4\n      swap3\n      swap2\n      swap1\n      tag_8\n      jump\t// in\n    tag_7:\n      mload(0x40)\n      dup1\n      swap2\n      sub\n      swap1\n      return\n        /* \"contracts/struct_enums.sol\":434:751  function change_struct_values(uint _id, string memory _name,uint _age, address _location) public {\r... */\n    tag_4:\n      tag_9\n      0x04\n      dup1\n      calldatasize\n      sub\n      dup2\n      add\n      swap1\n      tag_10\n      swap2\n      swap1\n      tag_11\n      jump\t// in\n    tag_10:\n      tag_12\n      jump\t// in\n    tag_9:\n      stop\n        /* \"contracts/struct_enums.sol\":207:229  Student public pupil_1 */\n    tag_6:\n      0x00\n      dup1\n      0x00\n      add\n      sload\n      swap1\n      dup1\n      0x01\n      add\n      dup1\n      sload\n      tag_13\n      swap1\n      tag_14\n      jump\t// in\n    tag_13:\n      dup1\n      0x1f\n      add\n      0x20\n      dup1\n      swap2\n      div\n      mul\n      0x20\n      add\n      mload(0x40)\n      swap1\n      dup2\n      add\n      0x40\n      mstore\n      dup1\n      swap3\n      swap2\n      swap1\n      dup2\n      dup2\n      mstore\n      0x20\n      add\n      dup3\n      dup1\n      sload\n      tag_15\n      swap1\n      tag_14\n      jump\t// in\n    tag_15:\n      dup1\n      iszero\n      tag_16\n      jumpi\n      dup1\n      0x1f\n      lt\n      tag_17\n      jumpi\n      0x0100\n      dup1\n      dup4\n      sload\n      div\n      mul\n      dup4\n      mstore\n      swap2\n      0x20\n      add\n      swap2\n      jump(tag_16)\n    tag_17:\n      dup3\n      add\n      swap2\n      swap1\n      0x00\n      mstore\n      keccak256(0x00, 0x20)\n      swap1\n    tag_18:\n      dup2\n      sload\n      dup2\n      mstore\n      swap1\n      0x01\n      add\n      swap1\n      0x20\n      add\n      dup1\n      dup4\n      gt\n      tag_18\n      jumpi\n      dup3\n      swap1\n      sub\n      0x1f\n      and\n      dup3\n      add\n      swap2\n    tag_16:\n      pop\n      pop\n      pop\n      pop\n      pop\n      swap1\n      dup1\n      0x02\n      add\n      sload\n      swap1\n      dup1\n      0x03\n      add\n      0x00\n      swap1\n      sload\n      swap1\n      0x0100\n      exp\n      swap1\n      div\n      0xffffffffffffffffffffffffffffffffffffffff\n      and\n      swap1\n      pop\n      dup5\n      jump\t// out\n        /* \"contracts/struct_enums.sol\":434:751  function change_struct_values(uint _id, string memory _name,uint _age, address _location) public {\r... */\n    tag_12:\n        /* \"contracts/struct_enums.sol\":542:568  Student  memory pupil_edit */\n      0x00\n        /* \"contracts/struct_enums.sol\":571:708  Student({\r... */\n      mload(0x40)\n      dup1\n      0x80\n      add\n      0x40\n      mstore\n      dup1\n        /* \"contracts/struct_enums.sol\":598:601  _id */\n      dup7\n        /* \"contracts/struct_enums.sol\":571:708  Student({\r... */\n      dup2\n      mstore\n      0x20\n      add\n        /* \"contracts/struct_enums.sol\":622:627  _name */\n      dup6\n        /* \"contracts/struct_enums.sol\":571:708  Student({\r... */\n      dup2\n      mstore\n      0x20\n      add\n        /* \"contracts/struct_enums.sol\":647:651  _age */\n      dup5\n        /* \"contracts/struct_enums.sol\":571:708  Student({\r... */\n      dup2\n      mstore\n      0x20\n      add\n        /* \"contracts/struct_enums.sol\":676:685  _location */\n      dup4\n        /* \"contracts/struct_enums.sol\":571:708  Student({\r... */\n      0xffffffffffffffffffffffffffffffffffffffff\n      and\n      dup2\n      mstore\n      pop\n        /* \"contracts/struct_enums.sol\":542:708  Student  memory pupil_edit = Student({\r... */\n      swap1\n      pop\n        /* \"contracts/struct_enums.sol\":731:741  pupil_edit */\n      dup1\n        /* \"contracts/struct_enums.sol\":721:728  pupil_1 */\n      0x00\n        /* \"contracts/struct_enums.sol\":721:741  pupil_1 = pupil_edit */\n      dup1\n      dup3\n      add\n      mload\n      dup2\n      0x00\n      add\n      sstore\n      0x20\n      dup3\n      add\n      mload\n      dup2\n      0x01\n      add\n      swap1\n      dup1\n      mload\n      swap1\n      0x20\n      add\n      swap1\n      tag_20\n      swap3\n      swap2\n      swap1\n      tag_21\n      jump\t// in\n    tag_20:\n      pop\n      0x40\n      dup3\n      add\n      mload\n      dup2\n      0x02\n      add\n      sstore\n      0x60\n      dup3\n      add\n      mload\n      dup2\n      0x03\n      add\n      exp(0x0100, 0x00)\n      dup2\n      sload\n      dup2\n      0xffffffffffffffffffffffffffffffffffffffff\n      mul\n      not\n      and\n      swap1\n      dup4\n      0xffffffffffffffffffffffffffffffffffffffff\n      and\n      mul\n      or\n      swap1\n      sstore\n      pop\n      swap1\n      pop\n      pop\n        /* \"contracts/struct_enums.sol\":434:751  function change_struct_values(uint _id, string memory _name,uint _age, address _location) public {\r... */\n      pop\n      pop\n      pop\n      pop\n      pop\n      jump\t// out\n    tag_21:\n      dup3\n      dup1\n      sload\n      tag_22\n      swap1\n      tag_14\n      jump\t// in\n    tag_22:\n      swap1\n      0x00\n      mstore\n      keccak256(0x00, 0x20)\n      swap1\n      0x1f\n      add\n      0x20\n      swap1\n      div\n      dup2\n      add\n      swap3\n      dup3\n      tag_24\n      jumpi\n      0x00\n      dup6\n      sstore\n      jump(tag_23)\n    tag_24:\n      dup3\n      0x1f\n      lt\n      tag_25\n      jumpi\n      dup1\n      mload\n      not(0xff)\n      and\n      dup4\n      dup1\n      add\n      or\n      dup6\n      sstore\n      jump(tag_23)\n    tag_25:\n      dup3\n      dup1\n      add\n      0x01\n      add\n      dup6\n      sstore\n      dup3\n      iszero\n      tag_23\n      jumpi\n      swap2\n      dup3\n      add\n    tag_26:\n      dup3\n      dup2\n      gt\n      iszero\n      tag_27\n      jumpi\n      dup3\n      mload\n      dup3\n      sstore\n      swap2\n      0x20\n      add\n      swap2\n      swap1\n      0x01\n      add\n      swap1\n      jump(tag_26)\n    tag_27:\n    tag_23:\n      pop\n      swap1\n      pop\n      tag_28\n      swap2\n      swap1\n      tag_29\n      jump\t// in\n    tag_28:\n      pop\n      swap1\n      jump\t// out\n    tag_29:\n    tag_30:\n      dup1\n      dup3\n      gt\n      iszero\n      tag_31\n      jumpi\n      0x00\n      dup2\n      0x00\n      swap1\n      sstore\n      pop\n      0x01\n      add\n      jump(tag_30)\n    tag_31:\n      pop\n      swap1\n      jump\t// out\n        /* \"#utility.yul\":7:351   */\n    tag_33:\n      0x00\n        /* \"#utility.yul\":110:175   */\n      tag_35\n        /* \"#utility.yul\":125:174   */\n      tag_36\n        /* \"#utility.yul\":167:173   */\n      dup5\n        /* \"#utility.yul\":125:174   */\n      tag_37\n      jump\t// in\n    tag_36:\n        /* \"#utility.yul\":110:175   */\n      tag_38\n      jump\t// in\n    tag_35:\n        /* \"#utility.yul\":101:175   */\n      swap1\n      pop\n        /* \"#utility.yul\":198:204   */\n      dup3\n        /* \"#utility.yul\":191:196   */\n      dup2\n        /* \"#utility.yul\":184:205   */\n      mstore\n        /* \"#utility.yul\":236:240   */\n      0x20\n        /* \"#utility.yul\":229:234   */\n      dup2\n        /* \"#utility.yul\":225:241   */\n      add\n        /* \"#utility.yul\":274:277   */\n      dup5\n        /* \"#utility.yul\":265:271   */\n      dup5\n        /* \"#utility.yul\":260:263   */\n      dup5\n        /* \"#utility.yul\":256:272   */\n      add\n        /* \"#utility.yul\":253:278   */\n      gt\n        /* \"#utility.yul\":250:252   */\n      iszero\n      tag_39\n      jumpi\n        /* \"#utility.yul\":291:292   */\n      0x00\n        /* \"#utility.yul\":288:289   */\n      dup1\n        /* \"#utility.yul\":281:293   */\n      revert\n        /* \"#utility.yul\":250:252   */\n    tag_39:\n        /* \"#utility.yul\":304:345   */\n      tag_40\n        /* \"#utility.yul\":338:344   */\n      dup5\n        /* \"#utility.yul\":333:336   */\n      dup3\n        /* \"#utility.yul\":328:331   */\n      dup6\n        /* \"#utility.yul\":304:345   */\n      tag_41\n      jump\t// in\n    tag_40:\n        /* \"#utility.yul\":91:351   */\n      pop\n      swap4\n      swap3\n      pop\n      pop\n      pop\n      jump\t// out\n        /* \"#utility.yul\":357:496   */\n    tag_42:\n      0x00\n        /* \"#utility.yul\":441:447   */\n      dup2\n        /* \"#utility.yul\":428:448   */\n      calldataload\n        /* \"#utility.yul\":419:448   */\n      swap1\n      pop\n        /* \"#utility.yul\":457:490   */\n      tag_44\n        /* \"#utility.yul\":484:489   */\n      dup2\n        /* \"#utility.yul\":457:490   */\n      tag_45\n      jump\t// in\n    tag_44:\n        /* \"#utility.yul\":409:496   */\n      swap3\n      swap2\n      pop\n      pop\n      jump\t// out\n        /* \"#utility.yul\":516:789   */\n    tag_46:\n      0x00\n        /* \"#utility.yul\":621:624   */\n      dup3\n        /* \"#utility.yul\":614:618   */\n      0x1f\n        /* \"#utility.yul\":606:612   */\n      dup4\n        /* \"#utility.yul\":602:619   */\n      add\n        /* \"#utility.yul\":598:625   */\n      slt\n        /* \"#utility.yul\":588:590   */\n      tag_48\n      jumpi\n        /* \"#utility.yul\":639:640   */\n      0x00\n        /* \"#utility.yul\":636:637   */\n      dup1\n        /* \"#utility.yul\":629:641   */\n      revert\n        /* \"#utility.yul\":588:590   */\n    tag_48:\n        /* \"#utility.yul\":679:685   */\n      dup2\n        /* \"#utility.yul\":666:686   */\n      calldataload\n        /* \"#utility.yul\":704:783   */\n      tag_49\n        /* \"#utility.yul\":779:782   */\n      dup5\n        /* \"#utility.yul\":771:777   */\n      dup3\n        /* \"#utility.yul\":764:768   */\n      0x20\n        /* \"#utility.yul\":756:762   */\n      dup7\n        /* \"#utility.yul\":752:769   */\n      add\n        /* \"#utility.yul\":704:783   */\n      tag_33\n      jump\t// in\n    tag_49:\n        /* \"#utility.yul\":695:783   */\n      swap2\n      pop\n        /* \"#utility.yul\":578:789   */\n      pop\n      swap3\n      swap2\n      pop\n      pop\n      jump\t// out\n        /* \"#utility.yul\":795:934   */\n    tag_50:\n      0x00\n        /* \"#utility.yul\":879:885   */\n      dup2\n        /* \"#utility.yul\":866:886   */\n      calldataload\n        /* \"#utility.yul\":857:886   */\n      swap1\n      pop\n        /* \"#utility.yul\":895:928   */\n      tag_52\n        /* \"#utility.yul\":922:927   */\n      dup2\n        /* \"#utility.yul\":895:928   */\n      tag_53\n      jump\t// in\n    tag_52:\n        /* \"#utility.yul\":847:934   */\n      swap3\n      swap2\n      pop\n      pop\n      jump\t// out\n        /* \"#utility.yul\":940:1751   */\n    tag_11:\n      0x00\n      dup1\n      0x00\n      dup1\n        /* \"#utility.yul\":1109:1112   */\n      0x80\n        /* \"#utility.yul\":1097:1106   */\n      dup6\n        /* \"#utility.yul\":1088:1095   */\n      dup8\n        /* \"#utility.yul\":1084:1107   */\n      sub\n        /* \"#utility.yul\":1080:1113   */\n      slt\n        /* \"#utility.yul\":1077:1079   */\n      iszero\n      tag_55\n      jumpi\n        /* \"#utility.yul\":1126:1127   */\n      0x00\n        /* \"#utility.yul\":1123:1124   */\n      dup1\n        /* \"#utility.yul\":1116:1128   */\n      revert\n        /* \"#utility.yul\":1077:1079   */\n    tag_55:\n        /* \"#utility.yul\":1169:1170   */\n      0x00\n        /* \"#utility.yul\":1194:1247   */\n      tag_56\n        /* \"#utility.yul\":1239:1246   */\n      dup8\n        /* \"#utility.yul\":1230:1236   */\n      dup3\n        /* \"#utility.yul\":1219:1228   */\n      dup9\n        /* \"#utility.yul\":1215:1237   */\n      add\n        /* \"#utility.yul\":1194:1247   */\n      tag_50\n      jump\t// in\n    tag_56:\n        /* \"#utility.yul\":1184:1247   */\n      swap5\n      pop\n        /* \"#utility.yul\":1140:1257   */\n      pop\n        /* \"#utility.yul\":1324:1326   */\n      0x20\n        /* \"#utility.yul\":1313:1322   */\n      dup6\n        /* \"#utility.yul\":1309:1327   */\n      add\n        /* \"#utility.yul\":1296:1328   */\n      calldataload\n        /* \"#utility.yul\":1355:1373   */\n      0xffffffffffffffff\n        /* \"#utility.yul\":1347:1353   */\n      dup2\n        /* \"#utility.yul\":1344:1374   */\n      gt\n        /* \"#utility.yul\":1341:1343   */\n      iszero\n      tag_57\n      jumpi\n        /* \"#utility.yul\":1387:1388   */\n      0x00\n        /* \"#utility.yul\":1384:1385   */\n      dup1\n        /* \"#utility.yul\":1377:1389   */\n      revert\n        /* \"#utility.yul\":1341:1343   */\n    tag_57:\n        /* \"#utility.yul\":1415:1478   */\n      tag_58\n        /* \"#utility.yul\":1470:1477   */\n      dup8\n        /* \"#utility.yul\":1461:1467   */\n      dup3\n        /* \"#utility.yul\":1450:1459   */\n      dup9\n        /* \"#utility.yul\":1446:1468   */\n      add\n        /* \"#utility.yul\":1415:1478   */\n      tag_46\n      jump\t// in\n    tag_58:\n        /* \"#utility.yul\":1405:1478   */\n      swap4\n      pop\n        /* \"#utility.yul\":1267:1488   */\n      pop\n        /* \"#utility.yul\":1527:1529   */\n      0x40\n        /* \"#utility.yul\":1553:1606   */\n      tag_59\n        /* \"#utility.yul\":1598:1605   */\n      dup8\n        /* \"#utility.yul\":1589:1595   */\n      dup3\n        /* \"#utility.yul\":1578:1587   */\n      dup9\n        /* \"#utility.yul\":1574:1596   */\n      add\n        /* \"#utility.yul\":1553:1606   */\n      tag_50\n      jump\t// in\n    tag_59:\n        /* \"#utility.yul\":1543:1606   */\n      swap3\n      pop\n        /* \"#utility.yul\":1498:1616   */\n      pop\n        /* \"#utility.yul\":1655:1657   */\n      0x60\n        /* \"#utility.yul\":1681:1734   */\n      tag_60\n        /* \"#utility.yul\":1726:1733   */\n      dup8\n        /* \"#utility.yul\":1717:1723   */\n      dup3\n        /* \"#utility.yul\":1706:1715   */\n      dup9\n        /* \"#utility.yul\":1702:1724   */\n      add\n        /* \"#utility.yul\":1681:1734   */\n      tag_42\n      jump\t// in\n    tag_60:\n        /* \"#utility.yul\":1671:1734   */\n      swap2\n      pop\n        /* \"#utility.yul\":1626:1744   */\n      pop\n        /* \"#utility.yul\":1067:1751   */\n      swap3\n      swap6\n      swap2\n      swap5\n      pop\n      swap3\n      pop\n      jump\t// out\n        /* \"#utility.yul\":1757:1875   */\n    tag_61:\n        /* \"#utility.yul\":1844:1868   */\n      tag_63\n        /* \"#utility.yul\":1862:1867   */\n      dup2\n        /* \"#utility.yul\":1844:1868   */\n      tag_64\n      jump\t// in\n    tag_63:\n        /* \"#utility.yul\":1839:1842   */\n      dup3\n        /* \"#utility.yul\":1832:1869   */\n      mstore\n        /* \"#utility.yul\":1822:1875   */\n      pop\n      pop\n      jump\t// out\n        /* \"#utility.yul\":1881:2245   */\n    tag_65:\n      0x00\n        /* \"#utility.yul\":1997:2036   */\n      tag_67\n        /* \"#utility.yul\":2030:2035   */\n      dup3\n        /* \"#utility.yul\":1997:2036   */\n      tag_68\n      jump\t// in\n    tag_67:\n        /* \"#utility.yul\":2052:2123   */\n      tag_69\n        /* \"#utility.yul\":2116:2122   */\n      dup2\n        /* \"#utility.yul\":2111:2114   */\n      dup6\n        /* \"#utility.yul\":2052:2123   */\n      tag_70\n      jump\t// in\n    tag_69:\n        /* \"#utility.yul\":2045:2123   */\n      swap4\n      pop\n        /* \"#utility.yul\":2132:2184   */\n      tag_71\n        /* \"#utility.yul\":2177:2183   */\n      dup2\n        /* \"#utility.yul\":2172:2175   */\n      dup6\n        /* \"#utility.yul\":2165:2169   */\n      0x20\n        /* \"#utility.yul\":2158:2163   */\n      dup7\n        /* \"#utility.yul\":2154:2170   */\n      add\n        /* \"#utility.yul\":2132:2184   */\n      tag_72\n      jump\t// in\n    tag_71:\n        /* \"#utility.yul\":2209:2238   */\n      tag_73\n        /* \"#utility.yul\":2231:2237   */\n      dup2\n        /* \"#utility.yul\":2209:2238   */\n      tag_74\n      jump\t// in\n    tag_73:\n        /* \"#utility.yul\":2204:2207   */\n      dup5\n        /* \"#utility.yul\":2200:2239   */\n      add\n        /* \"#utility.yul\":2193:2239   */\n      swap2\n      pop\n        /* \"#utility.yul\":1973:2245   */\n      pop\n      swap3\n      swap2\n      pop\n      pop\n      jump\t// out\n        /* \"#utility.yul\":2251:2369   */\n    tag_75:\n        /* \"#utility.yul\":2338:2362   */\n      tag_77\n        /* \"#utility.yul\":2356:2361   */\n      dup2\n        /* \"#utility.yul\":2338:2362   */\n      tag_78\n      jump\t// in\n    tag_77:\n        /* \"#utility.yul\":2333:2336   */\n      dup3\n        /* \"#utility.yul\":2326:2363   */\n      mstore\n        /* \"#utility.yul\":2316:2369   */\n      pop\n      pop\n      jump\t// out\n        /* \"#utility.yul\":2375:3019   */\n    tag_8:\n      0x00\n        /* \"#utility.yul\":2610:2613   */\n      0x80\n        /* \"#utility.yul\":2599:2608   */\n      dup3\n        /* \"#utility.yul\":2595:2614   */\n      add\n        /* \"#utility.yul\":2587:2614   */\n      swap1\n      pop\n        /* \"#utility.yul\":2624:2695   */\n      tag_80\n        /* \"#utility.yul\":2692:2693   */\n      0x00\n        /* \"#utility.yul\":2681:2690   */\n      dup4\n        /* \"#utility.yul\":2677:2694   */\n      add\n        /* \"#utility.yul\":2668:2674   */\n      dup8\n        /* \"#utility.yul\":2624:2695   */\n      tag_75\n      jump\t// in\n    tag_80:\n        /* \"#utility.yul\":2742:2751   */\n      dup2\n        /* \"#utility.yul\":2736:2740   */\n      dup2\n        /* \"#utility.yul\":2732:2752   */\n      sub\n        /* \"#utility.yul\":2727:2729   */\n      0x20\n        /* \"#utility.yul\":2716:2725   */\n      dup4\n        /* \"#utility.yul\":2712:2730   */\n      add\n        /* \"#utility.yul\":2705:2753   */\n      mstore\n        /* \"#utility.yul\":2770:2848   */\n      tag_81\n        /* \"#utility.yul\":2843:2847   */\n      dup2\n        /* \"#utility.yul\":2834:2840   */\n      dup7\n        /* \"#utility.yul\":2770:2848   */\n      tag_65\n      jump\t// in\n    tag_81:\n        /* \"#utility.yul\":2762:2848   */\n      swap1\n      pop\n        /* \"#utility.yul\":2858:2930   */\n      tag_82\n        /* \"#utility.yul\":2926:2928   */\n      0x40\n        /* \"#utility.yul\":2915:2924   */\n      dup4\n        /* \"#utility.yul\":2911:2929   */\n      add\n        /* \"#utility.yul\":2902:2908   */\n      dup6\n        /* \"#utility.yul\":2858:2930   */\n      tag_75\n      jump\t// in\n    tag_82:\n        /* \"#utility.yul\":2940:3012   */\n      tag_83\n        /* \"#utility.yul\":3008:3010   */\n      0x60\n        /* \"#utility.yul\":2997:3006   */\n      dup4\n        /* \"#utility.yul\":2993:3011   */\n      add\n        /* \"#utility.yul\":2984:2990   */\n      dup5\n        /* \"#utility.yul\":2940:3012   */\n      tag_61\n      jump\t// in\n    tag_83:\n        /* \"#utility.yul\":2577:3019   */\n      swap6\n      swap5\n      pop\n      pop\n      pop\n      pop\n      pop\n      jump\t// out\n        /* \"#utility.yul\":3025:3308   */\n    tag_38:\n      0x00\n        /* \"#utility.yul\":3091:3093   */\n      0x40\n        /* \"#utility.yul\":3085:3094   */\n      mload\n        /* \"#utility.yul\":3075:3094   */\n      swap1\n      pop\n        /* \"#utility.yul\":3133:3137   */\n      dup2\n        /* \"#utility.yul\":3125:3131   */\n      dup2\n        /* \"#utility.yul\":3121:3138   */\n      add\n        /* \"#utility.yul\":3240:3246   */\n      dup2\n        /* \"#utility.yul\":3228:3238   */\n      dup2\n        /* \"#utility.yul\":3225:3247   */\n      lt\n        /* \"#utility.yul\":3204:3222   */\n      0xffffffffffffffff\n        /* \"#utility.yul\":3192:3202   */\n      dup3\n        /* \"#utility.yul\":3189:3223   */\n      gt\n        /* \"#utility.yul\":3186:3248   */\n      or\n        /* \"#utility.yul\":3183:3185   */\n      iszero\n      tag_85\n      jumpi\n        /* \"#utility.yul\":3251:3269   */\n      tag_86\n      tag_87\n      jump\t// in\n    tag_86:\n        /* \"#utility.yul\":3183:3185   */\n    tag_85:\n        /* \"#utility.yul\":3291:3301   */\n      dup1\n        /* \"#utility.yul\":3287:3289   */\n      0x40\n        /* \"#utility.yul\":3280:3302   */\n      mstore\n        /* \"#utility.yul\":3065:3308   */\n      pop\n      swap2\n      swap1\n      pop\n      jump\t// out\n        /* \"#utility.yul\":3314:3646   */\n    tag_37:\n      0x00\n        /* \"#utility.yul\":3466:3484   */\n      0xffffffffffffffff\n        /* \"#utility.yul\":3458:3464   */\n      dup3\n        /* \"#utility.yul\":3455:3485   */\n      gt\n        /* \"#utility.yul\":3452:3454   */\n      iszero\n      tag_89\n      jumpi\n        /* \"#utility.yul\":3488:3506   */\n      tag_90\n      tag_87\n      jump\t// in\n    tag_90:\n        /* \"#utility.yul\":3452:3454   */\n    tag_89:\n        /* \"#utility.yul\":3573:3577   */\n      0x1f\n        /* \"#utility.yul\":3569:3578   */\n      not\n        /* \"#utility.yul\":3562:3566   */\n      0x1f\n        /* \"#utility.yul\":3554:3560   */\n      dup4\n        /* \"#utility.yul\":3550:3567   */\n      add\n        /* \"#utility.yul\":3546:3579   */\n      and\n        /* \"#utility.yul\":3538:3579   */\n      swap1\n      pop\n        /* \"#utility.yul\":3634:3638   */\n      0x20\n        /* \"#utility.yul\":3628:3632   */\n      dup2\n        /* \"#utility.yul\":3624:3639   */\n      add\n        /* \"#utility.yul\":3616:3639   */\n      swap1\n      pop\n        /* \"#utility.yul\":3381:3646   */\n      swap2\n      swap1\n      pop\n      jump\t// out\n        /* \"#utility.yul\":3652:3751   */\n    tag_68:\n      0x00\n        /* \"#utility.yul\":3738:3743   */\n      dup2\n        /* \"#utility.yul\":3732:3744   */\n      mload\n        /* \"#utility.yul\":3722:3744   */\n      swap1\n      pop\n        /* \"#utility.yul\":3711:3751   */\n      swap2\n      swap1\n      pop\n      jump\t// out\n        /* \"#utility.yul\":3757:3926   */\n    tag_70:\n      0x00\n        /* \"#utility.yul\":3875:3881   */\n      dup3\n        /* \"#utility.yul\":3870:3873   */\n      dup3\n        /* \"#utility.yul\":3863:3882   */\n      mstore\n        /* \"#utility.yul\":3915:3919   */\n      0x20\n        /* \"#utility.yul\":3910:3913   */\n      dup3\n        /* \"#utility.yul\":3906:3920   */\n      add\n        /* \"#utility.yul\":3891:3920   */\n      swap1\n      pop\n        /* \"#utility.yul\":3853:3926   */\n      swap3\n      swap2\n      pop\n      pop\n      jump\t// out\n        /* \"#utility.yul\":3932:4028   */\n    tag_64:\n      0x00\n        /* \"#utility.yul\":3998:4022   */\n      tag_94\n        /* \"#utility.yul\":4016:4021   */\n      dup3\n        /* \"#utility.yul\":3998:4022   */\n      tag_95\n      jump\t// in\n    tag_94:\n        /* \"#utility.yul\":3987:4022   */\n      swap1\n      pop\n        /* \"#utility.yul\":3977:4028   */\n      swap2\n      swap1\n      pop\n      jump\t// out\n        /* \"#utility.yul\":4034:4160   */\n    tag_95:\n      0x00\n        /* \"#utility.yul\":4111:4153   */\n      0xffffffffffffffffffffffffffffffffffffffff\n        /* \"#utility.yul\":4104:4109   */\n      dup3\n        /* \"#utility.yul\":4100:4154   */\n      and\n        /* \"#utility.yul\":4089:4154   */\n      swap1\n      pop\n        /* \"#utility.yul\":4079:4160   */\n      swap2\n      swap1\n      pop\n      jump\t// out\n        /* \"#utility.yul\":4166:4243   */\n    tag_78:\n      0x00\n        /* \"#utility.yul\":4232:4237   */\n      dup2\n        /* \"#utility.yul\":4221:4237   */\n      swap1\n      pop\n        /* \"#utility.yul\":4211:4243   */\n      swap2\n      swap1\n      pop\n      jump\t// out\n        /* \"#utility.yul\":4249:4403   */\n    tag_41:\n        /* \"#utility.yul\":4333:4339   */\n      dup3\n        /* \"#utility.yul\":4328:4331   */\n      dup2\n        /* \"#utility.yul\":4323:4326   */\n      dup4\n        /* \"#utility.yul\":4310:4340   */\n      calldatacopy\n        /* \"#utility.yul\":4395:4396   */\n      0x00\n        /* \"#utility.yul\":4386:4392   */\n      dup4\n        /* \"#utility.yul\":4381:4384   */\n      dup4\n        /* \"#utility.yul\":4377:4393   */\n      add\n        /* \"#utility.yul\":4370:4397   */\n      mstore\n        /* \"#utility.yul\":4300:4403   */\n      pop\n      pop\n      pop\n      jump\t// out\n        /* \"#utility.yul\":4409:4716   */\n    tag_72:\n        /* \"#utility.yul\":4477:4478   */\n      0x00\n        /* \"#utility.yul\":4487:4600   */\n    tag_100:\n        /* \"#utility.yul\":4501:4507   */\n      dup4\n        /* \"#utility.yul\":4498:4499   */\n      dup2\n        /* \"#utility.yul\":4495:4508   */\n      lt\n        /* \"#utility.yul\":4487:4600   */\n      iszero\n      tag_102\n      jumpi\n        /* \"#utility.yul\":4586:4587   */\n      dup1\n        /* \"#utility.yul\":4581:4584   */\n      dup3\n        /* \"#utility.yul\":4577:4588   */\n      add\n        /* \"#utility.yul\":4571:4589   */\n      mload\n        /* \"#utility.yul\":4567:4568   */\n      dup2\n        /* \"#utility.yul\":4562:4565   */\n      dup5\n        /* \"#utility.yul\":4558:4569   */\n      add\n        /* \"#utility.yul\":4551:4590   */\n      mstore\n        /* \"#utility.yul\":4523:4525   */\n      0x20\n        /* \"#utility.yul\":4520:4521   */\n      dup2\n        /* \"#utility.yul\":4516:4526   */\n      add\n        /* \"#utility.yul\":4511:4526   */\n      swap1\n      pop\n        /* \"#utility.yul\":4487:4600   */\n      jump(tag_100)\n    tag_102:\n        /* \"#utility.yul\":4618:4624   */\n      dup4\n        /* \"#utility.yul\":4615:4616   */\n      dup2\n        /* \"#utility.yul\":4612:4625   */\n      gt\n        /* \"#utility.yul\":4609:4611   */\n      iszero\n      tag_103\n      jumpi\n        /* \"#utility.yul\":4698:4699   */\n      0x00\n        /* \"#utility.yul\":4689:4695   */\n      dup5\n        /* \"#utility.yul\":4684:4687   */\n      dup5\n        /* \"#utility.yul\":4680:4696   */\n      add\n        /* \"#utility.yul\":4673:4700   */\n      mstore\n        /* \"#utility.yul\":4609:4611   */\n    tag_103:\n        /* \"#utility.yul\":4458:4716   */\n      pop\n      pop\n      pop\n      pop\n      jump\t// out\n        /* \"#utility.yul\":4722:5042   */\n    tag_14:\n      0x00\n        /* \"#utility.yul\":4803:4804   */\n      0x02\n        /* \"#utility.yul\":4797:4801   */\n      dup3\n        /* \"#utility.yul\":4793:4805   */\n      div\n        /* \"#utility.yul\":4783:4805   */\n      swap1\n      pop\n        /* \"#utility.yul\":4850:4851   */\n      0x01\n        /* \"#utility.yul\":4844:4848   */\n      dup3\n        /* \"#utility.yul\":4840:4852   */\n      and\n        /* \"#utility.yul\":4871:4889   */\n      dup1\n        /* \"#utility.yul\":4861:4863   */\n      tag_105\n      jumpi\n        /* \"#utility.yul\":4927:4931   */\n      0x7f\n        /* \"#utility.yul\":4919:4925   */\n      dup3\n        /* \"#utility.yul\":4915:4932   */\n      and\n        /* \"#utility.yul\":4905:4932   */\n      swap2\n      pop\n        /* \"#utility.yul\":4861:4863   */\n    tag_105:\n        /* \"#utility.yul\":4989:4991   */\n      0x20\n        /* \"#utility.yul\":4981:4987   */\n      dup3\n        /* \"#utility.yul\":4978:4992   */\n      lt\n        /* \"#utility.yul\":4958:4976   */\n      dup2\n        /* \"#utility.yul\":4955:4993   */\n      eq\n        /* \"#utility.yul\":4952:4954   */\n      iszero\n      tag_106\n      jumpi\n        /* \"#utility.yul\":5008:5026   */\n      tag_107\n      tag_108\n      jump\t// in\n    tag_107:\n        /* \"#utility.yul\":4952:4954   */\n    tag_106:\n        /* \"#utility.yul\":4773:5042   */\n      pop\n      swap2\n      swap1\n      pop\n      jump\t// out\n        /* \"#utility.yul\":5048:5228   */\n    tag_108:\n        /* \"#utility.yul\":5096:5173   */\n      0x4e487b7100000000000000000000000000000000000000000000000000000000\n        /* \"#utility.yul\":5093:5094   */\n      0x00\n        /* \"#utility.yul\":5086:5174   */\n      mstore\n        /* \"#utility.yul\":5193:5197   */\n      0x22\n        /* \"#utility.yul\":5190:5191   */\n      0x04\n        /* \"#utility.yul\":5183:5198   */\n      mstore\n        /* \"#utility.yul\":5217:5221   */\n      0x24\n        /* \"#utility.yul\":5214:5215   */\n      0x00\n        /* \"#utility.yul\":5207:5222   */\n      revert\n        /* \"#utility.yul\":5234:5414   */\n    tag_87:\n        /* \"#utility.yul\":5282:5359   */\n      0x4e487b7100000000000000000000000000000000000000000000000000000000\n        /* \"#utility.yul\":5279:5280   */\n      0x00\n        /* \"#utility.yul\":5272:5360   */\n      mstore\n        /* \"#utility.yul\":5379:5383   */\n      0x41\n        /* \"#utility.yul\":5376:5377   */\n      0x04\n        /* \"#utility.yul\":5369:5384   */\n      mstore\n        /* \"#utility.yul\":5403:5407   */\n      0x24\n        /* \"#utility.yul\":5400:5401   */\n      0x00\n        /* \"#utility.yul\":5393:5408   */\n      revert\n        /* \"#utility.yul\":5420:5522   */\n    tag_74:\n      0x00\n        /* \"#utility.yul\":5512:5514   */\n      0x1f\n        /* \"#utility.yul\":5508:5515   */\n      not\n        /* \"#utility.yul\":5503:5505   */\n      0x1f\n        /* \"#utility.yul\":5496:5501   */\n      dup4\n        /* \"#utility.yul\":5492:5506   */\n      add\n        /* \"#utility.yul\":5488:5516   */\n      and\n        /* \"#utility.yul\":5478:5516   */\n      swap1\n      pop\n        /* \"#utility.yul\":5468:5522   */\n      swap2\n      swap1\n      pop\n      jump\t// out\n        /* \"#utility.yul\":5528:5650   */\n    tag_45:\n        /* \"#utility.yul\":5601:5625   */\n      tag_113\n        /* \"#utility.yul\":5619:5624   */\n      dup2\n        /* \"#utility.yul\":5601:5625   */\n      tag_64\n      jump\t// in\n    tag_113:\n        /* \"#utility.yul\":5594:5599   */\n      dup2\n        /* \"#utility.yul\":5591:5626   */\n      eq\n        /* \"#utility.yul\":5581:5583   */\n      tag_114\n      jumpi\n        /* \"#utility.yul\":5640:5641   */\n      0x00\n        /* \"#utility.yul\":5637:5638   */\n      dup1\n        /* \"#utility.yul\":5630:5642   */\n      revert\n        /* \"#utility.yul\":5581:5583   */\n    tag_114:\n        /* \"#utility.yul\":5571:5650   */\n      pop\n      jump\t// out\n        /* \"#utility.yul\":5656:5778   */\n    tag_53:\n        /* \"#utility.yul\":5729:5753   */\n      tag_116\n        /* \"#utility.yul\":5747:5752   */\n      dup2\n        /* \"#utility.yul\":5729:5753   */\n      tag_78\n      jump\t// in\n    tag_116:\n        /* \"#utility.yul\":5722:5727   */\n      dup2\n        /* \"#utility.yul\":5719:5754   */\n      eq\n        /* \"#utility.yul\":5709:5711   */\n      tag_117\n      jumpi\n        /* \"#utility.yul\":5768:5769   */\n      0x00\n        /* \"#utility.yul\":5765:5766   */\n      dup1\n        /* \"#utility.yul\":5758:5770   */\n      revert\n        /* \"#utility.yul\":5709:5711   */\n    tag_117:\n        /* \"#utility.yul\":5699:5778   */\n      pop\n      jump\t// out\n\n    auxdata: 0xa26469706673582212205e9c34e653300abbce5c39e0a4d00a8f99d2358d58c2fbae5e6c23f26c3b06ea64736f6c63430008000033\n}\n",
				"bytecode": {
					"linkReferences": {},
					"object": "60806040523480156200001157600080fd5b5060405162000a1038038062000a108339818101604052810190620000379190620001ec565b82600080018190555081600060010190805190602001906200005b929190620000b3565b508060006002018190555033600060030160006101000a81548173ffffffffffffffffffffffffffffffffffffffff021916908373ffffffffffffffffffffffffffffffffffffffff160217905550505050620003b0565b828054620000c19062000302565b90600052602060002090601f016020900481019282620000e5576000855562000131565b82601f106200010057805160ff191683800117855562000131565b8280016001018555821562000131579182015b828111156200013057825182559160200191906001019062000113565b5b50905062000140919062000144565b5090565b5b808211156200015f57600081600090555060010162000145565b5090565b60006200017a62000174846200028f565b6200025b565b9050828152602081018484840111156200019357600080fd5b620001a0848285620002cc565b509392505050565b600082601f830112620001ba57600080fd5b8151620001cc84826020860162000163565b91505092915050565b600081519050620001e68162000396565b92915050565b6000806000606084860312156200020257600080fd5b60006200021286828701620001d5565b935050602084015167ffffffffffffffff8111156200023057600080fd5b6200023e86828701620001a8565b92505060406200025186828701620001d5565b9150509250925092565b6000604051905081810181811067ffffffffffffffff8211171562000285576200028462000367565b5b8060405250919050565b600067ffffffffffffffff821115620002ad57620002ac62000367565b5b601f19601f8301169050602081019050919050565b6000819050919050565b60005b83811015620002ec578082015181840152602081019050620002cf565b83811115620002fc576000848401525b50505050565b600060028204905060018216806200031b57607f821691505b6020821081141562000332576200033162000338565b5b50919050565b7f4e487b7100000000000000000000000000000000000000000000000000000000600052602260045260246000fd5b7f4e487b7100000000000000000000000000000000000000000000000000000000600052604160045260246000fd5b620003a181620002c2565b8114620003ad57600080fd5b50565b61065080620003c06000396000f3fe608060405234801561001057600080fd5b50600436106100365760003560e01c806378e667b41461003b578063ee950a031461005c575b600080fd5b610043610078565b6040516100539493929190610404565b60405180910390f35b61007660048036038101906100719190610332565b61013e565b005b600080600001549080600101805461008f9061054b565b80601f01602080910402602001604051908101604052809291908181526020018280546100bb9061054b565b80156101085780601f106100dd57610100808354040283529160200191610108565b820191906000526020600020905b8154815290600101906020018083116100eb57829003601f168201915b5050505050908060020154908060030160009054906101000a900473ffffffffffffffffffffffffffffffffffffffff16905084565b600060405180608001604052808681526020018581526020018481526020018373ffffffffffffffffffffffffffffffffffffffff16815250905080600080820151816000015560208201518160010190805190602001906101a19291906101fd565b506040820151816002015560608201518160030160006101000a81548173ffffffffffffffffffffffffffffffffffffffff021916908373ffffffffffffffffffffffffffffffffffffffff1602179055509050505050505050565b8280546102099061054b565b90600052602060002090601f01602090048101928261022b5760008555610272565b82601f1061024457805160ff1916838001178555610272565b82800160010185558215610272579182015b82811115610271578251825591602001919060010190610256565b5b50905061027f9190610283565b5090565b5b8082111561029c576000816000905550600101610284565b5090565b60006102b36102ae84610481565b610450565b9050828152602081018484840111156102cb57600080fd5b6102d6848285610509565b509392505050565b6000813590506102ed816105ec565b92915050565b600082601f83011261030457600080fd5b81356103148482602086016102a0565b91505092915050565b60008135905061032c81610603565b92915050565b6000806000806080858703121561034857600080fd5b60006103568782880161031d565b945050602085013567ffffffffffffffff81111561037357600080fd5b61037f878288016102f3565b93505060406103908782880161031d565b92505060606103a1878288016102de565b91505092959194509250565b6103b6816104cd565b82525050565b60006103c7826104b1565b6103d181856104bc565b93506103e1818560208601610518565b6103ea816105db565b840191505092915050565b6103fe816104ff565b82525050565b600060808201905061041960008301876103f5565b818103602083015261042b81866103bc565b905061043a60408301856103f5565b61044760608301846103ad565b95945050505050565b6000604051905081810181811067ffffffffffffffff82111715610477576104766105ac565b5b8060405250919050565b600067ffffffffffffffff82111561049c5761049b6105ac565b5b601f19601f8301169050602081019050919050565b600081519050919050565b600082825260208201905092915050565b60006104d8826104df565b9050919050565b600073ffffffffffffffffffffffffffffffffffffffff82169050919050565b6000819050919050565b82818337600083830152505050565b60005b8381101561053657808201518184015260208101905061051b565b83811115610545576000848401525b50505050565b6000600282049050600182168061056357607f821691505b602082108114156105775761057661057d565b5b50919050565b7f4e487b7100000000000000000000000000000000000000000000000000000000600052602260045260246000fd5b7f4e487b7100000000000000000000000000000000000000000000000000000000600052604160045260246000fd5b6000601f19601f8301169050919050565b6105f5816104cd565b811461060057600080fd5b50565b61060c816104ff565b811461061757600080fd5b5056fea26469706673582212205e9c34e653300abbce5c39e0a4d00a8f99d2358d58c2fbae5e6c23f26c3b06ea64736f6c63430008000033",
					"opcodes": "PUSH1 0x80 PUSH1 0x40 MSTORE CALLVALUE DUP1 ISZERO PUSH3 0x11 JUMPI PUSH1 0x0 DUP1 REVERT JUMPDEST POP PUSH1 0x40 MLOAD PUSH3 0xA10 CODESIZE SUB DUP1 PUSH3 0xA10 DUP4 CODECOPY DUP2 DUP2 ADD PUSH1 0x40 MSTORE DUP2 ADD SWAP1 PUSH3 0x37 SWAP2 SWAP1 PUSH3 0x1EC JUMP JUMPDEST DUP3 PUSH1 0x0 DUP1 ADD DUP2 SWAP1 SSTORE POP DUP2 PUSH1 0x0 PUSH1 0x1 ADD SWAP1 DUP1 MLOAD SWAP1 PUSH1 0x20 ADD SWAP1 PUSH3 0x5B SWAP3 SWAP2 SWAP1 PUSH3 0xB3 JUMP JUMPDEST POP DUP1 PUSH1 0x0 PUSH1 0x2 ADD DUP2 SWAP1 SSTORE POP CALLER PUSH1 0x0 PUSH1 0x3 ADD PUSH1 0x0 PUSH2 0x100 EXP DUP2 SLOAD DUP2 PUSH20 0xFFFFFFFFFFFFFFFFFFFFFFFFFFFFFFFFFFFFFFFF MUL NOT AND SWAP1 DUP4 PUSH20 0xFFFFFFFFFFFFFFFFFFFFFFFFFFFFFFFFFFFFFFFF AND MUL OR SWAP1 SSTORE POP POP POP POP PUSH3 0x3B0 JUMP JUMPDEST DUP3 DUP1 SLOAD PUSH3 0xC1 SWAP1 PUSH3 0x302 JUMP JUMPDEST SWAP1 PUSH1 0x0 MSTORE PUSH1 0x20 PUSH1 0x0 KECCAK256 SWAP1 PUSH1 0x1F ADD PUSH1 0x20 SWAP1 DIV DUP2 ADD SWAP3 DUP3 PUSH3 0xE5 JUMPI PUSH1 0x0 DUP6 SSTORE PUSH3 0x131 JUMP JUMPDEST DUP3 PUSH1 0x1F LT PUSH3 0x100 JUMPI DUP1 MLOAD PUSH1 0xFF NOT AND DUP4 DUP1 ADD OR DUP6 SSTORE PUSH3 0x131 JUMP JUMPDEST DUP3 DUP1 ADD PUSH1 0x1 ADD DUP6 SSTORE DUP3 ISZERO PUSH3 0x131 JUMPI SWAP2 DUP3 ADD JUMPDEST DUP3 DUP2 GT ISZERO PUSH3 0x130 JUMPI DUP3 MLOAD DUP3 SSTORE SWAP2 PUSH1 0x20 ADD SWAP2 SWAP1 PUSH1 0x1 ADD SWAP1 PUSH3 0x113 JUMP JUMPDEST JUMPDEST POP SWAP1 POP PUSH3 0x140 SWAP2 SWAP1 PUSH3 0x144 JUMP JUMPDEST POP SWAP1 JUMP JUMPDEST JUMPDEST DUP1 DUP3 GT ISZERO PUSH3 0x15F JUMPI PUSH1 0x0 DUP2 PUSH1 0x0 SWAP1 SSTORE POP PUSH1 0x1 ADD PUSH3 0x145 JUMP JUMPDEST POP SWAP1 JUMP JUMPDEST PUSH1 0x0 PUSH3 0x17A PUSH3 0x174 DUP5 PUSH3 0x28F JUMP JUMPDEST PUSH3 0x25B JUMP JUMPDEST SWAP1 POP DUP3 DUP2 MSTORE PUSH1 0x20 DUP2 ADD DUP5 DUP5 DUP5 ADD GT ISZERO PUSH3 0x193 JUMPI PUSH1 0x0 DUP1 REVERT JUMPDEST PUSH3 0x1A0 DUP5 DUP3 DUP6 PUSH3 0x2CC JUMP JUMPDEST POP SWAP4 SWAP3 POP POP POP JUMP JUMPDEST PUSH1 0x0 DUP3 PUSH1 0x1F DUP4 ADD SLT PUSH3 0x1BA JUMPI PUSH1 0x0 DUP1 REVERT JUMPDEST DUP2 MLOAD PUSH3 0x1CC DUP5 DUP3 PUSH1 0x20 DUP7 ADD PUSH3 0x163 JUMP JUMPDEST SWAP2 POP POP SWAP3 SWAP2 POP POP JUMP JUMPDEST PUSH1 0x0 DUP2 MLOAD SWAP1 POP PUSH3 0x1E6 DUP2 PUSH3 0x396 JUMP JUMPDEST SWAP3 SWAP2 POP POP JUMP JUMPDEST PUSH1 0x0 DUP1 PUSH1 0x0 PUSH1 0x60 DUP5 DUP7 SUB SLT ISZERO PUSH3 0x202 JUMPI PUSH1 0x0 DUP1 REVERT JUMPDEST PUSH1 0x0 PUSH3 0x212 DUP7 DUP3 DUP8 ADD PUSH3 0x1D5 JUMP JUMPDEST SWAP4 POP POP PUSH1 0x20 DUP5 ADD MLOAD PUSH8 0xFFFFFFFFFFFFFFFF DUP2 GT ISZERO PUSH3 0x230 JUMPI PUSH1 0x0 DUP1 REVERT JUMPDEST PUSH3 0x23E DUP7 DUP3 DUP8 ADD PUSH3 0x1A8 JUMP JUMPDEST SWAP3 POP POP PUSH1 0x40 PUSH3 0x251 DUP7 DUP3 DUP8 ADD PUSH3 0x1D5 JUMP JUMPDEST SWAP2 POP POP SWAP3 POP SWAP3 POP SWAP3 JUMP JUMPDEST PUSH1 0x0 PUSH1 0x40 MLOAD SWAP1 POP DUP2 DUP2 ADD DUP2 DUP2 LT PUSH8 0xFFFFFFFFFFFFFFFF DUP3 GT OR ISZERO PUSH3 0x285 JUMPI PUSH3 0x284 PUSH3 0x367 JUMP JUMPDEST JUMPDEST DUP1 PUSH1 0x40 MSTORE POP SWAP2 SWAP1 POP JUMP JUMPDEST PUSH1 0x0 PUSH8 0xFFFFFFFFFFFFFFFF DUP3 GT ISZERO PUSH3 0x2AD JUMPI PUSH3 0x2AC PUSH3 0x367 JUMP JUMPDEST JUMPDEST PUSH1 0x1F NOT PUSH1 0x1F DUP4 ADD AND SWAP1 POP PUSH1 0x20 DUP2 ADD SWAP1 POP SWAP2 SWAP1 POP JUMP JUMPDEST PUSH1 0x0 DUP2 SWAP1 POP SWAP2 SWAP1 POP JUMP JUMPDEST PUSH1 0x0 JUMPDEST DUP4 DUP2 LT ISZERO PUSH3 0x2EC JUMPI DUP1 DUP3 ADD MLOAD DUP2 DUP5 ADD MSTORE PUSH1 0x20 DUP2 ADD SWAP1 POP PUSH3 0x2CF JUMP JUMPDEST DUP4 DUP2 GT ISZERO PUSH3 0x2FC JUMPI PUSH1 0x0 DUP5 DUP5 ADD MSTORE JUMPDEST POP POP POP POP JUMP JUMPDEST PUSH1 0x0 PUSH1 0x2 DUP3 DIV SWAP1 POP PUSH1 0x1 DUP3 AND DUP1 PUSH3 0x31B JUMPI PUSH1 0x7F DUP3 AND SWAP2 POP JUMPDEST PUSH1 0x20 DUP3 LT DUP2 EQ ISZERO PUSH3 0x332 JUMPI PUSH3 0x331 PUSH3 0x338 JUMP JUMPDEST JUMPDEST POP SWAP2 SWAP1 POP JUMP JUMPDEST PUSH32 0x4E487B7100000000000000000000000000000000000000000000000000000000 PUSH1 0x0 MSTORE PUSH1 0x22 PUSH1 0x4 MSTORE PUSH1 0x24 PUSH1 0x0 REVERT JUMPDEST PUSH32 0x4E487B7100000000000000000000000000000000000000000000000000000000 PUSH1 0x0 MSTORE PUSH1 0x41 PUSH1 0x4 MSTORE PUSH1 0x24 PUSH1 0x0 REVERT JUMPDEST PUSH3 0x3A1 DUP2 PUSH3 0x2C2 JUMP JUMPDEST DUP2 EQ PUSH3 0x3AD JUMPI PUSH1 0x0 DUP1 REVERT JUMPDEST POP JUMP JUMPDEST PUSH2 0x650 DUP1 PUSH3 0x3C0 PUSH1 0x0 CODECOPY PUSH1 0x0 RETURN INVALID PUSH1 0x80 PUSH1 0x40 MSTORE CALLVALUE DUP1 ISZERO PUSH2 0x10 JUMPI PUSH1 0x0 DUP1 REVERT JUMPDEST POP PUSH1 0x4 CALLDATASIZE LT PUSH2 0x36 JUMPI PUSH1 0x0 CALLDATALOAD PUSH1 0xE0 SHR DUP1 PUSH4 0x78E667B4 EQ PUSH2 0x3B JUMPI DUP1 PUSH4 0xEE950A03 EQ PUSH2 0x5C JUMPI JUMPDEST PUSH1 0x0 DUP1 REVERT JUMPDEST PUSH2 0x43 PUSH2 0x78 JUMP JUMPDEST PUSH1 0x40 MLOAD PUSH2 0x53 SWAP5 SWAP4 SWAP3 SWAP2 SWAP1 PUSH2 0x404 JUMP JUMPDEST PUSH1 0x40 MLOAD DUP1 SWAP2 SUB SWAP1 RETURN JUMPDEST PUSH2 0x76 PUSH1 0x4 DUP1 CALLDATASIZE SUB DUP2 ADD SWAP1 PUSH2 0x71 SWAP2 SWAP1 PUSH2 0x332 JUMP JUMPDEST PUSH2 0x13E JUMP JUMPDEST STOP JUMPDEST PUSH1 0x0 DUP1 PUSH1 0x0 ADD SLOAD SWAP1 DUP1 PUSH1 0x1 ADD DUP1 SLOAD PUSH2 0x8F SWAP1 PUSH2 0x54B JUMP JUMPDEST DUP1 PUSH1 0x1F ADD PUSH1 0x20 DUP1 SWAP2 DIV MUL PUSH1 0x20 ADD PUSH1 0x40 MLOAD SWAP1 DUP2 ADD PUSH1 0x40 MSTORE DUP1 SWAP3 SWAP2 SWAP1 DUP2 DUP2 MSTORE PUSH1 0x20 ADD DUP3 DUP1 SLOAD PUSH2 0xBB SWAP1 PUSH2 0x54B JUMP JUMPDEST DUP1 ISZERO PUSH2 0x108 JUMPI DUP1 PUSH1 0x1F LT PUSH2 0xDD JUMPI PUSH2 0x100 DUP1 DUP4 SLOAD DIV MUL DUP4 MSTORE SWAP2 PUSH1 0x20 ADD SWAP2 PUSH2 0x108 JUMP JUMPDEST DUP3 ADD SWAP2 SWAP1 PUSH1 0x0 MSTORE PUSH1 0x20 PUSH1 0x0 KECCAK256 SWAP1 JUMPDEST DUP2 SLOAD DUP2 MSTORE SWAP1 PUSH1 0x1 ADD SWAP1 PUSH1 0x20 ADD DUP1 DUP4 GT PUSH2 0xEB JUMPI DUP3 SWAP1 SUB PUSH1 0x1F AND DUP3 ADD SWAP2 JUMPDEST POP POP POP POP POP SWAP1 DUP1 PUSH1 0x2 ADD SLOAD SWAP1 DUP1 PUSH1 0x3 ADD PUSH1 0x0 SWAP1 SLOAD SWAP1 PUSH2 0x100 EXP SWAP1 DIV PUSH20 0xFFFFFFFFFFFFFFFFFFFFFFFFFFFFFFFFFFFFFFFF AND SWAP1 POP DUP5 JUMP JUMPDEST PUSH1 0x0 PUSH1 0x40 MLOAD DUP1 PUSH1 0x80 ADD PUSH1 0x40 MSTORE DUP1 DUP7 DUP2 MSTORE PUSH1 0x20 ADD DUP6 DUP2 MSTORE PUSH1 0x20 ADD DUP5 DUP2 MSTORE PUSH1 0x20 ADD DUP4 PUSH20 0xFFFFFFFFFFFFFFFFFFFFFFFFFFFFFFFFFFFFFFFF AND DUP2 MSTORE POP SWAP1 POP DUP1 PUSH1 0x0 DUP1 DUP3 ADD MLOAD DUP2 PUSH1 0x0 ADD SSTORE PUSH1 0x20 DUP3 ADD MLOAD DUP2 PUSH1 0x1 ADD SWAP1 DUP1 MLOAD SWAP1 PUSH1 0x20 ADD SWAP1 PUSH2 0x1A1 SWAP3 SWAP2 SWAP1 PUSH2 0x1FD JUMP JUMPDEST POP PUSH1 0x40 DUP3 ADD MLOAD DUP2 PUSH1 0x2 ADD SSTORE PUSH1 0x60 DUP3 ADD MLOAD DUP2 PUSH1 0x3 ADD PUSH1 0x0 PUSH2 0x100 EXP DUP2 SLOAD DUP2 PUSH20 0xFFFFFFFFFFFFFFFFFFFFFFFFFFFFFFFFFFFFFFFF MUL NOT AND SWAP1 DUP4 PUSH20 0xFFFFFFFFFFFFFFFFFFFFFFFFFFFFFFFFFFFFFFFF AND MUL OR SWAP1 SSTORE POP SWAP1 POP POP POP POP POP POP POP JUMP JUMPDEST DUP3 DUP1 SLOAD PUSH2 0x209 SWAP1 PUSH2 0x54B JUMP JUMPDEST SWAP1 PUSH1 0x0 MSTORE PUSH1 0x20 PUSH1 0x0 KECCAK256 SWAP1 PUSH1 0x1F ADD PUSH1 0x20 SWAP1 DIV DUP2 ADD SWAP3 DUP3 PUSH2 0x22B JUMPI PUSH1 0x0 DUP6 SSTORE PUSH2 0x272 JUMP JUMPDEST DUP3 PUSH1 0x1F LT PUSH2 0x244 JUMPI DUP1 MLOAD PUSH1 0xFF NOT AND DUP4 DUP1 ADD OR DUP6 SSTORE PUSH2 0x272 JUMP JUMPDEST DUP3 DUP1 ADD PUSH1 0x1 ADD DUP6 SSTORE DUP3 ISZERO PUSH2 0x272 JUMPI SWAP2 DUP3 ADD JUMPDEST DUP3 DUP2 GT ISZERO PUSH2 0x271 JUMPI DUP3 MLOAD DUP3 SSTORE SWAP2 PUSH1 0x20 ADD SWAP2 SWAP1 PUSH1 0x1 ADD SWAP1 PUSH2 0x256 JUMP JUMPDEST JUMPDEST POP SWAP1 POP PUSH2 0x27F SWAP2 SWAP1 PUSH2 0x283 JUMP JUMPDEST POP SWAP1 JUMP JUMPDEST JUMPDEST DUP1 DUP3 GT ISZERO PUSH2 0x29C JUMPI PUSH1 0x0 DUP2 PUSH1 0x0 SWAP1 SSTORE POP PUSH1 0x1 ADD PUSH2 0x284 JUMP JUMPDEST POP SWAP1 JUMP JUMPDEST PUSH1 0x0 PUSH2 0x2B3 PUSH2 0x2AE DUP5 PUSH2 0x481 JUMP JUMPDEST PUSH2 0x450 JUMP JUMPDEST SWAP1 POP DUP3 DUP2 MSTORE PUSH1 0x20 DUP2 ADD DUP5 DUP5 DUP5 ADD GT ISZERO PUSH2 0x2CB JUMPI PUSH1 0x0 DUP1 REVERT JUMPDEST PUSH2 0x2D6 DUP5 DUP3 DUP6 PUSH2 0x509 JUMP JUMPDEST POP SWAP4 SWAP3 POP POP POP JUMP JUMPDEST PUSH1 0x0 DUP2 CALLDATALOAD SWAP1 POP PUSH2 0x2ED DUP2 PUSH2 0x5EC JUMP JUMPDEST SWAP3 SWAP2 POP POP JUMP JUMPDEST PUSH1 0x0 DUP3 PUSH1 0x1F DUP4 ADD SLT PUSH2 0x304 JUMPI PUSH1 0x0 DUP1 REVERT JUMPDEST DUP2 CALLDATALOAD PUSH2 0x314 DUP5 DUP3 PUSH1 0x20 DUP7 ADD PUSH2 0x2A0 JUMP JUMPDEST SWAP2 POP POP SWAP3 SWAP2 POP POP JUMP JUMPDEST PUSH1 0x0 DUP2 CALLDATALOAD SWAP1 POP PUSH2 0x32C DUP2 PUSH2 0x603 JUMP JUMPDEST SWAP3 SWAP2 POP POP JUMP JUMPDEST PUSH1 0x0 DUP1 PUSH1 0x0 DUP1 PUSH1 0x80 DUP6 DUP8 SUB SLT ISZERO PUSH2 0x348 JUMPI PUSH1 0x0 DUP1 REVERT JUMPDEST PUSH1 0x0 PUSH2 0x356 DUP8 DUP3 DUP9 ADD PUSH2 0x31D JUMP JUMPDEST SWAP5 POP POP PUSH1 0x20 DUP6 ADD CALLDATALOAD PUSH8 0xFFFFFFFFFFFFFFFF DUP2 GT ISZERO PUSH2 0x373 JUMPI PUSH1 0x0 DUP1 REVERT JUMPDEST PUSH2 0x37F DUP8 DUP3 DUP9 ADD PUSH2 0x2F3 JUMP JUMPDEST SWAP4 POP POP PUSH1 0x40 PUSH2 0x390 DUP8 DUP3 DUP9 ADD PUSH2 0x31D JUMP JUMPDEST SWAP3 POP POP PUSH1 0x60 PUSH2 0x3A1 DUP8 DUP3 DUP9 ADD PUSH2 0x2DE JUMP JUMPDEST SWAP2 POP POP SWAP3 SWAP6 SWAP2 SWAP5 POP SWAP3 POP JUMP JUMPDEST PUSH2 0x3B6 DUP2 PUSH2 0x4CD JUMP JUMPDEST DUP3 MSTORE POP POP JUMP JUMPDEST PUSH1 0x0 PUSH2 0x3C7 DUP3 PUSH2 0x4B1 JUMP JUMPDEST PUSH2 0x3D1 DUP2 DUP6 PUSH2 0x4BC JUMP JUMPDEST SWAP4 POP PUSH2 0x3E1 DUP2 DUP6 PUSH1 0x20 DUP7 ADD PUSH2 0x518 JUMP JUMPDEST PUSH2 0x3EA DUP2 PUSH2 0x5DB JUMP JUMPDEST DUP5 ADD SWAP2 POP POP SWAP3 SWAP2 POP POP JUMP JUMPDEST PUSH2 0x3FE DUP2 PUSH2 0x4FF JUMP JUMPDEST DUP3 MSTORE POP POP JUMP JUMPDEST PUSH1 0x0 PUSH1 0x80 DUP3 ADD SWAP1 POP PUSH2 0x419 PUSH1 0x0 DUP4 ADD DUP8 PUSH2 0x3F5 JUMP JUMPDEST DUP2 DUP2 SUB PUSH1 0x20 DUP4 ADD MSTORE PUSH2 0x42B DUP2 DUP7 PUSH2 0x3BC JUMP JUMPDEST SWAP1 POP PUSH2 0x43A PUSH1 0x40 DUP4 ADD DUP6 PUSH2 0x3F5 JUMP JUMPDEST PUSH2 0x447 PUSH1 0x60 DUP4 ADD DUP5 PUSH2 0x3AD JUMP JUMPDEST SWAP6 SWAP5 POP POP POP POP POP JUMP JUMPDEST PUSH1 0x0 PUSH1 0x40 MLOAD SWAP1 POP DUP2 DUP2 ADD DUP2 DUP2 LT PUSH8 0xFFFFFFFFFFFFFFFF DUP3 GT OR ISZERO PUSH2 0x477 JUMPI PUSH2 0x476 PUSH2 0x5AC JUMP JUMPDEST JUMPDEST DUP1 PUSH1 0x40 MSTORE POP SWAP2 SWAP1 POP JUMP JUMPDEST PUSH1 0x0 PUSH8 0xFFFFFFFFFFFFFFFF DUP3 GT ISZERO PUSH2 0x49C JUMPI PUSH2 0x49B PUSH2 0x5AC JUMP JUMPDEST JUMPDEST PUSH1 0x1F NOT PUSH1 0x1F DUP4 ADD AND SWAP1 POP PUSH1 0x20 DUP2 ADD SWAP1 POP SWAP2 SWAP1 POP JUMP JUMPDEST PUSH1 0x0 DUP2 MLOAD SWAP1 POP SWAP2 SWAP1 POP JUMP JUMPDEST PUSH1 0x0 DUP3 DUP3 MSTORE PUSH1 0x20 DUP3 ADD SWAP1 POP SWAP3 SWAP2 POP POP JUMP JUMPDEST PUSH1 0x0 PUSH2 0x4D8 DUP3 PUSH2 0x4DF JUMP JUMPDEST SWAP1 POP SWAP2 SWAP1 POP JUMP JUMPDEST PUSH1 0x0 PUSH20 0xFFFFFFFFFFFFFFFFFFFFFFFFFFFFFFFFFFFFFFFF DUP3 AND SWAP1 POP SWAP2 SWAP1 POP JUMP JUMPDEST PUSH1 0x0 DUP2 SWAP1 POP SWAP2 SWAP1 POP JUMP JUMPDEST DUP3 DUP2 DUP4 CALLDATACOPY PUSH1 0x0 DUP4 DUP4 ADD MSTORE POP POP POP JUMP JUMPDEST PUSH1 0x0 JUMPDEST DUP4 DUP2 LT ISZERO PUSH2 0x536 JUMPI DUP1 DUP3 ADD MLOAD DUP2 DUP5 ADD MSTORE PUSH1 0x20 DUP2 ADD SWAP1 POP PUSH2 0x51B JUMP JUMPDEST DUP4 DUP2 GT ISZERO PUSH2 0x545 JUMPI PUSH1 0x0 DUP5 DUP5 ADD MSTORE JUMPDEST POP POP POP POP JUMP JUMPDEST PUSH1 0x0 PUSH1 0x2 DUP3 DIV SWAP1 POP PUSH1 0x1 DUP3 AND DUP1 PUSH2 0x563 JUMPI PUSH1 0x7F DUP3 AND SWAP2 POP JUMPDEST PUSH1 0x20 DUP3 LT DUP2 EQ ISZERO PUSH2 0x577 JUMPI PUSH2 0x576 PUSH2 0x57D JUMP JUMPDEST JUMPDEST POP SWAP2 SWAP1 POP JUMP JUMPDEST PUSH32 0x4E487B7100000000000000000000000000000000000000000000000000000000 PUSH1 0x0 MSTORE PUSH1 0x22 PUSH1 0x4 MSTORE PUSH1 0x24 PUSH1 0x0 REVERT JUMPDEST PUSH32 0x4E487B7100000000000000000000000000000000000000000000000000000000 PUSH1 0x0 MSTORE PUSH1 0x41 PUSH1 0x4 MSTORE PUSH1 0x24 PUSH1 0x0 REVERT JUMPDEST PUSH1 0x0 PUSH1 0x1F NOT PUSH1 0x1F DUP4 ADD AND SWAP1 POP SWAP2 SWAP1 POP JUMP JUMPDEST PUSH2 0x5F5 DUP2 PUSH2 0x4CD JUMP JUMPDEST DUP2 EQ PUSH2 0x600 JUMPI PUSH1 0x0 DUP1 REVERT JUMPDEST POP JUMP JUMPDEST PUSH2 0x60C DUP2 PUSH2 0x4FF JUMP JUMPDEST DUP2 EQ PUSH2 0x617 JUMPI PUSH1 0x0 DUP1 REVERT JUMPDEST POP JUMP INVALID LOG2 PUSH5 0x6970667358 0x22 SLT KECCAK256 0x5E SWAP13 CALLVALUE 0xE6 MSTORE8 ADDRESS EXP 0xBB 0xCE 0x5C CODECOPY 0xE0 LOG4 0xD0 EXP DUP16 SWAP10 0xD2 CALLDATALOAD DUP14 PC 0xC2 0xFB 0xAE 0x5E PUSH13 0x23F26C3B06EA64736F6C634300 ADDMOD STOP STOP CALLER "
				},
				"gasEstimates": {
					"creation": {
						"codeDepositCost": "323200",
						"executionCost": "infinite",
						"totalCost": "infinite"
					},
					"external": {
						"change_struct_values(uint256,string,uint256,address)": "infinite",
						"pupil_1()": "infinite"
					}
				},
				"methodIdentifiers": {
					"change_struct_values(uint256,string,uint256,address)": "ee950a03",
					"pupil_1()": "78e667b4"
				}
			},
			"storageLayout": {
				"storage": [
					{
						"astId": 13,
						"contract": "contracts/struct_enums.sol:School",
						"label": "pupil_1",
						"offset": 0,
						"slot": "0",
						"type": "t_struct(Student)10_storage"
					}
				],
				"types": {
					"t_address": {
						"encoding": "inplace",
						"label": "address",
						"numberOfBytes": "20"
					},
					"t_string_storage": {
						"encoding": "bytes",
						"label": "string",
						"numberOfBytes": "32"
					},
					"t_struct(Student)10_storage": {
						"encoding": "inplace",
						"label": "struct Student",
						"members": [
							{
								"astId": 3,
								"contract": "contracts/struct_enums.sol:School",
								"label": "id",
								"offset": 0,
								"slot": "0",
								"type": "t_uint256"
							},
							{
								"astId": 5,
								"contract": "contracts/struct_enums.sol:School",
								"label": "name",
								"offset": 0,
								"slot": "1",
								"type": "t_string_storage"
							},
							{
								"astId": 7,
								"contract": "contracts/struct_enums.sol:School",
								"label": "age",
								"offset": 0,
								"slot": "2",
								"type": "t_uint256"
							},
							{
								"astId": 9,
								"contract": "contracts/struct_enums.sol:School",
								"label": "location",
								"offset": 0,
								"slot": "3",
								"type": "t_address"
							}
						],
						"numberOfBytes": "128"
					},
					"t_uint256": {
						"encoding": "inplace",
						"label": "uint256",
						"numberOfBytes": "32"
					}
				}
			},
			"userdoc": {
				"kind": "user",
				"methods": {},
				"version": 1
			}
		}
	}
}