{
	"contracts/Arrays.sol": {
		"Arrays": {
			"abi": [
				{
					"inputs": [
						{
							"internalType": "uint256",
							"name": "",
							"type": "uint256"
						}
					],
					"name": "age",
					"outputs": [
						{
							"internalType": "uint256",
							"name": "",
							"type": "uint256"
						}
					],
					"stateMutability": "view",
					"type": "function"
				},
				{
					"inputs": [],
					"name": "array_lenght",
					"outputs": [
						{
							"internalType": "uint256",
							"name": "",
							"type": "uint256"
						}
					],
					"stateMutability": "view",
					"type": "function"
				},
				{
					"inputs": [
						{
							"internalType": "uint256",
							"name": "",
							"type": "uint256"
						}
					],
					"name": "grades",
					"outputs": [
						{
							"internalType": "uint256",
							"name": "",
							"type": "uint256"
						}
					],
					"stateMutability": "view",
					"type": "function"
				},
				{
					"inputs": [],
					"name": "set_bytes",
					"outputs": [],
					"stateMutability": "nonpayable",
					"type": "function"
				},
				{
					"inputs": [
						{
							"internalType": "uint256",
							"name": "_value",
							"type": "uint256"
						},
						{
							"internalType": "uint256",
							"name": "index",
							"type": "uint256"
						}
					],
					"name": "set_index_value",
					"outputs": [],
					"stateMutability": "nonpayable",
					"type": "function"
				},
				{
					"inputs": [],
					"name": "x",
					"outputs": [
						{
							"internalType": "bytes1",
							"name": "",
							"type": "bytes1"
						}
					],
					"stateMutability": "view",
					"type": "function"
				},
				{
					"inputs": [],
					"name": "y",
					"outputs": [
						{
							"internalType": "bytes5",
							"name": "",
							"type": "bytes5"
						}
					],
					"stateMutability": "view",
					"type": "function"
				}
			],
			"devdoc": {
				"kind": "dev",
				"methods": {},
				"version": 1
			},
			"evm": {
				"assembly": "    /* \"contracts/Arrays.sol\":66:627  contract Arrays{\r... */\n  mstore(0x40, 0x80)\n    /* \"contracts/Arrays.sol\":88:121  uint[5] public grades = [3,56,45] */\n  mload(0x40)\n  dup1\n  0x60\n  add\n  0x40\n  mstore\n  dup1\n    /* \"contracts/Arrays.sol\":113:114  3 */\n  0x03\n    /* \"contracts/Arrays.sol\":88:121  uint[5] public grades = [3,56,45] */\n  0xff\n  and\n  dup2\n  mstore\n  0x20\n  add\n    /* \"contracts/Arrays.sol\":115:117  56 */\n  0x38\n    /* \"contracts/Arrays.sol\":88:121  uint[5] public grades = [3,56,45] */\n  0xff\n  and\n  dup2\n  mstore\n  0x20\n  add\n    /* \"contracts/Arrays.sol\":118:120  45 */\n  0x2d\n    /* \"contracts/Arrays.sol\":88:121  uint[5] public grades = [3,56,45] */\n  0xff\n  and\n  dup2\n  mstore\n  pop\n  0x00\n  swap1\n  0x03\n  tag_1\n  swap3\n  swap2\n  swap1\n  tag_2\n  jump\t// in\ntag_1:\n  pop\n    /* \"contracts/Arrays.sol\":66:627  contract Arrays{\r... */\n  callvalue\n  dup1\n  iszero\n  tag_3\n  jumpi\n  0x00\n  dup1\n  revert\ntag_3:\n  pop\n  jump(tag_4)\ntag_2:\n  dup3\n  0x05\n  dup2\n  add\n  swap3\n  dup3\n  iszero\n  tag_5\n  jumpi\n  swap2\n  0x20\n  mul\n  dup3\n  add\ntag_6:\n  dup3\n  dup2\n  gt\n  iszero\n  tag_7\n  jumpi\n  dup3\n  mload\n  dup3\n  swap1\n  0xff\n  and\n  swap1\n  sstore\n  swap2\n  0x20\n  add\n  swap2\n  swap1\n  0x01\n  add\n  swap1\n  jump(tag_6)\ntag_7:\ntag_5:\n  pop\n  swap1\n  pop\n  tag_8\n  swap2\n  swap1\n  tag_9\n  jump\t// in\ntag_8:\n  pop\n  swap1\n  jump\t// out\ntag_9:\ntag_10:\n  dup1\n  dup3\n  gt\n  iszero\n  tag_11\n  jumpi\n  0x00\n  dup2\n  0x00\n  swap1\n  sstore\n  pop\n  0x01\n  add\n  jump(tag_10)\ntag_11:\n  pop\n  swap1\n  jump\t// out\ntag_4:\n  dataSize(sub_0)\n  dup1\n  dataOffset(sub_0)\n  0x00\n  codecopy\n  0x00\n  return\nstop\n\nsub_0: assembly {\n        /* \"contracts/Arrays.sol\":66:627  contract Arrays{\r... */\n      mstore(0x40, 0x80)\n      callvalue\n      dup1\n      iszero\n      tag_1\n      jumpi\n      0x00\n      dup1\n      revert\n    tag_1:\n      pop\n      jumpi(tag_2, lt(calldatasize, 0x04))\n      shr(0xe0, calldataload(0x00))\n      dup1\n      0x6ba61782\n      gt\n      tag_10\n      jumpi\n      dup1\n      0x6ba61782\n      eq\n      tag_6\n      jumpi\n      dup1\n      0xa56dfe4a\n      eq\n      tag_7\n      jumpi\n      dup1\n      0xbca0d37a\n      eq\n      tag_8\n      jumpi\n      dup1\n      0xcc35e8d0\n      eq\n      tag_9\n      jumpi\n      jump(tag_2)\n    tag_10:\n      dup1\n      0x0c55699c\n      eq\n      tag_3\n      jumpi\n      dup1\n      0x17d94f9a\n      eq\n      tag_4\n      jumpi\n      dup1\n      0x4b22fc62\n      eq\n      tag_5\n      jumpi\n    tag_2:\n      0x00\n      dup1\n      revert\n        /* \"contracts/Arrays.sol\":185:201  bytes1 public  x */\n    tag_3:\n      tag_11\n      tag_12\n      jump\t// in\n    tag_11:\n      mload(0x40)\n      tag_13\n      swap2\n      swap1\n      tag_14\n      jump\t// in\n    tag_13:\n      mload(0x40)\n      dup1\n      swap2\n      sub\n      swap1\n      return\n        /* \"contracts/Arrays.sol\":290:385  function set_index_value(uint _value,uint index) public {\r... */\n    tag_4:\n      tag_15\n      0x04\n      dup1\n      calldatasize\n      sub\n      dup2\n      add\n      swap1\n      tag_16\n      swap2\n      swap1\n      tag_17\n      jump\t// in\n    tag_16:\n      tag_18\n      jump\t// in\n    tag_15:\n      stop\n        /* \"contracts/Arrays.sol\":88:121  uint[5] public grades = [3,56,45] */\n    tag_5:\n      tag_19\n      0x04\n      dup1\n      calldatasize\n      sub\n      dup2\n      add\n      swap1\n      tag_20\n      swap2\n      swap1\n      tag_21\n      jump\t// in\n    tag_20:\n      tag_22\n      jump\t// in\n    tag_19:\n      mload(0x40)\n      tag_23\n      swap2\n      swap1\n      tag_24\n      jump\t// in\n    tag_23:\n      mload(0x40)\n      dup1\n      swap2\n      sub\n      swap1\n      return\n        /* \"contracts/Arrays.sol\":161:178  uint[] public age */\n    tag_6:\n      tag_25\n      0x04\n      dup1\n      calldatasize\n      sub\n      dup2\n      add\n      swap1\n      tag_26\n      swap2\n      swap1\n      tag_21\n      jump\t// in\n    tag_26:\n      tag_27\n      jump\t// in\n    tag_25:\n      mload(0x40)\n      tag_28\n      swap2\n      swap1\n      tag_24\n      jump\t// in\n    tag_28:\n      mload(0x40)\n      dup1\n      swap2\n      sub\n      swap1\n      return\n        /* \"contracts/Arrays.sol\":208:224  bytes5 public  y */\n    tag_7:\n      tag_29\n      tag_30\n      jump\t// in\n    tag_29:\n      mload(0x40)\n      tag_31\n      swap2\n      swap1\n      tag_32\n      jump\t// in\n    tag_31:\n      mload(0x40)\n      dup1\n      swap2\n      sub\n      swap1\n      return\n        /* \"contracts/Arrays.sol\":450:539  function array_lenght() public view returns(uint){\r... */\n    tag_8:\n      tag_33\n      tag_34\n      jump\t// in\n    tag_33:\n      mload(0x40)\n      tag_35\n      swap2\n      swap1\n      tag_24\n      jump\t// in\n    tag_35:\n      mload(0x40)\n      dup1\n      swap2\n      sub\n      swap1\n      return\n        /* \"contracts/Arrays.sol\":546:622  function set_bytes() public {\r... */\n    tag_9:\n      tag_36\n      tag_37\n      jump\t// in\n    tag_36:\n      stop\n        /* \"contracts/Arrays.sol\":185:201  bytes1 public  x */\n    tag_12:\n      0x06\n      0x00\n      swap1\n      sload\n      swap1\n      0x0100\n      exp\n      swap1\n      div\n      0xf8\n      shl\n      dup2\n      jump\t// out\n        /* \"contracts/Arrays.sol\":290:385  function set_index_value(uint _value,uint index) public {\r... */\n    tag_18:\n        /* \"contracts/Arrays.sol\":371:377  _value */\n      dup2\n        /* \"contracts/Arrays.sol\":357:360  age */\n      0x05\n        /* \"contracts/Arrays.sol\":361:366  index */\n      dup3\n        /* \"contracts/Arrays.sol\":357:367  age[index] */\n      dup2\n      sload\n      dup2\n      lt\n      tag_39\n      jumpi\n      mstore(0x00, 0x4e487b7100000000000000000000000000000000000000000000000000000000)\n      mstore(0x04, 0x32)\n      revert(0x00, 0x24)\n    tag_39:\n      swap1\n      0x00\n      mstore\n      keccak256(0x00, 0x20)\n      add\n        /* \"contracts/Arrays.sol\":357:377  age[index] =  _value */\n      dup2\n      swap1\n      sstore\n      pop\n        /* \"contracts/Arrays.sol\":290:385  function set_index_value(uint _value,uint index) public {\r... */\n      pop\n      pop\n      jump\t// out\n        /* \"contracts/Arrays.sol\":88:121  uint[5] public grades = [3,56,45] */\n    tag_22:\n      0x00\n      dup2\n      0x05\n      dup2\n      lt\n      tag_41\n      jumpi\n      0x00\n      dup1\n      revert\n    tag_41:\n      add\n      0x00\n      swap2\n      pop\n      swap1\n      pop\n      sload\n      dup2\n      jump\t// out\n        /* \"contracts/Arrays.sol\":161:178  uint[] public age */\n    tag_27:\n      0x05\n      dup2\n      dup2\n      sload\n      dup2\n      lt\n      tag_43\n      jumpi\n      0x00\n      dup1\n      revert\n    tag_43:\n      swap1\n      0x00\n      mstore\n      keccak256(0x00, 0x20)\n      add\n      0x00\n      swap2\n      pop\n      swap1\n      pop\n      sload\n      dup2\n      jump\t// out\n        /* \"contracts/Arrays.sol\":208:224  bytes5 public  y */\n    tag_30:\n      0x06\n      0x01\n      swap1\n      sload\n      swap1\n      0x0100\n      exp\n      swap1\n      div\n      0xd8\n      shl\n      dup2\n      jump\t// out\n        /* \"contracts/Arrays.sol\":450:539  function array_lenght() public view returns(uint){\r... */\n    tag_34:\n        /* \"contracts/Arrays.sol\":494:498  uint */\n      0x00\n        /* \"contracts/Arrays.sol\":518:531  grades.length */\n      0x05\n        /* \"contracts/Arrays.sol\":510:531  return  grades.length */\n      swap1\n      pop\n        /* \"contracts/Arrays.sol\":450:539  function array_lenght() public view returns(uint){\r... */\n      swap1\n      jump\t// out\n        /* \"contracts/Arrays.sol\":546:622  function set_bytes() public {\r... */\n    tag_37:\n        /* \"contracts/Arrays.sol\":585:592  x = \"a\" */\n      0x6100000000000000000000000000000000000000000000000000000000000000\n        /* \"contracts/Arrays.sol\":585:586  x */\n      0x06\n      0x00\n        /* \"contracts/Arrays.sol\":585:592  x = \"a\" */\n      0x0100\n      exp\n      dup2\n      sload\n      dup2\n      0xff\n      mul\n      not\n      and\n      swap1\n      dup4\n      0xf8\n      shr\n      mul\n      or\n      swap1\n      sstore\n      pop\n        /* \"contracts/Arrays.sol\":603:614  y = \"green\" */\n      0x677265656e000000000000000000000000000000000000000000000000000000\n        /* \"contracts/Arrays.sol\":603:604  y */\n      0x06\n      0x01\n        /* \"contracts/Arrays.sol\":603:614  y = \"green\" */\n      0x0100\n      exp\n      dup2\n      sload\n      dup2\n      0xffffffffff\n      mul\n      not\n      and\n      swap1\n      dup4\n      0xd8\n      shr\n      mul\n      or\n      swap1\n      sstore\n      pop\n        /* \"contracts/Arrays.sol\":546:622  function set_bytes() public {\r... */\n      jump\t// out\n        /* \"#utility.yul\":7:146   */\n    tag_48:\n      0x00\n        /* \"#utility.yul\":91:97   */\n      dup2\n        /* \"#utility.yul\":78:98   */\n      calldataload\n        /* \"#utility.yul\":69:98   */\n      swap1\n      pop\n        /* \"#utility.yul\":107:140   */\n      tag_50\n        /* \"#utility.yul\":134:139   */\n      dup2\n        /* \"#utility.yul\":107:140   */\n      tag_51\n      jump\t// in\n    tag_50:\n        /* \"#utility.yul\":59:146   */\n      swap3\n      swap2\n      pop\n      pop\n      jump\t// out\n        /* \"#utility.yul\":152:414   */\n    tag_21:\n      0x00\n        /* \"#utility.yul\":260:262   */\n      0x20\n        /* \"#utility.yul\":248:257   */\n      dup3\n        /* \"#utility.yul\":239:246   */\n      dup5\n        /* \"#utility.yul\":235:258   */\n      sub\n        /* \"#utility.yul\":231:263   */\n      slt\n        /* \"#utility.yul\":228:230   */\n      iszero\n      tag_53\n      jumpi\n        /* \"#utility.yul\":276:277   */\n      0x00\n        /* \"#utility.yul\":273:274   */\n      dup1\n        /* \"#utility.yul\":266:278   */\n      revert\n        /* \"#utility.yul\":228:230   */\n    tag_53:\n        /* \"#utility.yul\":319:320   */\n      0x00\n        /* \"#utility.yul\":344:397   */\n      tag_54\n        /* \"#utility.yul\":389:396   */\n      dup5\n        /* \"#utility.yul\":380:386   */\n      dup3\n        /* \"#utility.yul\":369:378   */\n      dup6\n        /* \"#utility.yul\":365:387   */\n      add\n        /* \"#utility.yul\":344:397   */\n      tag_48\n      jump\t// in\n    tag_54:\n        /* \"#utility.yul\":334:397   */\n      swap2\n      pop\n        /* \"#utility.yul\":290:407   */\n      pop\n        /* \"#utility.yul\":218:414   */\n      swap3\n      swap2\n      pop\n      pop\n      jump\t// out\n        /* \"#utility.yul\":420:827   */\n    tag_17:\n      0x00\n      dup1\n        /* \"#utility.yul\":545:547   */\n      0x40\n        /* \"#utility.yul\":533:542   */\n      dup4\n        /* \"#utility.yul\":524:531   */\n      dup6\n        /* \"#utility.yul\":520:543   */\n      sub\n        /* \"#utility.yul\":516:548   */\n      slt\n        /* \"#utility.yul\":513:515   */\n      iszero\n      tag_56\n      jumpi\n        /* \"#utility.yul\":561:562   */\n      0x00\n        /* \"#utility.yul\":558:559   */\n      dup1\n        /* \"#utility.yul\":551:563   */\n      revert\n        /* \"#utility.yul\":513:515   */\n    tag_56:\n        /* \"#utility.yul\":604:605   */\n      0x00\n        /* \"#utility.yul\":629:682   */\n      tag_57\n        /* \"#utility.yul\":674:681   */\n      dup6\n        /* \"#utility.yul\":665:671   */\n      dup3\n        /* \"#utility.yul\":654:663   */\n      dup7\n        /* \"#utility.yul\":650:672   */\n      add\n        /* \"#utility.yul\":629:682   */\n      tag_48\n      jump\t// in\n    tag_57:\n        /* \"#utility.yul\":619:682   */\n      swap3\n      pop\n        /* \"#utility.yul\":575:692   */\n      pop\n        /* \"#utility.yul\":731:733   */\n      0x20\n        /* \"#utility.yul\":757:810   */\n      tag_58\n        /* \"#utility.yul\":802:809   */\n      dup6\n        /* \"#utility.yul\":793:799   */\n      dup3\n        /* \"#utility.yul\":782:791   */\n      dup7\n        /* \"#utility.yul\":778:800   */\n      add\n        /* \"#utility.yul\":757:810   */\n      tag_48\n      jump\t// in\n    tag_58:\n        /* \"#utility.yul\":747:810   */\n      swap2\n      pop\n        /* \"#utility.yul\":702:820   */\n      pop\n        /* \"#utility.yul\":503:827   */\n      swap3\n      pop\n      swap3\n      swap1\n      pop\n      jump\t// out\n        /* \"#utility.yul\":833:948   */\n    tag_59:\n        /* \"#utility.yul\":918:941   */\n      tag_61\n        /* \"#utility.yul\":935:940   */\n      dup2\n        /* \"#utility.yul\":918:941   */\n      tag_62\n      jump\t// in\n    tag_61:\n        /* \"#utility.yul\":913:916   */\n      dup3\n        /* \"#utility.yul\":906:942   */\n      mstore\n        /* \"#utility.yul\":896:948   */\n      pop\n      pop\n      jump\t// out\n        /* \"#utility.yul\":954:1069   */\n    tag_63:\n        /* \"#utility.yul\":1039:1062   */\n      tag_65\n        /* \"#utility.yul\":1056:1061   */\n      dup2\n        /* \"#utility.yul\":1039:1062   */\n      tag_66\n      jump\t// in\n    tag_65:\n        /* \"#utility.yul\":1034:1037   */\n      dup3\n        /* \"#utility.yul\":1027:1063   */\n      mstore\n        /* \"#utility.yul\":1017:1069   */\n      pop\n      pop\n      jump\t// out\n        /* \"#utility.yul\":1075:1193   */\n    tag_67:\n        /* \"#utility.yul\":1162:1186   */\n      tag_69\n        /* \"#utility.yul\":1180:1185   */\n      dup2\n        /* \"#utility.yul\":1162:1186   */\n      tag_70\n      jump\t// in\n    tag_69:\n        /* \"#utility.yul\":1157:1160   */\n      dup3\n        /* \"#utility.yul\":1150:1187   */\n      mstore\n        /* \"#utility.yul\":1140:1193   */\n      pop\n      pop\n      jump\t// out\n        /* \"#utility.yul\":1199:1417   */\n    tag_14:\n      0x00\n        /* \"#utility.yul\":1328:1330   */\n      0x20\n        /* \"#utility.yul\":1317:1326   */\n      dup3\n        /* \"#utility.yul\":1313:1331   */\n      add\n        /* \"#utility.yul\":1305:1331   */\n      swap1\n      pop\n        /* \"#utility.yul\":1341:1410   */\n      tag_72\n        /* \"#utility.yul\":1407:1408   */\n      0x00\n        /* \"#utility.yul\":1396:1405   */\n      dup4\n        /* \"#utility.yul\":1392:1409   */\n      add\n        /* \"#utility.yul\":1383:1389   */\n      dup5\n        /* \"#utility.yul\":1341:1410   */\n      tag_59\n      jump\t// in\n    tag_72:\n        /* \"#utility.yul\":1295:1417   */\n      swap3\n      swap2\n      pop\n      pop\n      jump\t// out\n        /* \"#utility.yul\":1423:1641   */\n    tag_32:\n      0x00\n        /* \"#utility.yul\":1552:1554   */\n      0x20\n        /* \"#utility.yul\":1541:1550   */\n      dup3\n        /* \"#utility.yul\":1537:1555   */\n      add\n        /* \"#utility.yul\":1529:1555   */\n      swap1\n      pop\n        /* \"#utility.yul\":1565:1634   */\n      tag_74\n        /* \"#utility.yul\":1631:1632   */\n      0x00\n        /* \"#utility.yul\":1620:1629   */\n      dup4\n        /* \"#utility.yul\":1616:1633   */\n      add\n        /* \"#utility.yul\":1607:1613   */\n      dup5\n        /* \"#utility.yul\":1565:1634   */\n      tag_63\n      jump\t// in\n    tag_74:\n        /* \"#utility.yul\":1519:1641   */\n      swap3\n      swap2\n      pop\n      pop\n      jump\t// out\n        /* \"#utility.yul\":1647:1869   */\n    tag_24:\n      0x00\n        /* \"#utility.yul\":1778:1780   */\n      0x20\n        /* \"#utility.yul\":1767:1776   */\n      dup3\n        /* \"#utility.yul\":1763:1781   */\n      add\n        /* \"#utility.yul\":1755:1781   */\n      swap1\n      pop\n        /* \"#utility.yul\":1791:1862   */\n      tag_76\n        /* \"#utility.yul\":1859:1860   */\n      0x00\n        /* \"#utility.yul\":1848:1857   */\n      dup4\n        /* \"#utility.yul\":1844:1861   */\n      add\n        /* \"#utility.yul\":1835:1841   */\n      dup5\n        /* \"#utility.yul\":1791:1862   */\n      tag_67\n      jump\t// in\n    tag_76:\n        /* \"#utility.yul\":1745:1869   */\n      swap3\n      swap2\n      pop\n      pop\n      jump\t// out\n        /* \"#utility.yul\":1875:2024   */\n    tag_62:\n      0x00\n        /* \"#utility.yul\":1951:2017   */\n      0xff00000000000000000000000000000000000000000000000000000000000000\n        /* \"#utility.yul\":1944:1949   */\n      dup3\n        /* \"#utility.yul\":1940:2018   */\n      and\n        /* \"#utility.yul\":1929:2018   */\n      swap1\n      pop\n        /* \"#utility.yul\":1919:2024   */\n      swap2\n      swap1\n      pop\n      jump\t// out\n        /* \"#utility.yul\":2030:2179   */\n    tag_66:\n      0x00\n        /* \"#utility.yul\":2106:2172   */\n      0xffffffffff000000000000000000000000000000000000000000000000000000\n        /* \"#utility.yul\":2099:2104   */\n      dup3\n        /* \"#utility.yul\":2095:2173   */\n      and\n        /* \"#utility.yul\":2084:2173   */\n      swap1\n      pop\n        /* \"#utility.yul\":2074:2179   */\n      swap2\n      swap1\n      pop\n      jump\t// out\n        /* \"#utility.yul\":2185:2262   */\n    tag_70:\n      0x00\n        /* \"#utility.yul\":2251:2256   */\n      dup2\n        /* \"#utility.yul\":2240:2256   */\n      swap1\n      pop\n        /* \"#utility.yul\":2230:2262   */\n      swap2\n      swap1\n      pop\n      jump\t// out\n        /* \"#utility.yul\":2268:2390   */\n    tag_51:\n        /* \"#utility.yul\":2341:2365   */\n      tag_81\n        /* \"#utility.yul\":2359:2364   */\n      dup2\n        /* \"#utility.yul\":2341:2365   */\n      tag_70\n      jump\t// in\n    tag_81:\n        /* \"#utility.yul\":2334:2339   */\n      dup2\n        /* \"#utility.yul\":2331:2366   */\n      eq\n        /* \"#utility.yul\":2321:2323   */\n      tag_82\n      jumpi\n        /* \"#utility.yul\":2380:2381   */\n      0x00\n        /* \"#utility.yul\":2377:2378   */\n      dup1\n        /* \"#utility.yul\":2370:2382   */\n      revert\n        /* \"#utility.yul\":2321:2323   */\n    tag_82:\n        /* \"#utility.yul\":2311:2390   */\n      pop\n      jump\t// out\n\n    auxdata: 0xa26469706673582212203b0e99998b770e3b240bb01385633b7cc30f59c1511f6d96394a1beda07806eb64736f6c63430008000033\n}\n",
				"bytecode": {
					"linkReferences": {},
					"object": "60806040526040518060600160405280600360ff168152602001603860ff168152602001602d60ff16815250600090600361003b92919061004e565b5034801561004857600080fd5b506100b0565b8260058101928215610082579160200282015b82811115610081578251829060ff16905591602001919060010190610061565b5b50905061008f9190610093565b5090565b5b808211156100ac576000816000905550600101610094565b5090565b610440806100bf6000396000f3fe608060405234801561001057600080fd5b506004361061007d5760003560e01c80636ba617821161005b5780636ba61782146100ec578063a56dfe4a1461011c578063bca0d37a1461013a578063cc35e8d0146101585761007d565b80630c55699c1461008257806317d94f9a146100a05780634b22fc62146100bc575b600080fd5b61008a610162565b6040516100979190610340565b60405180910390f35b6100ba60048036038101906100b591906102d7565b610175565b005b6100d660048036038101906100d191906102ae565b6101c2565b6040516100e39190610376565b60405180910390f35b610106600480360381019061010191906102ae565b6101dd565b6040516101139190610376565b60405180910390f35b610124610201565b604051610131919061035b565b60405180910390f35b610142610214565b60405161014f9190610376565b60405180910390f35b61016061021d565b005b600660009054906101000a900460f81b81565b81600582815481106101b0577f4e487b7100000000000000000000000000000000000000000000000000000000600052603260045260246000fd5b90600052602060002001819055505050565b600081600581106101d257600080fd5b016000915090505481565b600581815481106101ed57600080fd5b906000526020600020016000915090505481565b600660019054906101000a900460d81b81565b60006005905090565b7f6100000000000000000000000000000000000000000000000000000000000000600660006101000a81548160ff021916908360f81c02179055507f677265656e000000000000000000000000000000000000000000000000000000600660016101000a81548164ffffffffff021916908360d81c0217905550565b6000813590506102a8816103f3565b92915050565b6000602082840312156102c057600080fd5b60006102ce84828501610299565b91505092915050565b600080604083850312156102ea57600080fd5b60006102f885828601610299565b925050602061030985828601610299565b9150509250929050565b61031c81610391565b82525050565b61032b816103bd565b82525050565b61033a816103e9565b82525050565b60006020820190506103556000830184610313565b92915050565b60006020820190506103706000830184610322565b92915050565b600060208201905061038b6000830184610331565b92915050565b60007fff0000000000000000000000000000000000000000000000000000000000000082169050919050565b60007fffffffffff00000000000000000000000000000000000000000000000000000082169050919050565b6000819050919050565b6103fc816103e9565b811461040757600080fd5b5056fea26469706673582212203b0e99998b770e3b240bb01385633b7cc30f59c1511f6d96394a1beda07806eb64736f6c63430008000033",
					"opcodes": "PUSH1 0x80 PUSH1 0x40 MSTORE PUSH1 0x40 MLOAD DUP1 PUSH1 0x60 ADD PUSH1 0x40 MSTORE DUP1 PUSH1 0x3 PUSH1 0xFF AND DUP2 MSTORE PUSH1 0x20 ADD PUSH1 0x38 PUSH1 0xFF AND DUP2 MSTORE PUSH1 0x20 ADD PUSH1 0x2D PUSH1 0xFF AND DUP2 MSTORE POP PUSH1 0x0 SWAP1 PUSH1 0x3 PUSH2 0x3B SWAP3 SWAP2 SWAP1 PUSH2 0x4E JUMP JUMPDEST POP CALLVALUE DUP1 ISZERO PUSH2 0x48 JUMPI PUSH1 0x0 DUP1 REVERT JUMPDEST POP PUSH2 0xB0 JUMP JUMPDEST DUP3 PUSH1 0x5 DUP2 ADD SWAP3 DUP3 ISZERO PUSH2 0x82 JUMPI SWAP2 PUSH1 0x20 MUL DUP3 ADD JUMPDEST DUP3 DUP2 GT ISZERO PUSH2 0x81 JUMPI DUP3 MLOAD DUP3 SWAP1 PUSH1 0xFF AND SWAP1 SSTORE SWAP2 PUSH1 0x20 ADD SWAP2 SWAP1 PUSH1 0x1 ADD SWAP1 PUSH2 0x61 JUMP JUMPDEST JUMPDEST POP SWAP1 POP PUSH2 0x8F SWAP2 SWAP1 PUSH2 0x93 JUMP JUMPDEST POP SWAP1 JUMP JUMPDEST JUMPDEST DUP1 DUP3 GT ISZERO PUSH2 0xAC JUMPI PUSH1 0x0 DUP2 PUSH1 0x0 SWAP1 SSTORE POP PUSH1 0x1 ADD PUSH2 0x94 JUMP JUMPDEST POP SWAP1 JUMP JUMPDEST PUSH2 0x440 DUP1 PUSH2 0xBF PUSH1 0x0 CODECOPY PUSH1 0x0 RETURN INVALID PUSH1 0x80 PUSH1 0x40 MSTORE CALLVALUE DUP1 ISZERO PUSH2 0x10 JUMPI PUSH1 0x0 DUP1 REVERT JUMPDEST POP PUSH1 0x4 CALLDATASIZE LT PUSH2 0x7D JUMPI PUSH1 0x0 CALLDATALOAD PUSH1 0xE0 SHR DUP1 PUSH4 0x6BA61782 GT PUSH2 0x5B JUMPI DUP1 PUSH4 0x6BA61782 EQ PUSH2 0xEC JUMPI DUP1 PUSH4 0xA56DFE4A EQ PUSH2 0x11C JUMPI DUP1 PUSH4 0xBCA0D37A EQ PUSH2 0x13A JUMPI DUP1 PUSH4 0xCC35E8D0 EQ PUSH2 0x158 JUMPI PUSH2 0x7D JUMP JUMPDEST DUP1 PUSH4 0xC55699C EQ PUSH2 0x82 JUMPI DUP1 PUSH4 0x17D94F9A EQ PUSH2 0xA0 JUMPI DUP1 PUSH4 0x4B22FC62 EQ PUSH2 0xBC JUMPI JUMPDEST PUSH1 0x0 DUP1 REVERT JUMPDEST PUSH2 0x8A PUSH2 0x162 JUMP JUMPDEST PUSH1 0x40 MLOAD PUSH2 0x97 SWAP2 SWAP1 PUSH2 0x340 JUMP JUMPDEST PUSH1 0x40 MLOAD DUP1 SWAP2 SUB SWAP1 RETURN JUMPDEST PUSH2 0xBA PUSH1 0x4 DUP1 CALLDATASIZE SUB DUP2 ADD SWAP1 PUSH2 0xB5 SWAP2 SWAP1 PUSH2 0x2D7 JUMP JUMPDEST PUSH2 0x175 JUMP JUMPDEST STOP JUMPDEST PUSH2 0xD6 PUSH1 0x4 DUP1 CALLDATASIZE SUB DUP2 ADD SWAP1 PUSH2 0xD1 SWAP2 SWAP1 PUSH2 0x2AE JUMP JUMPDEST PUSH2 0x1C2 JUMP JUMPDEST PUSH1 0x40 MLOAD PUSH2 0xE3 SWAP2 SWAP1 PUSH2 0x376 JUMP JUMPDEST PUSH1 0x40 MLOAD DUP1 SWAP2 SUB SWAP1 RETURN JUMPDEST PUSH2 0x106 PUSH1 0x4 DUP1 CALLDATASIZE SUB DUP2 ADD SWAP1 PUSH2 0x101 SWAP2 SWAP1 PUSH2 0x2AE JUMP JUMPDEST PUSH2 0x1DD JUMP JUMPDEST PUSH1 0x40 MLOAD PUSH2 0x113 SWAP2 SWAP1 PUSH2 0x376 JUMP JUMPDEST PUSH1 0x40 MLOAD DUP1 SWAP2 SUB SWAP1 RETURN JUMPDEST PUSH2 0x124 PUSH2 0x201 JUMP JUMPDEST PUSH1 0x40 MLOAD PUSH2 0x131 SWAP2 SWAP1 PUSH2 0x35B JUMP JUMPDEST PUSH1 0x40 MLOAD DUP1 SWAP2 SUB SWAP1 RETURN JUMPDEST PUSH2 0x142 PUSH2 0x214 JUMP JUMPDEST PUSH1 0x40 MLOAD PUSH2 0x14F SWAP2 SWAP1 PUSH2 0x376 JUMP JUMPDEST PUSH1 0x40 MLOAD DUP1 SWAP2 SUB SWAP1 RETURN JUMPDEST PUSH2 0x160 PUSH2 0x21D JUMP JUMPDEST STOP JUMPDEST PUSH1 0x6 PUSH1 0x0 SWAP1 SLOAD SWAP1 PUSH2 0x100 EXP SWAP1 DIV PUSH1 0xF8 SHL DUP2 JUMP JUMPDEST DUP2 PUSH1 0x5 DUP3 DUP2 SLOAD DUP2 LT PUSH2 0x1B0 JUMPI PUSH32 0x4E487B7100000000000000000000000000000000000000000000000000000000 PUSH1 0x0 MSTORE PUSH1 0x32 PUSH1 0x4 MSTORE PUSH1 0x24 PUSH1 0x0 REVERT JUMPDEST SWAP1 PUSH1 0x0 MSTORE PUSH1 0x20 PUSH1 0x0 KECCAK256 ADD DUP2 SWAP1 SSTORE POP POP POP JUMP JUMPDEST PUSH1 0x0 DUP2 PUSH1 0x5 DUP2 LT PUSH2 0x1D2 JUMPI PUSH1 0x0 DUP1 REVERT JUMPDEST ADD PUSH1 0x0 SWAP2 POP SWAP1 POP SLOAD DUP2 JUMP JUMPDEST PUSH1 0x5 DUP2 DUP2 SLOAD DUP2 LT PUSH2 0x1ED JUMPI PUSH1 0x0 DUP1 REVERT JUMPDEST SWAP1 PUSH1 0x0 MSTORE PUSH1 0x20 PUSH1 0x0 KECCAK256 ADD PUSH1 0x0 SWAP2 POP SWAP1 POP SLOAD DUP2 JUMP JUMPDEST PUSH1 0x6 PUSH1 0x1 SWAP1 SLOAD SWAP1 PUSH2 0x100 EXP SWAP1 DIV PUSH1 0xD8 SHL DUP2 JUMP JUMPDEST PUSH1 0x0 PUSH1 0x5 SWAP1 POP SWAP1 JUMP JUMPDEST PUSH32 0x6100000000000000000000000000000000000000000000000000000000000000 PUSH1 0x6 PUSH1 0x0 PUSH2 0x100 EXP DUP2 SLOAD DUP2 PUSH1 0xFF MUL NOT AND SWAP1 DUP4 PUSH1 0xF8 SHR MUL OR SWAP1 SSTORE POP PUSH32 0x677265656E000000000000000000000000000000000000000000000000000000 PUSH1 0x6 PUSH1 0x1 PUSH2 0x100 EXP DUP2 SLOAD DUP2 PUSH5 0xFFFFFFFFFF MUL NOT AND SWAP1 DUP4 PUSH1 0xD8 SHR MUL OR SWAP1 SSTORE POP JUMP JUMPDEST PUSH1 0x0 DUP2 CALLDATALOAD SWAP1 POP PUSH2 0x2A8 DUP2 PUSH2 0x3F3 JUMP JUMPDEST SWAP3 SWAP2 POP POP JUMP JUMPDEST PUSH1 0x0 PUSH1 0x20 DUP3 DUP5 SUB SLT ISZERO PUSH2 0x2C0 JUMPI PUSH1 0x0 DUP1 REVERT JUMPDEST PUSH1 0x0 PUSH2 0x2CE DUP5 DUP3 DUP6 ADD PUSH2 0x299 JUMP JUMPDEST SWAP2 POP POP SWAP3 SWAP2 POP POP JUMP JUMPDEST PUSH1 0x0 DUP1 PUSH1 0x40 DUP4 DUP6 SUB SLT ISZERO PUSH2 0x2EA JUMPI PUSH1 0x0 DUP1 REVERT JUMPDEST PUSH1 0x0 PUSH2 0x2F8 DUP6 DUP3 DUP7 ADD PUSH2 0x299 JUMP JUMPDEST SWAP3 POP POP PUSH1 0x20 PUSH2 0x309 DUP6 DUP3 DUP7 ADD PUSH2 0x299 JUMP JUMPDEST SWAP2 POP POP SWAP3 POP SWAP3 SWAP1 POP JUMP JUMPDEST PUSH2 0x31C DUP2 PUSH2 0x391 JUMP JUMPDEST DUP3 MSTORE POP POP JUMP JUMPDEST PUSH2 0x32B DUP2 PUSH2 0x3BD JUMP JUMPDEST DUP3 MSTORE POP POP JUMP JUMPDEST PUSH2 0x33A DUP2 PUSH2 0x3E9 JUMP JUMPDEST DUP3 MSTORE POP POP JUMP JUMPDEST PUSH1 0x0 PUSH1 0x20 DUP3 ADD SWAP1 POP PUSH2 0x355 PUSH1 0x0 DUP4 ADD DUP5 PUSH2 0x313 JUMP JUMPDEST SWAP3 SWAP2 POP POP JUMP JUMPDEST PUSH1 0x0 PUSH1 0x20 DUP3 ADD SWAP1 POP PUSH2 0x370 PUSH1 0x0 DUP4 ADD DUP5 PUSH2 0x322 JUMP JUMPDEST SWAP3 SWAP2 POP POP JUMP JUMPDEST PUSH1 0x0 PUSH1 0x20 DUP3 ADD SWAP1 POP PUSH2 0x38B PUSH1 0x0 DUP4 ADD DUP5 PUSH2 0x331 JUMP JUMPDEST SWAP3 SWAP2 POP POP JUMP JUMPDEST PUSH1 0x0 PUSH32 0xFF00000000000000000000000000000000000000000000000000000000000000 DUP3 AND SWAP1 POP SWAP2 SWAP1 POP JUMP JUMPDEST PUSH1 0x0 PUSH32 0xFFFFFFFFFF000000000000000000000000000000000000000000000000000000 DUP3 AND SWAP1 POP SWAP2 SWAP1 POP JUMP JUMPDEST PUSH1 0x0 DUP2 SWAP1 POP SWAP2 SWAP1 POP JUMP JUMPDEST PUSH2 0x3FC DUP2 PUSH2 0x3E9 JUMP JUMPDEST DUP2 EQ PUSH2 0x407 JUMPI PUSH1 0x0 DUP1 REVERT JUMPDEST POP JUMP INVALID LOG2 PUSH5 0x6970667358 0x22 SLT KECCAK256 EXTCODESIZE 0xE SWAP10 SWAP10 DUP12 PUSH24 0xE3B240BB01385633B7CC30F59C1511F6D96394A1BEDA078 MOD 0xEB PUSH5 0x736F6C6343 STOP ADDMOD STOP STOP CALLER "
				},
				"gasEstimates": {
					"creation": {
						"codeDepositCost": "217600",
						"executionCost": "infinite",
						"totalCost": "infinite"
					},
					"external": {
						"age(uint256)": "infinite",
						"array_lenght()": "381",
						"grades(uint256)": "infinite",
						"set_bytes()": "41994",
						"set_index_value(uint256,uint256)": "infinite",
						"x()": "1172",
						"y()": "1243"
					}
				},
				"methodIdentifiers": {
					"age(uint256)": "6ba61782",
					"array_lenght()": "bca0d37a",
					"grades(uint256)": "4b22fc62",
					"set_bytes()": "cc35e8d0",
					"set_index_value(uint256,uint256)": "17d94f9a",
					"x()": "0c55699c",
					"y()": "a56dfe4a"
				}
			},
			"storageLayout": {
				"storage": [
					{
						"astId": 9,
						"contract": "contracts/Arrays.sol:Arrays",
						"label": "grades",
						"offset": 0,
						"slot": "0",
						"type": "t_array(t_uint256)5_storage"
					},
					{
						"astId": 12,
						"contract": "contracts/Arrays.sol:Arrays",
						"label": "age",
						"offset": 0,
						"slot": "5",
						"type": "t_array(t_uint256)dyn_storage"
					},
					{
						"astId": 14,
						"contract": "contracts/Arrays.sol:Arrays",
						"label": "x",
						"offset": 0,
						"slot": "6",
						"type": "t_bytes1"
					},
					{
						"astId": 16,
						"contract": "contracts/Arrays.sol:Arrays",
						"label": "y",
						"offset": 1,
						"slot": "6",
						"type": "t_bytes5"
					}
				],
				"types": {
					"t_array(t_uint256)5_storage": {
						"base": "t_uint256",
						"encoding": "inplace",
						"label": "uint256[5]",
						"numberOfBytes": "160"
					},
					"t_array(t_uint256)dyn_storage": {
						"base": "t_uint256",
						"encoding": "dynamic_array",
						"label": "uint256[]",
						"numberOfBytes": "32"
					},
					"t_bytes1": {
						"encoding": "inplace",
						"label": "bytes1",
						"numberOfBytes": "1"
					},
					"t_bytes5": {
						"encoding": "inplace",
						"label": "bytes5",
						"numberOfBytes": "5"
					},
					"t_uint256": {
						"encoding": "inplace",
						"label": "uint256",
						"numberOfBytes": "32"
					}
				}
			},
			"userdoc": {
				"kind": "user",
				"methods": {},
				"version": 1
			}
		}
	}
}