{
	"contracts/struct_enums.sol": {
		"School": {
			"abi": [
				{
					"inputs": [
						{
							"internalType": "uint256",
							"name": "_id",
							"type": "uint256"
						},
						{
							"internalType": "string",
							"name": "_name",
							"type": "string"
						},
						{
							"internalType": "uint256",
							"name": "_age",
							"type": "uint256"
						}
					],
					"stateMutability": "nonpayable",
					"type": "constructor"
				},
				{
					"inputs": [],
					"name": "pupil_1",
					"outputs": [
						{
							"internalType": "uint256",
							"name": "id",
							"type": "uint256"
						},
						{
							"internalType": "string",
							"name": "name",
							"type": "string"
						},
						{
							"internalType": "uint256",
							"name": "age",
							"type": "uint256"
						},
						{
							"internalType": "address",
							"name": "location",
							"type": "address"
						}
					],
					"stateMutability": "view",
					"type": "function"
				}
			],
			"devdoc": {
				"kind": "dev",
				"methods": {},
				"version": 1
			},
			"evm": {
				"assembly": "    /* \"contracts/struct_enums.sol\":158:431  contract School{\r... */\n  mstore(0x40, 0x80)\n    /* \"contracts/struct_enums.sol\":238:426  constructor(uint _id,string memory _name,uint _age){\r... */\n  callvalue\n  dup1\n  iszero\n  tag_1\n  jumpi\n  0x00\n  dup1\n  revert\ntag_1:\n  pop\n  mload(0x40)\n  sub(codesize, bytecodeSize)\n  dup1\n  bytecodeSize\n  dup4\n  codecopy\n  dup2\n  dup2\n  add\n  0x40\n  mstore\n  dup2\n  add\n  swap1\n  tag_2\n  swap2\n  swap1\n  tag_3\n  jump\t// in\ntag_2:\n    /* \"contracts/struct_enums.sol\":313:316  _id */\n  dup3\n    /* \"contracts/struct_enums.sol\":300:307  pupil_1 */\n  0x00\n    /* \"contracts/struct_enums.sol\":300:310  pupil_1.id */\n  dup1\n  add\n    /* \"contracts/struct_enums.sol\":300:316  pupil_1.id = _id */\n  dup2\n  swap1\n  sstore\n  pop\n    /* \"contracts/struct_enums.sol\":342:347  _name */\n  dup2\n    /* \"contracts/struct_enums.sol\":327:334  pupil_1 */\n  0x00\n    /* \"contracts/struct_enums.sol\":327:339  pupil_1.name */\n  0x01\n  add\n    /* \"contracts/struct_enums.sol\":327:347  pupil_1.name = _name */\n  swap1\n  dup1\n  mload\n  swap1\n  0x20\n  add\n  swap1\n  tag_6\n  swap3\n  swap2\n  swap1\n  tag_7\n  jump\t// in\ntag_6:\n  pop\n    /* \"contracts/struct_enums.sol\":372:376  _age */\n  dup1\n    /* \"contracts/struct_enums.sol\":358:365  pupil_1 */\n  0x00\n    /* \"contracts/struct_enums.sol\":358:369  pupil_1.age */\n  0x02\n  add\n    /* \"contracts/struct_enums.sol\":358:376  pupil_1.age = _age */\n  dup2\n  swap1\n  sstore\n  pop\n    /* \"contracts/struct_enums.sol\":406:416  msg.sender */\n  caller\n    /* \"contracts/struct_enums.sol\":387:394  pupil_1 */\n  0x00\n    /* \"contracts/struct_enums.sol\":387:403  pupil_1.location */\n  0x03\n  add\n  0x00\n    /* \"contracts/struct_enums.sol\":387:416  pupil_1.location = msg.sender */\n  0x0100\n  exp\n  dup2\n  sload\n  dup2\n  0xffffffffffffffffffffffffffffffffffffffff\n  mul\n  not\n  and\n  swap1\n  dup4\n  0xffffffffffffffffffffffffffffffffffffffff\n  and\n  mul\n  or\n  swap1\n  sstore\n  pop\n    /* \"contracts/struct_enums.sol\":238:426  constructor(uint _id,string memory _name,uint _age){\r... */\n  pop\n  pop\n  pop\n    /* \"contracts/struct_enums.sol\":158:431  contract School{\r... */\n  jump(tag_8)\ntag_7:\n  dup3\n  dup1\n  sload\n  tag_9\n  swap1\n  tag_10\n  jump\t// in\ntag_9:\n  swap1\n  0x00\n  mstore\n  keccak256(0x00, 0x20)\n  swap1\n  0x1f\n  add\n  0x20\n  swap1\n  div\n  dup2\n  add\n  swap3\n  dup3\n  tag_12\n  jumpi\n  0x00\n  dup6\n  sstore\n  jump(tag_11)\ntag_12:\n  dup3\n  0x1f\n  lt\n  tag_13\n  jumpi\n  dup1\n  mload\n  not(0xff)\n  and\n  dup4\n  dup1\n  add\n  or\n  dup6\n  sstore\n  jump(tag_11)\ntag_13:\n  dup3\n  dup1\n  add\n  0x01\n  add\n  dup6\n  sstore\n  dup3\n  iszero\n  tag_11\n  jumpi\n  swap2\n  dup3\n  add\ntag_14:\n  dup3\n  dup2\n  gt\n  iszero\n  tag_15\n  jumpi\n  dup3\n  mload\n  dup3\n  sstore\n  swap2\n  0x20\n  add\n  swap2\n  swap1\n  0x01\n  add\n  swap1\n  jump(tag_14)\ntag_15:\ntag_11:\n  pop\n  swap1\n  pop\n  tag_16\n  swap2\n  swap1\n  tag_17\n  jump\t// in\ntag_16:\n  pop\n  swap1\n  jump\t// out\ntag_17:\ntag_18:\n  dup1\n  dup3\n  gt\n  iszero\n  tag_19\n  jumpi\n  0x00\n  dup2\n  0x00\n  swap1\n  sstore\n  pop\n  0x01\n  add\n  jump(tag_18)\ntag_19:\n  pop\n  swap1\n  jump\t// out\n    /* \"#utility.yul\":7:360   */\ntag_21:\n  0x00\n    /* \"#utility.yul\":121:186   */\n  tag_23\n    /* \"#utility.yul\":136:185   */\n  tag_24\n    /* \"#utility.yul\":178:184   */\n  dup5\n    /* \"#utility.yul\":136:185   */\n  tag_25\n  jump\t// in\ntag_24:\n    /* \"#utility.yul\":121:186   */\n  tag_26\n  jump\t// in\ntag_23:\n    /* \"#utility.yul\":112:186   */\n  swap1\n  pop\n    /* \"#utility.yul\":209:215   */\n  dup3\n    /* \"#utility.yul\":202:207   */\n  dup2\n    /* \"#utility.yul\":195:216   */\n  mstore\n    /* \"#utility.yul\":247:251   */\n  0x20\n    /* \"#utility.yul\":240:245   */\n  dup2\n    /* \"#utility.yul\":236:252   */\n  add\n    /* \"#utility.yul\":285:288   */\n  dup5\n    /* \"#utility.yul\":276:282   */\n  dup5\n    /* \"#utility.yul\":271:274   */\n  dup5\n    /* \"#utility.yul\":267:283   */\n  add\n    /* \"#utility.yul\":264:289   */\n  gt\n    /* \"#utility.yul\":261:263   */\n  iszero\n  tag_27\n  jumpi\n    /* \"#utility.yul\":302:303   */\n  0x00\n    /* \"#utility.yul\":299:300   */\n  dup1\n    /* \"#utility.yul\":292:304   */\n  revert\n    /* \"#utility.yul\":261:263   */\ntag_27:\n    /* \"#utility.yul\":315:354   */\n  tag_28\n    /* \"#utility.yul\":347:353   */\n  dup5\n    /* \"#utility.yul\":342:345   */\n  dup3\n    /* \"#utility.yul\":337:340   */\n  dup6\n    /* \"#utility.yul\":315:354   */\n  tag_29\n  jump\t// in\ntag_28:\n    /* \"#utility.yul\":102:360   */\n  pop\n  swap4\n  swap3\n  pop\n  pop\n  pop\n  jump\t// out\n    /* \"#utility.yul\":380:668   */\ntag_30:\n  0x00\n    /* \"#utility.yul\":496:499   */\n  dup3\n    /* \"#utility.yul\":489:493   */\n  0x1f\n    /* \"#utility.yul\":481:487   */\n  dup4\n    /* \"#utility.yul\":477:494   */\n  add\n    /* \"#utility.yul\":473:500   */\n  slt\n    /* \"#utility.yul\":463:465   */\n  tag_32\n  jumpi\n    /* \"#utility.yul\":514:515   */\n  0x00\n    /* \"#utility.yul\":511:512   */\n  dup1\n    /* \"#utility.yul\":504:516   */\n  revert\n    /* \"#utility.yul\":463:465   */\ntag_32:\n    /* \"#utility.yul\":547:553   */\n  dup2\n    /* \"#utility.yul\":541:554   */\n  mload\n    /* \"#utility.yul\":572:662   */\n  tag_33\n    /* \"#utility.yul\":658:661   */\n  dup5\n    /* \"#utility.yul\":650:656   */\n  dup3\n    /* \"#utility.yul\":643:647   */\n  0x20\n    /* \"#utility.yul\":635:641   */\n  dup7\n    /* \"#utility.yul\":631:648   */\n  add\n    /* \"#utility.yul\":572:662   */\n  tag_21\n  jump\t// in\ntag_33:\n    /* \"#utility.yul\":563:662   */\n  swap2\n  pop\n    /* \"#utility.yul\":453:668   */\n  pop\n  swap3\n  swap2\n  pop\n  pop\n  jump\t// out\n    /* \"#utility.yul\":674:817   */\ntag_34:\n  0x00\n    /* \"#utility.yul\":762:768   */\n  dup2\n    /* \"#utility.yul\":756:769   */\n  mload\n    /* \"#utility.yul\":747:769   */\n  swap1\n  pop\n    /* \"#utility.yul\":778:811   */\n  tag_36\n    /* \"#utility.yul\":805:810   */\n  dup2\n    /* \"#utility.yul\":778:811   */\n  tag_37\n  jump\t// in\ntag_36:\n    /* \"#utility.yul\":737:817   */\n  swap3\n  swap2\n  pop\n  pop\n  jump\t// out\n    /* \"#utility.yul\":823:1525   */\ntag_3:\n  0x00\n  dup1\n  0x00\n    /* \"#utility.yul\":986:988   */\n  0x60\n    /* \"#utility.yul\":974:983   */\n  dup5\n    /* \"#utility.yul\":965:972   */\n  dup7\n    /* \"#utility.yul\":961:984   */\n  sub\n    /* \"#utility.yul\":957:989   */\n  slt\n    /* \"#utility.yul\":954:956   */\n  iszero\n  tag_39\n  jumpi\n    /* \"#utility.yul\":1002:1003   */\n  0x00\n    /* \"#utility.yul\":999:1000   */\n  dup1\n    /* \"#utility.yul\":992:1004   */\n  revert\n    /* \"#utility.yul\":954:956   */\ntag_39:\n    /* \"#utility.yul\":1045:1046   */\n  0x00\n    /* \"#utility.yul\":1070:1134   */\n  tag_40\n    /* \"#utility.yul\":1126:1133   */\n  dup7\n    /* \"#utility.yul\":1117:1123   */\n  dup3\n    /* \"#utility.yul\":1106:1115   */\n  dup8\n    /* \"#utility.yul\":1102:1124   */\n  add\n    /* \"#utility.yul\":1070:1134   */\n  tag_34\n  jump\t// in\ntag_40:\n    /* \"#utility.yul\":1060:1134   */\n  swap4\n  pop\n    /* \"#utility.yul\":1016:1144   */\n  pop\n    /* \"#utility.yul\":1204:1206   */\n  0x20\n    /* \"#utility.yul\":1193:1202   */\n  dup5\n    /* \"#utility.yul\":1189:1207   */\n  add\n    /* \"#utility.yul\":1183:1208   */\n  mload\n    /* \"#utility.yul\":1235:1253   */\n  0xffffffffffffffff\n    /* \"#utility.yul\":1227:1233   */\n  dup2\n    /* \"#utility.yul\":1224:1254   */\n  gt\n    /* \"#utility.yul\":1221:1223   */\n  iszero\n  tag_41\n  jumpi\n    /* \"#utility.yul\":1267:1268   */\n  0x00\n    /* \"#utility.yul\":1264:1265   */\n  dup1\n    /* \"#utility.yul\":1257:1269   */\n  revert\n    /* \"#utility.yul\":1221:1223   */\ntag_41:\n    /* \"#utility.yul\":1295:1369   */\n  tag_42\n    /* \"#utility.yul\":1361:1368   */\n  dup7\n    /* \"#utility.yul\":1352:1358   */\n  dup3\n    /* \"#utility.yul\":1341:1350   */\n  dup8\n    /* \"#utility.yul\":1337:1359   */\n  add\n    /* \"#utility.yul\":1295:1369   */\n  tag_30\n  jump\t// in\ntag_42:\n    /* \"#utility.yul\":1285:1369   */\n  swap3\n  pop\n    /* \"#utility.yul\":1154:1379   */\n  pop\n    /* \"#utility.yul\":1418:1420   */\n  0x40\n    /* \"#utility.yul\":1444:1508   */\n  tag_43\n    /* \"#utility.yul\":1500:1507   */\n  dup7\n    /* \"#utility.yul\":1491:1497   */\n  dup3\n    /* \"#utility.yul\":1480:1489   */\n  dup8\n    /* \"#utility.yul\":1476:1498   */\n  add\n    /* \"#utility.yul\":1444:1508   */\n  tag_34\n  jump\t// in\ntag_43:\n    /* \"#utility.yul\":1434:1508   */\n  swap2\n  pop\n    /* \"#utility.yul\":1389:1518   */\n  pop\n    /* \"#utility.yul\":944:1525   */\n  swap3\n  pop\n  swap3\n  pop\n  swap3\n  jump\t// out\n    /* \"#utility.yul\":1531:1814   */\ntag_26:\n  0x00\n    /* \"#utility.yul\":1597:1599   */\n  0x40\n    /* \"#utility.yul\":1591:1600   */\n  mload\n    /* \"#utility.yul\":1581:1600   */\n  swap1\n  pop\n    /* \"#utility.yul\":1639:1643   */\n  dup2\n    /* \"#utility.yul\":1631:1637   */\n  dup2\n    /* \"#utility.yul\":1627:1644   */\n  add\n    /* \"#utility.yul\":1746:1752   */\n  dup2\n    /* \"#utility.yul\":1734:1744   */\n  dup2\n    /* \"#utility.yul\":1731:1753   */\n  lt\n    /* \"#utility.yul\":1710:1728   */\n  0xffffffffffffffff\n    /* \"#utility.yul\":1698:1708   */\n  dup3\n    /* \"#utility.yul\":1695:1729   */\n  gt\n    /* \"#utility.yul\":1692:1754   */\n  or\n    /* \"#utility.yul\":1689:1691   */\n  iszero\n  tag_45\n  jumpi\n    /* \"#utility.yul\":1757:1775   */\n  tag_46\n  tag_47\n  jump\t// in\ntag_46:\n    /* \"#utility.yul\":1689:1691   */\ntag_45:\n    /* \"#utility.yul\":1797:1807   */\n  dup1\n    /* \"#utility.yul\":1793:1795   */\n  0x40\n    /* \"#utility.yul\":1786:1808   */\n  mstore\n    /* \"#utility.yul\":1571:1814   */\n  pop\n  swap2\n  swap1\n  pop\n  jump\t// out\n    /* \"#utility.yul\":1820:2152   */\ntag_25:\n  0x00\n    /* \"#utility.yul\":1972:1990   */\n  0xffffffffffffffff\n    /* \"#utility.yul\":1964:1970   */\n  dup3\n    /* \"#utility.yul\":1961:1991   */\n  gt\n    /* \"#utility.yul\":1958:1960   */\n  iszero\n  tag_49\n  jumpi\n    /* \"#utility.yul\":1994:2012   */\n  tag_50\n  tag_47\n  jump\t// in\ntag_50:\n    /* \"#utility.yul\":1958:1960   */\ntag_49:\n    /* \"#utility.yul\":2079:2083   */\n  0x1f\n    /* \"#utility.yul\":2075:2084   */\n  not\n    /* \"#utility.yul\":2068:2072   */\n  0x1f\n    /* \"#utility.yul\":2060:2066   */\n  dup4\n    /* \"#utility.yul\":2056:2073   */\n  add\n    /* \"#utility.yul\":2052:2085   */\n  and\n    /* \"#utility.yul\":2044:2085   */\n  swap1\n  pop\n    /* \"#utility.yul\":2140:2144   */\n  0x20\n    /* \"#utility.yul\":2134:2138   */\n  dup2\n    /* \"#utility.yul\":2130:2145   */\n  add\n    /* \"#utility.yul\":2122:2145   */\n  swap1\n  pop\n    /* \"#utility.yul\":1887:2152   */\n  swap2\n  swap1\n  pop\n  jump\t// out\n    /* \"#utility.yul\":2158:2235   */\ntag_51:\n  0x00\n    /* \"#utility.yul\":2224:2229   */\n  dup2\n    /* \"#utility.yul\":2213:2229   */\n  swap1\n  pop\n    /* \"#utility.yul\":2203:2235   */\n  swap2\n  swap1\n  pop\n  jump\t// out\n    /* \"#utility.yul\":2241:2548   */\ntag_29:\n    /* \"#utility.yul\":2309:2310   */\n  0x00\n    /* \"#utility.yul\":2319:2432   */\ntag_54:\n    /* \"#utility.yul\":2333:2339   */\n  dup4\n    /* \"#utility.yul\":2330:2331   */\n  dup2\n    /* \"#utility.yul\":2327:2340   */\n  lt\n    /* \"#utility.yul\":2319:2432   */\n  iszero\n  tag_56\n  jumpi\n    /* \"#utility.yul\":2418:2419   */\n  dup1\n    /* \"#utility.yul\":2413:2416   */\n  dup3\n    /* \"#utility.yul\":2409:2420   */\n  add\n    /* \"#utility.yul\":2403:2421   */\n  mload\n    /* \"#utility.yul\":2399:2400   */\n  dup2\n    /* \"#utility.yul\":2394:2397   */\n  dup5\n    /* \"#utility.yul\":2390:2401   */\n  add\n    /* \"#utility.yul\":2383:2422   */\n  mstore\n    /* \"#utility.yul\":2355:2357   */\n  0x20\n    /* \"#utility.yul\":2352:2353   */\n  dup2\n    /* \"#utility.yul\":2348:2358   */\n  add\n    /* \"#utility.yul\":2343:2358   */\n  swap1\n  pop\n    /* \"#utility.yul\":2319:2432   */\n  jump(tag_54)\ntag_56:\n    /* \"#utility.yul\":2450:2456   */\n  dup4\n    /* \"#utility.yul\":2447:2448   */\n  dup2\n    /* \"#utility.yul\":2444:2457   */\n  gt\n    /* \"#utility.yul\":2441:2443   */\n  iszero\n  tag_57\n  jumpi\n    /* \"#utility.yul\":2530:2531   */\n  0x00\n    /* \"#utility.yul\":2521:2527   */\n  dup5\n    /* \"#utility.yul\":2516:2519   */\n  dup5\n    /* \"#utility.yul\":2512:2528   */\n  add\n    /* \"#utility.yul\":2505:2532   */\n  mstore\n    /* \"#utility.yul\":2441:2443   */\ntag_57:\n    /* \"#utility.yul\":2290:2548   */\n  pop\n  pop\n  pop\n  pop\n  jump\t// out\n    /* \"#utility.yul\":2554:2874   */\ntag_10:\n  0x00\n    /* \"#utility.yul\":2635:2636   */\n  0x02\n    /* \"#utility.yul\":2629:2633   */\n  dup3\n    /* \"#utility.yul\":2625:2637   */\n  div\n    /* \"#utility.yul\":2615:2637   */\n  swap1\n  pop\n    /* \"#utility.yul\":2682:2683   */\n  0x01\n    /* \"#utility.yul\":2676:2680   */\n  dup3\n    /* \"#utility.yul\":2672:2684   */\n  and\n    /* \"#utility.yul\":2703:2721   */\n  dup1\n    /* \"#utility.yul\":2693:2695   */\n  tag_59\n  jumpi\n    /* \"#utility.yul\":2759:2763   */\n  0x7f\n    /* \"#utility.yul\":2751:2757   */\n  dup3\n    /* \"#utility.yul\":2747:2764   */\n  and\n    /* \"#utility.yul\":2737:2764   */\n  swap2\n  pop\n    /* \"#utility.yul\":2693:2695   */\ntag_59:\n    /* \"#utility.yul\":2821:2823   */\n  0x20\n    /* \"#utility.yul\":2813:2819   */\n  dup3\n    /* \"#utility.yul\":2810:2824   */\n  lt\n    /* \"#utility.yul\":2790:2808   */\n  dup2\n    /* \"#utility.yul\":2787:2825   */\n  eq\n    /* \"#utility.yul\":2784:2786   */\n  iszero\n  tag_60\n  jumpi\n    /* \"#utility.yul\":2840:2858   */\n  tag_61\n  tag_62\n  jump\t// in\ntag_61:\n    /* \"#utility.yul\":2784:2786   */\ntag_60:\n    /* \"#utility.yul\":2605:2874   */\n  pop\n  swap2\n  swap1\n  pop\n  jump\t// out\n    /* \"#utility.yul\":2880:3060   */\ntag_62:\n    /* \"#utility.yul\":2928:3005   */\n  0x4e487b7100000000000000000000000000000000000000000000000000000000\n    /* \"#utility.yul\":2925:2926   */\n  0x00\n    /* \"#utility.yul\":2918:3006   */\n  mstore\n    /* \"#utility.yul\":3025:3029   */\n  0x22\n    /* \"#utility.yul\":3022:3023   */\n  0x04\n    /* \"#utility.yul\":3015:3030   */\n  mstore\n    /* \"#utility.yul\":3049:3053   */\n  0x24\n    /* \"#utility.yul\":3046:3047   */\n  0x00\n    /* \"#utility.yul\":3039:3054   */\n  revert\n    /* \"#utility.yul\":3066:3246   */\ntag_47:\n    /* \"#utility.yul\":3114:3191   */\n  0x4e487b7100000000000000000000000000000000000000000000000000000000\n    /* \"#utility.yul\":3111:3112   */\n  0x00\n    /* \"#utility.yul\":3104:3192   */\n  mstore\n    /* \"#utility.yul\":3211:3215   */\n  0x41\n    /* \"#utility.yul\":3208:3209   */\n  0x04\n    /* \"#utility.yul\":3201:3216   */\n  mstore\n    /* \"#utility.yul\":3235:3239   */\n  0x24\n    /* \"#utility.yul\":3232:3233   */\n  0x00\n    /* \"#utility.yul\":3225:3240   */\n  revert\n    /* \"#utility.yul\":3252:3374   */\ntag_37:\n    /* \"#utility.yul\":3325:3349   */\n  tag_66\n    /* \"#utility.yul\":3343:3348   */\n  dup2\n    /* \"#utility.yul\":3325:3349   */\n  tag_51\n  jump\t// in\ntag_66:\n    /* \"#utility.yul\":3318:3323   */\n  dup2\n    /* \"#utility.yul\":3315:3350   */\n  eq\n    /* \"#utility.yul\":3305:3307   */\n  tag_67\n  jumpi\n    /* \"#utility.yul\":3364:3365   */\n  0x00\n    /* \"#utility.yul\":3361:3362   */\n  dup1\n    /* \"#utility.yul\":3354:3366   */\n  revert\n    /* \"#utility.yul\":3305:3307   */\ntag_67:\n    /* \"#utility.yul\":3295:3374   */\n  pop\n  jump\t// out\n    /* \"contracts/struct_enums.sol\":158:431  contract School{\r... */\ntag_8:\n  dataSize(sub_0)\n  dup1\n  dataOffset(sub_0)\n  0x00\n  codecopy\n  0x00\n  return\nstop\n\nsub_0: assembly {\n        /* \"contracts/struct_enums.sol\":158:431  contract School{\r... */\n      mstore(0x40, 0x80)\n      callvalue\n      dup1\n      iszero\n      tag_1\n      jumpi\n      0x00\n      dup1\n      revert\n    tag_1:\n      pop\n      jumpi(tag_2, lt(calldatasize, 0x04))\n      shr(0xe0, calldataload(0x00))\n      dup1\n      0x78e667b4\n      eq\n      tag_3\n      jumpi\n    tag_2:\n      0x00\n      dup1\n      revert\n        /* \"contracts/struct_enums.sol\":207:229  Student public pupil_1 */\n    tag_3:\n      tag_4\n      tag_5\n      jump\t// in\n    tag_4:\n      mload(0x40)\n      tag_6\n      swap5\n      swap4\n      swap3\n      swap2\n      swap1\n      tag_7\n      jump\t// in\n    tag_6:\n      mload(0x40)\n      dup1\n      swap2\n      sub\n      swap1\n      return\n    tag_5:\n      0x00\n      dup1\n      0x00\n      add\n      sload\n      swap1\n      dup1\n      0x01\n      add\n      dup1\n      sload\n      tag_8\n      swap1\n      tag_9\n      jump\t// in\n    tag_8:\n      dup1\n      0x1f\n      add\n      0x20\n      dup1\n      swap2\n      div\n      mul\n      0x20\n      add\n      mload(0x40)\n      swap1\n      dup2\n      add\n      0x40\n      mstore\n      dup1\n      swap3\n      swap2\n      swap1\n      dup2\n      dup2\n      mstore\n      0x20\n      add\n      dup3\n      dup1\n      sload\n      tag_10\n      swap1\n      tag_9\n      jump\t// in\n    tag_10:\n      dup1\n      iszero\n      tag_11\n      jumpi\n      dup1\n      0x1f\n      lt\n      tag_12\n      jumpi\n      0x0100\n      dup1\n      dup4\n      sload\n      div\n      mul\n      dup4\n      mstore\n      swap2\n      0x20\n      add\n      swap2\n      jump(tag_11)\n    tag_12:\n      dup3\n      add\n      swap2\n      swap1\n      0x00\n      mstore\n      keccak256(0x00, 0x20)\n      swap1\n    tag_13:\n      dup2\n      sload\n      dup2\n      mstore\n      swap1\n      0x01\n      add\n      swap1\n      0x20\n      add\n      dup1\n      dup4\n      gt\n      tag_13\n      jumpi\n      dup3\n      swap1\n      sub\n      0x1f\n      and\n      dup3\n      add\n      swap2\n    tag_11:\n      pop\n      pop\n      pop\n      pop\n      pop\n      swap1\n      dup1\n      0x02\n      add\n      sload\n      swap1\n      dup1\n      0x03\n      add\n      0x00\n      swap1\n      sload\n      swap1\n      0x0100\n      exp\n      swap1\n      div\n      0xffffffffffffffffffffffffffffffffffffffff\n      and\n      swap1\n      pop\n      dup5\n      jump\t// out\n        /* \"#utility.yul\":7:125   */\n    tag_15:\n        /* \"#utility.yul\":94:118   */\n      tag_17\n        /* \"#utility.yul\":112:117   */\n      dup2\n        /* \"#utility.yul\":94:118   */\n      tag_18\n      jump\t// in\n    tag_17:\n        /* \"#utility.yul\":89:92   */\n      dup3\n        /* \"#utility.yul\":82:119   */\n      mstore\n        /* \"#utility.yul\":72:125   */\n      pop\n      pop\n      jump\t// out\n        /* \"#utility.yul\":131:495   */\n    tag_19:\n      0x00\n        /* \"#utility.yul\":247:286   */\n      tag_21\n        /* \"#utility.yul\":280:285   */\n      dup3\n        /* \"#utility.yul\":247:286   */\n      tag_22\n      jump\t// in\n    tag_21:\n        /* \"#utility.yul\":302:373   */\n      tag_23\n        /* \"#utility.yul\":366:372   */\n      dup2\n        /* \"#utility.yul\":361:364   */\n      dup6\n        /* \"#utility.yul\":302:373   */\n      tag_24\n      jump\t// in\n    tag_23:\n        /* \"#utility.yul\":295:373   */\n      swap4\n      pop\n        /* \"#utility.yul\":382:434   */\n      tag_25\n        /* \"#utility.yul\":427:433   */\n      dup2\n        /* \"#utility.yul\":422:425   */\n      dup6\n        /* \"#utility.yul\":415:419   */\n      0x20\n        /* \"#utility.yul\":408:413   */\n      dup7\n        /* \"#utility.yul\":404:420   */\n      add\n        /* \"#utility.yul\":382:434   */\n      tag_26\n      jump\t// in\n    tag_25:\n        /* \"#utility.yul\":459:488   */\n      tag_27\n        /* \"#utility.yul\":481:487   */\n      dup2\n        /* \"#utility.yul\":459:488   */\n      tag_28\n      jump\t// in\n    tag_27:\n        /* \"#utility.yul\":454:457   */\n      dup5\n        /* \"#utility.yul\":450:489   */\n      add\n        /* \"#utility.yul\":443:489   */\n      swap2\n      pop\n        /* \"#utility.yul\":223:495   */\n      pop\n      swap3\n      swap2\n      pop\n      pop\n      jump\t// out\n        /* \"#utility.yul\":501:619   */\n    tag_29:\n        /* \"#utility.yul\":588:612   */\n      tag_31\n        /* \"#utility.yul\":606:611   */\n      dup2\n        /* \"#utility.yul\":588:612   */\n      tag_32\n      jump\t// in\n    tag_31:\n        /* \"#utility.yul\":583:586   */\n      dup3\n        /* \"#utility.yul\":576:613   */\n      mstore\n        /* \"#utility.yul\":566:619   */\n      pop\n      pop\n      jump\t// out\n        /* \"#utility.yul\":625:1269   */\n    tag_7:\n      0x00\n        /* \"#utility.yul\":860:863   */\n      0x80\n        /* \"#utility.yul\":849:858   */\n      dup3\n        /* \"#utility.yul\":845:864   */\n      add\n        /* \"#utility.yul\":837:864   */\n      swap1\n      pop\n        /* \"#utility.yul\":874:945   */\n      tag_34\n        /* \"#utility.yul\":942:943   */\n      0x00\n        /* \"#utility.yul\":931:940   */\n      dup4\n        /* \"#utility.yul\":927:944   */\n      add\n        /* \"#utility.yul\":918:924   */\n      dup8\n        /* \"#utility.yul\":874:945   */\n      tag_29\n      jump\t// in\n    tag_34:\n        /* \"#utility.yul\":992:1001   */\n      dup2\n        /* \"#utility.yul\":986:990   */\n      dup2\n        /* \"#utility.yul\":982:1002   */\n      sub\n        /* \"#utility.yul\":977:979   */\n      0x20\n        /* \"#utility.yul\":966:975   */\n      dup4\n        /* \"#utility.yul\":962:980   */\n      add\n        /* \"#utility.yul\":955:1003   */\n      mstore\n        /* \"#utility.yul\":1020:1098   */\n      tag_35\n        /* \"#utility.yul\":1093:1097   */\n      dup2\n        /* \"#utility.yul\":1084:1090   */\n      dup7\n        /* \"#utility.yul\":1020:1098   */\n      tag_19\n      jump\t// in\n    tag_35:\n        /* \"#utility.yul\":1012:1098   */\n      swap1\n      pop\n        /* \"#utility.yul\":1108:1180   */\n      tag_36\n        /* \"#utility.yul\":1176:1178   */\n      0x40\n        /* \"#utility.yul\":1165:1174   */\n      dup4\n        /* \"#utility.yul\":1161:1179   */\n      add\n        /* \"#utility.yul\":1152:1158   */\n      dup6\n        /* \"#utility.yul\":1108:1180   */\n      tag_29\n      jump\t// in\n    tag_36:\n        /* \"#utility.yul\":1190:1262   */\n      tag_37\n        /* \"#utility.yul\":1258:1260   */\n      0x60\n        /* \"#utility.yul\":1247:1256   */\n      dup4\n        /* \"#utility.yul\":1243:1261   */\n      add\n        /* \"#utility.yul\":1234:1240   */\n      dup5\n        /* \"#utility.yul\":1190:1262   */\n      tag_15\n      jump\t// in\n    tag_37:\n        /* \"#utility.yul\":827:1269   */\n      swap6\n      swap5\n      pop\n      pop\n      pop\n      pop\n      pop\n      jump\t// out\n        /* \"#utility.yul\":1275:1374   */\n    tag_22:\n      0x00\n        /* \"#utility.yul\":1361:1366   */\n      dup2\n        /* \"#utility.yul\":1355:1367   */\n      mload\n        /* \"#utility.yul\":1345:1367   */\n      swap1\n      pop\n        /* \"#utility.yul\":1334:1374   */\n      swap2\n      swap1\n      pop\n      jump\t// out\n        /* \"#utility.yul\":1380:1549   */\n    tag_24:\n      0x00\n        /* \"#utility.yul\":1498:1504   */\n      dup3\n        /* \"#utility.yul\":1493:1496   */\n      dup3\n        /* \"#utility.yul\":1486:1505   */\n      mstore\n        /* \"#utility.yul\":1538:1542   */\n      0x20\n        /* \"#utility.yul\":1533:1536   */\n      dup3\n        /* \"#utility.yul\":1529:1543   */\n      add\n        /* \"#utility.yul\":1514:1543   */\n      swap1\n      pop\n        /* \"#utility.yul\":1476:1549   */\n      swap3\n      swap2\n      pop\n      pop\n      jump\t// out\n        /* \"#utility.yul\":1555:1651   */\n    tag_18:\n      0x00\n        /* \"#utility.yul\":1621:1645   */\n      tag_41\n        /* \"#utility.yul\":1639:1644   */\n      dup3\n        /* \"#utility.yul\":1621:1645   */\n      tag_42\n      jump\t// in\n    tag_41:\n        /* \"#utility.yul\":1610:1645   */\n      swap1\n      pop\n        /* \"#utility.yul\":1600:1651   */\n      swap2\n      swap1\n      pop\n      jump\t// out\n        /* \"#utility.yul\":1657:1783   */\n    tag_42:\n      0x00\n        /* \"#utility.yul\":1734:1776   */\n      0xffffffffffffffffffffffffffffffffffffffff\n        /* \"#utility.yul\":1727:1732   */\n      dup3\n        /* \"#utility.yul\":1723:1777   */\n      and\n        /* \"#utility.yul\":1712:1777   */\n      swap1\n      pop\n        /* \"#utility.yul\":1702:1783   */\n      swap2\n      swap1\n      pop\n      jump\t// out\n        /* \"#utility.yul\":1789:1866   */\n    tag_32:\n      0x00\n        /* \"#utility.yul\":1855:1860   */\n      dup2\n        /* \"#utility.yul\":1844:1860   */\n      swap1\n      pop\n        /* \"#utility.yul\":1834:1866   */\n      swap2\n      swap1\n      pop\n      jump\t// out\n        /* \"#utility.yul\":1872:2179   */\n    tag_26:\n        /* \"#utility.yul\":1940:1941   */\n      0x00\n        /* \"#utility.yul\":1950:2063   */\n    tag_46:\n        /* \"#utility.yul\":1964:1970   */\n      dup4\n        /* \"#utility.yul\":1961:1962   */\n      dup2\n        /* \"#utility.yul\":1958:1971   */\n      lt\n        /* \"#utility.yul\":1950:2063   */\n      iszero\n      tag_48\n      jumpi\n        /* \"#utility.yul\":2049:2050   */\n      dup1\n        /* \"#utility.yul\":2044:2047   */\n      dup3\n        /* \"#utility.yul\":2040:2051   */\n      add\n        /* \"#utility.yul\":2034:2052   */\n      mload\n        /* \"#utility.yul\":2030:2031   */\n      dup2\n        /* \"#utility.yul\":2025:2028   */\n      dup5\n        /* \"#utility.yul\":2021:2032   */\n      add\n        /* \"#utility.yul\":2014:2053   */\n      mstore\n        /* \"#utility.yul\":1986:1988   */\n      0x20\n        /* \"#utility.yul\":1983:1984   */\n      dup2\n        /* \"#utility.yul\":1979:1989   */\n      add\n        /* \"#utility.yul\":1974:1989   */\n      swap1\n      pop\n        /* \"#utility.yul\":1950:2063   */\n      jump(tag_46)\n    tag_48:\n        /* \"#utility.yul\":2081:2087   */\n      dup4\n        /* \"#utility.yul\":2078:2079   */\n      dup2\n        /* \"#utility.yul\":2075:2088   */\n      gt\n        /* \"#utility.yul\":2072:2074   */\n      iszero\n      tag_49\n      jumpi\n        /* \"#utility.yul\":2161:2162   */\n      0x00\n        /* \"#utility.yul\":2152:2158   */\n      dup5\n        /* \"#utility.yul\":2147:2150   */\n      dup5\n        /* \"#utility.yul\":2143:2159   */\n      add\n        /* \"#utility.yul\":2136:2163   */\n      mstore\n        /* \"#utility.yul\":2072:2074   */\n    tag_49:\n        /* \"#utility.yul\":1921:2179   */\n      pop\n      pop\n      pop\n      pop\n      jump\t// out\n        /* \"#utility.yul\":2185:2505   */\n    tag_9:\n      0x00\n        /* \"#utility.yul\":2266:2267   */\n      0x02\n        /* \"#utility.yul\":2260:2264   */\n      dup3\n        /* \"#utility.yul\":2256:2268   */\n      div\n        /* \"#utility.yul\":2246:2268   */\n      swap1\n      pop\n        /* \"#utility.yul\":2313:2314   */\n      0x01\n        /* \"#utility.yul\":2307:2311   */\n      dup3\n        /* \"#utility.yul\":2303:2315   */\n      and\n        /* \"#utility.yul\":2334:2352   */\n      dup1\n        /* \"#utility.yul\":2324:2326   */\n      tag_51\n      jumpi\n        /* \"#utility.yul\":2390:2394   */\n      0x7f\n        /* \"#utility.yul\":2382:2388   */\n      dup3\n        /* \"#utility.yul\":2378:2395   */\n      and\n        /* \"#utility.yul\":2368:2395   */\n      swap2\n      pop\n        /* \"#utility.yul\":2324:2326   */\n    tag_51:\n        /* \"#utility.yul\":2452:2454   */\n      0x20\n        /* \"#utility.yul\":2444:2450   */\n      dup3\n        /* \"#utility.yul\":2441:2455   */\n      lt\n        /* \"#utility.yul\":2421:2439   */\n      dup2\n        /* \"#utility.yul\":2418:2456   */\n      eq\n        /* \"#utility.yul\":2415:2417   */\n      iszero\n      tag_52\n      jumpi\n        /* \"#utility.yul\":2471:2489   */\n      tag_53\n      tag_54\n      jump\t// in\n    tag_53:\n        /* \"#utility.yul\":2415:2417   */\n    tag_52:\n        /* \"#utility.yul\":2236:2505   */\n      pop\n      swap2\n      swap1\n      pop\n      jump\t// out\n        /* \"#utility.yul\":2511:2691   */\n    tag_54:\n        /* \"#utility.yul\":2559:2636   */\n      0x4e487b7100000000000000000000000000000000000000000000000000000000\n        /* \"#utility.yul\":2556:2557   */\n      0x00\n        /* \"#utility.yul\":2549:2637   */\n      mstore\n        /* \"#utility.yul\":2656:2660   */\n      0x22\n        /* \"#utility.yul\":2653:2654   */\n      0x04\n        /* \"#utility.yul\":2646:2661   */\n      mstore\n        /* \"#utility.yul\":2680:2684   */\n      0x24\n        /* \"#utility.yul\":2677:2678   */\n      0x00\n        /* \"#utility.yul\":2670:2685   */\n      revert\n        /* \"#utility.yul\":2697:2799   */\n    tag_28:\n      0x00\n        /* \"#utility.yul\":2789:2791   */\n      0x1f\n        /* \"#utility.yul\":2785:2792   */\n      not\n        /* \"#utility.yul\":2780:2782   */\n      0x1f\n        /* \"#utility.yul\":2773:2778   */\n      dup4\n        /* \"#utility.yul\":2769:2783   */\n      add\n        /* \"#utility.yul\":2765:2793   */\n      and\n        /* \"#utility.yul\":2755:2793   */\n      swap1\n      pop\n        /* \"#utility.yul\":2745:2799   */\n      swap2\n      swap1\n      pop\n      jump\t// out\n\n    auxdata: 0xa26469706673582212206a2d81d6600eae24d47d478020be8127f12a66ab6e75c5fc3873a3d050fec86464736f6c63430008000033\n}\n",
				"bytecode": {
					"linkReferences": {},
					"object": "608060405234801561001057600080fd5b50604051610673380380610673833981810160405281019061003291906101cb565b82600080018190555081600060010190805190602001906100549291906100ab565b508060006002018190555033600060030160006101000a81548173ffffffffffffffffffffffffffffffffffffffff021916908373ffffffffffffffffffffffffffffffffffffffff160217905550505050610377565b8280546100b7906102d0565b90600052602060002090601f0160209004810192826100d95760008555610120565b82601f106100f257805160ff1916838001178555610120565b82800160010185558215610120579182015b8281111561011f578251825591602001919060010190610104565b5b50905061012d9190610131565b5090565b5b8082111561014a576000816000905550600101610132565b5090565b600061016161015c84610263565b610232565b90508281526020810184848401111561017957600080fd5b61018484828561029d565b509392505050565b600082601f83011261019d57600080fd5b81516101ad84826020860161014e565b91505092915050565b6000815190506101c581610360565b92915050565b6000806000606084860312156101e057600080fd5b60006101ee868287016101b6565b935050602084015167ffffffffffffffff81111561020b57600080fd5b6102178682870161018c565b9250506040610228868287016101b6565b9150509250925092565b6000604051905081810181811067ffffffffffffffff8211171561025957610258610331565b5b8060405250919050565b600067ffffffffffffffff82111561027e5761027d610331565b5b601f19601f8301169050602081019050919050565b6000819050919050565b60005b838110156102bb5780820151818401526020810190506102a0565b838111156102ca576000848401525b50505050565b600060028204905060018216806102e857607f821691505b602082108114156102fc576102fb610302565b5b50919050565b7f4e487b7100000000000000000000000000000000000000000000000000000000600052602260045260246000fd5b7f4e487b7100000000000000000000000000000000000000000000000000000000600052604160045260246000fd5b61036981610293565b811461037457600080fd5b50565b6102ed806103866000396000f3fe608060405234801561001057600080fd5b506004361061002b5760003560e01c806378e667b414610030575b600080fd5b610038610051565b604051610048949392919061016e565b60405180910390f35b600080600001549080600101805461006890610245565b80601f016020809104026020016040519081016040528092919081815260200182805461009490610245565b80156100e15780601f106100b6576101008083540402835291602001916100e1565b820191906000526020600020905b8154815290600101906020018083116100c457829003601f168201915b5050505050908060020154908060030160009054906101000a900473ffffffffffffffffffffffffffffffffffffffff16905084565b610120816101d6565b82525050565b6000610131826101ba565b61013b81856101c5565b935061014b818560208601610212565b610154816102a6565b840191505092915050565b61016881610208565b82525050565b6000608082019050610183600083018761015f565b81810360208301526101958186610126565b90506101a4604083018561015f565b6101b16060830184610117565b95945050505050565b600081519050919050565b600082825260208201905092915050565b60006101e1826101e8565b9050919050565b600073ffffffffffffffffffffffffffffffffffffffff82169050919050565b6000819050919050565b60005b83811015610230578082015181840152602081019050610215565b8381111561023f576000848401525b50505050565b6000600282049050600182168061025d57607f821691505b6020821081141561027157610270610277565b5b50919050565b7f4e487b7100000000000000000000000000000000000000000000000000000000600052602260045260246000fd5b6000601f19601f830116905091905056fea26469706673582212206a2d81d6600eae24d47d478020be8127f12a66ab6e75c5fc3873a3d050fec86464736f6c63430008000033",
					"opcodes": "PUSH1 0x80 PUSH1 0x40 MSTORE CALLVALUE DUP1 ISZERO PUSH2 0x10 JUMPI PUSH1 0x0 DUP1 REVERT JUMPDEST POP PUSH1 0x40 MLOAD PUSH2 0x673 CODESIZE SUB DUP1 PUSH2 0x673 DUP4 CODECOPY DUP2 DUP2 ADD PUSH1 0x40 MSTORE DUP2 ADD SWAP1 PUSH2 0x32 SWAP2 SWAP1 PUSH2 0x1CB JUMP JUMPDEST DUP3 PUSH1 0x0 DUP1 ADD DUP2 SWAP1 SSTORE POP DUP2 PUSH1 0x0 PUSH1 0x1 ADD SWAP1 DUP1 MLOAD SWAP1 PUSH1 0x20 ADD SWAP1 PUSH2 0x54 SWAP3 SWAP2 SWAP1 PUSH2 0xAB JUMP JUMPDEST POP DUP1 PUSH1 0x0 PUSH1 0x2 ADD DUP2 SWAP1 SSTORE POP CALLER PUSH1 0x0 PUSH1 0x3 ADD PUSH1 0x0 PUSH2 0x100 EXP DUP2 SLOAD DUP2 PUSH20 0xFFFFFFFFFFFFFFFFFFFFFFFFFFFFFFFFFFFFFFFF MUL NOT AND SWAP1 DUP4 PUSH20 0xFFFFFFFFFFFFFFFFFFFFFFFFFFFFFFFFFFFFFFFF AND MUL OR SWAP1 SSTORE POP POP POP POP PUSH2 0x377 JUMP JUMPDEST DUP3 DUP1 SLOAD PUSH2 0xB7 SWAP1 PUSH2 0x2D0 JUMP JUMPDEST SWAP1 PUSH1 0x0 MSTORE PUSH1 0x20 PUSH1 0x0 KECCAK256 SWAP1 PUSH1 0x1F ADD PUSH1 0x20 SWAP1 DIV DUP2 ADD SWAP3 DUP3 PUSH2 0xD9 JUMPI PUSH1 0x0 DUP6 SSTORE PUSH2 0x120 JUMP JUMPDEST DUP3 PUSH1 0x1F LT PUSH2 0xF2 JUMPI DUP1 MLOAD PUSH1 0xFF NOT AND DUP4 DUP1 ADD OR DUP6 SSTORE PUSH2 0x120 JUMP JUMPDEST DUP3 DUP1 ADD PUSH1 0x1 ADD DUP6 SSTORE DUP3 ISZERO PUSH2 0x120 JUMPI SWAP2 DUP3 ADD JUMPDEST DUP3 DUP2 GT ISZERO PUSH2 0x11F JUMPI DUP3 MLOAD DUP3 SSTORE SWAP2 PUSH1 0x20 ADD SWAP2 SWAP1 PUSH1 0x1 ADD SWAP1 PUSH2 0x104 JUMP JUMPDEST JUMPDEST POP SWAP1 POP PUSH2 0x12D SWAP2 SWAP1 PUSH2 0x131 JUMP JUMPDEST POP SWAP1 JUMP JUMPDEST JUMPDEST DUP1 DUP3 GT ISZERO PUSH2 0x14A JUMPI PUSH1 0x0 DUP2 PUSH1 0x0 SWAP1 SSTORE POP PUSH1 0x1 ADD PUSH2 0x132 JUMP JUMPDEST POP SWAP1 JUMP JUMPDEST PUSH1 0x0 PUSH2 0x161 PUSH2 0x15C DUP5 PUSH2 0x263 JUMP JUMPDEST PUSH2 0x232 JUMP JUMPDEST SWAP1 POP DUP3 DUP2 MSTORE PUSH1 0x20 DUP2 ADD DUP5 DUP5 DUP5 ADD GT ISZERO PUSH2 0x179 JUMPI PUSH1 0x0 DUP1 REVERT JUMPDEST PUSH2 0x184 DUP5 DUP3 DUP6 PUSH2 0x29D JUMP JUMPDEST POP SWAP4 SWAP3 POP POP POP JUMP JUMPDEST PUSH1 0x0 DUP3 PUSH1 0x1F DUP4 ADD SLT PUSH2 0x19D JUMPI PUSH1 0x0 DUP1 REVERT JUMPDEST DUP2 MLOAD PUSH2 0x1AD DUP5 DUP3 PUSH1 0x20 DUP7 ADD PUSH2 0x14E JUMP JUMPDEST SWAP2 POP POP SWAP3 SWAP2 POP POP JUMP JUMPDEST PUSH1 0x0 DUP2 MLOAD SWAP1 POP PUSH2 0x1C5 DUP2 PUSH2 0x360 JUMP JUMPDEST SWAP3 SWAP2 POP POP JUMP JUMPDEST PUSH1 0x0 DUP1 PUSH1 0x0 PUSH1 0x60 DUP5 DUP7 SUB SLT ISZERO PUSH2 0x1E0 JUMPI PUSH1 0x0 DUP1 REVERT JUMPDEST PUSH1 0x0 PUSH2 0x1EE DUP7 DUP3 DUP8 ADD PUSH2 0x1B6 JUMP JUMPDEST SWAP4 POP POP PUSH1 0x20 DUP5 ADD MLOAD PUSH8 0xFFFFFFFFFFFFFFFF DUP2 GT ISZERO PUSH2 0x20B JUMPI PUSH1 0x0 DUP1 REVERT JUMPDEST PUSH2 0x217 DUP7 DUP3 DUP8 ADD PUSH2 0x18C JUMP JUMPDEST SWAP3 POP POP PUSH1 0x40 PUSH2 0x228 DUP7 DUP3 DUP8 ADD PUSH2 0x1B6 JUMP JUMPDEST SWAP2 POP POP SWAP3 POP SWAP3 POP SWAP3 JUMP JUMPDEST PUSH1 0x0 PUSH1 0x40 MLOAD SWAP1 POP DUP2 DUP2 ADD DUP2 DUP2 LT PUSH8 0xFFFFFFFFFFFFFFFF DUP3 GT OR ISZERO PUSH2 0x259 JUMPI PUSH2 0x258 PUSH2 0x331 JUMP JUMPDEST JUMPDEST DUP1 PUSH1 0x40 MSTORE POP SWAP2 SWAP1 POP JUMP JUMPDEST PUSH1 0x0 PUSH8 0xFFFFFFFFFFFFFFFF DUP3 GT ISZERO PUSH2 0x27E JUMPI PUSH2 0x27D PUSH2 0x331 JUMP JUMPDEST JUMPDEST PUSH1 0x1F NOT PUSH1 0x1F DUP4 ADD AND SWAP1 POP PUSH1 0x20 DUP2 ADD SWAP1 POP SWAP2 SWAP1 POP JUMP JUMPDEST PUSH1 0x0 DUP2 SWAP1 POP SWAP2 SWAP1 POP JUMP JUMPDEST PUSH1 0x0 JUMPDEST DUP4 DUP2 LT ISZERO PUSH2 0x2BB JUMPI DUP1 DUP3 ADD MLOAD DUP2 DUP5 ADD MSTORE PUSH1 0x20 DUP2 ADD SWAP1 POP PUSH2 0x2A0 JUMP JUMPDEST DUP4 DUP2 GT ISZERO PUSH2 0x2CA JUMPI PUSH1 0x0 DUP5 DUP5 ADD MSTORE JUMPDEST POP POP POP POP JUMP JUMPDEST PUSH1 0x0 PUSH1 0x2 DUP3 DIV SWAP1 POP PUSH1 0x1 DUP3 AND DUP1 PUSH2 0x2E8 JUMPI PUSH1 0x7F DUP3 AND SWAP2 POP JUMPDEST PUSH1 0x20 DUP3 LT DUP2 EQ ISZERO PUSH2 0x2FC JUMPI PUSH2 0x2FB PUSH2 0x302 JUMP JUMPDEST JUMPDEST POP SWAP2 SWAP1 POP JUMP JUMPDEST PUSH32 0x4E487B7100000000000000000000000000000000000000000000000000000000 PUSH1 0x0 MSTORE PUSH1 0x22 PUSH1 0x4 MSTORE PUSH1 0x24 PUSH1 0x0 REVERT JUMPDEST PUSH32 0x4E487B7100000000000000000000000000000000000000000000000000000000 PUSH1 0x0 MSTORE PUSH1 0x41 PUSH1 0x4 MSTORE PUSH1 0x24 PUSH1 0x0 REVERT JUMPDEST PUSH2 0x369 DUP2 PUSH2 0x293 JUMP JUMPDEST DUP2 EQ PUSH2 0x374 JUMPI PUSH1 0x0 DUP1 REVERT JUMPDEST POP JUMP JUMPDEST PUSH2 0x2ED DUP1 PUSH2 0x386 PUSH1 0x0 CODECOPY PUSH1 0x0 RETURN INVALID PUSH1 0x80 PUSH1 0x40 MSTORE CALLVALUE DUP1 ISZERO PUSH2 0x10 JUMPI PUSH1 0x0 DUP1 REVERT JUMPDEST POP PUSH1 0x4 CALLDATASIZE LT PUSH2 0x2B JUMPI PUSH1 0x0 CALLDATALOAD PUSH1 0xE0 SHR DUP1 PUSH4 0x78E667B4 EQ PUSH2 0x30 JUMPI JUMPDEST PUSH1 0x0 DUP1 REVERT JUMPDEST PUSH2 0x38 PUSH2 0x51 JUMP JUMPDEST PUSH1 0x40 MLOAD PUSH2 0x48 SWAP5 SWAP4 SWAP3 SWAP2 SWAP1 PUSH2 0x16E JUMP JUMPDEST PUSH1 0x40 MLOAD DUP1 SWAP2 SUB SWAP1 RETURN JUMPDEST PUSH1 0x0 DUP1 PUSH1 0x0 ADD SLOAD SWAP1 DUP1 PUSH1 0x1 ADD DUP1 SLOAD PUSH2 0x68 SWAP1 PUSH2 0x245 JUMP JUMPDEST DUP1 PUSH1 0x1F ADD PUSH1 0x20 DUP1 SWAP2 DIV MUL PUSH1 0x20 ADD PUSH1 0x40 MLOAD SWAP1 DUP2 ADD PUSH1 0x40 MSTORE DUP1 SWAP3 SWAP2 SWAP1 DUP2 DUP2 MSTORE PUSH1 0x20 ADD DUP3 DUP1 SLOAD PUSH2 0x94 SWAP1 PUSH2 0x245 JUMP JUMPDEST DUP1 ISZERO PUSH2 0xE1 JUMPI DUP1 PUSH1 0x1F LT PUSH2 0xB6 JUMPI PUSH2 0x100 DUP1 DUP4 SLOAD DIV MUL DUP4 MSTORE SWAP2 PUSH1 0x20 ADD SWAP2 PUSH2 0xE1 JUMP JUMPDEST DUP3 ADD SWAP2 SWAP1 PUSH1 0x0 MSTORE PUSH1 0x20 PUSH1 0x0 KECCAK256 SWAP1 JUMPDEST DUP2 SLOAD DUP2 MSTORE SWAP1 PUSH1 0x1 ADD SWAP1 PUSH1 0x20 ADD DUP1 DUP4 GT PUSH2 0xC4 JUMPI DUP3 SWAP1 SUB PUSH1 0x1F AND DUP3 ADD SWAP2 JUMPDEST POP POP POP POP POP SWAP1 DUP1 PUSH1 0x2 ADD SLOAD SWAP1 DUP1 PUSH1 0x3 ADD PUSH1 0x0 SWAP1 SLOAD SWAP1 PUSH2 0x100 EXP SWAP1 DIV PUSH20 0xFFFFFFFFFFFFFFFFFFFFFFFFFFFFFFFFFFFFFFFF AND SWAP1 POP DUP5 JUMP JUMPDEST PUSH2 0x120 DUP2 PUSH2 0x1D6 JUMP JUMPDEST DUP3 MSTORE POP POP JUMP JUMPDEST PUSH1 0x0 PUSH2 0x131 DUP3 PUSH2 0x1BA JUMP JUMPDEST PUSH2 0x13B DUP2 DUP6 PUSH2 0x1C5 JUMP JUMPDEST SWAP4 POP PUSH2 0x14B DUP2 DUP6 PUSH1 0x20 DUP7 ADD PUSH2 0x212 JUMP JUMPDEST PUSH2 0x154 DUP2 PUSH2 0x2A6 JUMP JUMPDEST DUP5 ADD SWAP2 POP POP SWAP3 SWAP2 POP POP JUMP JUMPDEST PUSH2 0x168 DUP2 PUSH2 0x208 JUMP JUMPDEST DUP3 MSTORE POP POP JUMP JUMPDEST PUSH1 0x0 PUSH1 0x80 DUP3 ADD SWAP1 POP PUSH2 0x183 PUSH1 0x0 DUP4 ADD DUP8 PUSH2 0x15F JUMP JUMPDEST DUP2 DUP2 SUB PUSH1 0x20 DUP4 ADD MSTORE PUSH2 0x195 DUP2 DUP7 PUSH2 0x126 JUMP JUMPDEST SWAP1 POP PUSH2 0x1A4 PUSH1 0x40 DUP4 ADD DUP6 PUSH2 0x15F JUMP JUMPDEST PUSH2 0x1B1 PUSH1 0x60 DUP4 ADD DUP5 PUSH2 0x117 JUMP JUMPDEST SWAP6 SWAP5 POP POP POP POP POP JUMP JUMPDEST PUSH1 0x0 DUP2 MLOAD SWAP1 POP SWAP2 SWAP1 POP JUMP JUMPDEST PUSH1 0x0 DUP3 DUP3 MSTORE PUSH1 0x20 DUP3 ADD SWAP1 POP SWAP3 SWAP2 POP POP JUMP JUMPDEST PUSH1 0x0 PUSH2 0x1E1 DUP3 PUSH2 0x1E8 JUMP JUMPDEST SWAP1 POP SWAP2 SWAP1 POP JUMP JUMPDEST PUSH1 0x0 PUSH20 0xFFFFFFFFFFFFFFFFFFFFFFFFFFFFFFFFFFFFFFFF DUP3 AND SWAP1 POP SWAP2 SWAP1 POP JUMP JUMPDEST PUSH1 0x0 DUP2 SWAP1 POP SWAP2 SWAP1 POP JUMP JUMPDEST PUSH1 0x0 JUMPDEST DUP4 DUP2 LT ISZERO PUSH2 0x230 JUMPI DUP1 DUP3 ADD MLOAD DUP2 DUP5 ADD MSTORE PUSH1 0x20 DUP2 ADD SWAP1 POP PUSH2 0x215 JUMP JUMPDEST DUP4 DUP2 GT ISZERO PUSH2 0x23F JUMPI PUSH1 0x0 DUP5 DUP5 ADD MSTORE JUMPDEST POP POP POP POP JUMP JUMPDEST PUSH1 0x0 PUSH1 0x2 DUP3 DIV SWAP1 POP PUSH1 0x1 DUP3 AND DUP1 PUSH2 0x25D JUMPI PUSH1 0x7F DUP3 AND SWAP2 POP JUMPDEST PUSH1 0x20 DUP3 LT DUP2 EQ ISZERO PUSH2 0x271 JUMPI PUSH2 0x270 PUSH2 0x277 JUMP JUMPDEST JUMPDEST POP SWAP2 SWAP1 POP JUMP JUMPDEST PUSH32 0x4E487B7100000000000000000000000000000000000000000000000000000000 PUSH1 0x0 MSTORE PUSH1 0x22 PUSH1 0x4 MSTORE PUSH1 0x24 PUSH1 0x0 REVERT JUMPDEST PUSH1 0x0 PUSH1 0x1F NOT PUSH1 0x1F DUP4 ADD AND SWAP1 POP SWAP2 SWAP1 POP JUMP INVALID LOG2 PUSH5 0x6970667358 0x22 SLT KECCAK256 PUSH11 0x2D81D6600EAE24D47D4780 KECCAK256 0xBE DUP2 0x27 CALL 0x2A PUSH7 0xAB6E75C5FC3873 LOG3 0xD0 POP INVALID 0xC8 PUSH5 0x64736F6C63 NUMBER STOP ADDMOD STOP STOP CALLER "
				},
				"gasEstimates": {
					"creation": {
						"codeDepositCost": "149800",
						"executionCost": "infinite",
						"totalCost": "infinite"
					},
					"external": {
						"pupil_1()": "infinite"
					}
				},
				"methodIdentifiers": {
					"pupil_1()": "78e667b4"
				}
			},
			"storageLayout": {
				"storage": [
					{
						"astId": 13,
						"contract": "contracts/struct_enums.sol:School",
						"label": "pupil_1",
						"offset": 0,
						"slot": "0",
						"type": "t_struct(Student)10_storage"
					}
				],
				"types": {
					"t_address": {
						"encoding": "inplace",
						"label": "address",
						"numberOfBytes": "20"
					},
					"t_string_storage": {
						"encoding": "bytes",
						"label": "string",
						"numberOfBytes": "32"
					},
					"t_struct(Student)10_storage": {
						"encoding": "inplace",
						"label": "struct Student",
						"members": [
							{
								"astId": 3,
								"contract": "contracts/struct_enums.sol:School",
								"label": "id",
								"offset": 0,
								"slot": "0",
								"type": "t_uint256"
							},
							{
								"astId": 5,
								"contract": "contracts/struct_enums.sol:School",
								"label": "name",
								"offset": 0,
								"slot": "1",
								"type": "t_string_storage"
							},
							{
								"astId": 7,
								"contract": "contracts/struct_enums.sol:School",
								"label": "age",
								"offset": 0,
								"slot": "2",
								"type": "t_uint256"
							},
							{
								"astId": 9,
								"contract": "contracts/struct_enums.sol:School",
								"label": "location",
								"offset": 0,
								"slot": "3",
								"type": "t_address"
							}
						],
						"numberOfBytes": "128"
					},
					"t_uint256": {
						"encoding": "inplace",
						"label": "uint256",
						"numberOfBytes": "32"
					}
				}
			},
			"userdoc": {
				"kind": "user",
				"methods": {},
				"version": 1
			}
		}
	}
}