{
	"contracts/4_Mode.sol": {
		"Mode": {
			"abi": [
				{
					"inputs": [],
					"stateMutability": "nonpayable",
					"type": "constructor"
				},
				{
					"inputs": [
						{
							"internalType": "int256",
							"name": "_value",
							"type": "int256"
						}
					],
					"name": "Change",
					"outputs": [],
					"stateMutability": "nonpayable",
					"type": "function"
				},
				{
					"inputs": [],
					"name": "lifeline",
					"outputs": [
						{
							"internalType": "int256",
							"name": "",
							"type": "int256"
						}
					],
					"stateMutability": "view",
					"type": "function"
				},
				{
					"inputs": [],
					"name": "state",
					"outputs": [
						{
							"internalType": "int256",
							"name": "",
							"type": "int256"
						}
					],
					"stateMutability": "pure",
					"type": "function"
				},
				{
					"inputs": [],
					"name": "value",
					"outputs": [
						{
							"internalType": "int256",
							"name": "",
							"type": "int256"
						}
					],
					"stateMutability": "view",
					"type": "function"
				}
			],
			"devdoc": {
				"kind": "dev",
				"methods": {},
				"version": 1
			},
			"evm": {
				"assembly": "    /* \"contracts/4_Mode.sol\":59:723  contract Mode{\r... */\n  mstore(0x40, 0x80)\n    /* \"contracts/4_Mode.sol\":202:204  10 */\n  0x0a\n    /* \"contracts/4_Mode.sol\":185:204  int public value=10 */\n  0x00\n  sstore\n    /* \"contracts/4_Mode.sol\":360:404  constructor(){\r... */\n  callvalue\n  dup1\n  iszero\n  tag_1\n  jumpi\n  0x00\n  dup1\n  revert\ntag_1:\n  pop\n    /* \"contracts/4_Mode.sol\":394:396  22 */\n  0x16\n    /* \"contracts/4_Mode.sol\":384:392  lifeline */\n  0x01\n    /* \"contracts/4_Mode.sol\":384:396  lifeline= 22 */\n  dup2\n  swap1\n  sstore\n  pop\n    /* \"contracts/4_Mode.sol\":59:723  contract Mode{\r... */\n  dataSize(sub_0)\n  dup1\n  dataOffset(sub_0)\n  0x00\n  codecopy\n  0x00\n  return\nstop\n\nsub_0: assembly {\n        /* \"contracts/4_Mode.sol\":59:723  contract Mode{\r... */\n      mstore(0x40, 0x80)\n      callvalue\n      dup1\n      iszero\n      tag_1\n      jumpi\n      0x00\n      dup1\n      revert\n    tag_1:\n      pop\n      jumpi(tag_2, lt(calldatasize, 0x04))\n      shr(0xe0, calldataload(0x00))\n      dup1\n      0x07890892\n      eq\n      tag_3\n      jumpi\n      dup1\n      0x3fa4f245\n      eq\n      tag_4\n      jumpi\n      dup1\n      0x9aa4a738\n      eq\n      tag_5\n      jumpi\n      dup1\n      0xc19d93fb\n      eq\n      tag_6\n      jumpi\n    tag_2:\n      0x00\n      dup1\n      revert\n        /* \"contracts/4_Mode.sol\":248:267  int public lifeline */\n    tag_3:\n      tag_7\n      tag_8\n      jump\t// in\n    tag_7:\n      mload(0x40)\n      tag_9\n      swap2\n      swap1\n      tag_10\n      jump\t// in\n    tag_9:\n      mload(0x40)\n      dup1\n      swap2\n      sub\n      swap1\n      return\n        /* \"contracts/4_Mode.sol\":185:204  int public value=10 */\n    tag_4:\n      tag_11\n      tag_12\n      jump\t// in\n    tag_11:\n      mload(0x40)\n      tag_13\n      swap2\n      swap1\n      tag_10\n      jump\t// in\n    tag_13:\n      mload(0x40)\n      dup1\n      swap2\n      sub\n      swap1\n      return\n        /* \"contracts/4_Mode.sol\":499:566  function Change(int _value) public{\r... */\n    tag_5:\n      tag_14\n      0x04\n      dup1\n      calldatasize\n      sub\n      dup2\n      add\n      swap1\n      tag_15\n      swap2\n      swap1\n      tag_16\n      jump\t// in\n    tag_15:\n      tag_17\n      jump\t// in\n    tag_14:\n      stop\n        /* \"contracts/4_Mode.sol\":609:717  function state()public pure returns(int) {\r... */\n    tag_6:\n      tag_18\n      tag_19\n      jump\t// in\n    tag_18:\n      mload(0x40)\n      tag_20\n      swap2\n      swap1\n      tag_10\n      jump\t// in\n    tag_20:\n      mload(0x40)\n      dup1\n      swap2\n      sub\n      swap1\n      return\n        /* \"contracts/4_Mode.sol\":248:267  int public lifeline */\n    tag_8:\n      sload(0x01)\n      dup2\n      jump\t// out\n        /* \"contracts/4_Mode.sol\":185:204  int public value=10 */\n    tag_12:\n      sload(0x00)\n      dup2\n      jump\t// out\n        /* \"contracts/4_Mode.sol\":499:566  function Change(int _value) public{\r... */\n    tag_17:\n        /* \"contracts/4_Mode.sol\":552:558  _value */\n      dup1\n        /* \"contracts/4_Mode.sol\":544:549  value */\n      0x00\n        /* \"contracts/4_Mode.sol\":544:558  value = _value */\n      dup2\n      swap1\n      sstore\n      pop\n        /* \"contracts/4_Mode.sol\":499:566  function Change(int _value) public{\r... */\n      pop\n      jump\t// out\n        /* \"contracts/4_Mode.sol\":609:717  function state()public pure returns(int) {\r... */\n    tag_19:\n        /* \"contracts/4_Mode.sol\":645:648  int */\n      0x00\n        /* \"contracts/4_Mode.sol\":661:666  int i */\n      dup1\n        /* \"contracts/4_Mode.sol\":669:670  5 */\n      0x05\n        /* \"contracts/4_Mode.sol\":661:670  int i = 5 */\n      swap1\n      pop\n        /* \"contracts/4_Mode.sol\":688:689  4 */\n      0x04\n        /* \"contracts/4_Mode.sol\":684:685  i */\n      dup2\n        /* \"contracts/4_Mode.sol\":684:689  i * 4 */\n      tag_23\n      swap2\n      swap1\n      tag_24\n      jump\t// in\n    tag_23:\n        /* \"contracts/4_Mode.sol\":681:689  i =i * 4 */\n      swap1\n      pop\n        /* \"contracts/4_Mode.sol\":708:709  i */\n      dup1\n        /* \"contracts/4_Mode.sol\":700:709  return  i */\n      swap2\n      pop\n      pop\n        /* \"contracts/4_Mode.sol\":609:717  function state()public pure returns(int) {\r... */\n      swap1\n      jump\t// out\n        /* \"#utility.yul\":7:144   */\n    tag_26:\n      0x00\n        /* \"#utility.yul\":90:96   */\n      dup2\n        /* \"#utility.yul\":77:97   */\n      calldataload\n        /* \"#utility.yul\":68:97   */\n      swap1\n      pop\n        /* \"#utility.yul\":106:138   */\n      tag_28\n        /* \"#utility.yul\":132:137   */\n      dup2\n        /* \"#utility.yul\":106:138   */\n      tag_29\n      jump\t// in\n    tag_28:\n        /* \"#utility.yul\":58:144   */\n      swap3\n      swap2\n      pop\n      pop\n      jump\t// out\n        /* \"#utility.yul\":150:410   */\n    tag_16:\n      0x00\n        /* \"#utility.yul\":257:259   */\n      0x20\n        /* \"#utility.yul\":245:254   */\n      dup3\n        /* \"#utility.yul\":236:243   */\n      dup5\n        /* \"#utility.yul\":232:255   */\n      sub\n        /* \"#utility.yul\":228:260   */\n      slt\n        /* \"#utility.yul\":225:227   */\n      iszero\n      tag_31\n      jumpi\n        /* \"#utility.yul\":273:274   */\n      0x00\n        /* \"#utility.yul\":270:271   */\n      dup1\n        /* \"#utility.yul\":263:275   */\n      revert\n        /* \"#utility.yul\":225:227   */\n    tag_31:\n        /* \"#utility.yul\":316:317   */\n      0x00\n        /* \"#utility.yul\":341:393   */\n      tag_32\n        /* \"#utility.yul\":385:392   */\n      dup5\n        /* \"#utility.yul\":376:382   */\n      dup3\n        /* \"#utility.yul\":365:374   */\n      dup6\n        /* \"#utility.yul\":361:383   */\n      add\n        /* \"#utility.yul\":341:393   */\n      tag_26\n      jump\t// in\n    tag_32:\n        /* \"#utility.yul\":331:393   */\n      swap2\n      pop\n        /* \"#utility.yul\":287:403   */\n      pop\n        /* \"#utility.yul\":215:410   */\n      swap3\n      swap2\n      pop\n      pop\n      jump\t// out\n        /* \"#utility.yul\":416:531   */\n    tag_33:\n        /* \"#utility.yul\":501:524   */\n      tag_35\n        /* \"#utility.yul\":518:523   */\n      dup2\n        /* \"#utility.yul\":501:524   */\n      tag_36\n      jump\t// in\n    tag_35:\n        /* \"#utility.yul\":496:499   */\n      dup3\n        /* \"#utility.yul\":489:525   */\n      mstore\n        /* \"#utility.yul\":479:531   */\n      pop\n      pop\n      jump\t// out\n        /* \"#utility.yul\":537:755   */\n    tag_10:\n      0x00\n        /* \"#utility.yul\":666:668   */\n      0x20\n        /* \"#utility.yul\":655:664   */\n      dup3\n        /* \"#utility.yul\":651:669   */\n      add\n        /* \"#utility.yul\":643:669   */\n      swap1\n      pop\n        /* \"#utility.yul\":679:748   */\n      tag_38\n        /* \"#utility.yul\":745:746   */\n      0x00\n        /* \"#utility.yul\":734:743   */\n      dup4\n        /* \"#utility.yul\":730:747   */\n      add\n        /* \"#utility.yul\":721:727   */\n      dup5\n        /* \"#utility.yul\":679:748   */\n      tag_33\n      jump\t// in\n    tag_38:\n        /* \"#utility.yul\":633:755   */\n      swap3\n      swap2\n      pop\n      pop\n      jump\t// out\n        /* \"#utility.yul\":761:1752   */\n    tag_24:\n      0x00\n        /* \"#utility.yul\":823:842   */\n      tag_40\n        /* \"#utility.yul\":840:841   */\n      dup3\n        /* \"#utility.yul\":823:842   */\n      tag_36\n      jump\t// in\n    tag_40:\n        /* \"#utility.yul\":818:842   */\n      swap2\n      pop\n        /* \"#utility.yul\":856:875   */\n      tag_41\n        /* \"#utility.yul\":873:874   */\n      dup4\n        /* \"#utility.yul\":856:875   */\n      tag_36\n      jump\t// in\n    tag_41:\n        /* \"#utility.yul\":851:875   */\n      swap3\n      pop\n        /* \"#utility.yul\":1057:1058   */\n      dup3\n        /* \"#utility.yul\":989:1055   */\n      0x7fffffffffffffffffffffffffffffffffffffffffffffffffffffffffffffff\n        /* \"#utility.yul\":985:1059   */\n      div\n        /* \"#utility.yul\":982:983   */\n      dup3\n        /* \"#utility.yul\":979:1060   */\n      gt\n        /* \"#utility.yul\":974:975   */\n      0x00\n        /* \"#utility.yul\":971:972   */\n      dup5\n        /* \"#utility.yul\":967:976   */\n      sgt\n        /* \"#utility.yul\":963:964   */\n      0x00\n        /* \"#utility.yul\":960:961   */\n      dup5\n        /* \"#utility.yul\":956:965   */\n      sgt\n        /* \"#utility.yul\":952:977   */\n      and\n        /* \"#utility.yul\":948:1061   */\n      and\n        /* \"#utility.yul\":945:947   */\n      iszero\n      tag_42\n      jumpi\n        /* \"#utility.yul\":1064:1082   */\n      tag_43\n      tag_44\n      jump\t// in\n    tag_43:\n        /* \"#utility.yul\":945:947   */\n    tag_42:\n        /* \"#utility.yul\":1268:1269   */\n      dup2\n        /* \"#utility.yul\":1200:1266   */\n      0x8000000000000000000000000000000000000000000000000000000000000000\n        /* \"#utility.yul\":1195:1270   */\n      sdiv\n        /* \"#utility.yul\":1192:1193   */\n      dup4\n        /* \"#utility.yul\":1188:1271   */\n      slt\n        /* \"#utility.yul\":1183:1184   */\n      0x00\n        /* \"#utility.yul\":1180:1181   */\n      dup5\n        /* \"#utility.yul\":1176:1185   */\n      slt\n        /* \"#utility.yul\":1172:1173   */\n      0x00\n        /* \"#utility.yul\":1169:1170   */\n      dup5\n        /* \"#utility.yul\":1165:1174   */\n      sgt\n        /* \"#utility.yul\":1161:1186   */\n      and\n        /* \"#utility.yul\":1157:1272   */\n      and\n        /* \"#utility.yul\":1154:1156   */\n      iszero\n      tag_45\n      jumpi\n        /* \"#utility.yul\":1275:1293   */\n      tag_46\n      tag_44\n      jump\t// in\n    tag_46:\n        /* \"#utility.yul\":1154:1156   */\n    tag_45:\n        /* \"#utility.yul\":1479:1480   */\n      dup3\n        /* \"#utility.yul\":1411:1477   */\n      0x8000000000000000000000000000000000000000000000000000000000000000\n        /* \"#utility.yul\":1406:1481   */\n      sdiv\n        /* \"#utility.yul\":1403:1404   */\n      dup3\n        /* \"#utility.yul\":1399:1482   */\n      slt\n        /* \"#utility.yul\":1394:1395   */\n      0x00\n        /* \"#utility.yul\":1391:1392   */\n      dup5\n        /* \"#utility.yul\":1387:1396   */\n      sgt\n        /* \"#utility.yul\":1383:1384   */\n      0x00\n        /* \"#utility.yul\":1380:1381   */\n      dup5\n        /* \"#utility.yul\":1376:1385   */\n      slt\n        /* \"#utility.yul\":1372:1397   */\n      and\n        /* \"#utility.yul\":1368:1483   */\n      and\n        /* \"#utility.yul\":1365:1367   */\n      iszero\n      tag_47\n      jumpi\n        /* \"#utility.yul\":1486:1504   */\n      tag_48\n      tag_44\n      jump\t// in\n    tag_48:\n        /* \"#utility.yul\":1365:1367   */\n    tag_47:\n        /* \"#utility.yul\":1689:1690   */\n      dup3\n        /* \"#utility.yul\":1621:1687   */\n      0x7fffffffffffffffffffffffffffffffffffffffffffffffffffffffffffffff\n        /* \"#utility.yul\":1616:1691   */\n      sdiv\n        /* \"#utility.yul\":1613:1614   */\n      dup3\n        /* \"#utility.yul\":1609:1692   */\n      slt\n        /* \"#utility.yul\":1604:1605   */\n      0x00\n        /* \"#utility.yul\":1601:1602   */\n      dup5\n        /* \"#utility.yul\":1597:1606   */\n      slt\n        /* \"#utility.yul\":1593:1594   */\n      0x00\n        /* \"#utility.yul\":1590:1591   */\n      dup5\n        /* \"#utility.yul\":1586:1595   */\n      slt\n        /* \"#utility.yul\":1582:1607   */\n      and\n        /* \"#utility.yul\":1578:1693   */\n      and\n        /* \"#utility.yul\":1575:1577   */\n      iszero\n      tag_49\n      jumpi\n        /* \"#utility.yul\":1696:1714   */\n      tag_50\n      tag_44\n      jump\t// in\n    tag_50:\n        /* \"#utility.yul\":1575:1577   */\n    tag_49:\n        /* \"#utility.yul\":1744:1745   */\n      dup3\n        /* \"#utility.yul\":1741:1742   */\n      dup3\n        /* \"#utility.yul\":1737:1746   */\n      mul\n        /* \"#utility.yul\":1726:1746   */\n      swap1\n      pop\n        /* \"#utility.yul\":808:1752   */\n      swap3\n      swap2\n      pop\n      pop\n      jump\t// out\n        /* \"#utility.yul\":1758:1834   */\n    tag_36:\n      0x00\n        /* \"#utility.yul\":1823:1828   */\n      dup2\n        /* \"#utility.yul\":1812:1828   */\n      swap1\n      pop\n        /* \"#utility.yul\":1802:1834   */\n      swap2\n      swap1\n      pop\n      jump\t// out\n        /* \"#utility.yul\":1840:2020   */\n    tag_44:\n        /* \"#utility.yul\":1888:1965   */\n      0x4e487b7100000000000000000000000000000000000000000000000000000000\n        /* \"#utility.yul\":1885:1886   */\n      0x00\n        /* \"#utility.yul\":1878:1966   */\n      mstore\n        /* \"#utility.yul\":1985:1989   */\n      0x11\n        /* \"#utility.yul\":1982:1983   */\n      0x04\n        /* \"#utility.yul\":1975:1990   */\n      mstore\n        /* \"#utility.yul\":2009:2013   */\n      0x24\n        /* \"#utility.yul\":2006:2007   */\n      0x00\n        /* \"#utility.yul\":1999:2014   */\n      revert\n        /* \"#utility.yul\":2026:2146   */\n    tag_29:\n        /* \"#utility.yul\":2098:2121   */\n      tag_54\n        /* \"#utility.yul\":2115:2120   */\n      dup2\n        /* \"#utility.yul\":2098:2121   */\n      tag_36\n      jump\t// in\n    tag_54:\n        /* \"#utility.yul\":2091:2096   */\n      dup2\n        /* \"#utility.yul\":2088:2122   */\n      eq\n        /* \"#utility.yul\":2078:2080   */\n      tag_55\n      jumpi\n        /* \"#utility.yul\":2136:2137   */\n      0x00\n        /* \"#utility.yul\":2133:2134   */\n      dup1\n        /* \"#utility.yul\":2126:2138   */\n      revert\n        /* \"#utility.yul\":2078:2080   */\n    tag_55:\n        /* \"#utility.yul\":2068:2146   */\n      pop\n      jump\t// out\n\n    auxdata: 0xa26469706673582212208cfb4abd4fee838b358725988bb9fe1ce80ff6ddf0a19dd30cb965d8789356e564736f6c63430008000033\n}\n",
				"bytecode": {
					"linkReferences": {},
					"object": "6080604052600a60005534801561001557600080fd5b5060166001819055506102ff8061002d6000396000f3fe608060405234801561001057600080fd5b506004361061004c5760003560e01c806307890892146100515780633fa4f2451461006f5780639aa4a7381461008d578063c19d93fb146100a9575b600080fd5b6100596100c7565b6040516100669190610147565b60405180910390f35b6100776100cd565b6040516100849190610147565b60405180910390f35b6100a760048036038101906100a2919061010f565b6100d3565b005b6100b16100dd565b6040516100be9190610147565b60405180910390f35b60015481565b60005481565b8060008190555050565b600080600590506004816100f19190610162565b90508091505090565b600081359050610109816102b2565b92915050565b60006020828403121561012157600080fd5b600061012f848285016100fa565b91505092915050565b61014181610279565b82525050565b600060208201905061015c6000830184610138565b92915050565b600061016d82610279565b915061017883610279565b9250827f7fffffffffffffffffffffffffffffffffffffffffffffffffffffffffffffff04821160008413600084131616156101b7576101b6610283565b5b817f800000000000000000000000000000000000000000000000000000000000000005831260008412600084131616156101f4576101f3610283565b5b827f8000000000000000000000000000000000000000000000000000000000000000058212600084136000841216161561023157610230610283565b5b827f7fffffffffffffffffffffffffffffffffffffffffffffffffffffffffffffff058212600084126000841216161561026e5761026d610283565b5b828202905092915050565b6000819050919050565b7f4e487b7100000000000000000000000000000000000000000000000000000000600052601160045260246000fd5b6102bb81610279565b81146102c657600080fd5b5056fea26469706673582212208cfb4abd4fee838b358725988bb9fe1ce80ff6ddf0a19dd30cb965d8789356e564736f6c63430008000033",
					"opcodes": "PUSH1 0x80 PUSH1 0x40 MSTORE PUSH1 0xA PUSH1 0x0 SSTORE CALLVALUE DUP1 ISZERO PUSH2 0x15 JUMPI PUSH1 0x0 DUP1 REVERT JUMPDEST POP PUSH1 0x16 PUSH1 0x1 DUP2 SWAP1 SSTORE POP PUSH2 0x2FF DUP1 PUSH2 0x2D PUSH1 0x0 CODECOPY PUSH1 0x0 RETURN INVALID PUSH1 0x80 PUSH1 0x40 MSTORE CALLVALUE DUP1 ISZERO PUSH2 0x10 JUMPI PUSH1 0x0 DUP1 REVERT JUMPDEST POP PUSH1 0x4 CALLDATASIZE LT PUSH2 0x4C JUMPI PUSH1 0x0 CALLDATALOAD PUSH1 0xE0 SHR DUP1 PUSH4 0x7890892 EQ PUSH2 0x51 JUMPI DUP1 PUSH4 0x3FA4F245 EQ PUSH2 0x6F JUMPI DUP1 PUSH4 0x9AA4A738 EQ PUSH2 0x8D JUMPI DUP1 PUSH4 0xC19D93FB EQ PUSH2 0xA9 JUMPI JUMPDEST PUSH1 0x0 DUP1 REVERT JUMPDEST PUSH2 0x59 PUSH2 0xC7 JUMP JUMPDEST PUSH1 0x40 MLOAD PUSH2 0x66 SWAP2 SWAP1 PUSH2 0x147 JUMP JUMPDEST PUSH1 0x40 MLOAD DUP1 SWAP2 SUB SWAP1 RETURN JUMPDEST PUSH2 0x77 PUSH2 0xCD JUMP JUMPDEST PUSH1 0x40 MLOAD PUSH2 0x84 SWAP2 SWAP1 PUSH2 0x147 JUMP JUMPDEST PUSH1 0x40 MLOAD DUP1 SWAP2 SUB SWAP1 RETURN JUMPDEST PUSH2 0xA7 PUSH1 0x4 DUP1 CALLDATASIZE SUB DUP2 ADD SWAP1 PUSH2 0xA2 SWAP2 SWAP1 PUSH2 0x10F JUMP JUMPDEST PUSH2 0xD3 JUMP JUMPDEST STOP JUMPDEST PUSH2 0xB1 PUSH2 0xDD JUMP JUMPDEST PUSH1 0x40 MLOAD PUSH2 0xBE SWAP2 SWAP1 PUSH2 0x147 JUMP JUMPDEST PUSH1 0x40 MLOAD DUP1 SWAP2 SUB SWAP1 RETURN JUMPDEST PUSH1 0x1 SLOAD DUP2 JUMP JUMPDEST PUSH1 0x0 SLOAD DUP2 JUMP JUMPDEST DUP1 PUSH1 0x0 DUP2 SWAP1 SSTORE POP POP JUMP JUMPDEST PUSH1 0x0 DUP1 PUSH1 0x5 SWAP1 POP PUSH1 0x4 DUP2 PUSH2 0xF1 SWAP2 SWAP1 PUSH2 0x162 JUMP JUMPDEST SWAP1 POP DUP1 SWAP2 POP POP SWAP1 JUMP JUMPDEST PUSH1 0x0 DUP2 CALLDATALOAD SWAP1 POP PUSH2 0x109 DUP2 PUSH2 0x2B2 JUMP JUMPDEST SWAP3 SWAP2 POP POP JUMP JUMPDEST PUSH1 0x0 PUSH1 0x20 DUP3 DUP5 SUB SLT ISZERO PUSH2 0x121 JUMPI PUSH1 0x0 DUP1 REVERT JUMPDEST PUSH1 0x0 PUSH2 0x12F DUP5 DUP3 DUP6 ADD PUSH2 0xFA JUMP JUMPDEST SWAP2 POP POP SWAP3 SWAP2 POP POP JUMP JUMPDEST PUSH2 0x141 DUP2 PUSH2 0x279 JUMP JUMPDEST DUP3 MSTORE POP POP JUMP JUMPDEST PUSH1 0x0 PUSH1 0x20 DUP3 ADD SWAP1 POP PUSH2 0x15C PUSH1 0x0 DUP4 ADD DUP5 PUSH2 0x138 JUMP JUMPDEST SWAP3 SWAP2 POP POP JUMP JUMPDEST PUSH1 0x0 PUSH2 0x16D DUP3 PUSH2 0x279 JUMP JUMPDEST SWAP2 POP PUSH2 0x178 DUP4 PUSH2 0x279 JUMP JUMPDEST SWAP3 POP DUP3 PUSH32 0x7FFFFFFFFFFFFFFFFFFFFFFFFFFFFFFFFFFFFFFFFFFFFFFFFFFFFFFFFFFFFFFF DIV DUP3 GT PUSH1 0x0 DUP5 SGT PUSH1 0x0 DUP5 SGT AND AND ISZERO PUSH2 0x1B7 JUMPI PUSH2 0x1B6 PUSH2 0x283 JUMP JUMPDEST JUMPDEST DUP2 PUSH32 0x8000000000000000000000000000000000000000000000000000000000000000 SDIV DUP4 SLT PUSH1 0x0 DUP5 SLT PUSH1 0x0 DUP5 SGT AND AND ISZERO PUSH2 0x1F4 JUMPI PUSH2 0x1F3 PUSH2 0x283 JUMP JUMPDEST JUMPDEST DUP3 PUSH32 0x8000000000000000000000000000000000000000000000000000000000000000 SDIV DUP3 SLT PUSH1 0x0 DUP5 SGT PUSH1 0x0 DUP5 SLT AND AND ISZERO PUSH2 0x231 JUMPI PUSH2 0x230 PUSH2 0x283 JUMP JUMPDEST JUMPDEST DUP3 PUSH32 0x7FFFFFFFFFFFFFFFFFFFFFFFFFFFFFFFFFFFFFFFFFFFFFFFFFFFFFFFFFFFFFFF SDIV DUP3 SLT PUSH1 0x0 DUP5 SLT PUSH1 0x0 DUP5 SLT AND AND ISZERO PUSH2 0x26E JUMPI PUSH2 0x26D PUSH2 0x283 JUMP JUMPDEST JUMPDEST DUP3 DUP3 MUL SWAP1 POP SWAP3 SWAP2 POP POP JUMP JUMPDEST PUSH1 0x0 DUP2 SWAP1 POP SWAP2 SWAP1 POP JUMP JUMPDEST PUSH32 0x4E487B7100000000000000000000000000000000000000000000000000000000 PUSH1 0x0 MSTORE PUSH1 0x11 PUSH1 0x4 MSTORE PUSH1 0x24 PUSH1 0x0 REVERT JUMPDEST PUSH2 0x2BB DUP2 PUSH2 0x279 JUMP JUMPDEST DUP2 EQ PUSH2 0x2C6 JUMPI PUSH1 0x0 DUP1 REVERT JUMPDEST POP JUMP INVALID LOG2 PUSH5 0x6970667358 0x22 SLT KECCAK256 DUP13 0xFB 0x4A 0xBD 0x4F 0xEE DUP4 DUP12 CALLDATALOAD DUP8 0x25 SWAP9 DUP12 0xB9 INVALID SHR 0xE8 0xF 0xF6 0xDD CREATE LOG1 SWAP14 0xD3 0xC 0xB9 PUSH6 0xD8789356E564 PUSH20 0x6F6C634300080000330000000000000000000000 "
				},
				"gasEstimates": {
					"creation": {
						"codeDepositCost": "153400",
						"executionCost": "40216",
						"totalCost": "193616"
					},
					"external": {
						"Change(int256)": "20442",
						"lifeline()": "1107",
						"state()": "infinite",
						"value()": "1129"
					}
				},
				"methodIdentifiers": {
					"Change(int256)": "9aa4a738",
					"lifeline()": "07890892",
					"state()": "c19d93fb",
					"value()": "3fa4f245"
				}
			},
			"storageLayout": {
				"storage": [
					{
						"astId": 4,
						"contract": "contracts/4_Mode.sol:Mode",
						"label": "value",
						"offset": 0,
						"slot": "0",
						"type": "t_int256"
					},
					{
						"astId": 9,
						"contract": "contracts/4_Mode.sol:Mode",
						"label": "lifeline",
						"offset": 0,
						"slot": "1",
						"type": "t_int256"
					}
				],
				"types": {
					"t_int256": {
						"encoding": "inplace",
						"label": "int256",
						"numberOfBytes": "32"
					}
				}
			},
			"userdoc": {
				"kind": "user",
				"methods": {},
				"version": 1
			}
		}
	}
}