{
	"contracts/4_Mode.sol": {
		"Mode": {
			"abi": [
				{
					"inputs": [
						{
							"internalType": "int256",
							"name": "_lifeline",
							"type": "int256"
						},
						{
							"internalType": "string",
							"name": "_user",
							"type": "string"
						}
					],
					"stateMutability": "nonpayable",
					"type": "constructor"
				},
				{
					"inputs": [
						{
							"internalType": "int256",
							"name": "_value",
							"type": "int256"
						}
					],
					"name": "Change",
					"outputs": [],
					"stateMutability": "nonpayable",
					"type": "function"
				},
				{
					"inputs": [],
					"name": "bool_value",
					"outputs": [
						{
							"internalType": "bool",
							"name": "",
							"type": "bool"
						}
					],
					"stateMutability": "view",
					"type": "function"
				},
				{
					"inputs": [
						{
							"internalType": "string",
							"name": "_user",
							"type": "string"
						}
					],
					"name": "changeuser",
					"outputs": [],
					"stateMutability": "nonpayable",
					"type": "function"
				},
				{
					"inputs": [],
					"name": "getvalue",
					"outputs": [
						{
							"internalType": "int256",
							"name": "",
							"type": "int256"
						}
					],
					"stateMutability": "view",
					"type": "function"
				},
				{
					"inputs": [],
					"name": "lifeline",
					"outputs": [
						{
							"internalType": "int256",
							"name": "",
							"type": "int256"
						}
					],
					"stateMutability": "view",
					"type": "function"
				},
				{
					"inputs": [],
					"name": "star",
					"outputs": [
						{
							"internalType": "int256",
							"name": "",
							"type": "int256"
						}
					],
					"stateMutability": "pure",
					"type": "function"
				},
				{
					"inputs": [],
					"name": "user",
					"outputs": [
						{
							"internalType": "string",
							"name": "",
							"type": "string"
						}
					],
					"stateMutability": "view",
					"type": "function"
				},
				{
					"inputs": [],
					"name": "value",
					"outputs": [
						{
							"internalType": "int256",
							"name": "",
							"type": "int256"
						}
					],
					"stateMutability": "view",
					"type": "function"
				},
				{
					"inputs": [],
					"name": "wallet",
					"outputs": [
						{
							"internalType": "address",
							"name": "",
							"type": "address"
						}
					],
					"stateMutability": "view",
					"type": "function"
				}
			],
			"devdoc": {
				"kind": "dev",
				"methods": {},
				"version": 1
			},
			"evm": {
				"assembly": "    /* \"contracts/4_Mode.sol\":59:1199  contract Mode{\r... */\n  mstore(0x40, 0xa0)\n    /* \"contracts/4_Mode.sol\":204:206  10 */\n  0x0a\n    /* \"contracts/4_Mode.sol\":185:206  int public value = 10 */\n  0x00\n  sstore\n    /* \"contracts/4_Mode.sol\":213:243  string  public  user = \"David\" */\n  mload(0x40)\n  dup1\n  0x40\n  add\n  0x40\n  mstore\n  dup1\n  0x05\n  dup2\n  mstore\n  0x20\n  add\n  0x4461766964000000000000000000000000000000000000000000000000000000\n  dup2\n  mstore\n  pop\n  0x01\n  swap1\n  dup1\n  mload\n  swap1\n  0x20\n  add\n  swap1\n  tag_1\n  swap3\n  swap2\n  swap1\n  tag_2\n  jump\t// in\ntag_1:\n  pop\n    /* \"contracts/4_Mode.sol\":431:569  constructor(int _lifeline,string memory _user){\r... */\n  callvalue\n  dup1\n  iszero\n  tag_3\n  jumpi\n  0x00\n  dup1\n  revert\ntag_3:\n  pop\n  mload(0x40)\n  sub(codesize, bytecodeSize)\n  dup1\n  bytecodeSize\n  dup4\n  codecopy\n  dup2\n  dup2\n  add\n  0x40\n  mstore\n  dup2\n  add\n  swap1\n  tag_4\n  swap2\n  swap1\n  tag_5\n  jump\t// in\ntag_4:\n    /* \"contracts/4_Mode.sol\":498:507  _lifeline */\n  dup2\n    /* \"contracts/4_Mode.sol\":488:496  lifeline */\n  0x02\n    /* \"contracts/4_Mode.sol\":488:507  lifeline= _lifeline */\n  dup2\n  swap1\n  sstore\n  pop\n    /* \"contracts/4_Mode.sol\":526:531  _user */\n  dup1\n    /* \"contracts/4_Mode.sol\":518:522  user */\n  0x01\n    /* \"contracts/4_Mode.sol\":518:531  user =  _user */\n  swap1\n  dup1\n  mload\n  swap1\n  0x20\n  add\n  swap1\n  tag_8\n  swap3\n  swap2\n  swap1\n  tag_2\n  jump\t// in\ntag_8:\n  pop\n    /* \"contracts/4_Mode.sol\":551:561  msg.sender */\n  caller\n    /* \"contracts/4_Mode.sol\":542:561  wallet = msg.sender */\n  0xffffffffffffffffffffffffffffffffffffffff\n  and\n  0x80\n  dup2\n  0xffffffffffffffffffffffffffffffffffffffff\n  and\n  0x60\n  shl\n  dup2\n  mstore\n  pop\n  pop\n    /* \"contracts/4_Mode.sol\":431:569  constructor(int _lifeline,string memory _user){\r... */\n  pop\n  pop\n    /* \"contracts/4_Mode.sol\":59:1199  contract Mode{\r... */\n  jump(tag_9)\ntag_2:\n  dup3\n  dup1\n  sload\n  tag_10\n  swap1\n  tag_11\n  jump\t// in\ntag_10:\n  swap1\n  0x00\n  mstore\n  keccak256(0x00, 0x20)\n  swap1\n  0x1f\n  add\n  0x20\n  swap1\n  div\n  dup2\n  add\n  swap3\n  dup3\n  tag_13\n  jumpi\n  0x00\n  dup6\n  sstore\n  jump(tag_12)\ntag_13:\n  dup3\n  0x1f\n  lt\n  tag_14\n  jumpi\n  dup1\n  mload\n  not(0xff)\n  and\n  dup4\n  dup1\n  add\n  or\n  dup6\n  sstore\n  jump(tag_12)\ntag_14:\n  dup3\n  dup1\n  add\n  0x01\n  add\n  dup6\n  sstore\n  dup3\n  iszero\n  tag_12\n  jumpi\n  swap2\n  dup3\n  add\ntag_15:\n  dup3\n  dup2\n  gt\n  iszero\n  tag_16\n  jumpi\n  dup3\n  mload\n  dup3\n  sstore\n  swap2\n  0x20\n  add\n  swap2\n  swap1\n  0x01\n  add\n  swap1\n  jump(tag_15)\ntag_16:\ntag_12:\n  pop\n  swap1\n  pop\n  tag_17\n  swap2\n  swap1\n  tag_18\n  jump\t// in\ntag_17:\n  pop\n  swap1\n  jump\t// out\ntag_18:\ntag_19:\n  dup1\n  dup3\n  gt\n  iszero\n  tag_20\n  jumpi\n  0x00\n  dup2\n  0x00\n  swap1\n  sstore\n  pop\n  0x01\n  add\n  jump(tag_19)\ntag_20:\n  pop\n  swap1\n  jump\t// out\n    /* \"#utility.yul\":7:360   */\ntag_22:\n  0x00\n    /* \"#utility.yul\":121:186   */\n  tag_24\n    /* \"#utility.yul\":136:185   */\n  tag_25\n    /* \"#utility.yul\":178:184   */\n  dup5\n    /* \"#utility.yul\":136:185   */\n  tag_26\n  jump\t// in\ntag_25:\n    /* \"#utility.yul\":121:186   */\n  tag_27\n  jump\t// in\ntag_24:\n    /* \"#utility.yul\":112:186   */\n  swap1\n  pop\n    /* \"#utility.yul\":209:215   */\n  dup3\n    /* \"#utility.yul\":202:207   */\n  dup2\n    /* \"#utility.yul\":195:216   */\n  mstore\n    /* \"#utility.yul\":247:251   */\n  0x20\n    /* \"#utility.yul\":240:245   */\n  dup2\n    /* \"#utility.yul\":236:252   */\n  add\n    /* \"#utility.yul\":285:288   */\n  dup5\n    /* \"#utility.yul\":276:282   */\n  dup5\n    /* \"#utility.yul\":271:274   */\n  dup5\n    /* \"#utility.yul\":267:283   */\n  add\n    /* \"#utility.yul\":264:289   */\n  gt\n    /* \"#utility.yul\":261:263   */\n  iszero\n  tag_28\n  jumpi\n    /* \"#utility.yul\":302:303   */\n  0x00\n    /* \"#utility.yul\":299:300   */\n  dup1\n    /* \"#utility.yul\":292:304   */\n  revert\n    /* \"#utility.yul\":261:263   */\ntag_28:\n    /* \"#utility.yul\":315:354   */\n  tag_29\n    /* \"#utility.yul\":347:353   */\n  dup5\n    /* \"#utility.yul\":342:345   */\n  dup3\n    /* \"#utility.yul\":337:340   */\n  dup6\n    /* \"#utility.yul\":315:354   */\n  tag_30\n  jump\t// in\ntag_29:\n    /* \"#utility.yul\":102:360   */\n  pop\n  swap4\n  swap3\n  pop\n  pop\n  pop\n  jump\t// out\n    /* \"#utility.yul\":366:507   */\ntag_31:\n  0x00\n    /* \"#utility.yul\":453:459   */\n  dup2\n    /* \"#utility.yul\":447:460   */\n  mload\n    /* \"#utility.yul\":438:460   */\n  swap1\n  pop\n    /* \"#utility.yul\":469:501   */\n  tag_33\n    /* \"#utility.yul\":495:500   */\n  dup2\n    /* \"#utility.yul\":469:501   */\n  tag_34\n  jump\t// in\ntag_33:\n    /* \"#utility.yul\":428:507   */\n  swap3\n  swap2\n  pop\n  pop\n  jump\t// out\n    /* \"#utility.yul\":527:815   */\ntag_35:\n  0x00\n    /* \"#utility.yul\":643:646   */\n  dup3\n    /* \"#utility.yul\":636:640   */\n  0x1f\n    /* \"#utility.yul\":628:634   */\n  dup4\n    /* \"#utility.yul\":624:641   */\n  add\n    /* \"#utility.yul\":620:647   */\n  slt\n    /* \"#utility.yul\":610:612   */\n  tag_37\n  jumpi\n    /* \"#utility.yul\":661:662   */\n  0x00\n    /* \"#utility.yul\":658:659   */\n  dup1\n    /* \"#utility.yul\":651:663   */\n  revert\n    /* \"#utility.yul\":610:612   */\ntag_37:\n    /* \"#utility.yul\":694:700   */\n  dup2\n    /* \"#utility.yul\":688:701   */\n  mload\n    /* \"#utility.yul\":719:809   */\n  tag_38\n    /* \"#utility.yul\":805:808   */\n  dup5\n    /* \"#utility.yul\":797:803   */\n  dup3\n    /* \"#utility.yul\":790:794   */\n  0x20\n    /* \"#utility.yul\":782:788   */\n  dup7\n    /* \"#utility.yul\":778:795   */\n  add\n    /* \"#utility.yul\":719:809   */\n  tag_22\n  jump\t// in\ntag_38:\n    /* \"#utility.yul\":710:809   */\n  swap2\n  pop\n    /* \"#utility.yul\":600:815   */\n  pop\n  swap3\n  swap2\n  pop\n  pop\n  jump\t// out\n    /* \"#utility.yul\":821:1365   */\ntag_5:\n  0x00\n  dup1\n    /* \"#utility.yul\":966:968   */\n  0x40\n    /* \"#utility.yul\":954:963   */\n  dup4\n    /* \"#utility.yul\":945:952   */\n  dup6\n    /* \"#utility.yul\":941:964   */\n  sub\n    /* \"#utility.yul\":937:969   */\n  slt\n    /* \"#utility.yul\":934:936   */\n  iszero\n  tag_40\n  jumpi\n    /* \"#utility.yul\":982:983   */\n  0x00\n    /* \"#utility.yul\":979:980   */\n  dup1\n    /* \"#utility.yul\":972:984   */\n  revert\n    /* \"#utility.yul\":934:936   */\ntag_40:\n    /* \"#utility.yul\":1025:1026   */\n  0x00\n    /* \"#utility.yul\":1050:1113   */\n  tag_41\n    /* \"#utility.yul\":1105:1112   */\n  dup6\n    /* \"#utility.yul\":1096:1102   */\n  dup3\n    /* \"#utility.yul\":1085:1094   */\n  dup7\n    /* \"#utility.yul\":1081:1103   */\n  add\n    /* \"#utility.yul\":1050:1113   */\n  tag_31\n  jump\t// in\ntag_41:\n    /* \"#utility.yul\":1040:1113   */\n  swap3\n  pop\n    /* \"#utility.yul\":996:1123   */\n  pop\n    /* \"#utility.yul\":1183:1185   */\n  0x20\n    /* \"#utility.yul\":1172:1181   */\n  dup4\n    /* \"#utility.yul\":1168:1186   */\n  add\n    /* \"#utility.yul\":1162:1187   */\n  mload\n    /* \"#utility.yul\":1214:1232   */\n  0xffffffffffffffff\n    /* \"#utility.yul\":1206:1212   */\n  dup2\n    /* \"#utility.yul\":1203:1233   */\n  gt\n    /* \"#utility.yul\":1200:1202   */\n  iszero\n  tag_42\n  jumpi\n    /* \"#utility.yul\":1246:1247   */\n  0x00\n    /* \"#utility.yul\":1243:1244   */\n  dup1\n    /* \"#utility.yul\":1236:1248   */\n  revert\n    /* \"#utility.yul\":1200:1202   */\ntag_42:\n    /* \"#utility.yul\":1274:1348   */\n  tag_43\n    /* \"#utility.yul\":1340:1347   */\n  dup6\n    /* \"#utility.yul\":1331:1337   */\n  dup3\n    /* \"#utility.yul\":1320:1329   */\n  dup7\n    /* \"#utility.yul\":1316:1338   */\n  add\n    /* \"#utility.yul\":1274:1348   */\n  tag_35\n  jump\t// in\ntag_43:\n    /* \"#utility.yul\":1264:1348   */\n  swap2\n  pop\n    /* \"#utility.yul\":1133:1358   */\n  pop\n    /* \"#utility.yul\":924:1365   */\n  swap3\n  pop\n  swap3\n  swap1\n  pop\n  jump\t// out\n    /* \"#utility.yul\":1371:1654   */\ntag_27:\n  0x00\n    /* \"#utility.yul\":1437:1439   */\n  0x40\n    /* \"#utility.yul\":1431:1440   */\n  mload\n    /* \"#utility.yul\":1421:1440   */\n  swap1\n  pop\n    /* \"#utility.yul\":1479:1483   */\n  dup2\n    /* \"#utility.yul\":1471:1477   */\n  dup2\n    /* \"#utility.yul\":1467:1484   */\n  add\n    /* \"#utility.yul\":1586:1592   */\n  dup2\n    /* \"#utility.yul\":1574:1584   */\n  dup2\n    /* \"#utility.yul\":1571:1593   */\n  lt\n    /* \"#utility.yul\":1550:1568   */\n  0xffffffffffffffff\n    /* \"#utility.yul\":1538:1548   */\n  dup3\n    /* \"#utility.yul\":1535:1569   */\n  gt\n    /* \"#utility.yul\":1532:1594   */\n  or\n    /* \"#utility.yul\":1529:1531   */\n  iszero\n  tag_45\n  jumpi\n    /* \"#utility.yul\":1597:1615   */\n  tag_46\n  tag_47\n  jump\t// in\ntag_46:\n    /* \"#utility.yul\":1529:1531   */\ntag_45:\n    /* \"#utility.yul\":1637:1647   */\n  dup1\n    /* \"#utility.yul\":1633:1635   */\n  0x40\n    /* \"#utility.yul\":1626:1648   */\n  mstore\n    /* \"#utility.yul\":1411:1654   */\n  pop\n  swap2\n  swap1\n  pop\n  jump\t// out\n    /* \"#utility.yul\":1660:1992   */\ntag_26:\n  0x00\n    /* \"#utility.yul\":1812:1830   */\n  0xffffffffffffffff\n    /* \"#utility.yul\":1804:1810   */\n  dup3\n    /* \"#utility.yul\":1801:1831   */\n  gt\n    /* \"#utility.yul\":1798:1800   */\n  iszero\n  tag_49\n  jumpi\n    /* \"#utility.yul\":1834:1852   */\n  tag_50\n  tag_47\n  jump\t// in\ntag_50:\n    /* \"#utility.yul\":1798:1800   */\ntag_49:\n    /* \"#utility.yul\":1919:1923   */\n  0x1f\n    /* \"#utility.yul\":1915:1924   */\n  not\n    /* \"#utility.yul\":1908:1912   */\n  0x1f\n    /* \"#utility.yul\":1900:1906   */\n  dup4\n    /* \"#utility.yul\":1896:1913   */\n  add\n    /* \"#utility.yul\":1892:1925   */\n  and\n    /* \"#utility.yul\":1884:1925   */\n  swap1\n  pop\n    /* \"#utility.yul\":1980:1984   */\n  0x20\n    /* \"#utility.yul\":1974:1978   */\n  dup2\n    /* \"#utility.yul\":1970:1985   */\n  add\n    /* \"#utility.yul\":1962:1985   */\n  swap1\n  pop\n    /* \"#utility.yul\":1727:1992   */\n  swap2\n  swap1\n  pop\n  jump\t// out\n    /* \"#utility.yul\":1998:2074   */\ntag_51:\n  0x00\n    /* \"#utility.yul\":2063:2068   */\n  dup2\n    /* \"#utility.yul\":2052:2068   */\n  swap1\n  pop\n    /* \"#utility.yul\":2042:2074   */\n  swap2\n  swap1\n  pop\n  jump\t// out\n    /* \"#utility.yul\":2080:2387   */\ntag_30:\n    /* \"#utility.yul\":2148:2149   */\n  0x00\n    /* \"#utility.yul\":2158:2271   */\ntag_54:\n    /* \"#utility.yul\":2172:2178   */\n  dup4\n    /* \"#utility.yul\":2169:2170   */\n  dup2\n    /* \"#utility.yul\":2166:2179   */\n  lt\n    /* \"#utility.yul\":2158:2271   */\n  iszero\n  tag_56\n  jumpi\n    /* \"#utility.yul\":2257:2258   */\n  dup1\n    /* \"#utility.yul\":2252:2255   */\n  dup3\n    /* \"#utility.yul\":2248:2259   */\n  add\n    /* \"#utility.yul\":2242:2260   */\n  mload\n    /* \"#utility.yul\":2238:2239   */\n  dup2\n    /* \"#utility.yul\":2233:2236   */\n  dup5\n    /* \"#utility.yul\":2229:2240   */\n  add\n    /* \"#utility.yul\":2222:2261   */\n  mstore\n    /* \"#utility.yul\":2194:2196   */\n  0x20\n    /* \"#utility.yul\":2191:2192   */\n  dup2\n    /* \"#utility.yul\":2187:2197   */\n  add\n    /* \"#utility.yul\":2182:2197   */\n  swap1\n  pop\n    /* \"#utility.yul\":2158:2271   */\n  jump(tag_54)\ntag_56:\n    /* \"#utility.yul\":2289:2295   */\n  dup4\n    /* \"#utility.yul\":2286:2287   */\n  dup2\n    /* \"#utility.yul\":2283:2296   */\n  gt\n    /* \"#utility.yul\":2280:2282   */\n  iszero\n  tag_57\n  jumpi\n    /* \"#utility.yul\":2369:2370   */\n  0x00\n    /* \"#utility.yul\":2360:2366   */\n  dup5\n    /* \"#utility.yul\":2355:2358   */\n  dup5\n    /* \"#utility.yul\":2351:2367   */\n  add\n    /* \"#utility.yul\":2344:2371   */\n  mstore\n    /* \"#utility.yul\":2280:2282   */\ntag_57:\n    /* \"#utility.yul\":2129:2387   */\n  pop\n  pop\n  pop\n  pop\n  jump\t// out\n    /* \"#utility.yul\":2393:2713   */\ntag_11:\n  0x00\n    /* \"#utility.yul\":2474:2475   */\n  0x02\n    /* \"#utility.yul\":2468:2472   */\n  dup3\n    /* \"#utility.yul\":2464:2476   */\n  div\n    /* \"#utility.yul\":2454:2476   */\n  swap1\n  pop\n    /* \"#utility.yul\":2521:2522   */\n  0x01\n    /* \"#utility.yul\":2515:2519   */\n  dup3\n    /* \"#utility.yul\":2511:2523   */\n  and\n    /* \"#utility.yul\":2542:2560   */\n  dup1\n    /* \"#utility.yul\":2532:2534   */\n  tag_59\n  jumpi\n    /* \"#utility.yul\":2598:2602   */\n  0x7f\n    /* \"#utility.yul\":2590:2596   */\n  dup3\n    /* \"#utility.yul\":2586:2603   */\n  and\n    /* \"#utility.yul\":2576:2603   */\n  swap2\n  pop\n    /* \"#utility.yul\":2532:2534   */\ntag_59:\n    /* \"#utility.yul\":2660:2662   */\n  0x20\n    /* \"#utility.yul\":2652:2658   */\n  dup3\n    /* \"#utility.yul\":2649:2663   */\n  lt\n    /* \"#utility.yul\":2629:2647   */\n  dup2\n    /* \"#utility.yul\":2626:2664   */\n  eq\n    /* \"#utility.yul\":2623:2625   */\n  iszero\n  tag_60\n  jumpi\n    /* \"#utility.yul\":2679:2697   */\n  tag_61\n  tag_62\n  jump\t// in\ntag_61:\n    /* \"#utility.yul\":2623:2625   */\ntag_60:\n    /* \"#utility.yul\":2444:2713   */\n  pop\n  swap2\n  swap1\n  pop\n  jump\t// out\n    /* \"#utility.yul\":2719:2899   */\ntag_62:\n    /* \"#utility.yul\":2767:2844   */\n  0x4e487b7100000000000000000000000000000000000000000000000000000000\n    /* \"#utility.yul\":2764:2765   */\n  0x00\n    /* \"#utility.yul\":2757:2845   */\n  mstore\n    /* \"#utility.yul\":2864:2868   */\n  0x22\n    /* \"#utility.yul\":2861:2862   */\n  0x04\n    /* \"#utility.yul\":2854:2869   */\n  mstore\n    /* \"#utility.yul\":2888:2892   */\n  0x24\n    /* \"#utility.yul\":2885:2886   */\n  0x00\n    /* \"#utility.yul\":2878:2893   */\n  revert\n    /* \"#utility.yul\":2905:3085   */\ntag_47:\n    /* \"#utility.yul\":2953:3030   */\n  0x4e487b7100000000000000000000000000000000000000000000000000000000\n    /* \"#utility.yul\":2950:2951   */\n  0x00\n    /* \"#utility.yul\":2943:3031   */\n  mstore\n    /* \"#utility.yul\":3050:3054   */\n  0x41\n    /* \"#utility.yul\":3047:3048   */\n  0x04\n    /* \"#utility.yul\":3040:3055   */\n  mstore\n    /* \"#utility.yul\":3074:3078   */\n  0x24\n    /* \"#utility.yul\":3071:3072   */\n  0x00\n    /* \"#utility.yul\":3064:3079   */\n  revert\n    /* \"#utility.yul\":3091:3211   */\ntag_34:\n    /* \"#utility.yul\":3163:3186   */\n  tag_66\n    /* \"#utility.yul\":3180:3185   */\n  dup2\n    /* \"#utility.yul\":3163:3186   */\n  tag_51\n  jump\t// in\ntag_66:\n    /* \"#utility.yul\":3156:3161   */\n  dup2\n    /* \"#utility.yul\":3153:3187   */\n  eq\n    /* \"#utility.yul\":3143:3145   */\n  tag_67\n  jumpi\n    /* \"#utility.yul\":3201:3202   */\n  0x00\n    /* \"#utility.yul\":3198:3199   */\n  dup1\n    /* \"#utility.yul\":3191:3203   */\n  revert\n    /* \"#utility.yul\":3143:3145   */\ntag_67:\n    /* \"#utility.yul\":3133:3211   */\n  pop\n  jump\t// out\n    /* \"contracts/4_Mode.sol\":59:1199  contract Mode{\r... */\ntag_9:\n  shr(0x60, mload(0x80))\n  codecopy(0x00, dataOffset(sub_0), dataSize(sub_0))\n  0x00\n  assignImmutable(\"0x7880aec93413f117ef14bd4e6d130875ab2c7d7d55a064fac3c2f7bd51516380\")\n  return(0x00, dataSize(sub_0))\nstop\n\nsub_0: assembly {\n        /* \"contracts/4_Mode.sol\":59:1199  contract Mode{\r... */\n      mstore(0x40, 0x80)\n      callvalue\n      dup1\n      iszero\n      tag_1\n      jumpi\n      0x00\n      dup1\n      revert\n    tag_1:\n      pop\n      jumpi(tag_2, lt(calldatasize, 0x04))\n      shr(0xe0, calldataload(0x00))\n      dup1\n      0x4ce077bc\n      gt\n      tag_12\n      jumpi\n      dup1\n      0x4ce077bc\n      eq\n      tag_7\n      jumpi\n      dup1\n      0x4f8632ba\n      eq\n      tag_8\n      jumpi\n      dup1\n      0x521eb273\n      eq\n      tag_9\n      jumpi\n      dup1\n      0x69bd01c4\n      eq\n      tag_10\n      jumpi\n      dup1\n      0x9aa4a738\n      eq\n      tag_11\n      jumpi\n      jump(tag_2)\n    tag_12:\n      dup1\n      0x07890892\n      eq\n      tag_3\n      jumpi\n      dup1\n      0x0b7c1a11\n      eq\n      tag_4\n      jumpi\n      dup1\n      0x2c6dbb1c\n      eq\n      tag_5\n      jumpi\n      dup1\n      0x3fa4f245\n      eq\n      tag_6\n      jumpi\n    tag_2:\n      0x00\n      dup1\n      revert\n        /* \"contracts/4_Mode.sol\":250:269  int public lifeline */\n    tag_3:\n      tag_13\n      tag_14\n      jump\t// in\n    tag_13:\n      mload(0x40)\n      tag_15\n      swap2\n      swap1\n      tag_16\n      jump\t// in\n    tag_15:\n      mload(0x40)\n      dup1\n      swap2\n      sub\n      swap1\n      return\n        /* \"contracts/4_Mode.sol\":314:337  bool public  bool_value */\n    tag_4:\n      tag_17\n      tag_18\n      jump\t// in\n    tag_17:\n      mload(0x40)\n      tag_19\n      swap2\n      swap1\n      tag_20\n      jump\t// in\n    tag_19:\n      mload(0x40)\n      dup1\n      swap2\n      sub\n      swap1\n      return\n        /* \"contracts/4_Mode.sol\":774:926  function star()public pure returns(int) {\r... */\n    tag_5:\n      tag_21\n      tag_22\n      jump\t// in\n    tag_21:\n      mload(0x40)\n      tag_23\n      swap2\n      swap1\n      tag_16\n      jump\t// in\n    tag_23:\n      mload(0x40)\n      dup1\n      swap2\n      sub\n      swap1\n      return\n        /* \"contracts/4_Mode.sol\":185:206  int public value = 10 */\n    tag_6:\n      tag_24\n      tag_25\n      jump\t// in\n    tag_24:\n      mload(0x40)\n      tag_26\n      swap2\n      swap1\n      tag_16\n      jump\t// in\n    tag_26:\n      mload(0x40)\n      dup1\n      swap2\n      sub\n      swap1\n      return\n        /* \"contracts/4_Mode.sol\":1110:1188  function changeuser(string memory _user) public{\r... */\n    tag_7:\n      tag_27\n      0x04\n      dup1\n      calldatasize\n      sub\n      dup2\n      add\n      swap1\n      tag_28\n      swap2\n      swap1\n      tag_29\n      jump\t// in\n    tag_28:\n      tag_30\n      jump\t// in\n    tag_27:\n      stop\n        /* \"contracts/4_Mode.sol\":213:243  string  public  user = \"David\" */\n    tag_8:\n      tag_31\n      tag_32\n      jump\t// in\n    tag_31:\n      mload(0x40)\n      tag_33\n      swap2\n      swap1\n      tag_34\n      jump\t// in\n    tag_33:\n      mload(0x40)\n      dup1\n      swap2\n      sub\n      swap1\n      return\n        /* \"contracts/4_Mode.sol\":276:307  address immutable public wallet */\n    tag_9:\n      tag_35\n      tag_36\n      jump\t// in\n    tag_35:\n      mload(0x40)\n      tag_37\n      swap2\n      swap1\n      tag_38\n      jump\t// in\n    tag_37:\n      mload(0x40)\n      dup1\n      swap2\n      sub\n      swap1\n      return\n        /* \"contracts/4_Mode.sol\":1023:1098  function getvalue()public view returns(int){\r... */\n    tag_10:\n      tag_39\n      tag_40\n      jump\t// in\n    tag_39:\n      mload(0x40)\n      tag_41\n      swap2\n      swap1\n      tag_16\n      jump\t// in\n    tag_41:\n      mload(0x40)\n      dup1\n      swap2\n      sub\n      swap1\n      return\n        /* \"contracts/4_Mode.sol\":664:731  function Change(int _value) public{\r... */\n    tag_11:\n      tag_42\n      0x04\n      dup1\n      calldatasize\n      sub\n      dup2\n      add\n      swap1\n      tag_43\n      swap2\n      swap1\n      tag_44\n      jump\t// in\n    tag_43:\n      tag_45\n      jump\t// in\n    tag_42:\n      stop\n        /* \"contracts/4_Mode.sol\":250:269  int public lifeline */\n    tag_14:\n      sload(0x02)\n      dup2\n      jump\t// out\n        /* \"contracts/4_Mode.sol\":314:337  bool public  bool_value */\n    tag_18:\n      0x03\n      0x00\n      swap1\n      sload\n      swap1\n      0x0100\n      exp\n      swap1\n      div\n      0xff\n      and\n      dup2\n      jump\t// out\n        /* \"contracts/4_Mode.sol\":774:926  function star()public pure returns(int) {\r... */\n    tag_22:\n        /* \"contracts/4_Mode.sol\":809:812  int */\n      0x00\n        /* \"contracts/4_Mode.sol\":825:830  int i */\n      dup1\n        /* \"contracts/4_Mode.sol\":833:834  5 */\n      0x05\n        /* \"contracts/4_Mode.sol\":825:834  int i = 5 */\n      swap1\n      pop\n        /* \"contracts/4_Mode.sol\":852:853  4 */\n      0x04\n        /* \"contracts/4_Mode.sol\":848:849  i */\n      dup2\n        /* \"contracts/4_Mode.sol\":848:853  i * 4 */\n      tag_47\n      swap2\n      swap1\n      tag_48\n      jump\t// in\n    tag_47:\n        /* \"contracts/4_Mode.sol\":845:853  i =i * 4 */\n      swap1\n      pop\n        /* \"contracts/4_Mode.sol\":864:887  string  memory pet_name */\n      0x00\n        /* \"contracts/4_Mode.sol\":864:898  string  memory pet_name = \"Tuamie\" */\n      mload(0x40)\n      dup1\n      0x40\n      add\n      0x40\n      mstore\n      dup1\n      0x06\n      dup2\n      mstore\n      0x20\n      add\n      0x5475616d69650000000000000000000000000000000000000000000000000000\n      dup2\n      mstore\n      pop\n      swap1\n      pop\n        /* \"contracts/4_Mode.sol\":917:918  i */\n      dup2\n        /* \"contracts/4_Mode.sol\":909:918  return  i */\n      swap3\n      pop\n      pop\n      pop\n        /* \"contracts/4_Mode.sol\":774:926  function star()public pure returns(int) {\r... */\n      swap1\n      jump\t// out\n        /* \"contracts/4_Mode.sol\":185:206  int public value = 10 */\n    tag_25:\n      sload(0x00)\n      dup2\n      jump\t// out\n        /* \"contracts/4_Mode.sol\":1110:1188  function changeuser(string memory _user) public{\r... */\n    tag_30:\n        /* \"contracts/4_Mode.sol\":1175:1180  _user */\n      dup1\n        /* \"contracts/4_Mode.sol\":1168:1172  user */\n      0x01\n        /* \"contracts/4_Mode.sol\":1168:1180  user = _user */\n      swap1\n      dup1\n      mload\n      swap1\n      0x20\n      add\n      swap1\n      tag_50\n      swap3\n      swap2\n      swap1\n      tag_51\n      jump\t// in\n    tag_50:\n      pop\n        /* \"contracts/4_Mode.sol\":1110:1188  function changeuser(string memory _user) public{\r... */\n      pop\n      jump\t// out\n        /* \"contracts/4_Mode.sol\":213:243  string  public  user = \"David\" */\n    tag_32:\n      0x01\n      dup1\n      sload\n      tag_52\n      swap1\n      tag_53\n      jump\t// in\n    tag_52:\n      dup1\n      0x1f\n      add\n      0x20\n      dup1\n      swap2\n      div\n      mul\n      0x20\n      add\n      mload(0x40)\n      swap1\n      dup2\n      add\n      0x40\n      mstore\n      dup1\n      swap3\n      swap2\n      swap1\n      dup2\n      dup2\n      mstore\n      0x20\n      add\n      dup3\n      dup1\n      sload\n      tag_54\n      swap1\n      tag_53\n      jump\t// in\n    tag_54:\n      dup1\n      iszero\n      tag_55\n      jumpi\n      dup1\n      0x1f\n      lt\n      tag_56\n      jumpi\n      0x0100\n      dup1\n      dup4\n      sload\n      div\n      mul\n      dup4\n      mstore\n      swap2\n      0x20\n      add\n      swap2\n      jump(tag_55)\n    tag_56:\n      dup3\n      add\n      swap2\n      swap1\n      0x00\n      mstore\n      keccak256(0x00, 0x20)\n      swap1\n    tag_57:\n      dup2\n      sload\n      dup2\n      mstore\n      swap1\n      0x01\n      add\n      swap1\n      0x20\n      add\n      dup1\n      dup4\n      gt\n      tag_57\n      jumpi\n      dup3\n      swap1\n      sub\n      0x1f\n      and\n      dup3\n      add\n      swap2\n    tag_55:\n      pop\n      pop\n      pop\n      pop\n      pop\n      dup2\n      jump\t// out\n        /* \"contracts/4_Mode.sol\":276:307  address immutable public wallet */\n    tag_36:\n      immutable(\"0x7880aec93413f117ef14bd4e6d130875ab2c7d7d55a064fac3c2f7bd51516380\")\n      dup2\n      jump\t// out\n        /* \"contracts/4_Mode.sol\":1023:1098  function getvalue()public view returns(int){\r... */\n    tag_40:\n        /* \"contracts/4_Mode.sol\":1062:1065  int */\n      0x00\n        /* \"contracts/4_Mode.sol\":1085:1090  value */\n      dup1\n      sload\n        /* \"contracts/4_Mode.sol\":1077:1090  return  value */\n      swap1\n      pop\n        /* \"contracts/4_Mode.sol\":1023:1098  function getvalue()public view returns(int){\r... */\n      swap1\n      jump\t// out\n        /* \"contracts/4_Mode.sol\":664:731  function Change(int _value) public{\r... */\n    tag_45:\n        /* \"contracts/4_Mode.sol\":717:723  _value */\n      dup1\n        /* \"contracts/4_Mode.sol\":709:714  value */\n      0x00\n        /* \"contracts/4_Mode.sol\":709:723  value = _value */\n      dup2\n      swap1\n      sstore\n      pop\n        /* \"contracts/4_Mode.sol\":664:731  function Change(int _value) public{\r... */\n      pop\n      jump\t// out\n    tag_51:\n      dup3\n      dup1\n      sload\n      tag_60\n      swap1\n      tag_53\n      jump\t// in\n    tag_60:\n      swap1\n      0x00\n      mstore\n      keccak256(0x00, 0x20)\n      swap1\n      0x1f\n      add\n      0x20\n      swap1\n      div\n      dup2\n      add\n      swap3\n      dup3\n      tag_62\n      jumpi\n      0x00\n      dup6\n      sstore\n      jump(tag_61)\n    tag_62:\n      dup3\n      0x1f\n      lt\n      tag_63\n      jumpi\n      dup1\n      mload\n      not(0xff)\n      and\n      dup4\n      dup1\n      add\n      or\n      dup6\n      sstore\n      jump(tag_61)\n    tag_63:\n      dup3\n      dup1\n      add\n      0x01\n      add\n      dup6\n      sstore\n      dup3\n      iszero\n      tag_61\n      jumpi\n      swap2\n      dup3\n      add\n    tag_64:\n      dup3\n      dup2\n      gt\n      iszero\n      tag_65\n      jumpi\n      dup3\n      mload\n      dup3\n      sstore\n      swap2\n      0x20\n      add\n      swap2\n      swap1\n      0x01\n      add\n      swap1\n      jump(tag_64)\n    tag_65:\n    tag_61:\n      pop\n      swap1\n      pop\n      tag_66\n      swap2\n      swap1\n      tag_67\n      jump\t// in\n    tag_66:\n      pop\n      swap1\n      jump\t// out\n    tag_67:\n    tag_68:\n      dup1\n      dup3\n      gt\n      iszero\n      tag_69\n      jumpi\n      0x00\n      dup2\n      0x00\n      swap1\n      sstore\n      pop\n      0x01\n      add\n      jump(tag_68)\n    tag_69:\n      pop\n      swap1\n      jump\t// out\n        /* \"#utility.yul\":7:351   */\n    tag_71:\n      0x00\n        /* \"#utility.yul\":110:175   */\n      tag_73\n        /* \"#utility.yul\":125:174   */\n      tag_74\n        /* \"#utility.yul\":167:173   */\n      dup5\n        /* \"#utility.yul\":125:174   */\n      tag_75\n      jump\t// in\n    tag_74:\n        /* \"#utility.yul\":110:175   */\n      tag_76\n      jump\t// in\n    tag_73:\n        /* \"#utility.yul\":101:175   */\n      swap1\n      pop\n        /* \"#utility.yul\":198:204   */\n      dup3\n        /* \"#utility.yul\":191:196   */\n      dup2\n        /* \"#utility.yul\":184:205   */\n      mstore\n        /* \"#utility.yul\":236:240   */\n      0x20\n        /* \"#utility.yul\":229:234   */\n      dup2\n        /* \"#utility.yul\":225:241   */\n      add\n        /* \"#utility.yul\":274:277   */\n      dup5\n        /* \"#utility.yul\":265:271   */\n      dup5\n        /* \"#utility.yul\":260:263   */\n      dup5\n        /* \"#utility.yul\":256:272   */\n      add\n        /* \"#utility.yul\":253:278   */\n      gt\n        /* \"#utility.yul\":250:252   */\n      iszero\n      tag_77\n      jumpi\n        /* \"#utility.yul\":291:292   */\n      0x00\n        /* \"#utility.yul\":288:289   */\n      dup1\n        /* \"#utility.yul\":281:293   */\n      revert\n        /* \"#utility.yul\":250:252   */\n    tag_77:\n        /* \"#utility.yul\":304:345   */\n      tag_78\n        /* \"#utility.yul\":338:344   */\n      dup5\n        /* \"#utility.yul\":333:336   */\n      dup3\n        /* \"#utility.yul\":328:331   */\n      dup6\n        /* \"#utility.yul\":304:345   */\n      tag_79\n      jump\t// in\n    tag_78:\n        /* \"#utility.yul\":91:351   */\n      pop\n      swap4\n      swap3\n      pop\n      pop\n      pop\n      jump\t// out\n        /* \"#utility.yul\":357:494   */\n    tag_80:\n      0x00\n        /* \"#utility.yul\":440:446   */\n      dup2\n        /* \"#utility.yul\":427:447   */\n      calldataload\n        /* \"#utility.yul\":418:447   */\n      swap1\n      pop\n        /* \"#utility.yul\":456:488   */\n      tag_82\n        /* \"#utility.yul\":482:487   */\n      dup2\n        /* \"#utility.yul\":456:488   */\n      tag_83\n      jump\t// in\n    tag_82:\n        /* \"#utility.yul\":408:494   */\n      swap3\n      swap2\n      pop\n      pop\n      jump\t// out\n        /* \"#utility.yul\":514:787   */\n    tag_84:\n      0x00\n        /* \"#utility.yul\":619:622   */\n      dup3\n        /* \"#utility.yul\":612:616   */\n      0x1f\n        /* \"#utility.yul\":604:610   */\n      dup4\n        /* \"#utility.yul\":600:617   */\n      add\n        /* \"#utility.yul\":596:623   */\n      slt\n        /* \"#utility.yul\":586:588   */\n      tag_86\n      jumpi\n        /* \"#utility.yul\":637:638   */\n      0x00\n        /* \"#utility.yul\":634:635   */\n      dup1\n        /* \"#utility.yul\":627:639   */\n      revert\n        /* \"#utility.yul\":586:588   */\n    tag_86:\n        /* \"#utility.yul\":677:683   */\n      dup2\n        /* \"#utility.yul\":664:684   */\n      calldataload\n        /* \"#utility.yul\":702:781   */\n      tag_87\n        /* \"#utility.yul\":777:780   */\n      dup5\n        /* \"#utility.yul\":769:775   */\n      dup3\n        /* \"#utility.yul\":762:766   */\n      0x20\n        /* \"#utility.yul\":754:760   */\n      dup7\n        /* \"#utility.yul\":750:767   */\n      add\n        /* \"#utility.yul\":702:781   */\n      tag_71\n      jump\t// in\n    tag_87:\n        /* \"#utility.yul\":693:781   */\n      swap2\n      pop\n        /* \"#utility.yul\":576:787   */\n      pop\n      swap3\n      swap2\n      pop\n      pop\n      jump\t// out\n        /* \"#utility.yul\":793:1053   */\n    tag_44:\n      0x00\n        /* \"#utility.yul\":900:902   */\n      0x20\n        /* \"#utility.yul\":888:897   */\n      dup3\n        /* \"#utility.yul\":879:886   */\n      dup5\n        /* \"#utility.yul\":875:898   */\n      sub\n        /* \"#utility.yul\":871:903   */\n      slt\n        /* \"#utility.yul\":868:870   */\n      iszero\n      tag_89\n      jumpi\n        /* \"#utility.yul\":916:917   */\n      0x00\n        /* \"#utility.yul\":913:914   */\n      dup1\n        /* \"#utility.yul\":906:918   */\n      revert\n        /* \"#utility.yul\":868:870   */\n    tag_89:\n        /* \"#utility.yul\":959:960   */\n      0x00\n        /* \"#utility.yul\":984:1036   */\n      tag_90\n        /* \"#utility.yul\":1028:1035   */\n      dup5\n        /* \"#utility.yul\":1019:1025   */\n      dup3\n        /* \"#utility.yul\":1008:1017   */\n      dup6\n        /* \"#utility.yul\":1004:1026   */\n      add\n        /* \"#utility.yul\":984:1036   */\n      tag_80\n      jump\t// in\n    tag_90:\n        /* \"#utility.yul\":974:1036   */\n      swap2\n      pop\n        /* \"#utility.yul\":930:1046   */\n      pop\n        /* \"#utility.yul\":858:1053   */\n      swap3\n      swap2\n      pop\n      pop\n      jump\t// out\n        /* \"#utility.yul\":1059:1434   */\n    tag_29:\n      0x00\n        /* \"#utility.yul\":1177:1179   */\n      0x20\n        /* \"#utility.yul\":1165:1174   */\n      dup3\n        /* \"#utility.yul\":1156:1163   */\n      dup5\n        /* \"#utility.yul\":1152:1175   */\n      sub\n        /* \"#utility.yul\":1148:1180   */\n      slt\n        /* \"#utility.yul\":1145:1147   */\n      iszero\n      tag_92\n      jumpi\n        /* \"#utility.yul\":1193:1194   */\n      0x00\n        /* \"#utility.yul\":1190:1191   */\n      dup1\n        /* \"#utility.yul\":1183:1195   */\n      revert\n        /* \"#utility.yul\":1145:1147   */\n    tag_92:\n        /* \"#utility.yul\":1264:1265   */\n      0x00\n        /* \"#utility.yul\":1253:1262   */\n      dup3\n        /* \"#utility.yul\":1249:1266   */\n      add\n        /* \"#utility.yul\":1236:1267   */\n      calldataload\n        /* \"#utility.yul\":1294:1312   */\n      0xffffffffffffffff\n        /* \"#utility.yul\":1286:1292   */\n      dup2\n        /* \"#utility.yul\":1283:1313   */\n      gt\n        /* \"#utility.yul\":1280:1282   */\n      iszero\n      tag_93\n      jumpi\n        /* \"#utility.yul\":1326:1327   */\n      0x00\n        /* \"#utility.yul\":1323:1324   */\n      dup1\n        /* \"#utility.yul\":1316:1328   */\n      revert\n        /* \"#utility.yul\":1280:1282   */\n    tag_93:\n        /* \"#utility.yul\":1354:1417   */\n      tag_94\n        /* \"#utility.yul\":1409:1416   */\n      dup5\n        /* \"#utility.yul\":1400:1406   */\n      dup3\n        /* \"#utility.yul\":1389:1398   */\n      dup6\n        /* \"#utility.yul\":1385:1407   */\n      add\n        /* \"#utility.yul\":1354:1417   */\n      tag_84\n      jump\t// in\n    tag_94:\n        /* \"#utility.yul\":1344:1417   */\n      swap2\n      pop\n        /* \"#utility.yul\":1207:1427   */\n      pop\n        /* \"#utility.yul\":1135:1434   */\n      swap3\n      swap2\n      pop\n      pop\n      jump\t// out\n        /* \"#utility.yul\":1440:1558   */\n    tag_95:\n        /* \"#utility.yul\":1527:1551   */\n      tag_97\n        /* \"#utility.yul\":1545:1550   */\n      dup2\n        /* \"#utility.yul\":1527:1551   */\n      tag_98\n      jump\t// in\n    tag_97:\n        /* \"#utility.yul\":1522:1525   */\n      dup3\n        /* \"#utility.yul\":1515:1552   */\n      mstore\n        /* \"#utility.yul\":1505:1558   */\n      pop\n      pop\n      jump\t// out\n        /* \"#utility.yul\":1564:1673   */\n    tag_99:\n        /* \"#utility.yul\":1645:1666   */\n      tag_101\n        /* \"#utility.yul\":1660:1665   */\n      dup2\n        /* \"#utility.yul\":1645:1666   */\n      tag_102\n      jump\t// in\n    tag_101:\n        /* \"#utility.yul\":1640:1643   */\n      dup3\n        /* \"#utility.yul\":1633:1667   */\n      mstore\n        /* \"#utility.yul\":1623:1673   */\n      pop\n      pop\n      jump\t// out\n        /* \"#utility.yul\":1679:1794   */\n    tag_103:\n        /* \"#utility.yul\":1764:1787   */\n      tag_105\n        /* \"#utility.yul\":1781:1786   */\n      dup2\n        /* \"#utility.yul\":1764:1787   */\n      tag_106\n      jump\t// in\n    tag_105:\n        /* \"#utility.yul\":1759:1762   */\n      dup3\n        /* \"#utility.yul\":1752:1788   */\n      mstore\n        /* \"#utility.yul\":1742:1794   */\n      pop\n      pop\n      jump\t// out\n        /* \"#utility.yul\":1800:2164   */\n    tag_107:\n      0x00\n        /* \"#utility.yul\":1916:1955   */\n      tag_109\n        /* \"#utility.yul\":1949:1954   */\n      dup3\n        /* \"#utility.yul\":1916:1955   */\n      tag_110\n      jump\t// in\n    tag_109:\n        /* \"#utility.yul\":1971:2042   */\n      tag_111\n        /* \"#utility.yul\":2035:2041   */\n      dup2\n        /* \"#utility.yul\":2030:2033   */\n      dup6\n        /* \"#utility.yul\":1971:2042   */\n      tag_112\n      jump\t// in\n    tag_111:\n        /* \"#utility.yul\":1964:2042   */\n      swap4\n      pop\n        /* \"#utility.yul\":2051:2103   */\n      tag_113\n        /* \"#utility.yul\":2096:2102   */\n      dup2\n        /* \"#utility.yul\":2091:2094   */\n      dup6\n        /* \"#utility.yul\":2084:2088   */\n      0x20\n        /* \"#utility.yul\":2077:2082   */\n      dup7\n        /* \"#utility.yul\":2073:2089   */\n      add\n        /* \"#utility.yul\":2051:2103   */\n      tag_114\n      jump\t// in\n    tag_113:\n        /* \"#utility.yul\":2128:2157   */\n      tag_115\n        /* \"#utility.yul\":2150:2156   */\n      dup2\n        /* \"#utility.yul\":2128:2157   */\n      tag_116\n      jump\t// in\n    tag_115:\n        /* \"#utility.yul\":2123:2126   */\n      dup5\n        /* \"#utility.yul\":2119:2158   */\n      add\n        /* \"#utility.yul\":2112:2158   */\n      swap2\n      pop\n        /* \"#utility.yul\":1892:2164   */\n      pop\n      swap3\n      swap2\n      pop\n      pop\n      jump\t// out\n        /* \"#utility.yul\":2170:2392   */\n    tag_38:\n      0x00\n        /* \"#utility.yul\":2301:2303   */\n      0x20\n        /* \"#utility.yul\":2290:2299   */\n      dup3\n        /* \"#utility.yul\":2286:2304   */\n      add\n        /* \"#utility.yul\":2278:2304   */\n      swap1\n      pop\n        /* \"#utility.yul\":2314:2385   */\n      tag_118\n        /* \"#utility.yul\":2382:2383   */\n      0x00\n        /* \"#utility.yul\":2371:2380   */\n      dup4\n        /* \"#utility.yul\":2367:2384   */\n      add\n        /* \"#utility.yul\":2358:2364   */\n      dup5\n        /* \"#utility.yul\":2314:2385   */\n      tag_95\n      jump\t// in\n    tag_118:\n        /* \"#utility.yul\":2268:2392   */\n      swap3\n      swap2\n      pop\n      pop\n      jump\t// out\n        /* \"#utility.yul\":2398:2608   */\n    tag_20:\n      0x00\n        /* \"#utility.yul\":2523:2525   */\n      0x20\n        /* \"#utility.yul\":2512:2521   */\n      dup3\n        /* \"#utility.yul\":2508:2526   */\n      add\n        /* \"#utility.yul\":2500:2526   */\n      swap1\n      pop\n        /* \"#utility.yul\":2536:2601   */\n      tag_120\n        /* \"#utility.yul\":2598:2599   */\n      0x00\n        /* \"#utility.yul\":2587:2596   */\n      dup4\n        /* \"#utility.yul\":2583:2600   */\n      add\n        /* \"#utility.yul\":2574:2580   */\n      dup5\n        /* \"#utility.yul\":2536:2601   */\n      tag_99\n      jump\t// in\n    tag_120:\n        /* \"#utility.yul\":2490:2608   */\n      swap3\n      swap2\n      pop\n      pop\n      jump\t// out\n        /* \"#utility.yul\":2614:2832   */\n    tag_16:\n      0x00\n        /* \"#utility.yul\":2743:2745   */\n      0x20\n        /* \"#utility.yul\":2732:2741   */\n      dup3\n        /* \"#utility.yul\":2728:2746   */\n      add\n        /* \"#utility.yul\":2720:2746   */\n      swap1\n      pop\n        /* \"#utility.yul\":2756:2825   */\n      tag_122\n        /* \"#utility.yul\":2822:2823   */\n      0x00\n        /* \"#utility.yul\":2811:2820   */\n      dup4\n        /* \"#utility.yul\":2807:2824   */\n      add\n        /* \"#utility.yul\":2798:2804   */\n      dup5\n        /* \"#utility.yul\":2756:2825   */\n      tag_103\n      jump\t// in\n    tag_122:\n        /* \"#utility.yul\":2710:2832   */\n      swap3\n      swap2\n      pop\n      pop\n      jump\t// out\n        /* \"#utility.yul\":2838:3151   */\n    tag_34:\n      0x00\n        /* \"#utility.yul\":2989:2991   */\n      0x20\n        /* \"#utility.yul\":2978:2987   */\n      dup3\n        /* \"#utility.yul\":2974:2992   */\n      add\n        /* \"#utility.yul\":2966:2992   */\n      swap1\n      pop\n        /* \"#utility.yul\":3038:3047   */\n      dup2\n        /* \"#utility.yul\":3032:3036   */\n      dup2\n        /* \"#utility.yul\":3028:3048   */\n      sub\n        /* \"#utility.yul\":3024:3025   */\n      0x00\n        /* \"#utility.yul\":3013:3022   */\n      dup4\n        /* \"#utility.yul\":3009:3026   */\n      add\n        /* \"#utility.yul\":3002:3049   */\n      mstore\n        /* \"#utility.yul\":3066:3144   */\n      tag_124\n        /* \"#utility.yul\":3139:3143   */\n      dup2\n        /* \"#utility.yul\":3130:3136   */\n      dup5\n        /* \"#utility.yul\":3066:3144   */\n      tag_107\n      jump\t// in\n    tag_124:\n        /* \"#utility.yul\":3058:3144   */\n      swap1\n      pop\n        /* \"#utility.yul\":2956:3151   */\n      swap3\n      swap2\n      pop\n      pop\n      jump\t// out\n        /* \"#utility.yul\":3157:3440   */\n    tag_76:\n      0x00\n        /* \"#utility.yul\":3223:3225   */\n      0x40\n        /* \"#utility.yul\":3217:3226   */\n      mload\n        /* \"#utility.yul\":3207:3226   */\n      swap1\n      pop\n        /* \"#utility.yul\":3265:3269   */\n      dup2\n        /* \"#utility.yul\":3257:3263   */\n      dup2\n        /* \"#utility.yul\":3253:3270   */\n      add\n        /* \"#utility.yul\":3372:3378   */\n      dup2\n        /* \"#utility.yul\":3360:3370   */\n      dup2\n        /* \"#utility.yul\":3357:3379   */\n      lt\n        /* \"#utility.yul\":3336:3354   */\n      0xffffffffffffffff\n        /* \"#utility.yul\":3324:3334   */\n      dup3\n        /* \"#utility.yul\":3321:3355   */\n      gt\n        /* \"#utility.yul\":3318:3380   */\n      or\n        /* \"#utility.yul\":3315:3317   */\n      iszero\n      tag_126\n      jumpi\n        /* \"#utility.yul\":3383:3401   */\n      tag_127\n      tag_128\n      jump\t// in\n    tag_127:\n        /* \"#utility.yul\":3315:3317   */\n    tag_126:\n        /* \"#utility.yul\":3423:3433   */\n      dup1\n        /* \"#utility.yul\":3419:3421   */\n      0x40\n        /* \"#utility.yul\":3412:3434   */\n      mstore\n        /* \"#utility.yul\":3197:3440   */\n      pop\n      swap2\n      swap1\n      pop\n      jump\t// out\n        /* \"#utility.yul\":3446:3778   */\n    tag_75:\n      0x00\n        /* \"#utility.yul\":3598:3616   */\n      0xffffffffffffffff\n        /* \"#utility.yul\":3590:3596   */\n      dup3\n        /* \"#utility.yul\":3587:3617   */\n      gt\n        /* \"#utility.yul\":3584:3586   */\n      iszero\n      tag_130\n      jumpi\n        /* \"#utility.yul\":3620:3638   */\n      tag_131\n      tag_128\n      jump\t// in\n    tag_131:\n        /* \"#utility.yul\":3584:3586   */\n    tag_130:\n        /* \"#utility.yul\":3705:3709   */\n      0x1f\n        /* \"#utility.yul\":3701:3710   */\n      not\n        /* \"#utility.yul\":3694:3698   */\n      0x1f\n        /* \"#utility.yul\":3686:3692   */\n      dup4\n        /* \"#utility.yul\":3682:3699   */\n      add\n        /* \"#utility.yul\":3678:3711   */\n      and\n        /* \"#utility.yul\":3670:3711   */\n      swap1\n      pop\n        /* \"#utility.yul\":3766:3770   */\n      0x20\n        /* \"#utility.yul\":3760:3764   */\n      dup2\n        /* \"#utility.yul\":3756:3771   */\n      add\n        /* \"#utility.yul\":3748:3771   */\n      swap1\n      pop\n        /* \"#utility.yul\":3513:3778   */\n      swap2\n      swap1\n      pop\n      jump\t// out\n        /* \"#utility.yul\":3784:3883   */\n    tag_110:\n      0x00\n        /* \"#utility.yul\":3870:3875   */\n      dup2\n        /* \"#utility.yul\":3864:3876   */\n      mload\n        /* \"#utility.yul\":3854:3876   */\n      swap1\n      pop\n        /* \"#utility.yul\":3843:3883   */\n      swap2\n      swap1\n      pop\n      jump\t// out\n        /* \"#utility.yul\":3889:4058   */\n    tag_112:\n      0x00\n        /* \"#utility.yul\":4007:4013   */\n      dup3\n        /* \"#utility.yul\":4002:4005   */\n      dup3\n        /* \"#utility.yul\":3995:4014   */\n      mstore\n        /* \"#utility.yul\":4047:4051   */\n      0x20\n        /* \"#utility.yul\":4042:4045   */\n      dup3\n        /* \"#utility.yul\":4038:4052   */\n      add\n        /* \"#utility.yul\":4023:4052   */\n      swap1\n      pop\n        /* \"#utility.yul\":3985:4058   */\n      swap3\n      swap2\n      pop\n      pop\n      jump\t// out\n        /* \"#utility.yul\":4064:5055   */\n    tag_48:\n      0x00\n        /* \"#utility.yul\":4126:4145   */\n      tag_135\n        /* \"#utility.yul\":4143:4144   */\n      dup3\n        /* \"#utility.yul\":4126:4145   */\n      tag_106\n      jump\t// in\n    tag_135:\n        /* \"#utility.yul\":4121:4145   */\n      swap2\n      pop\n        /* \"#utility.yul\":4159:4178   */\n      tag_136\n        /* \"#utility.yul\":4176:4177   */\n      dup4\n        /* \"#utility.yul\":4159:4178   */\n      tag_106\n      jump\t// in\n    tag_136:\n        /* \"#utility.yul\":4154:4178   */\n      swap3\n      pop\n        /* \"#utility.yul\":4360:4361   */\n      dup3\n        /* \"#utility.yul\":4292:4358   */\n      0x7fffffffffffffffffffffffffffffffffffffffffffffffffffffffffffffff\n        /* \"#utility.yul\":4288:4362   */\n      div\n        /* \"#utility.yul\":4285:4286   */\n      dup3\n        /* \"#utility.yul\":4282:4363   */\n      gt\n        /* \"#utility.yul\":4277:4278   */\n      0x00\n        /* \"#utility.yul\":4274:4275   */\n      dup5\n        /* \"#utility.yul\":4270:4279   */\n      sgt\n        /* \"#utility.yul\":4266:4267   */\n      0x00\n        /* \"#utility.yul\":4263:4264   */\n      dup5\n        /* \"#utility.yul\":4259:4268   */\n      sgt\n        /* \"#utility.yul\":4255:4280   */\n      and\n        /* \"#utility.yul\":4251:4364   */\n      and\n        /* \"#utility.yul\":4248:4250   */\n      iszero\n      tag_137\n      jumpi\n        /* \"#utility.yul\":4367:4385   */\n      tag_138\n      tag_139\n      jump\t// in\n    tag_138:\n        /* \"#utility.yul\":4248:4250   */\n    tag_137:\n        /* \"#utility.yul\":4571:4572   */\n      dup2\n        /* \"#utility.yul\":4503:4569   */\n      0x8000000000000000000000000000000000000000000000000000000000000000\n        /* \"#utility.yul\":4498:4573   */\n      sdiv\n        /* \"#utility.yul\":4495:4496   */\n      dup4\n        /* \"#utility.yul\":4491:4574   */\n      slt\n        /* \"#utility.yul\":4486:4487   */\n      0x00\n        /* \"#utility.yul\":4483:4484   */\n      dup5\n        /* \"#utility.yul\":4479:4488   */\n      slt\n        /* \"#utility.yul\":4475:4476   */\n      0x00\n        /* \"#utility.yul\":4472:4473   */\n      dup5\n        /* \"#utility.yul\":4468:4477   */\n      sgt\n        /* \"#utility.yul\":4464:4489   */\n      and\n        /* \"#utility.yul\":4460:4575   */\n      and\n        /* \"#utility.yul\":4457:4459   */\n      iszero\n      tag_140\n      jumpi\n        /* \"#utility.yul\":4578:4596   */\n      tag_141\n      tag_139\n      jump\t// in\n    tag_141:\n        /* \"#utility.yul\":4457:4459   */\n    tag_140:\n        /* \"#utility.yul\":4782:4783   */\n      dup3\n        /* \"#utility.yul\":4714:4780   */\n      0x8000000000000000000000000000000000000000000000000000000000000000\n        /* \"#utility.yul\":4709:4784   */\n      sdiv\n        /* \"#utility.yul\":4706:4707   */\n      dup3\n        /* \"#utility.yul\":4702:4785   */\n      slt\n        /* \"#utility.yul\":4697:4698   */\n      0x00\n        /* \"#utility.yul\":4694:4695   */\n      dup5\n        /* \"#utility.yul\":4690:4699   */\n      sgt\n        /* \"#utility.yul\":4686:4687   */\n      0x00\n        /* \"#utility.yul\":4683:4684   */\n      dup5\n        /* \"#utility.yul\":4679:4688   */\n      slt\n        /* \"#utility.yul\":4675:4700   */\n      and\n        /* \"#utility.yul\":4671:4786   */\n      and\n        /* \"#utility.yul\":4668:4670   */\n      iszero\n      tag_142\n      jumpi\n        /* \"#utility.yul\":4789:4807   */\n      tag_143\n      tag_139\n      jump\t// in\n    tag_143:\n        /* \"#utility.yul\":4668:4670   */\n    tag_142:\n        /* \"#utility.yul\":4992:4993   */\n      dup3\n        /* \"#utility.yul\":4924:4990   */\n      0x7fffffffffffffffffffffffffffffffffffffffffffffffffffffffffffffff\n        /* \"#utility.yul\":4919:4994   */\n      sdiv\n        /* \"#utility.yul\":4916:4917   */\n      dup3\n        /* \"#utility.yul\":4912:4995   */\n      slt\n        /* \"#utility.yul\":4907:4908   */\n      0x00\n        /* \"#utility.yul\":4904:4905   */\n      dup5\n        /* \"#utility.yul\":4900:4909   */\n      slt\n        /* \"#utility.yul\":4896:4897   */\n      0x00\n        /* \"#utility.yul\":4893:4894   */\n      dup5\n        /* \"#utility.yul\":4889:4898   */\n      slt\n        /* \"#utility.yul\":4885:4910   */\n      and\n        /* \"#utility.yul\":4881:4996   */\n      and\n        /* \"#utility.yul\":4878:4880   */\n      iszero\n      tag_144\n      jumpi\n        /* \"#utility.yul\":4999:5017   */\n      tag_145\n      tag_139\n      jump\t// in\n    tag_145:\n        /* \"#utility.yul\":4878:4880   */\n    tag_144:\n        /* \"#utility.yul\":5047:5048   */\n      dup3\n        /* \"#utility.yul\":5044:5045   */\n      dup3\n        /* \"#utility.yul\":5040:5049   */\n      mul\n        /* \"#utility.yul\":5029:5049   */\n      swap1\n      pop\n        /* \"#utility.yul\":4111:5055   */\n      swap3\n      swap2\n      pop\n      pop\n      jump\t// out\n        /* \"#utility.yul\":5061:5157   */\n    tag_98:\n      0x00\n        /* \"#utility.yul\":5127:5151   */\n      tag_147\n        /* \"#utility.yul\":5145:5150   */\n      dup3\n        /* \"#utility.yul\":5127:5151   */\n      tag_148\n      jump\t// in\n    tag_147:\n        /* \"#utility.yul\":5116:5151   */\n      swap1\n      pop\n        /* \"#utility.yul\":5106:5157   */\n      swap2\n      swap1\n      pop\n      jump\t// out\n        /* \"#utility.yul\":5163:5253   */\n    tag_102:\n      0x00\n        /* \"#utility.yul\":5240:5245   */\n      dup2\n        /* \"#utility.yul\":5233:5246   */\n      iszero\n        /* \"#utility.yul\":5226:5247   */\n      iszero\n        /* \"#utility.yul\":5215:5247   */\n      swap1\n      pop\n        /* \"#utility.yul\":5205:5253   */\n      swap2\n      swap1\n      pop\n      jump\t// out\n        /* \"#utility.yul\":5259:5335   */\n    tag_106:\n      0x00\n        /* \"#utility.yul\":5324:5329   */\n      dup2\n        /* \"#utility.yul\":5313:5329   */\n      swap1\n      pop\n        /* \"#utility.yul\":5303:5335   */\n      swap2\n      swap1\n      pop\n      jump\t// out\n        /* \"#utility.yul\":5341:5467   */\n    tag_148:\n      0x00\n        /* \"#utility.yul\":5418:5460   */\n      0xffffffffffffffffffffffffffffffffffffffff\n        /* \"#utility.yul\":5411:5416   */\n      dup3\n        /* \"#utility.yul\":5407:5461   */\n      and\n        /* \"#utility.yul\":5396:5461   */\n      swap1\n      pop\n        /* \"#utility.yul\":5386:5467   */\n      swap2\n      swap1\n      pop\n      jump\t// out\n        /* \"#utility.yul\":5473:5627   */\n    tag_79:\n        /* \"#utility.yul\":5557:5563   */\n      dup3\n        /* \"#utility.yul\":5552:5555   */\n      dup2\n        /* \"#utility.yul\":5547:5550   */\n      dup4\n        /* \"#utility.yul\":5534:5564   */\n      calldatacopy\n        /* \"#utility.yul\":5619:5620   */\n      0x00\n        /* \"#utility.yul\":5610:5616   */\n      dup4\n        /* \"#utility.yul\":5605:5608   */\n      dup4\n        /* \"#utility.yul\":5601:5617   */\n      add\n        /* \"#utility.yul\":5594:5621   */\n      mstore\n        /* \"#utility.yul\":5524:5627   */\n      pop\n      pop\n      pop\n      jump\t// out\n        /* \"#utility.yul\":5633:5940   */\n    tag_114:\n        /* \"#utility.yul\":5701:5702   */\n      0x00\n        /* \"#utility.yul\":5711:5824   */\n    tag_154:\n        /* \"#utility.yul\":5725:5731   */\n      dup4\n        /* \"#utility.yul\":5722:5723   */\n      dup2\n        /* \"#utility.yul\":5719:5732   */\n      lt\n        /* \"#utility.yul\":5711:5824   */\n      iszero\n      tag_156\n      jumpi\n        /* \"#utility.yul\":5810:5811   */\n      dup1\n        /* \"#utility.yul\":5805:5808   */\n      dup3\n        /* \"#utility.yul\":5801:5812   */\n      add\n        /* \"#utility.yul\":5795:5813   */\n      mload\n        /* \"#utility.yul\":5791:5792   */\n      dup2\n        /* \"#utility.yul\":5786:5789   */\n      dup5\n        /* \"#utility.yul\":5782:5793   */\n      add\n        /* \"#utility.yul\":5775:5814   */\n      mstore\n        /* \"#utility.yul\":5747:5749   */\n      0x20\n        /* \"#utility.yul\":5744:5745   */\n      dup2\n        /* \"#utility.yul\":5740:5750   */\n      add\n        /* \"#utility.yul\":5735:5750   */\n      swap1\n      pop\n        /* \"#utility.yul\":5711:5824   */\n      jump(tag_154)\n    tag_156:\n        /* \"#utility.yul\":5842:5848   */\n      dup4\n        /* \"#utility.yul\":5839:5840   */\n      dup2\n        /* \"#utility.yul\":5836:5849   */\n      gt\n        /* \"#utility.yul\":5833:5835   */\n      iszero\n      tag_157\n      jumpi\n        /* \"#utility.yul\":5922:5923   */\n      0x00\n        /* \"#utility.yul\":5913:5919   */\n      dup5\n        /* \"#utility.yul\":5908:5911   */\n      dup5\n        /* \"#utility.yul\":5904:5920   */\n      add\n        /* \"#utility.yul\":5897:5924   */\n      mstore\n        /* \"#utility.yul\":5833:5835   */\n    tag_157:\n        /* \"#utility.yul\":5682:5940   */\n      pop\n      pop\n      pop\n      pop\n      jump\t// out\n        /* \"#utility.yul\":5946:6266   */\n    tag_53:\n      0x00\n        /* \"#utility.yul\":6027:6028   */\n      0x02\n        /* \"#utility.yul\":6021:6025   */\n      dup3\n        /* \"#utility.yul\":6017:6029   */\n      div\n        /* \"#utility.yul\":6007:6029   */\n      swap1\n      pop\n        /* \"#utility.yul\":6074:6075   */\n      0x01\n        /* \"#utility.yul\":6068:6072   */\n      dup3\n        /* \"#utility.yul\":6064:6076   */\n      and\n        /* \"#utility.yul\":6095:6113   */\n      dup1\n        /* \"#utility.yul\":6085:6087   */\n      tag_159\n      jumpi\n        /* \"#utility.yul\":6151:6155   */\n      0x7f\n        /* \"#utility.yul\":6143:6149   */\n      dup3\n        /* \"#utility.yul\":6139:6156   */\n      and\n        /* \"#utility.yul\":6129:6156   */\n      swap2\n      pop\n        /* \"#utility.yul\":6085:6087   */\n    tag_159:\n        /* \"#utility.yul\":6213:6215   */\n      0x20\n        /* \"#utility.yul\":6205:6211   */\n      dup3\n        /* \"#utility.yul\":6202:6216   */\n      lt\n        /* \"#utility.yul\":6182:6200   */\n      dup2\n        /* \"#utility.yul\":6179:6217   */\n      eq\n        /* \"#utility.yul\":6176:6178   */\n      iszero\n      tag_160\n      jumpi\n        /* \"#utility.yul\":6232:6250   */\n      tag_161\n      tag_162\n      jump\t// in\n    tag_161:\n        /* \"#utility.yul\":6176:6178   */\n    tag_160:\n        /* \"#utility.yul\":5997:6266   */\n      pop\n      swap2\n      swap1\n      pop\n      jump\t// out\n        /* \"#utility.yul\":6272:6452   */\n    tag_139:\n        /* \"#utility.yul\":6320:6397   */\n      0x4e487b7100000000000000000000000000000000000000000000000000000000\n        /* \"#utility.yul\":6317:6318   */\n      0x00\n        /* \"#utility.yul\":6310:6398   */\n      mstore\n        /* \"#utility.yul\":6417:6421   */\n      0x11\n        /* \"#utility.yul\":6414:6415   */\n      0x04\n        /* \"#utility.yul\":6407:6422   */\n      mstore\n        /* \"#utility.yul\":6441:6445   */\n      0x24\n        /* \"#utility.yul\":6438:6439   */\n      0x00\n        /* \"#utility.yul\":6431:6446   */\n      revert\n        /* \"#utility.yul\":6458:6638   */\n    tag_162:\n        /* \"#utility.yul\":6506:6583   */\n      0x4e487b7100000000000000000000000000000000000000000000000000000000\n        /* \"#utility.yul\":6503:6504   */\n      0x00\n        /* \"#utility.yul\":6496:6584   */\n      mstore\n        /* \"#utility.yul\":6603:6607   */\n      0x22\n        /* \"#utility.yul\":6600:6601   */\n      0x04\n        /* \"#utility.yul\":6593:6608   */\n      mstore\n        /* \"#utility.yul\":6627:6631   */\n      0x24\n        /* \"#utility.yul\":6624:6625   */\n      0x00\n        /* \"#utility.yul\":6617:6632   */\n      revert\n        /* \"#utility.yul\":6644:6824   */\n    tag_128:\n        /* \"#utility.yul\":6692:6769   */\n      0x4e487b7100000000000000000000000000000000000000000000000000000000\n        /* \"#utility.yul\":6689:6690   */\n      0x00\n        /* \"#utility.yul\":6682:6770   */\n      mstore\n        /* \"#utility.yul\":6789:6793   */\n      0x41\n        /* \"#utility.yul\":6786:6787   */\n      0x04\n        /* \"#utility.yul\":6779:6794   */\n      mstore\n        /* \"#utility.yul\":6813:6817   */\n      0x24\n        /* \"#utility.yul\":6810:6811   */\n      0x00\n        /* \"#utility.yul\":6803:6818   */\n      revert\n        /* \"#utility.yul\":6830:6932   */\n    tag_116:\n      0x00\n        /* \"#utility.yul\":6922:6924   */\n      0x1f\n        /* \"#utility.yul\":6918:6925   */\n      not\n        /* \"#utility.yul\":6913:6915   */\n      0x1f\n        /* \"#utility.yul\":6906:6911   */\n      dup4\n        /* \"#utility.yul\":6902:6916   */\n      add\n        /* \"#utility.yul\":6898:6926   */\n      and\n        /* \"#utility.yul\":6888:6926   */\n      swap1\n      pop\n        /* \"#utility.yul\":6878:6932   */\n      swap2\n      swap1\n      pop\n      jump\t// out\n        /* \"#utility.yul\":6938:7058   */\n    tag_83:\n        /* \"#utility.yul\":7010:7033   */\n      tag_168\n        /* \"#utility.yul\":7027:7032   */\n      dup2\n        /* \"#utility.yul\":7010:7033   */\n      tag_106\n      jump\t// in\n    tag_168:\n        /* \"#utility.yul\":7003:7008   */\n      dup2\n        /* \"#utility.yul\":7000:7034   */\n      eq\n        /* \"#utility.yul\":6990:6992   */\n      tag_169\n      jumpi\n        /* \"#utility.yul\":7048:7049   */\n      0x00\n        /* \"#utility.yul\":7045:7046   */\n      dup1\n        /* \"#utility.yul\":7038:7050   */\n      revert\n        /* \"#utility.yul\":6990:6992   */\n    tag_169:\n        /* \"#utility.yul\":6980:7058   */\n      pop\n      jump\t// out\n\n    auxdata: 0xa264697066735822122080e91af0d47367fea53049b2651023ba843b5b0ef992d456863653465c922fac64736f6c63430008000033\n}\n",
				"bytecode": {
					"linkReferences": {},
					"object": "60a0604052600a6000556040518060400160405280600581526020017f44617669640000000000000000000000000000000000000000000000000000008152506001908051906020019062000056929190620000e9565b503480156200006457600080fd5b5060405162000c8638038062000c8683398181016040528101906200008a919062000222565b816002819055508060019080519060200190620000a9929190620000e9565b503373ffffffffffffffffffffffffffffffffffffffff1660808173ffffffffffffffffffffffffffffffffffffffff1660601b815250505050620003d1565b828054620000f79062000323565b90600052602060002090601f0160209004810192826200011b576000855562000167565b82601f106200013657805160ff191683800117855562000167565b8280016001018555821562000167579182015b828111156200016657825182559160200191906001019062000149565b5b5090506200017691906200017a565b5090565b5b80821115620001955760008160009055506001016200017b565b5090565b6000620001b0620001aa84620002b0565b6200027c565b905082815260208101848484011115620001c957600080fd5b620001d6848285620002ed565b509392505050565b600081519050620001ef81620003b7565b92915050565b600082601f8301126200020757600080fd5b81516200021984826020860162000199565b91505092915050565b600080604083850312156200023657600080fd5b60006200024685828601620001de565b925050602083015167ffffffffffffffff8111156200026457600080fd5b6200027285828601620001f5565b9150509250929050565b6000604051905081810181811067ffffffffffffffff82111715620002a657620002a562000388565b5b8060405250919050565b600067ffffffffffffffff821115620002ce57620002cd62000388565b5b601f19601f8301169050602081019050919050565b6000819050919050565b60005b838110156200030d578082015181840152602081019050620002f0565b838111156200031d576000848401525b50505050565b600060028204905060018216806200033c57607f821691505b6020821081141562000353576200035262000359565b5b50919050565b7f4e487b7100000000000000000000000000000000000000000000000000000000600052602260045260246000fd5b7f4e487b7100000000000000000000000000000000000000000000000000000000600052604160045260246000fd5b620003c281620002e3565b8114620003ce57600080fd5b50565b60805160601c610896620003f060003960006102c301526108966000f3fe608060405234801561001057600080fd5b50600436106100935760003560e01c80634ce077bc116100665780634ce077bc146101105780634f8632ba1461012c578063521eb2731461014a57806369bd01c4146101685780639aa4a7381461018657610093565b806307890892146100985780630b7c1a11146100b65780632c6dbb1c146100d45780633fa4f245146100f2575b600080fd5b6100a06101a2565b6040516100ad919061051e565b60405180910390f35b6100be6101a8565b6040516100cb9190610503565b60405180910390f35b6100dc6101bb565b6040516100e9919061051e565b60405180910390f35b6100fa610213565b604051610107919061051e565b60405180910390f35b61012a60048036038101906101259190610441565b610219565b005b610134610233565b6040516101419190610539565b60405180910390f35b6101526102c1565b60405161015f91906104e8565b60405180910390f35b6101706102e5565b60405161017d919061051e565b60405180910390f35b6101a0600480360381019061019b9190610418565b6102ee565b005b60025481565b600360009054906101000a900460ff1681565b600080600590506004816101cf91906105d8565b905060006040518060400160405280600681526020017f5475616d696500000000000000000000000000000000000000000000000000008152509050819250505090565b60005481565b806001908051906020019061022f9291906102f8565b5050565b6001805461024090610779565b80601f016020809104026020016040519081016040528092919081815260200182805461026c90610779565b80156102b95780601f1061028e576101008083540402835291602001916102b9565b820191906000526020600020905b81548152906001019060200180831161029c57829003601f168201915b505050505081565b7f000000000000000000000000000000000000000000000000000000000000000081565b60008054905090565b8060008190555050565b82805461030490610779565b90600052602060002090601f016020900481019282610326576000855561036d565b82601f1061033f57805160ff191683800117855561036d565b8280016001018555821561036d579182015b8281111561036c578251825591602001919060010190610351565b5b50905061037a919061037e565b5090565b5b8082111561039757600081600090555060010161037f565b5090565b60006103ae6103a98461058c565b61055b565b9050828152602081018484840111156103c657600080fd5b6103d1848285610737565b509392505050565b6000813590506103e881610849565b92915050565b600082601f8301126103ff57600080fd5b813561040f84826020860161039b565b91505092915050565b60006020828403121561042a57600080fd5b6000610438848285016103d9565b91505092915050565b60006020828403121561045357600080fd5b600082013567ffffffffffffffff81111561046d57600080fd5b610479848285016103ee565b91505092915050565b61048b816106ef565b82525050565b61049a81610701565b82525050565b6104a98161070d565b82525050565b60006104ba826105bc565b6104c481856105c7565b93506104d4818560208601610746565b6104dd81610838565b840191505092915050565b60006020820190506104fd6000830184610482565b92915050565b60006020820190506105186000830184610491565b92915050565b600060208201905061053360008301846104a0565b92915050565b6000602082019050818103600083015261055381846104af565b905092915050565b6000604051905081810181811067ffffffffffffffff8211171561058257610581610809565b5b8060405250919050565b600067ffffffffffffffff8211156105a7576105a6610809565b5b601f19601f8301169050602081019050919050565b600081519050919050565b600082825260208201905092915050565b60006105e38261070d565b91506105ee8361070d565b9250827f7fffffffffffffffffffffffffffffffffffffffffffffffffffffffffffffff048211600084136000841316161561062d5761062c6107ab565b5b817f8000000000000000000000000000000000000000000000000000000000000000058312600084126000841316161561066a576106696107ab565b5b827f800000000000000000000000000000000000000000000000000000000000000005821260008413600084121616156106a7576106a66107ab565b5b827f7fffffffffffffffffffffffffffffffffffffffffffffffffffffffffffffff05821260008412600084121616156106e4576106e36107ab565b5b828202905092915050565b60006106fa82610717565b9050919050565b60008115159050919050565b6000819050919050565b600073ffffffffffffffffffffffffffffffffffffffff82169050919050565b82818337600083830152505050565b60005b83811015610764578082015181840152602081019050610749565b83811115610773576000848401525b50505050565b6000600282049050600182168061079157607f821691505b602082108114156107a5576107a46107da565b5b50919050565b7f4e487b7100000000000000000000000000000000000000000000000000000000600052601160045260246000fd5b7f4e487b7100000000000000000000000000000000000000000000000000000000600052602260045260246000fd5b7f4e487b7100000000000000000000000000000000000000000000000000000000600052604160045260246000fd5b6000601f19601f8301169050919050565b6108528161070d565b811461085d57600080fd5b5056fea264697066735822122080e91af0d47367fea53049b2651023ba843b5b0ef992d456863653465c922fac64736f6c63430008000033",
					"opcodes": "PUSH1 0xA0 PUSH1 0x40 MSTORE PUSH1 0xA PUSH1 0x0 SSTORE PUSH1 0x40 MLOAD DUP1 PUSH1 0x40 ADD PUSH1 0x40 MSTORE DUP1 PUSH1 0x5 DUP2 MSTORE PUSH1 0x20 ADD PUSH32 0x4461766964000000000000000000000000000000000000000000000000000000 DUP2 MSTORE POP PUSH1 0x1 SWAP1 DUP1 MLOAD SWAP1 PUSH1 0x20 ADD SWAP1 PUSH3 0x56 SWAP3 SWAP2 SWAP1 PUSH3 0xE9 JUMP JUMPDEST POP CALLVALUE DUP1 ISZERO PUSH3 0x64 JUMPI PUSH1 0x0 DUP1 REVERT JUMPDEST POP PUSH1 0x40 MLOAD PUSH3 0xC86 CODESIZE SUB DUP1 PUSH3 0xC86 DUP4 CODECOPY DUP2 DUP2 ADD PUSH1 0x40 MSTORE DUP2 ADD SWAP1 PUSH3 0x8A SWAP2 SWAP1 PUSH3 0x222 JUMP JUMPDEST DUP2 PUSH1 0x2 DUP2 SWAP1 SSTORE POP DUP1 PUSH1 0x1 SWAP1 DUP1 MLOAD SWAP1 PUSH1 0x20 ADD SWAP1 PUSH3 0xA9 SWAP3 SWAP2 SWAP1 PUSH3 0xE9 JUMP JUMPDEST POP CALLER PUSH20 0xFFFFFFFFFFFFFFFFFFFFFFFFFFFFFFFFFFFFFFFF AND PUSH1 0x80 DUP2 PUSH20 0xFFFFFFFFFFFFFFFFFFFFFFFFFFFFFFFFFFFFFFFF AND PUSH1 0x60 SHL DUP2 MSTORE POP POP POP POP PUSH3 0x3D1 JUMP JUMPDEST DUP3 DUP1 SLOAD PUSH3 0xF7 SWAP1 PUSH3 0x323 JUMP JUMPDEST SWAP1 PUSH1 0x0 MSTORE PUSH1 0x20 PUSH1 0x0 KECCAK256 SWAP1 PUSH1 0x1F ADD PUSH1 0x20 SWAP1 DIV DUP2 ADD SWAP3 DUP3 PUSH3 0x11B JUMPI PUSH1 0x0 DUP6 SSTORE PUSH3 0x167 JUMP JUMPDEST DUP3 PUSH1 0x1F LT PUSH3 0x136 JUMPI DUP1 MLOAD PUSH1 0xFF NOT AND DUP4 DUP1 ADD OR DUP6 SSTORE PUSH3 0x167 JUMP JUMPDEST DUP3 DUP1 ADD PUSH1 0x1 ADD DUP6 SSTORE DUP3 ISZERO PUSH3 0x167 JUMPI SWAP2 DUP3 ADD JUMPDEST DUP3 DUP2 GT ISZERO PUSH3 0x166 JUMPI DUP3 MLOAD DUP3 SSTORE SWAP2 PUSH1 0x20 ADD SWAP2 SWAP1 PUSH1 0x1 ADD SWAP1 PUSH3 0x149 JUMP JUMPDEST JUMPDEST POP SWAP1 POP PUSH3 0x176 SWAP2 SWAP1 PUSH3 0x17A JUMP JUMPDEST POP SWAP1 JUMP JUMPDEST JUMPDEST DUP1 DUP3 GT ISZERO PUSH3 0x195 JUMPI PUSH1 0x0 DUP2 PUSH1 0x0 SWAP1 SSTORE POP PUSH1 0x1 ADD PUSH3 0x17B JUMP JUMPDEST POP SWAP1 JUMP JUMPDEST PUSH1 0x0 PUSH3 0x1B0 PUSH3 0x1AA DUP5 PUSH3 0x2B0 JUMP JUMPDEST PUSH3 0x27C JUMP JUMPDEST SWAP1 POP DUP3 DUP2 MSTORE PUSH1 0x20 DUP2 ADD DUP5 DUP5 DUP5 ADD GT ISZERO PUSH3 0x1C9 JUMPI PUSH1 0x0 DUP1 REVERT JUMPDEST PUSH3 0x1D6 DUP5 DUP3 DUP6 PUSH3 0x2ED JUMP JUMPDEST POP SWAP4 SWAP3 POP POP POP JUMP JUMPDEST PUSH1 0x0 DUP2 MLOAD SWAP1 POP PUSH3 0x1EF DUP2 PUSH3 0x3B7 JUMP JUMPDEST SWAP3 SWAP2 POP POP JUMP JUMPDEST PUSH1 0x0 DUP3 PUSH1 0x1F DUP4 ADD SLT PUSH3 0x207 JUMPI PUSH1 0x0 DUP1 REVERT JUMPDEST DUP2 MLOAD PUSH3 0x219 DUP5 DUP3 PUSH1 0x20 DUP7 ADD PUSH3 0x199 JUMP JUMPDEST SWAP2 POP POP SWAP3 SWAP2 POP POP JUMP JUMPDEST PUSH1 0x0 DUP1 PUSH1 0x40 DUP4 DUP6 SUB SLT ISZERO PUSH3 0x236 JUMPI PUSH1 0x0 DUP1 REVERT JUMPDEST PUSH1 0x0 PUSH3 0x246 DUP6 DUP3 DUP7 ADD PUSH3 0x1DE JUMP JUMPDEST SWAP3 POP POP PUSH1 0x20 DUP4 ADD MLOAD PUSH8 0xFFFFFFFFFFFFFFFF DUP2 GT ISZERO PUSH3 0x264 JUMPI PUSH1 0x0 DUP1 REVERT JUMPDEST PUSH3 0x272 DUP6 DUP3 DUP7 ADD PUSH3 0x1F5 JUMP JUMPDEST SWAP2 POP POP SWAP3 POP SWAP3 SWAP1 POP JUMP JUMPDEST PUSH1 0x0 PUSH1 0x40 MLOAD SWAP1 POP DUP2 DUP2 ADD DUP2 DUP2 LT PUSH8 0xFFFFFFFFFFFFFFFF DUP3 GT OR ISZERO PUSH3 0x2A6 JUMPI PUSH3 0x2A5 PUSH3 0x388 JUMP JUMPDEST JUMPDEST DUP1 PUSH1 0x40 MSTORE POP SWAP2 SWAP1 POP JUMP JUMPDEST PUSH1 0x0 PUSH8 0xFFFFFFFFFFFFFFFF DUP3 GT ISZERO PUSH3 0x2CE JUMPI PUSH3 0x2CD PUSH3 0x388 JUMP JUMPDEST JUMPDEST PUSH1 0x1F NOT PUSH1 0x1F DUP4 ADD AND SWAP1 POP PUSH1 0x20 DUP2 ADD SWAP1 POP SWAP2 SWAP1 POP JUMP JUMPDEST PUSH1 0x0 DUP2 SWAP1 POP SWAP2 SWAP1 POP JUMP JUMPDEST PUSH1 0x0 JUMPDEST DUP4 DUP2 LT ISZERO PUSH3 0x30D JUMPI DUP1 DUP3 ADD MLOAD DUP2 DUP5 ADD MSTORE PUSH1 0x20 DUP2 ADD SWAP1 POP PUSH3 0x2F0 JUMP JUMPDEST DUP4 DUP2 GT ISZERO PUSH3 0x31D JUMPI PUSH1 0x0 DUP5 DUP5 ADD MSTORE JUMPDEST POP POP POP POP JUMP JUMPDEST PUSH1 0x0 PUSH1 0x2 DUP3 DIV SWAP1 POP PUSH1 0x1 DUP3 AND DUP1 PUSH3 0x33C JUMPI PUSH1 0x7F DUP3 AND SWAP2 POP JUMPDEST PUSH1 0x20 DUP3 LT DUP2 EQ ISZERO PUSH3 0x353 JUMPI PUSH3 0x352 PUSH3 0x359 JUMP JUMPDEST JUMPDEST POP SWAP2 SWAP1 POP JUMP JUMPDEST PUSH32 0x4E487B7100000000000000000000000000000000000000000000000000000000 PUSH1 0x0 MSTORE PUSH1 0x22 PUSH1 0x4 MSTORE PUSH1 0x24 PUSH1 0x0 REVERT JUMPDEST PUSH32 0x4E487B7100000000000000000000000000000000000000000000000000000000 PUSH1 0x0 MSTORE PUSH1 0x41 PUSH1 0x4 MSTORE PUSH1 0x24 PUSH1 0x0 REVERT JUMPDEST PUSH3 0x3C2 DUP2 PUSH3 0x2E3 JUMP JUMPDEST DUP2 EQ PUSH3 0x3CE JUMPI PUSH1 0x0 DUP1 REVERT JUMPDEST POP JUMP JUMPDEST PUSH1 0x80 MLOAD PUSH1 0x60 SHR PUSH2 0x896 PUSH3 0x3F0 PUSH1 0x0 CODECOPY PUSH1 0x0 PUSH2 0x2C3 ADD MSTORE PUSH2 0x896 PUSH1 0x0 RETURN INVALID PUSH1 0x80 PUSH1 0x40 MSTORE CALLVALUE DUP1 ISZERO PUSH2 0x10 JUMPI PUSH1 0x0 DUP1 REVERT JUMPDEST POP PUSH1 0x4 CALLDATASIZE LT PUSH2 0x93 JUMPI PUSH1 0x0 CALLDATALOAD PUSH1 0xE0 SHR DUP1 PUSH4 0x4CE077BC GT PUSH2 0x66 JUMPI DUP1 PUSH4 0x4CE077BC EQ PUSH2 0x110 JUMPI DUP1 PUSH4 0x4F8632BA EQ PUSH2 0x12C JUMPI DUP1 PUSH4 0x521EB273 EQ PUSH2 0x14A JUMPI DUP1 PUSH4 0x69BD01C4 EQ PUSH2 0x168 JUMPI DUP1 PUSH4 0x9AA4A738 EQ PUSH2 0x186 JUMPI PUSH2 0x93 JUMP JUMPDEST DUP1 PUSH4 0x7890892 EQ PUSH2 0x98 JUMPI DUP1 PUSH4 0xB7C1A11 EQ PUSH2 0xB6 JUMPI DUP1 PUSH4 0x2C6DBB1C EQ PUSH2 0xD4 JUMPI DUP1 PUSH4 0x3FA4F245 EQ PUSH2 0xF2 JUMPI JUMPDEST PUSH1 0x0 DUP1 REVERT JUMPDEST PUSH2 0xA0 PUSH2 0x1A2 JUMP JUMPDEST PUSH1 0x40 MLOAD PUSH2 0xAD SWAP2 SWAP1 PUSH2 0x51E JUMP JUMPDEST PUSH1 0x40 MLOAD DUP1 SWAP2 SUB SWAP1 RETURN JUMPDEST PUSH2 0xBE PUSH2 0x1A8 JUMP JUMPDEST PUSH1 0x40 MLOAD PUSH2 0xCB SWAP2 SWAP1 PUSH2 0x503 JUMP JUMPDEST PUSH1 0x40 MLOAD DUP1 SWAP2 SUB SWAP1 RETURN JUMPDEST PUSH2 0xDC PUSH2 0x1BB JUMP JUMPDEST PUSH1 0x40 MLOAD PUSH2 0xE9 SWAP2 SWAP1 PUSH2 0x51E JUMP JUMPDEST PUSH1 0x40 MLOAD DUP1 SWAP2 SUB SWAP1 RETURN JUMPDEST PUSH2 0xFA PUSH2 0x213 JUMP JUMPDEST PUSH1 0x40 MLOAD PUSH2 0x107 SWAP2 SWAP1 PUSH2 0x51E JUMP JUMPDEST PUSH1 0x40 MLOAD DUP1 SWAP2 SUB SWAP1 RETURN JUMPDEST PUSH2 0x12A PUSH1 0x4 DUP1 CALLDATASIZE SUB DUP2 ADD SWAP1 PUSH2 0x125 SWAP2 SWAP1 PUSH2 0x441 JUMP JUMPDEST PUSH2 0x219 JUMP JUMPDEST STOP JUMPDEST PUSH2 0x134 PUSH2 0x233 JUMP JUMPDEST PUSH1 0x40 MLOAD PUSH2 0x141 SWAP2 SWAP1 PUSH2 0x539 JUMP JUMPDEST PUSH1 0x40 MLOAD DUP1 SWAP2 SUB SWAP1 RETURN JUMPDEST PUSH2 0x152 PUSH2 0x2C1 JUMP JUMPDEST PUSH1 0x40 MLOAD PUSH2 0x15F SWAP2 SWAP1 PUSH2 0x4E8 JUMP JUMPDEST PUSH1 0x40 MLOAD DUP1 SWAP2 SUB SWAP1 RETURN JUMPDEST PUSH2 0x170 PUSH2 0x2E5 JUMP JUMPDEST PUSH1 0x40 MLOAD PUSH2 0x17D SWAP2 SWAP1 PUSH2 0x51E JUMP JUMPDEST PUSH1 0x40 MLOAD DUP1 SWAP2 SUB SWAP1 RETURN JUMPDEST PUSH2 0x1A0 PUSH1 0x4 DUP1 CALLDATASIZE SUB DUP2 ADD SWAP1 PUSH2 0x19B SWAP2 SWAP1 PUSH2 0x418 JUMP JUMPDEST PUSH2 0x2EE JUMP JUMPDEST STOP JUMPDEST PUSH1 0x2 SLOAD DUP2 JUMP JUMPDEST PUSH1 0x3 PUSH1 0x0 SWAP1 SLOAD SWAP1 PUSH2 0x100 EXP SWAP1 DIV PUSH1 0xFF AND DUP2 JUMP JUMPDEST PUSH1 0x0 DUP1 PUSH1 0x5 SWAP1 POP PUSH1 0x4 DUP2 PUSH2 0x1CF SWAP2 SWAP1 PUSH2 0x5D8 JUMP JUMPDEST SWAP1 POP PUSH1 0x0 PUSH1 0x40 MLOAD DUP1 PUSH1 0x40 ADD PUSH1 0x40 MSTORE DUP1 PUSH1 0x6 DUP2 MSTORE PUSH1 0x20 ADD PUSH32 0x5475616D69650000000000000000000000000000000000000000000000000000 DUP2 MSTORE POP SWAP1 POP DUP2 SWAP3 POP POP POP SWAP1 JUMP JUMPDEST PUSH1 0x0 SLOAD DUP2 JUMP JUMPDEST DUP1 PUSH1 0x1 SWAP1 DUP1 MLOAD SWAP1 PUSH1 0x20 ADD SWAP1 PUSH2 0x22F SWAP3 SWAP2 SWAP1 PUSH2 0x2F8 JUMP JUMPDEST POP POP JUMP JUMPDEST PUSH1 0x1 DUP1 SLOAD PUSH2 0x240 SWAP1 PUSH2 0x779 JUMP JUMPDEST DUP1 PUSH1 0x1F ADD PUSH1 0x20 DUP1 SWAP2 DIV MUL PUSH1 0x20 ADD PUSH1 0x40 MLOAD SWAP1 DUP2 ADD PUSH1 0x40 MSTORE DUP1 SWAP3 SWAP2 SWAP1 DUP2 DUP2 MSTORE PUSH1 0x20 ADD DUP3 DUP1 SLOAD PUSH2 0x26C SWAP1 PUSH2 0x779 JUMP JUMPDEST DUP1 ISZERO PUSH2 0x2B9 JUMPI DUP1 PUSH1 0x1F LT PUSH2 0x28E JUMPI PUSH2 0x100 DUP1 DUP4 SLOAD DIV MUL DUP4 MSTORE SWAP2 PUSH1 0x20 ADD SWAP2 PUSH2 0x2B9 JUMP JUMPDEST DUP3 ADD SWAP2 SWAP1 PUSH1 0x0 MSTORE PUSH1 0x20 PUSH1 0x0 KECCAK256 SWAP1 JUMPDEST DUP2 SLOAD DUP2 MSTORE SWAP1 PUSH1 0x1 ADD SWAP1 PUSH1 0x20 ADD DUP1 DUP4 GT PUSH2 0x29C JUMPI DUP3 SWAP1 SUB PUSH1 0x1F AND DUP3 ADD SWAP2 JUMPDEST POP POP POP POP POP DUP2 JUMP JUMPDEST PUSH32 0x0 DUP2 JUMP JUMPDEST PUSH1 0x0 DUP1 SLOAD SWAP1 POP SWAP1 JUMP JUMPDEST DUP1 PUSH1 0x0 DUP2 SWAP1 SSTORE POP POP JUMP JUMPDEST DUP3 DUP1 SLOAD PUSH2 0x304 SWAP1 PUSH2 0x779 JUMP JUMPDEST SWAP1 PUSH1 0x0 MSTORE PUSH1 0x20 PUSH1 0x0 KECCAK256 SWAP1 PUSH1 0x1F ADD PUSH1 0x20 SWAP1 DIV DUP2 ADD SWAP3 DUP3 PUSH2 0x326 JUMPI PUSH1 0x0 DUP6 SSTORE PUSH2 0x36D JUMP JUMPDEST DUP3 PUSH1 0x1F LT PUSH2 0x33F JUMPI DUP1 MLOAD PUSH1 0xFF NOT AND DUP4 DUP1 ADD OR DUP6 SSTORE PUSH2 0x36D JUMP JUMPDEST DUP3 DUP1 ADD PUSH1 0x1 ADD DUP6 SSTORE DUP3 ISZERO PUSH2 0x36D JUMPI SWAP2 DUP3 ADD JUMPDEST DUP3 DUP2 GT ISZERO PUSH2 0x36C JUMPI DUP3 MLOAD DUP3 SSTORE SWAP2 PUSH1 0x20 ADD SWAP2 SWAP1 PUSH1 0x1 ADD SWAP1 PUSH2 0x351 JUMP JUMPDEST JUMPDEST POP SWAP1 POP PUSH2 0x37A SWAP2 SWAP1 PUSH2 0x37E JUMP JUMPDEST POP SWAP1 JUMP JUMPDEST JUMPDEST DUP1 DUP3 GT ISZERO PUSH2 0x397 JUMPI PUSH1 0x0 DUP2 PUSH1 0x0 SWAP1 SSTORE POP PUSH1 0x1 ADD PUSH2 0x37F JUMP JUMPDEST POP SWAP1 JUMP JUMPDEST PUSH1 0x0 PUSH2 0x3AE PUSH2 0x3A9 DUP5 PUSH2 0x58C JUMP JUMPDEST PUSH2 0x55B JUMP JUMPDEST SWAP1 POP DUP3 DUP2 MSTORE PUSH1 0x20 DUP2 ADD DUP5 DUP5 DUP5 ADD GT ISZERO PUSH2 0x3C6 JUMPI PUSH1 0x0 DUP1 REVERT JUMPDEST PUSH2 0x3D1 DUP5 DUP3 DUP6 PUSH2 0x737 JUMP JUMPDEST POP SWAP4 SWAP3 POP POP POP JUMP JUMPDEST PUSH1 0x0 DUP2 CALLDATALOAD SWAP1 POP PUSH2 0x3E8 DUP2 PUSH2 0x849 JUMP JUMPDEST SWAP3 SWAP2 POP POP JUMP JUMPDEST PUSH1 0x0 DUP3 PUSH1 0x1F DUP4 ADD SLT PUSH2 0x3FF JUMPI PUSH1 0x0 DUP1 REVERT JUMPDEST DUP2 CALLDATALOAD PUSH2 0x40F DUP5 DUP3 PUSH1 0x20 DUP7 ADD PUSH2 0x39B JUMP JUMPDEST SWAP2 POP POP SWAP3 SWAP2 POP POP JUMP JUMPDEST PUSH1 0x0 PUSH1 0x20 DUP3 DUP5 SUB SLT ISZERO PUSH2 0x42A JUMPI PUSH1 0x0 DUP1 REVERT JUMPDEST PUSH1 0x0 PUSH2 0x438 DUP5 DUP3 DUP6 ADD PUSH2 0x3D9 JUMP JUMPDEST SWAP2 POP POP SWAP3 SWAP2 POP POP JUMP JUMPDEST PUSH1 0x0 PUSH1 0x20 DUP3 DUP5 SUB SLT ISZERO PUSH2 0x453 JUMPI PUSH1 0x0 DUP1 REVERT JUMPDEST PUSH1 0x0 DUP3 ADD CALLDATALOAD PUSH8 0xFFFFFFFFFFFFFFFF DUP2 GT ISZERO PUSH2 0x46D JUMPI PUSH1 0x0 DUP1 REVERT JUMPDEST PUSH2 0x479 DUP5 DUP3 DUP6 ADD PUSH2 0x3EE JUMP JUMPDEST SWAP2 POP POP SWAP3 SWAP2 POP POP JUMP JUMPDEST PUSH2 0x48B DUP2 PUSH2 0x6EF JUMP JUMPDEST DUP3 MSTORE POP POP JUMP JUMPDEST PUSH2 0x49A DUP2 PUSH2 0x701 JUMP JUMPDEST DUP3 MSTORE POP POP JUMP JUMPDEST PUSH2 0x4A9 DUP2 PUSH2 0x70D JUMP JUMPDEST DUP3 MSTORE POP POP JUMP JUMPDEST PUSH1 0x0 PUSH2 0x4BA DUP3 PUSH2 0x5BC JUMP JUMPDEST PUSH2 0x4C4 DUP2 DUP6 PUSH2 0x5C7 JUMP JUMPDEST SWAP4 POP PUSH2 0x4D4 DUP2 DUP6 PUSH1 0x20 DUP7 ADD PUSH2 0x746 JUMP JUMPDEST PUSH2 0x4DD DUP2 PUSH2 0x838 JUMP JUMPDEST DUP5 ADD SWAP2 POP POP SWAP3 SWAP2 POP POP JUMP JUMPDEST PUSH1 0x0 PUSH1 0x20 DUP3 ADD SWAP1 POP PUSH2 0x4FD PUSH1 0x0 DUP4 ADD DUP5 PUSH2 0x482 JUMP JUMPDEST SWAP3 SWAP2 POP POP JUMP JUMPDEST PUSH1 0x0 PUSH1 0x20 DUP3 ADD SWAP1 POP PUSH2 0x518 PUSH1 0x0 DUP4 ADD DUP5 PUSH2 0x491 JUMP JUMPDEST SWAP3 SWAP2 POP POP JUMP JUMPDEST PUSH1 0x0 PUSH1 0x20 DUP3 ADD SWAP1 POP PUSH2 0x533 PUSH1 0x0 DUP4 ADD DUP5 PUSH2 0x4A0 JUMP JUMPDEST SWAP3 SWAP2 POP POP JUMP JUMPDEST PUSH1 0x0 PUSH1 0x20 DUP3 ADD SWAP1 POP DUP2 DUP2 SUB PUSH1 0x0 DUP4 ADD MSTORE PUSH2 0x553 DUP2 DUP5 PUSH2 0x4AF JUMP JUMPDEST SWAP1 POP SWAP3 SWAP2 POP POP JUMP JUMPDEST PUSH1 0x0 PUSH1 0x40 MLOAD SWAP1 POP DUP2 DUP2 ADD DUP2 DUP2 LT PUSH8 0xFFFFFFFFFFFFFFFF DUP3 GT OR ISZERO PUSH2 0x582 JUMPI PUSH2 0x581 PUSH2 0x809 JUMP JUMPDEST JUMPDEST DUP1 PUSH1 0x40 MSTORE POP SWAP2 SWAP1 POP JUMP JUMPDEST PUSH1 0x0 PUSH8 0xFFFFFFFFFFFFFFFF DUP3 GT ISZERO PUSH2 0x5A7 JUMPI PUSH2 0x5A6 PUSH2 0x809 JUMP JUMPDEST JUMPDEST PUSH1 0x1F NOT PUSH1 0x1F DUP4 ADD AND SWAP1 POP PUSH1 0x20 DUP2 ADD SWAP1 POP SWAP2 SWAP1 POP JUMP JUMPDEST PUSH1 0x0 DUP2 MLOAD SWAP1 POP SWAP2 SWAP1 POP JUMP JUMPDEST PUSH1 0x0 DUP3 DUP3 MSTORE PUSH1 0x20 DUP3 ADD SWAP1 POP SWAP3 SWAP2 POP POP JUMP JUMPDEST PUSH1 0x0 PUSH2 0x5E3 DUP3 PUSH2 0x70D JUMP JUMPDEST SWAP2 POP PUSH2 0x5EE DUP4 PUSH2 0x70D JUMP JUMPDEST SWAP3 POP DUP3 PUSH32 0x7FFFFFFFFFFFFFFFFFFFFFFFFFFFFFFFFFFFFFFFFFFFFFFFFFFFFFFFFFFFFFFF DIV DUP3 GT PUSH1 0x0 DUP5 SGT PUSH1 0x0 DUP5 SGT AND AND ISZERO PUSH2 0x62D JUMPI PUSH2 0x62C PUSH2 0x7AB JUMP JUMPDEST JUMPDEST DUP2 PUSH32 0x8000000000000000000000000000000000000000000000000000000000000000 SDIV DUP4 SLT PUSH1 0x0 DUP5 SLT PUSH1 0x0 DUP5 SGT AND AND ISZERO PUSH2 0x66A JUMPI PUSH2 0x669 PUSH2 0x7AB JUMP JUMPDEST JUMPDEST DUP3 PUSH32 0x8000000000000000000000000000000000000000000000000000000000000000 SDIV DUP3 SLT PUSH1 0x0 DUP5 SGT PUSH1 0x0 DUP5 SLT AND AND ISZERO PUSH2 0x6A7 JUMPI PUSH2 0x6A6 PUSH2 0x7AB JUMP JUMPDEST JUMPDEST DUP3 PUSH32 0x7FFFFFFFFFFFFFFFFFFFFFFFFFFFFFFFFFFFFFFFFFFFFFFFFFFFFFFFFFFFFFFF SDIV DUP3 SLT PUSH1 0x0 DUP5 SLT PUSH1 0x0 DUP5 SLT AND AND ISZERO PUSH2 0x6E4 JUMPI PUSH2 0x6E3 PUSH2 0x7AB JUMP JUMPDEST JUMPDEST DUP3 DUP3 MUL SWAP1 POP SWAP3 SWAP2 POP POP JUMP JUMPDEST PUSH1 0x0 PUSH2 0x6FA DUP3 PUSH2 0x717 JUMP JUMPDEST SWAP1 POP SWAP2 SWAP1 POP JUMP JUMPDEST PUSH1 0x0 DUP2 ISZERO ISZERO SWAP1 POP SWAP2 SWAP1 POP JUMP JUMPDEST PUSH1 0x0 DUP2 SWAP1 POP SWAP2 SWAP1 POP JUMP JUMPDEST PUSH1 0x0 PUSH20 0xFFFFFFFFFFFFFFFFFFFFFFFFFFFFFFFFFFFFFFFF DUP3 AND SWAP1 POP SWAP2 SWAP1 POP JUMP JUMPDEST DUP3 DUP2 DUP4 CALLDATACOPY PUSH1 0x0 DUP4 DUP4 ADD MSTORE POP POP POP JUMP JUMPDEST PUSH1 0x0 JUMPDEST DUP4 DUP2 LT ISZERO PUSH2 0x764 JUMPI DUP1 DUP3 ADD MLOAD DUP2 DUP5 ADD MSTORE PUSH1 0x20 DUP2 ADD SWAP1 POP PUSH2 0x749 JUMP JUMPDEST DUP4 DUP2 GT ISZERO PUSH2 0x773 JUMPI PUSH1 0x0 DUP5 DUP5 ADD MSTORE JUMPDEST POP POP POP POP JUMP JUMPDEST PUSH1 0x0 PUSH1 0x2 DUP3 DIV SWAP1 POP PUSH1 0x1 DUP3 AND DUP1 PUSH2 0x791 JUMPI PUSH1 0x7F DUP3 AND SWAP2 POP JUMPDEST PUSH1 0x20 DUP3 LT DUP2 EQ ISZERO PUSH2 0x7A5 JUMPI PUSH2 0x7A4 PUSH2 0x7DA JUMP JUMPDEST JUMPDEST POP SWAP2 SWAP1 POP JUMP JUMPDEST PUSH32 0x4E487B7100000000000000000000000000000000000000000000000000000000 PUSH1 0x0 MSTORE PUSH1 0x11 PUSH1 0x4 MSTORE PUSH1 0x24 PUSH1 0x0 REVERT JUMPDEST PUSH32 0x4E487B7100000000000000000000000000000000000000000000000000000000 PUSH1 0x0 MSTORE PUSH1 0x22 PUSH1 0x4 MSTORE PUSH1 0x24 PUSH1 0x0 REVERT JUMPDEST PUSH32 0x4E487B7100000000000000000000000000000000000000000000000000000000 PUSH1 0x0 MSTORE PUSH1 0x41 PUSH1 0x4 MSTORE PUSH1 0x24 PUSH1 0x0 REVERT JUMPDEST PUSH1 0x0 PUSH1 0x1F NOT PUSH1 0x1F DUP4 ADD AND SWAP1 POP SWAP2 SWAP1 POP JUMP JUMPDEST PUSH2 0x852 DUP2 PUSH2 0x70D JUMP JUMPDEST DUP2 EQ PUSH2 0x85D JUMPI PUSH1 0x0 DUP1 REVERT JUMPDEST POP JUMP INVALID LOG2 PUSH5 0x6970667358 0x22 SLT KECCAK256 DUP1 0xE9 BYTE CREATE 0xD4 PUSH20 0x67FEA53049B2651023BA843B5B0EF992D4568636 MSTORE8 CHAINID 0x5C SWAP3 0x2F 0xAC PUSH5 0x736F6C6343 STOP ADDMOD STOP STOP CALLER "
				},
				"gasEstimates": {
					"creation": {
						"codeDepositCost": "439600",
						"executionCost": "infinite",
						"totalCost": "infinite"
					},
					"external": {
						"Change(int256)": "20508",
						"bool_value()": "1194",
						"changeuser(string)": "infinite",
						"getvalue()": "1203",
						"lifeline()": "1130",
						"star()": "infinite",
						"user()": "infinite",
						"value()": "1196",
						"wallet()": "infinite"
					}
				},
				"methodIdentifiers": {
					"Change(int256)": "9aa4a738",
					"bool_value()": "0b7c1a11",
					"changeuser(string)": "4ce077bc",
					"getvalue()": "69bd01c4",
					"lifeline()": "07890892",
					"star()": "2c6dbb1c",
					"user()": "4f8632ba",
					"value()": "3fa4f245",
					"wallet()": "521eb273"
				}
			},
			"storageLayout": {
				"storage": [
					{
						"astId": 4,
						"contract": "contracts/4_Mode.sol:Mode",
						"label": "value",
						"offset": 0,
						"slot": "0",
						"type": "t_int256"
					},
					{
						"astId": 7,
						"contract": "contracts/4_Mode.sol:Mode",
						"label": "user",
						"offset": 0,
						"slot": "1",
						"type": "t_string_storage"
					},
					{
						"astId": 9,
						"contract": "contracts/4_Mode.sol:Mode",
						"label": "lifeline",
						"offset": 0,
						"slot": "2",
						"type": "t_int256"
					},
					{
						"astId": 13,
						"contract": "contracts/4_Mode.sol:Mode",
						"label": "bool_value",
						"offset": 0,
						"slot": "3",
						"type": "t_bool"
					}
				],
				"types": {
					"t_bool": {
						"encoding": "inplace",
						"label": "bool",
						"numberOfBytes": "1"
					},
					"t_int256": {
						"encoding": "inplace",
						"label": "int256",
						"numberOfBytes": "32"
					},
					"t_string_storage": {
						"encoding": "bytes",
						"label": "string",
						"numberOfBytes": "32"
					}
				}
			},
			"userdoc": {
				"kind": "user",
				"methods": {},
				"version": 1
			}
		}
	}
}