{
	"contracts/4_Mode.sol": {
		"Mode": {
			"abi": [
				{
					"inputs": [
						{
							"internalType": "int256",
							"name": "_lifeline",
							"type": "int256"
						},
						{
							"internalType": "string",
							"name": "_user",
							"type": "string"
						}
					],
					"stateMutability": "nonpayable",
					"type": "constructor"
				},
				{
					"inputs": [
						{
							"internalType": "int256",
							"name": "_value",
							"type": "int256"
						}
					],
					"name": "Change",
					"outputs": [],
					"stateMutability": "nonpayable",
					"type": "function"
				},
				{
					"inputs": [
						{
							"internalType": "string",
							"name": "_user",
							"type": "string"
						}
					],
					"name": "changeuser",
					"outputs": [],
					"stateMutability": "nonpayable",
					"type": "function"
				},
				{
					"inputs": [],
					"name": "getvalue",
					"outputs": [
						{
							"internalType": "int256",
							"name": "",
							"type": "int256"
						}
					],
					"stateMutability": "view",
					"type": "function"
				},
				{
					"inputs": [],
					"name": "lifeline",
					"outputs": [
						{
							"internalType": "int256",
							"name": "",
							"type": "int256"
						}
					],
					"stateMutability": "view",
					"type": "function"
				},
				{
					"inputs": [],
					"name": "star",
					"outputs": [
						{
							"internalType": "int256",
							"name": "",
							"type": "int256"
						}
					],
					"stateMutability": "pure",
					"type": "function"
				},
				{
					"inputs": [],
					"name": "user",
					"outputs": [
						{
							"internalType": "string",
							"name": "",
							"type": "string"
						}
					],
					"stateMutability": "view",
					"type": "function"
				},
				{
					"inputs": [],
					"name": "value",
					"outputs": [
						{
							"internalType": "int256",
							"name": "",
							"type": "int256"
						}
					],
					"stateMutability": "view",
					"type": "function"
				},
				{
					"inputs": [],
					"name": "wallet",
					"outputs": [
						{
							"internalType": "address",
							"name": "",
							"type": "address"
						}
					],
					"stateMutability": "view",
					"type": "function"
				}
			],
			"devdoc": {
				"kind": "dev",
				"methods": {},
				"version": 1
			},
			"evm": {
				"assembly": "    /* \"contracts/4_Mode.sol\":59:1166  contract Mode{\r... */\n  mstore(0x40, 0xa0)\n    /* \"contracts/4_Mode.sol\":202:204  10 */\n  0x0a\n    /* \"contracts/4_Mode.sol\":185:204  int public value=10 */\n  0x00\n  sstore\n    /* \"contracts/4_Mode.sol\":211:241  string  public  user = \"David\" */\n  mload(0x40)\n  dup1\n  0x40\n  add\n  0x40\n  mstore\n  dup1\n  0x05\n  dup2\n  mstore\n  0x20\n  add\n  0x4461766964000000000000000000000000000000000000000000000000000000\n  dup2\n  mstore\n  pop\n  0x01\n  swap1\n  dup1\n  mload\n  swap1\n  0x20\n  add\n  swap1\n  tag_1\n  swap3\n  swap2\n  swap1\n  tag_2\n  jump\t// in\ntag_1:\n  pop\n    /* \"contracts/4_Mode.sol\":398:536  constructor(int _lifeline,string memory _user){\r... */\n  callvalue\n  dup1\n  iszero\n  tag_3\n  jumpi\n  0x00\n  dup1\n  revert\ntag_3:\n  pop\n  mload(0x40)\n  sub(codesize, bytecodeSize)\n  dup1\n  bytecodeSize\n  dup4\n  codecopy\n  dup2\n  dup2\n  add\n  0x40\n  mstore\n  dup2\n  add\n  swap1\n  tag_4\n  swap2\n  swap1\n  tag_5\n  jump\t// in\ntag_4:\n    /* \"contracts/4_Mode.sol\":465:474  _lifeline */\n  dup2\n    /* \"contracts/4_Mode.sol\":455:463  lifeline */\n  0x02\n    /* \"contracts/4_Mode.sol\":455:474  lifeline= _lifeline */\n  dup2\n  swap1\n  sstore\n  pop\n    /* \"contracts/4_Mode.sol\":493:498  _user */\n  dup1\n    /* \"contracts/4_Mode.sol\":485:489  user */\n  0x01\n    /* \"contracts/4_Mode.sol\":485:498  user =  _user */\n  swap1\n  dup1\n  mload\n  swap1\n  0x20\n  add\n  swap1\n  tag_8\n  swap3\n  swap2\n  swap1\n  tag_2\n  jump\t// in\ntag_8:\n  pop\n    /* \"contracts/4_Mode.sol\":518:528  msg.sender */\n  caller\n    /* \"contracts/4_Mode.sol\":509:528  wallet = msg.sender */\n  0xffffffffffffffffffffffffffffffffffffffff\n  and\n  0x80\n  dup2\n  0xffffffffffffffffffffffffffffffffffffffff\n  and\n  0x60\n  shl\n  dup2\n  mstore\n  pop\n  pop\n    /* \"contracts/4_Mode.sol\":398:536  constructor(int _lifeline,string memory _user){\r... */\n  pop\n  pop\n    /* \"contracts/4_Mode.sol\":59:1166  contract Mode{\r... */\n  jump(tag_9)\ntag_2:\n  dup3\n  dup1\n  sload\n  tag_10\n  swap1\n  tag_11\n  jump\t// in\ntag_10:\n  swap1\n  0x00\n  mstore\n  keccak256(0x00, 0x20)\n  swap1\n  0x1f\n  add\n  0x20\n  swap1\n  div\n  dup2\n  add\n  swap3\n  dup3\n  tag_13\n  jumpi\n  0x00\n  dup6\n  sstore\n  jump(tag_12)\ntag_13:\n  dup3\n  0x1f\n  lt\n  tag_14\n  jumpi\n  dup1\n  mload\n  not(0xff)\n  and\n  dup4\n  dup1\n  add\n  or\n  dup6\n  sstore\n  jump(tag_12)\ntag_14:\n  dup3\n  dup1\n  add\n  0x01\n  add\n  dup6\n  sstore\n  dup3\n  iszero\n  tag_12\n  jumpi\n  swap2\n  dup3\n  add\ntag_15:\n  dup3\n  dup2\n  gt\n  iszero\n  tag_16\n  jumpi\n  dup3\n  mload\n  dup3\n  sstore\n  swap2\n  0x20\n  add\n  swap2\n  swap1\n  0x01\n  add\n  swap1\n  jump(tag_15)\ntag_16:\ntag_12:\n  pop\n  swap1\n  pop\n  tag_17\n  swap2\n  swap1\n  tag_18\n  jump\t// in\ntag_17:\n  pop\n  swap1\n  jump\t// out\ntag_18:\ntag_19:\n  dup1\n  dup3\n  gt\n  iszero\n  tag_20\n  jumpi\n  0x00\n  dup2\n  0x00\n  swap1\n  sstore\n  pop\n  0x01\n  add\n  jump(tag_19)\ntag_20:\n  pop\n  swap1\n  jump\t// out\n    /* \"#utility.yul\":7:360   */\ntag_22:\n  0x00\n    /* \"#utility.yul\":121:186   */\n  tag_24\n    /* \"#utility.yul\":136:185   */\n  tag_25\n    /* \"#utility.yul\":178:184   */\n  dup5\n    /* \"#utility.yul\":136:185   */\n  tag_26\n  jump\t// in\ntag_25:\n    /* \"#utility.yul\":121:186   */\n  tag_27\n  jump\t// in\ntag_24:\n    /* \"#utility.yul\":112:186   */\n  swap1\n  pop\n    /* \"#utility.yul\":209:215   */\n  dup3\n    /* \"#utility.yul\":202:207   */\n  dup2\n    /* \"#utility.yul\":195:216   */\n  mstore\n    /* \"#utility.yul\":247:251   */\n  0x20\n    /* \"#utility.yul\":240:245   */\n  dup2\n    /* \"#utility.yul\":236:252   */\n  add\n    /* \"#utility.yul\":285:288   */\n  dup5\n    /* \"#utility.yul\":276:282   */\n  dup5\n    /* \"#utility.yul\":271:274   */\n  dup5\n    /* \"#utility.yul\":267:283   */\n  add\n    /* \"#utility.yul\":264:289   */\n  gt\n    /* \"#utility.yul\":261:263   */\n  iszero\n  tag_28\n  jumpi\n    /* \"#utility.yul\":302:303   */\n  0x00\n    /* \"#utility.yul\":299:300   */\n  dup1\n    /* \"#utility.yul\":292:304   */\n  revert\n    /* \"#utility.yul\":261:263   */\ntag_28:\n    /* \"#utility.yul\":315:354   */\n  tag_29\n    /* \"#utility.yul\":347:353   */\n  dup5\n    /* \"#utility.yul\":342:345   */\n  dup3\n    /* \"#utility.yul\":337:340   */\n  dup6\n    /* \"#utility.yul\":315:354   */\n  tag_30\n  jump\t// in\ntag_29:\n    /* \"#utility.yul\":102:360   */\n  pop\n  swap4\n  swap3\n  pop\n  pop\n  pop\n  jump\t// out\n    /* \"#utility.yul\":366:507   */\ntag_31:\n  0x00\n    /* \"#utility.yul\":453:459   */\n  dup2\n    /* \"#utility.yul\":447:460   */\n  mload\n    /* \"#utility.yul\":438:460   */\n  swap1\n  pop\n    /* \"#utility.yul\":469:501   */\n  tag_33\n    /* \"#utility.yul\":495:500   */\n  dup2\n    /* \"#utility.yul\":469:501   */\n  tag_34\n  jump\t// in\ntag_33:\n    /* \"#utility.yul\":428:507   */\n  swap3\n  swap2\n  pop\n  pop\n  jump\t// out\n    /* \"#utility.yul\":527:815   */\ntag_35:\n  0x00\n    /* \"#utility.yul\":643:646   */\n  dup3\n    /* \"#utility.yul\":636:640   */\n  0x1f\n    /* \"#utility.yul\":628:634   */\n  dup4\n    /* \"#utility.yul\":624:641   */\n  add\n    /* \"#utility.yul\":620:647   */\n  slt\n    /* \"#utility.yul\":610:612   */\n  tag_37\n  jumpi\n    /* \"#utility.yul\":661:662   */\n  0x00\n    /* \"#utility.yul\":658:659   */\n  dup1\n    /* \"#utility.yul\":651:663   */\n  revert\n    /* \"#utility.yul\":610:612   */\ntag_37:\n    /* \"#utility.yul\":694:700   */\n  dup2\n    /* \"#utility.yul\":688:701   */\n  mload\n    /* \"#utility.yul\":719:809   */\n  tag_38\n    /* \"#utility.yul\":805:808   */\n  dup5\n    /* \"#utility.yul\":797:803   */\n  dup3\n    /* \"#utility.yul\":790:794   */\n  0x20\n    /* \"#utility.yul\":782:788   */\n  dup7\n    /* \"#utility.yul\":778:795   */\n  add\n    /* \"#utility.yul\":719:809   */\n  tag_22\n  jump\t// in\ntag_38:\n    /* \"#utility.yul\":710:809   */\n  swap2\n  pop\n    /* \"#utility.yul\":600:815   */\n  pop\n  swap3\n  swap2\n  pop\n  pop\n  jump\t// out\n    /* \"#utility.yul\":821:1365   */\ntag_5:\n  0x00\n  dup1\n    /* \"#utility.yul\":966:968   */\n  0x40\n    /* \"#utility.yul\":954:963   */\n  dup4\n    /* \"#utility.yul\":945:952   */\n  dup6\n    /* \"#utility.yul\":941:964   */\n  sub\n    /* \"#utility.yul\":937:969   */\n  slt\n    /* \"#utility.yul\":934:936   */\n  iszero\n  tag_40\n  jumpi\n    /* \"#utility.yul\":982:983   */\n  0x00\n    /* \"#utility.yul\":979:980   */\n  dup1\n    /* \"#utility.yul\":972:984   */\n  revert\n    /* \"#utility.yul\":934:936   */\ntag_40:\n    /* \"#utility.yul\":1025:1026   */\n  0x00\n    /* \"#utility.yul\":1050:1113   */\n  tag_41\n    /* \"#utility.yul\":1105:1112   */\n  dup6\n    /* \"#utility.yul\":1096:1102   */\n  dup3\n    /* \"#utility.yul\":1085:1094   */\n  dup7\n    /* \"#utility.yul\":1081:1103   */\n  add\n    /* \"#utility.yul\":1050:1113   */\n  tag_31\n  jump\t// in\ntag_41:\n    /* \"#utility.yul\":1040:1113   */\n  swap3\n  pop\n    /* \"#utility.yul\":996:1123   */\n  pop\n    /* \"#utility.yul\":1183:1185   */\n  0x20\n    /* \"#utility.yul\":1172:1181   */\n  dup4\n    /* \"#utility.yul\":1168:1186   */\n  add\n    /* \"#utility.yul\":1162:1187   */\n  mload\n    /* \"#utility.yul\":1214:1232   */\n  0xffffffffffffffff\n    /* \"#utility.yul\":1206:1212   */\n  dup2\n    /* \"#utility.yul\":1203:1233   */\n  gt\n    /* \"#utility.yul\":1200:1202   */\n  iszero\n  tag_42\n  jumpi\n    /* \"#utility.yul\":1246:1247   */\n  0x00\n    /* \"#utility.yul\":1243:1244   */\n  dup1\n    /* \"#utility.yul\":1236:1248   */\n  revert\n    /* \"#utility.yul\":1200:1202   */\ntag_42:\n    /* \"#utility.yul\":1274:1348   */\n  tag_43\n    /* \"#utility.yul\":1340:1347   */\n  dup6\n    /* \"#utility.yul\":1331:1337   */\n  dup3\n    /* \"#utility.yul\":1320:1329   */\n  dup7\n    /* \"#utility.yul\":1316:1338   */\n  add\n    /* \"#utility.yul\":1274:1348   */\n  tag_35\n  jump\t// in\ntag_43:\n    /* \"#utility.yul\":1264:1348   */\n  swap2\n  pop\n    /* \"#utility.yul\":1133:1358   */\n  pop\n    /* \"#utility.yul\":924:1365   */\n  swap3\n  pop\n  swap3\n  swap1\n  pop\n  jump\t// out\n    /* \"#utility.yul\":1371:1654   */\ntag_27:\n  0x00\n    /* \"#utility.yul\":1437:1439   */\n  0x40\n    /* \"#utility.yul\":1431:1440   */\n  mload\n    /* \"#utility.yul\":1421:1440   */\n  swap1\n  pop\n    /* \"#utility.yul\":1479:1483   */\n  dup2\n    /* \"#utility.yul\":1471:1477   */\n  dup2\n    /* \"#utility.yul\":1467:1484   */\n  add\n    /* \"#utility.yul\":1586:1592   */\n  dup2\n    /* \"#utility.yul\":1574:1584   */\n  dup2\n    /* \"#utility.yul\":1571:1593   */\n  lt\n    /* \"#utility.yul\":1550:1568   */\n  0xffffffffffffffff\n    /* \"#utility.yul\":1538:1548   */\n  dup3\n    /* \"#utility.yul\":1535:1569   */\n  gt\n    /* \"#utility.yul\":1532:1594   */\n  or\n    /* \"#utility.yul\":1529:1531   */\n  iszero\n  tag_45\n  jumpi\n    /* \"#utility.yul\":1597:1615   */\n  tag_46\n  tag_47\n  jump\t// in\ntag_46:\n    /* \"#utility.yul\":1529:1531   */\ntag_45:\n    /* \"#utility.yul\":1637:1647   */\n  dup1\n    /* \"#utility.yul\":1633:1635   */\n  0x40\n    /* \"#utility.yul\":1626:1648   */\n  mstore\n    /* \"#utility.yul\":1411:1654   */\n  pop\n  swap2\n  swap1\n  pop\n  jump\t// out\n    /* \"#utility.yul\":1660:1992   */\ntag_26:\n  0x00\n    /* \"#utility.yul\":1812:1830   */\n  0xffffffffffffffff\n    /* \"#utility.yul\":1804:1810   */\n  dup3\n    /* \"#utility.yul\":1801:1831   */\n  gt\n    /* \"#utility.yul\":1798:1800   */\n  iszero\n  tag_49\n  jumpi\n    /* \"#utility.yul\":1834:1852   */\n  tag_50\n  tag_47\n  jump\t// in\ntag_50:\n    /* \"#utility.yul\":1798:1800   */\ntag_49:\n    /* \"#utility.yul\":1919:1923   */\n  0x1f\n    /* \"#utility.yul\":1915:1924   */\n  not\n    /* \"#utility.yul\":1908:1912   */\n  0x1f\n    /* \"#utility.yul\":1900:1906   */\n  dup4\n    /* \"#utility.yul\":1896:1913   */\n  add\n    /* \"#utility.yul\":1892:1925   */\n  and\n    /* \"#utility.yul\":1884:1925   */\n  swap1\n  pop\n    /* \"#utility.yul\":1980:1984   */\n  0x20\n    /* \"#utility.yul\":1974:1978   */\n  dup2\n    /* \"#utility.yul\":1970:1985   */\n  add\n    /* \"#utility.yul\":1962:1985   */\n  swap1\n  pop\n    /* \"#utility.yul\":1727:1992   */\n  swap2\n  swap1\n  pop\n  jump\t// out\n    /* \"#utility.yul\":1998:2074   */\ntag_51:\n  0x00\n    /* \"#utility.yul\":2063:2068   */\n  dup2\n    /* \"#utility.yul\":2052:2068   */\n  swap1\n  pop\n    /* \"#utility.yul\":2042:2074   */\n  swap2\n  swap1\n  pop\n  jump\t// out\n    /* \"#utility.yul\":2080:2387   */\ntag_30:\n    /* \"#utility.yul\":2148:2149   */\n  0x00\n    /* \"#utility.yul\":2158:2271   */\ntag_54:\n    /* \"#utility.yul\":2172:2178   */\n  dup4\n    /* \"#utility.yul\":2169:2170   */\n  dup2\n    /* \"#utility.yul\":2166:2179   */\n  lt\n    /* \"#utility.yul\":2158:2271   */\n  iszero\n  tag_56\n  jumpi\n    /* \"#utility.yul\":2257:2258   */\n  dup1\n    /* \"#utility.yul\":2252:2255   */\n  dup3\n    /* \"#utility.yul\":2248:2259   */\n  add\n    /* \"#utility.yul\":2242:2260   */\n  mload\n    /* \"#utility.yul\":2238:2239   */\n  dup2\n    /* \"#utility.yul\":2233:2236   */\n  dup5\n    /* \"#utility.yul\":2229:2240   */\n  add\n    /* \"#utility.yul\":2222:2261   */\n  mstore\n    /* \"#utility.yul\":2194:2196   */\n  0x20\n    /* \"#utility.yul\":2191:2192   */\n  dup2\n    /* \"#utility.yul\":2187:2197   */\n  add\n    /* \"#utility.yul\":2182:2197   */\n  swap1\n  pop\n    /* \"#utility.yul\":2158:2271   */\n  jump(tag_54)\ntag_56:\n    /* \"#utility.yul\":2289:2295   */\n  dup4\n    /* \"#utility.yul\":2286:2287   */\n  dup2\n    /* \"#utility.yul\":2283:2296   */\n  gt\n    /* \"#utility.yul\":2280:2282   */\n  iszero\n  tag_57\n  jumpi\n    /* \"#utility.yul\":2369:2370   */\n  0x00\n    /* \"#utility.yul\":2360:2366   */\n  dup5\n    /* \"#utility.yul\":2355:2358   */\n  dup5\n    /* \"#utility.yul\":2351:2367   */\n  add\n    /* \"#utility.yul\":2344:2371   */\n  mstore\n    /* \"#utility.yul\":2280:2282   */\ntag_57:\n    /* \"#utility.yul\":2129:2387   */\n  pop\n  pop\n  pop\n  pop\n  jump\t// out\n    /* \"#utility.yul\":2393:2713   */\ntag_11:\n  0x00\n    /* \"#utility.yul\":2474:2475   */\n  0x02\n    /* \"#utility.yul\":2468:2472   */\n  dup3\n    /* \"#utility.yul\":2464:2476   */\n  div\n    /* \"#utility.yul\":2454:2476   */\n  swap1\n  pop\n    /* \"#utility.yul\":2521:2522   */\n  0x01\n    /* \"#utility.yul\":2515:2519   */\n  dup3\n    /* \"#utility.yul\":2511:2523   */\n  and\n    /* \"#utility.yul\":2542:2560   */\n  dup1\n    /* \"#utility.yul\":2532:2534   */\n  tag_59\n  jumpi\n    /* \"#utility.yul\":2598:2602   */\n  0x7f\n    /* \"#utility.yul\":2590:2596   */\n  dup3\n    /* \"#utility.yul\":2586:2603   */\n  and\n    /* \"#utility.yul\":2576:2603   */\n  swap2\n  pop\n    /* \"#utility.yul\":2532:2534   */\ntag_59:\n    /* \"#utility.yul\":2660:2662   */\n  0x20\n    /* \"#utility.yul\":2652:2658   */\n  dup3\n    /* \"#utility.yul\":2649:2663   */\n  lt\n    /* \"#utility.yul\":2629:2647   */\n  dup2\n    /* \"#utility.yul\":2626:2664   */\n  eq\n    /* \"#utility.yul\":2623:2625   */\n  iszero\n  tag_60\n  jumpi\n    /* \"#utility.yul\":2679:2697   */\n  tag_61\n  tag_62\n  jump\t// in\ntag_61:\n    /* \"#utility.yul\":2623:2625   */\ntag_60:\n    /* \"#utility.yul\":2444:2713   */\n  pop\n  swap2\n  swap1\n  pop\n  jump\t// out\n    /* \"#utility.yul\":2719:2899   */\ntag_62:\n    /* \"#utility.yul\":2767:2844   */\n  0x4e487b7100000000000000000000000000000000000000000000000000000000\n    /* \"#utility.yul\":2764:2765   */\n  0x00\n    /* \"#utility.yul\":2757:2845   */\n  mstore\n    /* \"#utility.yul\":2864:2868   */\n  0x22\n    /* \"#utility.yul\":2861:2862   */\n  0x04\n    /* \"#utility.yul\":2854:2869   */\n  mstore\n    /* \"#utility.yul\":2888:2892   */\n  0x24\n    /* \"#utility.yul\":2885:2886   */\n  0x00\n    /* \"#utility.yul\":2878:2893   */\n  revert\n    /* \"#utility.yul\":2905:3085   */\ntag_47:\n    /* \"#utility.yul\":2953:3030   */\n  0x4e487b7100000000000000000000000000000000000000000000000000000000\n    /* \"#utility.yul\":2950:2951   */\n  0x00\n    /* \"#utility.yul\":2943:3031   */\n  mstore\n    /* \"#utility.yul\":3050:3054   */\n  0x41\n    /* \"#utility.yul\":3047:3048   */\n  0x04\n    /* \"#utility.yul\":3040:3055   */\n  mstore\n    /* \"#utility.yul\":3074:3078   */\n  0x24\n    /* \"#utility.yul\":3071:3072   */\n  0x00\n    /* \"#utility.yul\":3064:3079   */\n  revert\n    /* \"#utility.yul\":3091:3211   */\ntag_34:\n    /* \"#utility.yul\":3163:3186   */\n  tag_66\n    /* \"#utility.yul\":3180:3185   */\n  dup2\n    /* \"#utility.yul\":3163:3186   */\n  tag_51\n  jump\t// in\ntag_66:\n    /* \"#utility.yul\":3156:3161   */\n  dup2\n    /* \"#utility.yul\":3153:3187   */\n  eq\n    /* \"#utility.yul\":3143:3145   */\n  tag_67\n  jumpi\n    /* \"#utility.yul\":3201:3202   */\n  0x00\n    /* \"#utility.yul\":3198:3199   */\n  dup1\n    /* \"#utility.yul\":3191:3203   */\n  revert\n    /* \"#utility.yul\":3143:3145   */\ntag_67:\n    /* \"#utility.yul\":3133:3211   */\n  pop\n  jump\t// out\n    /* \"contracts/4_Mode.sol\":59:1166  contract Mode{\r... */\ntag_9:\n  shr(0x60, mload(0x80))\n  codecopy(0x00, dataOffset(sub_0), dataSize(sub_0))\n  0x00\n  assignImmutable(\"0x7880aec93413f117ef14bd4e6d130875ab2c7d7d55a064fac3c2f7bd51516380\")\n  return(0x00, dataSize(sub_0))\nstop\n\nsub_0: assembly {\n        /* \"contracts/4_Mode.sol\":59:1166  contract Mode{\r... */\n      mstore(0x40, 0x80)\n      callvalue\n      dup1\n      iszero\n      tag_1\n      jumpi\n      0x00\n      dup1\n      revert\n    tag_1:\n      pop\n      jumpi(tag_2, lt(calldatasize, 0x04))\n      shr(0xe0, calldataload(0x00))\n      dup1\n      0x4f8632ba\n      gt\n      tag_11\n      jumpi\n      dup1\n      0x4f8632ba\n      eq\n      tag_7\n      jumpi\n      dup1\n      0x521eb273\n      eq\n      tag_8\n      jumpi\n      dup1\n      0x69bd01c4\n      eq\n      tag_9\n      jumpi\n      dup1\n      0x9aa4a738\n      eq\n      tag_10\n      jumpi\n      jump(tag_2)\n    tag_11:\n      dup1\n      0x07890892\n      eq\n      tag_3\n      jumpi\n      dup1\n      0x2c6dbb1c\n      eq\n      tag_4\n      jumpi\n      dup1\n      0x3fa4f245\n      eq\n      tag_5\n      jumpi\n      dup1\n      0x4ce077bc\n      eq\n      tag_6\n      jumpi\n    tag_2:\n      0x00\n      dup1\n      revert\n        /* \"contracts/4_Mode.sol\":248:267  int public lifeline */\n    tag_3:\n      tag_12\n      tag_13\n      jump\t// in\n    tag_12:\n      mload(0x40)\n      tag_14\n      swap2\n      swap1\n      tag_15\n      jump\t// in\n    tag_14:\n      mload(0x40)\n      dup1\n      swap2\n      sub\n      swap1\n      return\n        /* \"contracts/4_Mode.sol\":741:893  function star()public pure returns(int) {\r... */\n    tag_4:\n      tag_16\n      tag_17\n      jump\t// in\n    tag_16:\n      mload(0x40)\n      tag_18\n      swap2\n      swap1\n      tag_15\n      jump\t// in\n    tag_18:\n      mload(0x40)\n      dup1\n      swap2\n      sub\n      swap1\n      return\n        /* \"contracts/4_Mode.sol\":185:204  int public value=10 */\n    tag_5:\n      tag_19\n      tag_20\n      jump\t// in\n    tag_19:\n      mload(0x40)\n      tag_21\n      swap2\n      swap1\n      tag_15\n      jump\t// in\n    tag_21:\n      mload(0x40)\n      dup1\n      swap2\n      sub\n      swap1\n      return\n        /* \"contracts/4_Mode.sol\":1077:1155  function changeuser(string memory _user) public{\r... */\n    tag_6:\n      tag_22\n      0x04\n      dup1\n      calldatasize\n      sub\n      dup2\n      add\n      swap1\n      tag_23\n      swap2\n      swap1\n      tag_24\n      jump\t// in\n    tag_23:\n      tag_25\n      jump\t// in\n    tag_22:\n      stop\n        /* \"contracts/4_Mode.sol\":211:241  string  public  user = \"David\" */\n    tag_7:\n      tag_26\n      tag_27\n      jump\t// in\n    tag_26:\n      mload(0x40)\n      tag_28\n      swap2\n      swap1\n      tag_29\n      jump\t// in\n    tag_28:\n      mload(0x40)\n      dup1\n      swap2\n      sub\n      swap1\n      return\n        /* \"contracts/4_Mode.sol\":274:305  address immutable public wallet */\n    tag_8:\n      tag_30\n      tag_31\n      jump\t// in\n    tag_30:\n      mload(0x40)\n      tag_32\n      swap2\n      swap1\n      tag_33\n      jump\t// in\n    tag_32:\n      mload(0x40)\n      dup1\n      swap2\n      sub\n      swap1\n      return\n        /* \"contracts/4_Mode.sol\":990:1065  function getvalue()public view returns(int){\r... */\n    tag_9:\n      tag_34\n      tag_35\n      jump\t// in\n    tag_34:\n      mload(0x40)\n      tag_36\n      swap2\n      swap1\n      tag_15\n      jump\t// in\n    tag_36:\n      mload(0x40)\n      dup1\n      swap2\n      sub\n      swap1\n      return\n        /* \"contracts/4_Mode.sol\":631:698  function Change(int _value) public{\r... */\n    tag_10:\n      tag_37\n      0x04\n      dup1\n      calldatasize\n      sub\n      dup2\n      add\n      swap1\n      tag_38\n      swap2\n      swap1\n      tag_39\n      jump\t// in\n    tag_38:\n      tag_40\n      jump\t// in\n    tag_37:\n      stop\n        /* \"contracts/4_Mode.sol\":248:267  int public lifeline */\n    tag_13:\n      sload(0x02)\n      dup2\n      jump\t// out\n        /* \"contracts/4_Mode.sol\":741:893  function star()public pure returns(int) {\r... */\n    tag_17:\n        /* \"contracts/4_Mode.sol\":776:779  int */\n      0x00\n        /* \"contracts/4_Mode.sol\":792:797  int i */\n      dup1\n        /* \"contracts/4_Mode.sol\":800:801  5 */\n      0x05\n        /* \"contracts/4_Mode.sol\":792:801  int i = 5 */\n      swap1\n      pop\n        /* \"contracts/4_Mode.sol\":819:820  4 */\n      0x04\n        /* \"contracts/4_Mode.sol\":815:816  i */\n      dup2\n        /* \"contracts/4_Mode.sol\":815:820  i * 4 */\n      tag_42\n      swap2\n      swap1\n      tag_43\n      jump\t// in\n    tag_42:\n        /* \"contracts/4_Mode.sol\":812:820  i =i * 4 */\n      swap1\n      pop\n        /* \"contracts/4_Mode.sol\":831:854  string  memory pet_name */\n      0x00\n        /* \"contracts/4_Mode.sol\":831:865  string  memory pet_name = \"Tuamie\" */\n      mload(0x40)\n      dup1\n      0x40\n      add\n      0x40\n      mstore\n      dup1\n      0x06\n      dup2\n      mstore\n      0x20\n      add\n      0x5475616d69650000000000000000000000000000000000000000000000000000\n      dup2\n      mstore\n      pop\n      swap1\n      pop\n        /* \"contracts/4_Mode.sol\":884:885  i */\n      dup2\n        /* \"contracts/4_Mode.sol\":876:885  return  i */\n      swap3\n      pop\n      pop\n      pop\n        /* \"contracts/4_Mode.sol\":741:893  function star()public pure returns(int) {\r... */\n      swap1\n      jump\t// out\n        /* \"contracts/4_Mode.sol\":185:204  int public value=10 */\n    tag_20:\n      sload(0x00)\n      dup2\n      jump\t// out\n        /* \"contracts/4_Mode.sol\":1077:1155  function changeuser(string memory _user) public{\r... */\n    tag_25:\n        /* \"contracts/4_Mode.sol\":1142:1147  _user */\n      dup1\n        /* \"contracts/4_Mode.sol\":1135:1139  user */\n      0x01\n        /* \"contracts/4_Mode.sol\":1135:1147  user = _user */\n      swap1\n      dup1\n      mload\n      swap1\n      0x20\n      add\n      swap1\n      tag_45\n      swap3\n      swap2\n      swap1\n      tag_46\n      jump\t// in\n    tag_45:\n      pop\n        /* \"contracts/4_Mode.sol\":1077:1155  function changeuser(string memory _user) public{\r... */\n      pop\n      jump\t// out\n        /* \"contracts/4_Mode.sol\":211:241  string  public  user = \"David\" */\n    tag_27:\n      0x01\n      dup1\n      sload\n      tag_47\n      swap1\n      tag_48\n      jump\t// in\n    tag_47:\n      dup1\n      0x1f\n      add\n      0x20\n      dup1\n      swap2\n      div\n      mul\n      0x20\n      add\n      mload(0x40)\n      swap1\n      dup2\n      add\n      0x40\n      mstore\n      dup1\n      swap3\n      swap2\n      swap1\n      dup2\n      dup2\n      mstore\n      0x20\n      add\n      dup3\n      dup1\n      sload\n      tag_49\n      swap1\n      tag_48\n      jump\t// in\n    tag_49:\n      dup1\n      iszero\n      tag_50\n      jumpi\n      dup1\n      0x1f\n      lt\n      tag_51\n      jumpi\n      0x0100\n      dup1\n      dup4\n      sload\n      div\n      mul\n      dup4\n      mstore\n      swap2\n      0x20\n      add\n      swap2\n      jump(tag_50)\n    tag_51:\n      dup3\n      add\n      swap2\n      swap1\n      0x00\n      mstore\n      keccak256(0x00, 0x20)\n      swap1\n    tag_52:\n      dup2\n      sload\n      dup2\n      mstore\n      swap1\n      0x01\n      add\n      swap1\n      0x20\n      add\n      dup1\n      dup4\n      gt\n      tag_52\n      jumpi\n      dup3\n      swap1\n      sub\n      0x1f\n      and\n      dup3\n      add\n      swap2\n    tag_50:\n      pop\n      pop\n      pop\n      pop\n      pop\n      dup2\n      jump\t// out\n        /* \"contracts/4_Mode.sol\":274:305  address immutable public wallet */\n    tag_31:\n      immutable(\"0x7880aec93413f117ef14bd4e6d130875ab2c7d7d55a064fac3c2f7bd51516380\")\n      dup2\n      jump\t// out\n        /* \"contracts/4_Mode.sol\":990:1065  function getvalue()public view returns(int){\r... */\n    tag_35:\n        /* \"contracts/4_Mode.sol\":1029:1032  int */\n      0x00\n        /* \"contracts/4_Mode.sol\":1052:1057  value */\n      dup1\n      sload\n        /* \"contracts/4_Mode.sol\":1044:1057  return  value */\n      swap1\n      pop\n        /* \"contracts/4_Mode.sol\":990:1065  function getvalue()public view returns(int){\r... */\n      swap1\n      jump\t// out\n        /* \"contracts/4_Mode.sol\":631:698  function Change(int _value) public{\r... */\n    tag_40:\n        /* \"contracts/4_Mode.sol\":684:690  _value */\n      dup1\n        /* \"contracts/4_Mode.sol\":676:681  value */\n      0x00\n        /* \"contracts/4_Mode.sol\":676:690  value = _value */\n      dup2\n      swap1\n      sstore\n      pop\n        /* \"contracts/4_Mode.sol\":631:698  function Change(int _value) public{\r... */\n      pop\n      jump\t// out\n    tag_46:\n      dup3\n      dup1\n      sload\n      tag_55\n      swap1\n      tag_48\n      jump\t// in\n    tag_55:\n      swap1\n      0x00\n      mstore\n      keccak256(0x00, 0x20)\n      swap1\n      0x1f\n      add\n      0x20\n      swap1\n      div\n      dup2\n      add\n      swap3\n      dup3\n      tag_57\n      jumpi\n      0x00\n      dup6\n      sstore\n      jump(tag_56)\n    tag_57:\n      dup3\n      0x1f\n      lt\n      tag_58\n      jumpi\n      dup1\n      mload\n      not(0xff)\n      and\n      dup4\n      dup1\n      add\n      or\n      dup6\n      sstore\n      jump(tag_56)\n    tag_58:\n      dup3\n      dup1\n      add\n      0x01\n      add\n      dup6\n      sstore\n      dup3\n      iszero\n      tag_56\n      jumpi\n      swap2\n      dup3\n      add\n    tag_59:\n      dup3\n      dup2\n      gt\n      iszero\n      tag_60\n      jumpi\n      dup3\n      mload\n      dup3\n      sstore\n      swap2\n      0x20\n      add\n      swap2\n      swap1\n      0x01\n      add\n      swap1\n      jump(tag_59)\n    tag_60:\n    tag_56:\n      pop\n      swap1\n      pop\n      tag_61\n      swap2\n      swap1\n      tag_62\n      jump\t// in\n    tag_61:\n      pop\n      swap1\n      jump\t// out\n    tag_62:\n    tag_63:\n      dup1\n      dup3\n      gt\n      iszero\n      tag_64\n      jumpi\n      0x00\n      dup2\n      0x00\n      swap1\n      sstore\n      pop\n      0x01\n      add\n      jump(tag_63)\n    tag_64:\n      pop\n      swap1\n      jump\t// out\n        /* \"#utility.yul\":7:351   */\n    tag_66:\n      0x00\n        /* \"#utility.yul\":110:175   */\n      tag_68\n        /* \"#utility.yul\":125:174   */\n      tag_69\n        /* \"#utility.yul\":167:173   */\n      dup5\n        /* \"#utility.yul\":125:174   */\n      tag_70\n      jump\t// in\n    tag_69:\n        /* \"#utility.yul\":110:175   */\n      tag_71\n      jump\t// in\n    tag_68:\n        /* \"#utility.yul\":101:175   */\n      swap1\n      pop\n        /* \"#utility.yul\":198:204   */\n      dup3\n        /* \"#utility.yul\":191:196   */\n      dup2\n        /* \"#utility.yul\":184:205   */\n      mstore\n        /* \"#utility.yul\":236:240   */\n      0x20\n        /* \"#utility.yul\":229:234   */\n      dup2\n        /* \"#utility.yul\":225:241   */\n      add\n        /* \"#utility.yul\":274:277   */\n      dup5\n        /* \"#utility.yul\":265:271   */\n      dup5\n        /* \"#utility.yul\":260:263   */\n      dup5\n        /* \"#utility.yul\":256:272   */\n      add\n        /* \"#utility.yul\":253:278   */\n      gt\n        /* \"#utility.yul\":250:252   */\n      iszero\n      tag_72\n      jumpi\n        /* \"#utility.yul\":291:292   */\n      0x00\n        /* \"#utility.yul\":288:289   */\n      dup1\n        /* \"#utility.yul\":281:293   */\n      revert\n        /* \"#utility.yul\":250:252   */\n    tag_72:\n        /* \"#utility.yul\":304:345   */\n      tag_73\n        /* \"#utility.yul\":338:344   */\n      dup5\n        /* \"#utility.yul\":333:336   */\n      dup3\n        /* \"#utility.yul\":328:331   */\n      dup6\n        /* \"#utility.yul\":304:345   */\n      tag_74\n      jump\t// in\n    tag_73:\n        /* \"#utility.yul\":91:351   */\n      pop\n      swap4\n      swap3\n      pop\n      pop\n      pop\n      jump\t// out\n        /* \"#utility.yul\":357:494   */\n    tag_75:\n      0x00\n        /* \"#utility.yul\":440:446   */\n      dup2\n        /* \"#utility.yul\":427:447   */\n      calldataload\n        /* \"#utility.yul\":418:447   */\n      swap1\n      pop\n        /* \"#utility.yul\":456:488   */\n      tag_77\n        /* \"#utility.yul\":482:487   */\n      dup2\n        /* \"#utility.yul\":456:488   */\n      tag_78\n      jump\t// in\n    tag_77:\n        /* \"#utility.yul\":408:494   */\n      swap3\n      swap2\n      pop\n      pop\n      jump\t// out\n        /* \"#utility.yul\":514:787   */\n    tag_79:\n      0x00\n        /* \"#utility.yul\":619:622   */\n      dup3\n        /* \"#utility.yul\":612:616   */\n      0x1f\n        /* \"#utility.yul\":604:610   */\n      dup4\n        /* \"#utility.yul\":600:617   */\n      add\n        /* \"#utility.yul\":596:623   */\n      slt\n        /* \"#utility.yul\":586:588   */\n      tag_81\n      jumpi\n        /* \"#utility.yul\":637:638   */\n      0x00\n        /* \"#utility.yul\":634:635   */\n      dup1\n        /* \"#utility.yul\":627:639   */\n      revert\n        /* \"#utility.yul\":586:588   */\n    tag_81:\n        /* \"#utility.yul\":677:683   */\n      dup2\n        /* \"#utility.yul\":664:684   */\n      calldataload\n        /* \"#utility.yul\":702:781   */\n      tag_82\n        /* \"#utility.yul\":777:780   */\n      dup5\n        /* \"#utility.yul\":769:775   */\n      dup3\n        /* \"#utility.yul\":762:766   */\n      0x20\n        /* \"#utility.yul\":754:760   */\n      dup7\n        /* \"#utility.yul\":750:767   */\n      add\n        /* \"#utility.yul\":702:781   */\n      tag_66\n      jump\t// in\n    tag_82:\n        /* \"#utility.yul\":693:781   */\n      swap2\n      pop\n        /* \"#utility.yul\":576:787   */\n      pop\n      swap3\n      swap2\n      pop\n      pop\n      jump\t// out\n        /* \"#utility.yul\":793:1053   */\n    tag_39:\n      0x00\n        /* \"#utility.yul\":900:902   */\n      0x20\n        /* \"#utility.yul\":888:897   */\n      dup3\n        /* \"#utility.yul\":879:886   */\n      dup5\n        /* \"#utility.yul\":875:898   */\n      sub\n        /* \"#utility.yul\":871:903   */\n      slt\n        /* \"#utility.yul\":868:870   */\n      iszero\n      tag_84\n      jumpi\n        /* \"#utility.yul\":916:917   */\n      0x00\n        /* \"#utility.yul\":913:914   */\n      dup1\n        /* \"#utility.yul\":906:918   */\n      revert\n        /* \"#utility.yul\":868:870   */\n    tag_84:\n        /* \"#utility.yul\":959:960   */\n      0x00\n        /* \"#utility.yul\":984:1036   */\n      tag_85\n        /* \"#utility.yul\":1028:1035   */\n      dup5\n        /* \"#utility.yul\":1019:1025   */\n      dup3\n        /* \"#utility.yul\":1008:1017   */\n      dup6\n        /* \"#utility.yul\":1004:1026   */\n      add\n        /* \"#utility.yul\":984:1036   */\n      tag_75\n      jump\t// in\n    tag_85:\n        /* \"#utility.yul\":974:1036   */\n      swap2\n      pop\n        /* \"#utility.yul\":930:1046   */\n      pop\n        /* \"#utility.yul\":858:1053   */\n      swap3\n      swap2\n      pop\n      pop\n      jump\t// out\n        /* \"#utility.yul\":1059:1434   */\n    tag_24:\n      0x00\n        /* \"#utility.yul\":1177:1179   */\n      0x20\n        /* \"#utility.yul\":1165:1174   */\n      dup3\n        /* \"#utility.yul\":1156:1163   */\n      dup5\n        /* \"#utility.yul\":1152:1175   */\n      sub\n        /* \"#utility.yul\":1148:1180   */\n      slt\n        /* \"#utility.yul\":1145:1147   */\n      iszero\n      tag_87\n      jumpi\n        /* \"#utility.yul\":1193:1194   */\n      0x00\n        /* \"#utility.yul\":1190:1191   */\n      dup1\n        /* \"#utility.yul\":1183:1195   */\n      revert\n        /* \"#utility.yul\":1145:1147   */\n    tag_87:\n        /* \"#utility.yul\":1264:1265   */\n      0x00\n        /* \"#utility.yul\":1253:1262   */\n      dup3\n        /* \"#utility.yul\":1249:1266   */\n      add\n        /* \"#utility.yul\":1236:1267   */\n      calldataload\n        /* \"#utility.yul\":1294:1312   */\n      0xffffffffffffffff\n        /* \"#utility.yul\":1286:1292   */\n      dup2\n        /* \"#utility.yul\":1283:1313   */\n      gt\n        /* \"#utility.yul\":1280:1282   */\n      iszero\n      tag_88\n      jumpi\n        /* \"#utility.yul\":1326:1327   */\n      0x00\n        /* \"#utility.yul\":1323:1324   */\n      dup1\n        /* \"#utility.yul\":1316:1328   */\n      revert\n        /* \"#utility.yul\":1280:1282   */\n    tag_88:\n        /* \"#utility.yul\":1354:1417   */\n      tag_89\n        /* \"#utility.yul\":1409:1416   */\n      dup5\n        /* \"#utility.yul\":1400:1406   */\n      dup3\n        /* \"#utility.yul\":1389:1398   */\n      dup6\n        /* \"#utility.yul\":1385:1407   */\n      add\n        /* \"#utility.yul\":1354:1417   */\n      tag_79\n      jump\t// in\n    tag_89:\n        /* \"#utility.yul\":1344:1417   */\n      swap2\n      pop\n        /* \"#utility.yul\":1207:1427   */\n      pop\n        /* \"#utility.yul\":1135:1434   */\n      swap3\n      swap2\n      pop\n      pop\n      jump\t// out\n        /* \"#utility.yul\":1440:1558   */\n    tag_90:\n        /* \"#utility.yul\":1527:1551   */\n      tag_92\n        /* \"#utility.yul\":1545:1550   */\n      dup2\n        /* \"#utility.yul\":1527:1551   */\n      tag_93\n      jump\t// in\n    tag_92:\n        /* \"#utility.yul\":1522:1525   */\n      dup3\n        /* \"#utility.yul\":1515:1552   */\n      mstore\n        /* \"#utility.yul\":1505:1558   */\n      pop\n      pop\n      jump\t// out\n        /* \"#utility.yul\":1564:1679   */\n    tag_94:\n        /* \"#utility.yul\":1649:1672   */\n      tag_96\n        /* \"#utility.yul\":1666:1671   */\n      dup2\n        /* \"#utility.yul\":1649:1672   */\n      tag_97\n      jump\t// in\n    tag_96:\n        /* \"#utility.yul\":1644:1647   */\n      dup3\n        /* \"#utility.yul\":1637:1673   */\n      mstore\n        /* \"#utility.yul\":1627:1679   */\n      pop\n      pop\n      jump\t// out\n        /* \"#utility.yul\":1685:2049   */\n    tag_98:\n      0x00\n        /* \"#utility.yul\":1801:1840   */\n      tag_100\n        /* \"#utility.yul\":1834:1839   */\n      dup3\n        /* \"#utility.yul\":1801:1840   */\n      tag_101\n      jump\t// in\n    tag_100:\n        /* \"#utility.yul\":1856:1927   */\n      tag_102\n        /* \"#utility.yul\":1920:1926   */\n      dup2\n        /* \"#utility.yul\":1915:1918   */\n      dup6\n        /* \"#utility.yul\":1856:1927   */\n      tag_103\n      jump\t// in\n    tag_102:\n        /* \"#utility.yul\":1849:1927   */\n      swap4\n      pop\n        /* \"#utility.yul\":1936:1988   */\n      tag_104\n        /* \"#utility.yul\":1981:1987   */\n      dup2\n        /* \"#utility.yul\":1976:1979   */\n      dup6\n        /* \"#utility.yul\":1969:1973   */\n      0x20\n        /* \"#utility.yul\":1962:1967   */\n      dup7\n        /* \"#utility.yul\":1958:1974   */\n      add\n        /* \"#utility.yul\":1936:1988   */\n      tag_105\n      jump\t// in\n    tag_104:\n        /* \"#utility.yul\":2013:2042   */\n      tag_106\n        /* \"#utility.yul\":2035:2041   */\n      dup2\n        /* \"#utility.yul\":2013:2042   */\n      tag_107\n      jump\t// in\n    tag_106:\n        /* \"#utility.yul\":2008:2011   */\n      dup5\n        /* \"#utility.yul\":2004:2043   */\n      add\n        /* \"#utility.yul\":1997:2043   */\n      swap2\n      pop\n        /* \"#utility.yul\":1777:2049   */\n      pop\n      swap3\n      swap2\n      pop\n      pop\n      jump\t// out\n        /* \"#utility.yul\":2055:2277   */\n    tag_33:\n      0x00\n        /* \"#utility.yul\":2186:2188   */\n      0x20\n        /* \"#utility.yul\":2175:2184   */\n      dup3\n        /* \"#utility.yul\":2171:2189   */\n      add\n        /* \"#utility.yul\":2163:2189   */\n      swap1\n      pop\n        /* \"#utility.yul\":2199:2270   */\n      tag_109\n        /* \"#utility.yul\":2267:2268   */\n      0x00\n        /* \"#utility.yul\":2256:2265   */\n      dup4\n        /* \"#utility.yul\":2252:2269   */\n      add\n        /* \"#utility.yul\":2243:2249   */\n      dup5\n        /* \"#utility.yul\":2199:2270   */\n      tag_90\n      jump\t// in\n    tag_109:\n        /* \"#utility.yul\":2153:2277   */\n      swap3\n      swap2\n      pop\n      pop\n      jump\t// out\n        /* \"#utility.yul\":2283:2501   */\n    tag_15:\n      0x00\n        /* \"#utility.yul\":2412:2414   */\n      0x20\n        /* \"#utility.yul\":2401:2410   */\n      dup3\n        /* \"#utility.yul\":2397:2415   */\n      add\n        /* \"#utility.yul\":2389:2415   */\n      swap1\n      pop\n        /* \"#utility.yul\":2425:2494   */\n      tag_111\n        /* \"#utility.yul\":2491:2492   */\n      0x00\n        /* \"#utility.yul\":2480:2489   */\n      dup4\n        /* \"#utility.yul\":2476:2493   */\n      add\n        /* \"#utility.yul\":2467:2473   */\n      dup5\n        /* \"#utility.yul\":2425:2494   */\n      tag_94\n      jump\t// in\n    tag_111:\n        /* \"#utility.yul\":2379:2501   */\n      swap3\n      swap2\n      pop\n      pop\n      jump\t// out\n        /* \"#utility.yul\":2507:2820   */\n    tag_29:\n      0x00\n        /* \"#utility.yul\":2658:2660   */\n      0x20\n        /* \"#utility.yul\":2647:2656   */\n      dup3\n        /* \"#utility.yul\":2643:2661   */\n      add\n        /* \"#utility.yul\":2635:2661   */\n      swap1\n      pop\n        /* \"#utility.yul\":2707:2716   */\n      dup2\n        /* \"#utility.yul\":2701:2705   */\n      dup2\n        /* \"#utility.yul\":2697:2717   */\n      sub\n        /* \"#utility.yul\":2693:2694   */\n      0x00\n        /* \"#utility.yul\":2682:2691   */\n      dup4\n        /* \"#utility.yul\":2678:2695   */\n      add\n        /* \"#utility.yul\":2671:2718   */\n      mstore\n        /* \"#utility.yul\":2735:2813   */\n      tag_113\n        /* \"#utility.yul\":2808:2812   */\n      dup2\n        /* \"#utility.yul\":2799:2805   */\n      dup5\n        /* \"#utility.yul\":2735:2813   */\n      tag_98\n      jump\t// in\n    tag_113:\n        /* \"#utility.yul\":2727:2813   */\n      swap1\n      pop\n        /* \"#utility.yul\":2625:2820   */\n      swap3\n      swap2\n      pop\n      pop\n      jump\t// out\n        /* \"#utility.yul\":2826:3109   */\n    tag_71:\n      0x00\n        /* \"#utility.yul\":2892:2894   */\n      0x40\n        /* \"#utility.yul\":2886:2895   */\n      mload\n        /* \"#utility.yul\":2876:2895   */\n      swap1\n      pop\n        /* \"#utility.yul\":2934:2938   */\n      dup2\n        /* \"#utility.yul\":2926:2932   */\n      dup2\n        /* \"#utility.yul\":2922:2939   */\n      add\n        /* \"#utility.yul\":3041:3047   */\n      dup2\n        /* \"#utility.yul\":3029:3039   */\n      dup2\n        /* \"#utility.yul\":3026:3048   */\n      lt\n        /* \"#utility.yul\":3005:3023   */\n      0xffffffffffffffff\n        /* \"#utility.yul\":2993:3003   */\n      dup3\n        /* \"#utility.yul\":2990:3024   */\n      gt\n        /* \"#utility.yul\":2987:3049   */\n      or\n        /* \"#utility.yul\":2984:2986   */\n      iszero\n      tag_115\n      jumpi\n        /* \"#utility.yul\":3052:3070   */\n      tag_116\n      tag_117\n      jump\t// in\n    tag_116:\n        /* \"#utility.yul\":2984:2986   */\n    tag_115:\n        /* \"#utility.yul\":3092:3102   */\n      dup1\n        /* \"#utility.yul\":3088:3090   */\n      0x40\n        /* \"#utility.yul\":3081:3103   */\n      mstore\n        /* \"#utility.yul\":2866:3109   */\n      pop\n      swap2\n      swap1\n      pop\n      jump\t// out\n        /* \"#utility.yul\":3115:3447   */\n    tag_70:\n      0x00\n        /* \"#utility.yul\":3267:3285   */\n      0xffffffffffffffff\n        /* \"#utility.yul\":3259:3265   */\n      dup3\n        /* \"#utility.yul\":3256:3286   */\n      gt\n        /* \"#utility.yul\":3253:3255   */\n      iszero\n      tag_119\n      jumpi\n        /* \"#utility.yul\":3289:3307   */\n      tag_120\n      tag_117\n      jump\t// in\n    tag_120:\n        /* \"#utility.yul\":3253:3255   */\n    tag_119:\n        /* \"#utility.yul\":3374:3378   */\n      0x1f\n        /* \"#utility.yul\":3370:3379   */\n      not\n        /* \"#utility.yul\":3363:3367   */\n      0x1f\n        /* \"#utility.yul\":3355:3361   */\n      dup4\n        /* \"#utility.yul\":3351:3368   */\n      add\n        /* \"#utility.yul\":3347:3380   */\n      and\n        /* \"#utility.yul\":3339:3380   */\n      swap1\n      pop\n        /* \"#utility.yul\":3435:3439   */\n      0x20\n        /* \"#utility.yul\":3429:3433   */\n      dup2\n        /* \"#utility.yul\":3425:3440   */\n      add\n        /* \"#utility.yul\":3417:3440   */\n      swap1\n      pop\n        /* \"#utility.yul\":3182:3447   */\n      swap2\n      swap1\n      pop\n      jump\t// out\n        /* \"#utility.yul\":3453:3552   */\n    tag_101:\n      0x00\n        /* \"#utility.yul\":3539:3544   */\n      dup2\n        /* \"#utility.yul\":3533:3545   */\n      mload\n        /* \"#utility.yul\":3523:3545   */\n      swap1\n      pop\n        /* \"#utility.yul\":3512:3552   */\n      swap2\n      swap1\n      pop\n      jump\t// out\n        /* \"#utility.yul\":3558:3727   */\n    tag_103:\n      0x00\n        /* \"#utility.yul\":3676:3682   */\n      dup3\n        /* \"#utility.yul\":3671:3674   */\n      dup3\n        /* \"#utility.yul\":3664:3683   */\n      mstore\n        /* \"#utility.yul\":3716:3720   */\n      0x20\n        /* \"#utility.yul\":3711:3714   */\n      dup3\n        /* \"#utility.yul\":3707:3721   */\n      add\n        /* \"#utility.yul\":3692:3721   */\n      swap1\n      pop\n        /* \"#utility.yul\":3654:3727   */\n      swap3\n      swap2\n      pop\n      pop\n      jump\t// out\n        /* \"#utility.yul\":3733:4724   */\n    tag_43:\n      0x00\n        /* \"#utility.yul\":3795:3814   */\n      tag_124\n        /* \"#utility.yul\":3812:3813   */\n      dup3\n        /* \"#utility.yul\":3795:3814   */\n      tag_97\n      jump\t// in\n    tag_124:\n        /* \"#utility.yul\":3790:3814   */\n      swap2\n      pop\n        /* \"#utility.yul\":3828:3847   */\n      tag_125\n        /* \"#utility.yul\":3845:3846   */\n      dup4\n        /* \"#utility.yul\":3828:3847   */\n      tag_97\n      jump\t// in\n    tag_125:\n        /* \"#utility.yul\":3823:3847   */\n      swap3\n      pop\n        /* \"#utility.yul\":4029:4030   */\n      dup3\n        /* \"#utility.yul\":3961:4027   */\n      0x7fffffffffffffffffffffffffffffffffffffffffffffffffffffffffffffff\n        /* \"#utility.yul\":3957:4031   */\n      div\n        /* \"#utility.yul\":3954:3955   */\n      dup3\n        /* \"#utility.yul\":3951:4032   */\n      gt\n        /* \"#utility.yul\":3946:3947   */\n      0x00\n        /* \"#utility.yul\":3943:3944   */\n      dup5\n        /* \"#utility.yul\":3939:3948   */\n      sgt\n        /* \"#utility.yul\":3935:3936   */\n      0x00\n        /* \"#utility.yul\":3932:3933   */\n      dup5\n        /* \"#utility.yul\":3928:3937   */\n      sgt\n        /* \"#utility.yul\":3924:3949   */\n      and\n        /* \"#utility.yul\":3920:4033   */\n      and\n        /* \"#utility.yul\":3917:3919   */\n      iszero\n      tag_126\n      jumpi\n        /* \"#utility.yul\":4036:4054   */\n      tag_127\n      tag_128\n      jump\t// in\n    tag_127:\n        /* \"#utility.yul\":3917:3919   */\n    tag_126:\n        /* \"#utility.yul\":4240:4241   */\n      dup2\n        /* \"#utility.yul\":4172:4238   */\n      0x8000000000000000000000000000000000000000000000000000000000000000\n        /* \"#utility.yul\":4167:4242   */\n      sdiv\n        /* \"#utility.yul\":4164:4165   */\n      dup4\n        /* \"#utility.yul\":4160:4243   */\n      slt\n        /* \"#utility.yul\":4155:4156   */\n      0x00\n        /* \"#utility.yul\":4152:4153   */\n      dup5\n        /* \"#utility.yul\":4148:4157   */\n      slt\n        /* \"#utility.yul\":4144:4145   */\n      0x00\n        /* \"#utility.yul\":4141:4142   */\n      dup5\n        /* \"#utility.yul\":4137:4146   */\n      sgt\n        /* \"#utility.yul\":4133:4158   */\n      and\n        /* \"#utility.yul\":4129:4244   */\n      and\n        /* \"#utility.yul\":4126:4128   */\n      iszero\n      tag_129\n      jumpi\n        /* \"#utility.yul\":4247:4265   */\n      tag_130\n      tag_128\n      jump\t// in\n    tag_130:\n        /* \"#utility.yul\":4126:4128   */\n    tag_129:\n        /* \"#utility.yul\":4451:4452   */\n      dup3\n        /* \"#utility.yul\":4383:4449   */\n      0x8000000000000000000000000000000000000000000000000000000000000000\n        /* \"#utility.yul\":4378:4453   */\n      sdiv\n        /* \"#utility.yul\":4375:4376   */\n      dup3\n        /* \"#utility.yul\":4371:4454   */\n      slt\n        /* \"#utility.yul\":4366:4367   */\n      0x00\n        /* \"#utility.yul\":4363:4364   */\n      dup5\n        /* \"#utility.yul\":4359:4368   */\n      sgt\n        /* \"#utility.yul\":4355:4356   */\n      0x00\n        /* \"#utility.yul\":4352:4353   */\n      dup5\n        /* \"#utility.yul\":4348:4357   */\n      slt\n        /* \"#utility.yul\":4344:4369   */\n      and\n        /* \"#utility.yul\":4340:4455   */\n      and\n        /* \"#utility.yul\":4337:4339   */\n      iszero\n      tag_131\n      jumpi\n        /* \"#utility.yul\":4458:4476   */\n      tag_132\n      tag_128\n      jump\t// in\n    tag_132:\n        /* \"#utility.yul\":4337:4339   */\n    tag_131:\n        /* \"#utility.yul\":4661:4662   */\n      dup3\n        /* \"#utility.yul\":4593:4659   */\n      0x7fffffffffffffffffffffffffffffffffffffffffffffffffffffffffffffff\n        /* \"#utility.yul\":4588:4663   */\n      sdiv\n        /* \"#utility.yul\":4585:4586   */\n      dup3\n        /* \"#utility.yul\":4581:4664   */\n      slt\n        /* \"#utility.yul\":4576:4577   */\n      0x00\n        /* \"#utility.yul\":4573:4574   */\n      dup5\n        /* \"#utility.yul\":4569:4578   */\n      slt\n        /* \"#utility.yul\":4565:4566   */\n      0x00\n        /* \"#utility.yul\":4562:4563   */\n      dup5\n        /* \"#utility.yul\":4558:4567   */\n      slt\n        /* \"#utility.yul\":4554:4579   */\n      and\n        /* \"#utility.yul\":4550:4665   */\n      and\n        /* \"#utility.yul\":4547:4549   */\n      iszero\n      tag_133\n      jumpi\n        /* \"#utility.yul\":4668:4686   */\n      tag_134\n      tag_128\n      jump\t// in\n    tag_134:\n        /* \"#utility.yul\":4547:4549   */\n    tag_133:\n        /* \"#utility.yul\":4716:4717   */\n      dup3\n        /* \"#utility.yul\":4713:4714   */\n      dup3\n        /* \"#utility.yul\":4709:4718   */\n      mul\n        /* \"#utility.yul\":4698:4718   */\n      swap1\n      pop\n        /* \"#utility.yul\":3780:4724   */\n      swap3\n      swap2\n      pop\n      pop\n      jump\t// out\n        /* \"#utility.yul\":4730:4826   */\n    tag_93:\n      0x00\n        /* \"#utility.yul\":4796:4820   */\n      tag_136\n        /* \"#utility.yul\":4814:4819   */\n      dup3\n        /* \"#utility.yul\":4796:4820   */\n      tag_137\n      jump\t// in\n    tag_136:\n        /* \"#utility.yul\":4785:4820   */\n      swap1\n      pop\n        /* \"#utility.yul\":4775:4826   */\n      swap2\n      swap1\n      pop\n      jump\t// out\n        /* \"#utility.yul\":4832:4908   */\n    tag_97:\n      0x00\n        /* \"#utility.yul\":4897:4902   */\n      dup2\n        /* \"#utility.yul\":4886:4902   */\n      swap1\n      pop\n        /* \"#utility.yul\":4876:4908   */\n      swap2\n      swap1\n      pop\n      jump\t// out\n        /* \"#utility.yul\":4914:5040   */\n    tag_137:\n      0x00\n        /* \"#utility.yul\":4991:5033   */\n      0xffffffffffffffffffffffffffffffffffffffff\n        /* \"#utility.yul\":4984:4989   */\n      dup3\n        /* \"#utility.yul\":4980:5034   */\n      and\n        /* \"#utility.yul\":4969:5034   */\n      swap1\n      pop\n        /* \"#utility.yul\":4959:5040   */\n      swap2\n      swap1\n      pop\n      jump\t// out\n        /* \"#utility.yul\":5046:5200   */\n    tag_74:\n        /* \"#utility.yul\":5130:5136   */\n      dup3\n        /* \"#utility.yul\":5125:5128   */\n      dup2\n        /* \"#utility.yul\":5120:5123   */\n      dup4\n        /* \"#utility.yul\":5107:5137   */\n      calldatacopy\n        /* \"#utility.yul\":5192:5193   */\n      0x00\n        /* \"#utility.yul\":5183:5189   */\n      dup4\n        /* \"#utility.yul\":5178:5181   */\n      dup4\n        /* \"#utility.yul\":5174:5190   */\n      add\n        /* \"#utility.yul\":5167:5194   */\n      mstore\n        /* \"#utility.yul\":5097:5200   */\n      pop\n      pop\n      pop\n      jump\t// out\n        /* \"#utility.yul\":5206:5513   */\n    tag_105:\n        /* \"#utility.yul\":5274:5275   */\n      0x00\n        /* \"#utility.yul\":5284:5397   */\n    tag_142:\n        /* \"#utility.yul\":5298:5304   */\n      dup4\n        /* \"#utility.yul\":5295:5296   */\n      dup2\n        /* \"#utility.yul\":5292:5305   */\n      lt\n        /* \"#utility.yul\":5284:5397   */\n      iszero\n      tag_144\n      jumpi\n        /* \"#utility.yul\":5383:5384   */\n      dup1\n        /* \"#utility.yul\":5378:5381   */\n      dup3\n        /* \"#utility.yul\":5374:5385   */\n      add\n        /* \"#utility.yul\":5368:5386   */\n      mload\n        /* \"#utility.yul\":5364:5365   */\n      dup2\n        /* \"#utility.yul\":5359:5362   */\n      dup5\n        /* \"#utility.yul\":5355:5366   */\n      add\n        /* \"#utility.yul\":5348:5387   */\n      mstore\n        /* \"#utility.yul\":5320:5322   */\n      0x20\n        /* \"#utility.yul\":5317:5318   */\n      dup2\n        /* \"#utility.yul\":5313:5323   */\n      add\n        /* \"#utility.yul\":5308:5323   */\n      swap1\n      pop\n        /* \"#utility.yul\":5284:5397   */\n      jump(tag_142)\n    tag_144:\n        /* \"#utility.yul\":5415:5421   */\n      dup4\n        /* \"#utility.yul\":5412:5413   */\n      dup2\n        /* \"#utility.yul\":5409:5422   */\n      gt\n        /* \"#utility.yul\":5406:5408   */\n      iszero\n      tag_145\n      jumpi\n        /* \"#utility.yul\":5495:5496   */\n      0x00\n        /* \"#utility.yul\":5486:5492   */\n      dup5\n        /* \"#utility.yul\":5481:5484   */\n      dup5\n        /* \"#utility.yul\":5477:5493   */\n      add\n        /* \"#utility.yul\":5470:5497   */\n      mstore\n        /* \"#utility.yul\":5406:5408   */\n    tag_145:\n        /* \"#utility.yul\":5255:5513   */\n      pop\n      pop\n      pop\n      pop\n      jump\t// out\n        /* \"#utility.yul\":5519:5839   */\n    tag_48:\n      0x00\n        /* \"#utility.yul\":5600:5601   */\n      0x02\n        /* \"#utility.yul\":5594:5598   */\n      dup3\n        /* \"#utility.yul\":5590:5602   */\n      div\n        /* \"#utility.yul\":5580:5602   */\n      swap1\n      pop\n        /* \"#utility.yul\":5647:5648   */\n      0x01\n        /* \"#utility.yul\":5641:5645   */\n      dup3\n        /* \"#utility.yul\":5637:5649   */\n      and\n        /* \"#utility.yul\":5668:5686   */\n      dup1\n        /* \"#utility.yul\":5658:5660   */\n      tag_147\n      jumpi\n        /* \"#utility.yul\":5724:5728   */\n      0x7f\n        /* \"#utility.yul\":5716:5722   */\n      dup3\n        /* \"#utility.yul\":5712:5729   */\n      and\n        /* \"#utility.yul\":5702:5729   */\n      swap2\n      pop\n        /* \"#utility.yul\":5658:5660   */\n    tag_147:\n        /* \"#utility.yul\":5786:5788   */\n      0x20\n        /* \"#utility.yul\":5778:5784   */\n      dup3\n        /* \"#utility.yul\":5775:5789   */\n      lt\n        /* \"#utility.yul\":5755:5773   */\n      dup2\n        /* \"#utility.yul\":5752:5790   */\n      eq\n        /* \"#utility.yul\":5749:5751   */\n      iszero\n      tag_148\n      jumpi\n        /* \"#utility.yul\":5805:5823   */\n      tag_149\n      tag_150\n      jump\t// in\n    tag_149:\n        /* \"#utility.yul\":5749:5751   */\n    tag_148:\n        /* \"#utility.yul\":5570:5839   */\n      pop\n      swap2\n      swap1\n      pop\n      jump\t// out\n        /* \"#utility.yul\":5845:6025   */\n    tag_128:\n        /* \"#utility.yul\":5893:5970   */\n      0x4e487b7100000000000000000000000000000000000000000000000000000000\n        /* \"#utility.yul\":5890:5891   */\n      0x00\n        /* \"#utility.yul\":5883:5971   */\n      mstore\n        /* \"#utility.yul\":5990:5994   */\n      0x11\n        /* \"#utility.yul\":5987:5988   */\n      0x04\n        /* \"#utility.yul\":5980:5995   */\n      mstore\n        /* \"#utility.yul\":6014:6018   */\n      0x24\n        /* \"#utility.yul\":6011:6012   */\n      0x00\n        /* \"#utility.yul\":6004:6019   */\n      revert\n        /* \"#utility.yul\":6031:6211   */\n    tag_150:\n        /* \"#utility.yul\":6079:6156   */\n      0x4e487b7100000000000000000000000000000000000000000000000000000000\n        /* \"#utility.yul\":6076:6077   */\n      0x00\n        /* \"#utility.yul\":6069:6157   */\n      mstore\n        /* \"#utility.yul\":6176:6180   */\n      0x22\n        /* \"#utility.yul\":6173:6174   */\n      0x04\n        /* \"#utility.yul\":6166:6181   */\n      mstore\n        /* \"#utility.yul\":6200:6204   */\n      0x24\n        /* \"#utility.yul\":6197:6198   */\n      0x00\n        /* \"#utility.yul\":6190:6205   */\n      revert\n        /* \"#utility.yul\":6217:6397   */\n    tag_117:\n        /* \"#utility.yul\":6265:6342   */\n      0x4e487b7100000000000000000000000000000000000000000000000000000000\n        /* \"#utility.yul\":6262:6263   */\n      0x00\n        /* \"#utility.yul\":6255:6343   */\n      mstore\n        /* \"#utility.yul\":6362:6366   */\n      0x41\n        /* \"#utility.yul\":6359:6360   */\n      0x04\n        /* \"#utility.yul\":6352:6367   */\n      mstore\n        /* \"#utility.yul\":6386:6390   */\n      0x24\n        /* \"#utility.yul\":6383:6384   */\n      0x00\n        /* \"#utility.yul\":6376:6391   */\n      revert\n        /* \"#utility.yul\":6403:6505   */\n    tag_107:\n      0x00\n        /* \"#utility.yul\":6495:6497   */\n      0x1f\n        /* \"#utility.yul\":6491:6498   */\n      not\n        /* \"#utility.yul\":6486:6488   */\n      0x1f\n        /* \"#utility.yul\":6479:6484   */\n      dup4\n        /* \"#utility.yul\":6475:6489   */\n      add\n        /* \"#utility.yul\":6471:6499   */\n      and\n        /* \"#utility.yul\":6461:6499   */\n      swap1\n      pop\n        /* \"#utility.yul\":6451:6505   */\n      swap2\n      swap1\n      pop\n      jump\t// out\n        /* \"#utility.yul\":6511:6631   */\n    tag_78:\n        /* \"#utility.yul\":6583:6606   */\n      tag_156\n        /* \"#utility.yul\":6600:6605   */\n      dup2\n        /* \"#utility.yul\":6583:6606   */\n      tag_97\n      jump\t// in\n    tag_156:\n        /* \"#utility.yul\":6576:6581   */\n      dup2\n        /* \"#utility.yul\":6573:6607   */\n      eq\n        /* \"#utility.yul\":6563:6565   */\n      tag_157\n      jumpi\n        /* \"#utility.yul\":6621:6622   */\n      0x00\n        /* \"#utility.yul\":6618:6619   */\n      dup1\n        /* \"#utility.yul\":6611:6623   */\n      revert\n        /* \"#utility.yul\":6563:6565   */\n    tag_157:\n        /* \"#utility.yul\":6553:6631   */\n      pop\n      jump\t// out\n\n    auxdata: 0xa264697066735822122010380a086ba5541f8c3c14b972d9297330b3edb961ecb58374343ec6f794826464736f6c63430008000033\n}\n",
				"bytecode": {
					"linkReferences": {},
					"object": "60a0604052600a6000556040518060400160405280600581526020017f44617669640000000000000000000000000000000000000000000000000000008152506001908051906020019062000056929190620000e9565b503480156200006457600080fd5b5060405162000c1438038062000c1483398181016040528101906200008a919062000222565b816002819055508060019080519060200190620000a9929190620000e9565b503373ffffffffffffffffffffffffffffffffffffffff1660808173ffffffffffffffffffffffffffffffffffffffff1660601b815250505050620003d1565b828054620000f79062000323565b90600052602060002090601f0160209004810192826200011b576000855562000167565b82601f106200013657805160ff191683800117855562000167565b8280016001018555821562000167579182015b828111156200016657825182559160200191906001019062000149565b5b5090506200017691906200017a565b5090565b5b80821115620001955760008160009055506001016200017b565b5090565b6000620001b0620001aa84620002b0565b6200027c565b905082815260208101848484011115620001c957600080fd5b620001d6848285620002ed565b509392505050565b600081519050620001ef81620003b7565b92915050565b600082601f8301126200020757600080fd5b81516200021984826020860162000199565b91505092915050565b600080604083850312156200023657600080fd5b60006200024685828601620001de565b925050602083015167ffffffffffffffff8111156200026457600080fd5b6200027285828601620001f5565b9150509250929050565b6000604051905081810181811067ffffffffffffffff82111715620002a657620002a562000388565b5b8060405250919050565b600067ffffffffffffffff821115620002ce57620002cd62000388565b5b601f19601f8301169050602081019050919050565b6000819050919050565b60005b838110156200030d578082015181840152602081019050620002f0565b838111156200031d576000848401525b50505050565b600060028204905060018216806200033c57607f821691505b6020821081141562000353576200035262000359565b5b50919050565b7f4e487b7100000000000000000000000000000000000000000000000000000000600052602260045260246000fd5b7f4e487b7100000000000000000000000000000000000000000000000000000000600052604160045260246000fd5b620003c281620002e3565b8114620003ce57600080fd5b50565b60805160601c610824620003f0600039600061028701526108246000f3fe608060405234801561001057600080fd5b50600436106100885760003560e01c80634f8632ba1161005b5780634f8632ba14610103578063521eb2731461012157806369bd01c41461013f5780639aa4a7381461015d57610088565b8063078908921461008d5780632c6dbb1c146100ab5780633fa4f245146100c95780634ce077bc146100e7575b600080fd5b610095610179565b6040516100a291906104b8565b60405180910390f35b6100b361017f565b6040516100c091906104b8565b60405180910390f35b6100d16101d7565b6040516100de91906104b8565b60405180910390f35b61010160048036038101906100fc9190610405565b6101dd565b005b61010b6101f7565b60405161011891906104d3565b60405180910390f35b610129610285565b604051610136919061049d565b60405180910390f35b6101476102a9565b60405161015491906104b8565b60405180910390f35b610177600480360381019061017291906103dc565b6102b2565b005b60025481565b600080600590506004816101939190610572565b905060006040518060400160405280600681526020017f5475616d696500000000000000000000000000000000000000000000000000008152509050819250505090565b60005481565b80600190805190602001906101f39291906102bc565b5050565b6001805461020490610707565b80601f016020809104026020016040519081016040528092919081815260200182805461023090610707565b801561027d5780601f106102525761010080835404028352916020019161027d565b820191906000526020600020905b81548152906001019060200180831161026057829003601f168201915b505050505081565b7f000000000000000000000000000000000000000000000000000000000000000081565b60008054905090565b8060008190555050565b8280546102c890610707565b90600052602060002090601f0160209004810192826102ea5760008555610331565b82601f1061030357805160ff1916838001178555610331565b82800160010185558215610331579182015b82811115610330578251825591602001919060010190610315565b5b50905061033e9190610342565b5090565b5b8082111561035b576000816000905550600101610343565b5090565b600061037261036d84610526565b6104f5565b90508281526020810184848401111561038a57600080fd5b6103958482856106c5565b509392505050565b6000813590506103ac816107d7565b92915050565b600082601f8301126103c357600080fd5b81356103d384826020860161035f565b91505092915050565b6000602082840312156103ee57600080fd5b60006103fc8482850161039d565b91505092915050565b60006020828403121561041757600080fd5b600082013567ffffffffffffffff81111561043157600080fd5b61043d848285016103b2565b91505092915050565b61044f81610689565b82525050565b61045e8161069b565b82525050565b600061046f82610556565b6104798185610561565b93506104898185602086016106d4565b610492816107c6565b840191505092915050565b60006020820190506104b26000830184610446565b92915050565b60006020820190506104cd6000830184610455565b92915050565b600060208201905081810360008301526104ed8184610464565b905092915050565b6000604051905081810181811067ffffffffffffffff8211171561051c5761051b610797565b5b8060405250919050565b600067ffffffffffffffff82111561054157610540610797565b5b601f19601f8301169050602081019050919050565b600081519050919050565b600082825260208201905092915050565b600061057d8261069b565b91506105888361069b565b9250827f7fffffffffffffffffffffffffffffffffffffffffffffffffffffffffffffff04821160008413600084131616156105c7576105c6610739565b5b817f8000000000000000000000000000000000000000000000000000000000000000058312600084126000841316161561060457610603610739565b5b827f8000000000000000000000000000000000000000000000000000000000000000058212600084136000841216161561064157610640610739565b5b827f7fffffffffffffffffffffffffffffffffffffffffffffffffffffffffffffff058212600084126000841216161561067e5761067d610739565b5b828202905092915050565b6000610694826106a5565b9050919050565b6000819050919050565b600073ffffffffffffffffffffffffffffffffffffffff82169050919050565b82818337600083830152505050565b60005b838110156106f25780820151818401526020810190506106d7565b83811115610701576000848401525b50505050565b6000600282049050600182168061071f57607f821691505b6020821081141561073357610732610768565b5b50919050565b7f4e487b7100000000000000000000000000000000000000000000000000000000600052601160045260246000fd5b7f4e487b7100000000000000000000000000000000000000000000000000000000600052602260045260246000fd5b7f4e487b7100000000000000000000000000000000000000000000000000000000600052604160045260246000fd5b6000601f19601f8301169050919050565b6107e08161069b565b81146107eb57600080fd5b5056fea264697066735822122010380a086ba5541f8c3c14b972d9297330b3edb961ecb58374343ec6f794826464736f6c63430008000033",
					"opcodes": "PUSH1 0xA0 PUSH1 0x40 MSTORE PUSH1 0xA PUSH1 0x0 SSTORE PUSH1 0x40 MLOAD DUP1 PUSH1 0x40 ADD PUSH1 0x40 MSTORE DUP1 PUSH1 0x5 DUP2 MSTORE PUSH1 0x20 ADD PUSH32 0x4461766964000000000000000000000000000000000000000000000000000000 DUP2 MSTORE POP PUSH1 0x1 SWAP1 DUP1 MLOAD SWAP1 PUSH1 0x20 ADD SWAP1 PUSH3 0x56 SWAP3 SWAP2 SWAP1 PUSH3 0xE9 JUMP JUMPDEST POP CALLVALUE DUP1 ISZERO PUSH3 0x64 JUMPI PUSH1 0x0 DUP1 REVERT JUMPDEST POP PUSH1 0x40 MLOAD PUSH3 0xC14 CODESIZE SUB DUP1 PUSH3 0xC14 DUP4 CODECOPY DUP2 DUP2 ADD PUSH1 0x40 MSTORE DUP2 ADD SWAP1 PUSH3 0x8A SWAP2 SWAP1 PUSH3 0x222 JUMP JUMPDEST DUP2 PUSH1 0x2 DUP2 SWAP1 SSTORE POP DUP1 PUSH1 0x1 SWAP1 DUP1 MLOAD SWAP1 PUSH1 0x20 ADD SWAP1 PUSH3 0xA9 SWAP3 SWAP2 SWAP1 PUSH3 0xE9 JUMP JUMPDEST POP CALLER PUSH20 0xFFFFFFFFFFFFFFFFFFFFFFFFFFFFFFFFFFFFFFFF AND PUSH1 0x80 DUP2 PUSH20 0xFFFFFFFFFFFFFFFFFFFFFFFFFFFFFFFFFFFFFFFF AND PUSH1 0x60 SHL DUP2 MSTORE POP POP POP POP PUSH3 0x3D1 JUMP JUMPDEST DUP3 DUP1 SLOAD PUSH3 0xF7 SWAP1 PUSH3 0x323 JUMP JUMPDEST SWAP1 PUSH1 0x0 MSTORE PUSH1 0x20 PUSH1 0x0 KECCAK256 SWAP1 PUSH1 0x1F ADD PUSH1 0x20 SWAP1 DIV DUP2 ADD SWAP3 DUP3 PUSH3 0x11B JUMPI PUSH1 0x0 DUP6 SSTORE PUSH3 0x167 JUMP JUMPDEST DUP3 PUSH1 0x1F LT PUSH3 0x136 JUMPI DUP1 MLOAD PUSH1 0xFF NOT AND DUP4 DUP1 ADD OR DUP6 SSTORE PUSH3 0x167 JUMP JUMPDEST DUP3 DUP1 ADD PUSH1 0x1 ADD DUP6 SSTORE DUP3 ISZERO PUSH3 0x167 JUMPI SWAP2 DUP3 ADD JUMPDEST DUP3 DUP2 GT ISZERO PUSH3 0x166 JUMPI DUP3 MLOAD DUP3 SSTORE SWAP2 PUSH1 0x20 ADD SWAP2 SWAP1 PUSH1 0x1 ADD SWAP1 PUSH3 0x149 JUMP JUMPDEST JUMPDEST POP SWAP1 POP PUSH3 0x176 SWAP2 SWAP1 PUSH3 0x17A JUMP JUMPDEST POP SWAP1 JUMP JUMPDEST JUMPDEST DUP1 DUP3 GT ISZERO PUSH3 0x195 JUMPI PUSH1 0x0 DUP2 PUSH1 0x0 SWAP1 SSTORE POP PUSH1 0x1 ADD PUSH3 0x17B JUMP JUMPDEST POP SWAP1 JUMP JUMPDEST PUSH1 0x0 PUSH3 0x1B0 PUSH3 0x1AA DUP5 PUSH3 0x2B0 JUMP JUMPDEST PUSH3 0x27C JUMP JUMPDEST SWAP1 POP DUP3 DUP2 MSTORE PUSH1 0x20 DUP2 ADD DUP5 DUP5 DUP5 ADD GT ISZERO PUSH3 0x1C9 JUMPI PUSH1 0x0 DUP1 REVERT JUMPDEST PUSH3 0x1D6 DUP5 DUP3 DUP6 PUSH3 0x2ED JUMP JUMPDEST POP SWAP4 SWAP3 POP POP POP JUMP JUMPDEST PUSH1 0x0 DUP2 MLOAD SWAP1 POP PUSH3 0x1EF DUP2 PUSH3 0x3B7 JUMP JUMPDEST SWAP3 SWAP2 POP POP JUMP JUMPDEST PUSH1 0x0 DUP3 PUSH1 0x1F DUP4 ADD SLT PUSH3 0x207 JUMPI PUSH1 0x0 DUP1 REVERT JUMPDEST DUP2 MLOAD PUSH3 0x219 DUP5 DUP3 PUSH1 0x20 DUP7 ADD PUSH3 0x199 JUMP JUMPDEST SWAP2 POP POP SWAP3 SWAP2 POP POP JUMP JUMPDEST PUSH1 0x0 DUP1 PUSH1 0x40 DUP4 DUP6 SUB SLT ISZERO PUSH3 0x236 JUMPI PUSH1 0x0 DUP1 REVERT JUMPDEST PUSH1 0x0 PUSH3 0x246 DUP6 DUP3 DUP7 ADD PUSH3 0x1DE JUMP JUMPDEST SWAP3 POP POP PUSH1 0x20 DUP4 ADD MLOAD PUSH8 0xFFFFFFFFFFFFFFFF DUP2 GT ISZERO PUSH3 0x264 JUMPI PUSH1 0x0 DUP1 REVERT JUMPDEST PUSH3 0x272 DUP6 DUP3 DUP7 ADD PUSH3 0x1F5 JUMP JUMPDEST SWAP2 POP POP SWAP3 POP SWAP3 SWAP1 POP JUMP JUMPDEST PUSH1 0x0 PUSH1 0x40 MLOAD SWAP1 POP DUP2 DUP2 ADD DUP2 DUP2 LT PUSH8 0xFFFFFFFFFFFFFFFF DUP3 GT OR ISZERO PUSH3 0x2A6 JUMPI PUSH3 0x2A5 PUSH3 0x388 JUMP JUMPDEST JUMPDEST DUP1 PUSH1 0x40 MSTORE POP SWAP2 SWAP1 POP JUMP JUMPDEST PUSH1 0x0 PUSH8 0xFFFFFFFFFFFFFFFF DUP3 GT ISZERO PUSH3 0x2CE JUMPI PUSH3 0x2CD PUSH3 0x388 JUMP JUMPDEST JUMPDEST PUSH1 0x1F NOT PUSH1 0x1F DUP4 ADD AND SWAP1 POP PUSH1 0x20 DUP2 ADD SWAP1 POP SWAP2 SWAP1 POP JUMP JUMPDEST PUSH1 0x0 DUP2 SWAP1 POP SWAP2 SWAP1 POP JUMP JUMPDEST PUSH1 0x0 JUMPDEST DUP4 DUP2 LT ISZERO PUSH3 0x30D JUMPI DUP1 DUP3 ADD MLOAD DUP2 DUP5 ADD MSTORE PUSH1 0x20 DUP2 ADD SWAP1 POP PUSH3 0x2F0 JUMP JUMPDEST DUP4 DUP2 GT ISZERO PUSH3 0x31D JUMPI PUSH1 0x0 DUP5 DUP5 ADD MSTORE JUMPDEST POP POP POP POP JUMP JUMPDEST PUSH1 0x0 PUSH1 0x2 DUP3 DIV SWAP1 POP PUSH1 0x1 DUP3 AND DUP1 PUSH3 0x33C JUMPI PUSH1 0x7F DUP3 AND SWAP2 POP JUMPDEST PUSH1 0x20 DUP3 LT DUP2 EQ ISZERO PUSH3 0x353 JUMPI PUSH3 0x352 PUSH3 0x359 JUMP JUMPDEST JUMPDEST POP SWAP2 SWAP1 POP JUMP JUMPDEST PUSH32 0x4E487B7100000000000000000000000000000000000000000000000000000000 PUSH1 0x0 MSTORE PUSH1 0x22 PUSH1 0x4 MSTORE PUSH1 0x24 PUSH1 0x0 REVERT JUMPDEST PUSH32 0x4E487B7100000000000000000000000000000000000000000000000000000000 PUSH1 0x0 MSTORE PUSH1 0x41 PUSH1 0x4 MSTORE PUSH1 0x24 PUSH1 0x0 REVERT JUMPDEST PUSH3 0x3C2 DUP2 PUSH3 0x2E3 JUMP JUMPDEST DUP2 EQ PUSH3 0x3CE JUMPI PUSH1 0x0 DUP1 REVERT JUMPDEST POP JUMP JUMPDEST PUSH1 0x80 MLOAD PUSH1 0x60 SHR PUSH2 0x824 PUSH3 0x3F0 PUSH1 0x0 CODECOPY PUSH1 0x0 PUSH2 0x287 ADD MSTORE PUSH2 0x824 PUSH1 0x0 RETURN INVALID PUSH1 0x80 PUSH1 0x40 MSTORE CALLVALUE DUP1 ISZERO PUSH2 0x10 JUMPI PUSH1 0x0 DUP1 REVERT JUMPDEST POP PUSH1 0x4 CALLDATASIZE LT PUSH2 0x88 JUMPI PUSH1 0x0 CALLDATALOAD PUSH1 0xE0 SHR DUP1 PUSH4 0x4F8632BA GT PUSH2 0x5B JUMPI DUP1 PUSH4 0x4F8632BA EQ PUSH2 0x103 JUMPI DUP1 PUSH4 0x521EB273 EQ PUSH2 0x121 JUMPI DUP1 PUSH4 0x69BD01C4 EQ PUSH2 0x13F JUMPI DUP1 PUSH4 0x9AA4A738 EQ PUSH2 0x15D JUMPI PUSH2 0x88 JUMP JUMPDEST DUP1 PUSH4 0x7890892 EQ PUSH2 0x8D JUMPI DUP1 PUSH4 0x2C6DBB1C EQ PUSH2 0xAB JUMPI DUP1 PUSH4 0x3FA4F245 EQ PUSH2 0xC9 JUMPI DUP1 PUSH4 0x4CE077BC EQ PUSH2 0xE7 JUMPI JUMPDEST PUSH1 0x0 DUP1 REVERT JUMPDEST PUSH2 0x95 PUSH2 0x179 JUMP JUMPDEST PUSH1 0x40 MLOAD PUSH2 0xA2 SWAP2 SWAP1 PUSH2 0x4B8 JUMP JUMPDEST PUSH1 0x40 MLOAD DUP1 SWAP2 SUB SWAP1 RETURN JUMPDEST PUSH2 0xB3 PUSH2 0x17F JUMP JUMPDEST PUSH1 0x40 MLOAD PUSH2 0xC0 SWAP2 SWAP1 PUSH2 0x4B8 JUMP JUMPDEST PUSH1 0x40 MLOAD DUP1 SWAP2 SUB SWAP1 RETURN JUMPDEST PUSH2 0xD1 PUSH2 0x1D7 JUMP JUMPDEST PUSH1 0x40 MLOAD PUSH2 0xDE SWAP2 SWAP1 PUSH2 0x4B8 JUMP JUMPDEST PUSH1 0x40 MLOAD DUP1 SWAP2 SUB SWAP1 RETURN JUMPDEST PUSH2 0x101 PUSH1 0x4 DUP1 CALLDATASIZE SUB DUP2 ADD SWAP1 PUSH2 0xFC SWAP2 SWAP1 PUSH2 0x405 JUMP JUMPDEST PUSH2 0x1DD JUMP JUMPDEST STOP JUMPDEST PUSH2 0x10B PUSH2 0x1F7 JUMP JUMPDEST PUSH1 0x40 MLOAD PUSH2 0x118 SWAP2 SWAP1 PUSH2 0x4D3 JUMP JUMPDEST PUSH1 0x40 MLOAD DUP1 SWAP2 SUB SWAP1 RETURN JUMPDEST PUSH2 0x129 PUSH2 0x285 JUMP JUMPDEST PUSH1 0x40 MLOAD PUSH2 0x136 SWAP2 SWAP1 PUSH2 0x49D JUMP JUMPDEST PUSH1 0x40 MLOAD DUP1 SWAP2 SUB SWAP1 RETURN JUMPDEST PUSH2 0x147 PUSH2 0x2A9 JUMP JUMPDEST PUSH1 0x40 MLOAD PUSH2 0x154 SWAP2 SWAP1 PUSH2 0x4B8 JUMP JUMPDEST PUSH1 0x40 MLOAD DUP1 SWAP2 SUB SWAP1 RETURN JUMPDEST PUSH2 0x177 PUSH1 0x4 DUP1 CALLDATASIZE SUB DUP2 ADD SWAP1 PUSH2 0x172 SWAP2 SWAP1 PUSH2 0x3DC JUMP JUMPDEST PUSH2 0x2B2 JUMP JUMPDEST STOP JUMPDEST PUSH1 0x2 SLOAD DUP2 JUMP JUMPDEST PUSH1 0x0 DUP1 PUSH1 0x5 SWAP1 POP PUSH1 0x4 DUP2 PUSH2 0x193 SWAP2 SWAP1 PUSH2 0x572 JUMP JUMPDEST SWAP1 POP PUSH1 0x0 PUSH1 0x40 MLOAD DUP1 PUSH1 0x40 ADD PUSH1 0x40 MSTORE DUP1 PUSH1 0x6 DUP2 MSTORE PUSH1 0x20 ADD PUSH32 0x5475616D69650000000000000000000000000000000000000000000000000000 DUP2 MSTORE POP SWAP1 POP DUP2 SWAP3 POP POP POP SWAP1 JUMP JUMPDEST PUSH1 0x0 SLOAD DUP2 JUMP JUMPDEST DUP1 PUSH1 0x1 SWAP1 DUP1 MLOAD SWAP1 PUSH1 0x20 ADD SWAP1 PUSH2 0x1F3 SWAP3 SWAP2 SWAP1 PUSH2 0x2BC JUMP JUMPDEST POP POP JUMP JUMPDEST PUSH1 0x1 DUP1 SLOAD PUSH2 0x204 SWAP1 PUSH2 0x707 JUMP JUMPDEST DUP1 PUSH1 0x1F ADD PUSH1 0x20 DUP1 SWAP2 DIV MUL PUSH1 0x20 ADD PUSH1 0x40 MLOAD SWAP1 DUP2 ADD PUSH1 0x40 MSTORE DUP1 SWAP3 SWAP2 SWAP1 DUP2 DUP2 MSTORE PUSH1 0x20 ADD DUP3 DUP1 SLOAD PUSH2 0x230 SWAP1 PUSH2 0x707 JUMP JUMPDEST DUP1 ISZERO PUSH2 0x27D JUMPI DUP1 PUSH1 0x1F LT PUSH2 0x252 JUMPI PUSH2 0x100 DUP1 DUP4 SLOAD DIV MUL DUP4 MSTORE SWAP2 PUSH1 0x20 ADD SWAP2 PUSH2 0x27D JUMP JUMPDEST DUP3 ADD SWAP2 SWAP1 PUSH1 0x0 MSTORE PUSH1 0x20 PUSH1 0x0 KECCAK256 SWAP1 JUMPDEST DUP2 SLOAD DUP2 MSTORE SWAP1 PUSH1 0x1 ADD SWAP1 PUSH1 0x20 ADD DUP1 DUP4 GT PUSH2 0x260 JUMPI DUP3 SWAP1 SUB PUSH1 0x1F AND DUP3 ADD SWAP2 JUMPDEST POP POP POP POP POP DUP2 JUMP JUMPDEST PUSH32 0x0 DUP2 JUMP JUMPDEST PUSH1 0x0 DUP1 SLOAD SWAP1 POP SWAP1 JUMP JUMPDEST DUP1 PUSH1 0x0 DUP2 SWAP1 SSTORE POP POP JUMP JUMPDEST DUP3 DUP1 SLOAD PUSH2 0x2C8 SWAP1 PUSH2 0x707 JUMP JUMPDEST SWAP1 PUSH1 0x0 MSTORE PUSH1 0x20 PUSH1 0x0 KECCAK256 SWAP1 PUSH1 0x1F ADD PUSH1 0x20 SWAP1 DIV DUP2 ADD SWAP3 DUP3 PUSH2 0x2EA JUMPI PUSH1 0x0 DUP6 SSTORE PUSH2 0x331 JUMP JUMPDEST DUP3 PUSH1 0x1F LT PUSH2 0x303 JUMPI DUP1 MLOAD PUSH1 0xFF NOT AND DUP4 DUP1 ADD OR DUP6 SSTORE PUSH2 0x331 JUMP JUMPDEST DUP3 DUP1 ADD PUSH1 0x1 ADD DUP6 SSTORE DUP3 ISZERO PUSH2 0x331 JUMPI SWAP2 DUP3 ADD JUMPDEST DUP3 DUP2 GT ISZERO PUSH2 0x330 JUMPI DUP3 MLOAD DUP3 SSTORE SWAP2 PUSH1 0x20 ADD SWAP2 SWAP1 PUSH1 0x1 ADD SWAP1 PUSH2 0x315 JUMP JUMPDEST JUMPDEST POP SWAP1 POP PUSH2 0x33E SWAP2 SWAP1 PUSH2 0x342 JUMP JUMPDEST POP SWAP1 JUMP JUMPDEST JUMPDEST DUP1 DUP3 GT ISZERO PUSH2 0x35B JUMPI PUSH1 0x0 DUP2 PUSH1 0x0 SWAP1 SSTORE POP PUSH1 0x1 ADD PUSH2 0x343 JUMP JUMPDEST POP SWAP1 JUMP JUMPDEST PUSH1 0x0 PUSH2 0x372 PUSH2 0x36D DUP5 PUSH2 0x526 JUMP JUMPDEST PUSH2 0x4F5 JUMP JUMPDEST SWAP1 POP DUP3 DUP2 MSTORE PUSH1 0x20 DUP2 ADD DUP5 DUP5 DUP5 ADD GT ISZERO PUSH2 0x38A JUMPI PUSH1 0x0 DUP1 REVERT JUMPDEST PUSH2 0x395 DUP5 DUP3 DUP6 PUSH2 0x6C5 JUMP JUMPDEST POP SWAP4 SWAP3 POP POP POP JUMP JUMPDEST PUSH1 0x0 DUP2 CALLDATALOAD SWAP1 POP PUSH2 0x3AC DUP2 PUSH2 0x7D7 JUMP JUMPDEST SWAP3 SWAP2 POP POP JUMP JUMPDEST PUSH1 0x0 DUP3 PUSH1 0x1F DUP4 ADD SLT PUSH2 0x3C3 JUMPI PUSH1 0x0 DUP1 REVERT JUMPDEST DUP2 CALLDATALOAD PUSH2 0x3D3 DUP5 DUP3 PUSH1 0x20 DUP7 ADD PUSH2 0x35F JUMP JUMPDEST SWAP2 POP POP SWAP3 SWAP2 POP POP JUMP JUMPDEST PUSH1 0x0 PUSH1 0x20 DUP3 DUP5 SUB SLT ISZERO PUSH2 0x3EE JUMPI PUSH1 0x0 DUP1 REVERT JUMPDEST PUSH1 0x0 PUSH2 0x3FC DUP5 DUP3 DUP6 ADD PUSH2 0x39D JUMP JUMPDEST SWAP2 POP POP SWAP3 SWAP2 POP POP JUMP JUMPDEST PUSH1 0x0 PUSH1 0x20 DUP3 DUP5 SUB SLT ISZERO PUSH2 0x417 JUMPI PUSH1 0x0 DUP1 REVERT JUMPDEST PUSH1 0x0 DUP3 ADD CALLDATALOAD PUSH8 0xFFFFFFFFFFFFFFFF DUP2 GT ISZERO PUSH2 0x431 JUMPI PUSH1 0x0 DUP1 REVERT JUMPDEST PUSH2 0x43D DUP5 DUP3 DUP6 ADD PUSH2 0x3B2 JUMP JUMPDEST SWAP2 POP POP SWAP3 SWAP2 POP POP JUMP JUMPDEST PUSH2 0x44F DUP2 PUSH2 0x689 JUMP JUMPDEST DUP3 MSTORE POP POP JUMP JUMPDEST PUSH2 0x45E DUP2 PUSH2 0x69B JUMP JUMPDEST DUP3 MSTORE POP POP JUMP JUMPDEST PUSH1 0x0 PUSH2 0x46F DUP3 PUSH2 0x556 JUMP JUMPDEST PUSH2 0x479 DUP2 DUP6 PUSH2 0x561 JUMP JUMPDEST SWAP4 POP PUSH2 0x489 DUP2 DUP6 PUSH1 0x20 DUP7 ADD PUSH2 0x6D4 JUMP JUMPDEST PUSH2 0x492 DUP2 PUSH2 0x7C6 JUMP JUMPDEST DUP5 ADD SWAP2 POP POP SWAP3 SWAP2 POP POP JUMP JUMPDEST PUSH1 0x0 PUSH1 0x20 DUP3 ADD SWAP1 POP PUSH2 0x4B2 PUSH1 0x0 DUP4 ADD DUP5 PUSH2 0x446 JUMP JUMPDEST SWAP3 SWAP2 POP POP JUMP JUMPDEST PUSH1 0x0 PUSH1 0x20 DUP3 ADD SWAP1 POP PUSH2 0x4CD PUSH1 0x0 DUP4 ADD DUP5 PUSH2 0x455 JUMP JUMPDEST SWAP3 SWAP2 POP POP JUMP JUMPDEST PUSH1 0x0 PUSH1 0x20 DUP3 ADD SWAP1 POP DUP2 DUP2 SUB PUSH1 0x0 DUP4 ADD MSTORE PUSH2 0x4ED DUP2 DUP5 PUSH2 0x464 JUMP JUMPDEST SWAP1 POP SWAP3 SWAP2 POP POP JUMP JUMPDEST PUSH1 0x0 PUSH1 0x40 MLOAD SWAP1 POP DUP2 DUP2 ADD DUP2 DUP2 LT PUSH8 0xFFFFFFFFFFFFFFFF DUP3 GT OR ISZERO PUSH2 0x51C JUMPI PUSH2 0x51B PUSH2 0x797 JUMP JUMPDEST JUMPDEST DUP1 PUSH1 0x40 MSTORE POP SWAP2 SWAP1 POP JUMP JUMPDEST PUSH1 0x0 PUSH8 0xFFFFFFFFFFFFFFFF DUP3 GT ISZERO PUSH2 0x541 JUMPI PUSH2 0x540 PUSH2 0x797 JUMP JUMPDEST JUMPDEST PUSH1 0x1F NOT PUSH1 0x1F DUP4 ADD AND SWAP1 POP PUSH1 0x20 DUP2 ADD SWAP1 POP SWAP2 SWAP1 POP JUMP JUMPDEST PUSH1 0x0 DUP2 MLOAD SWAP1 POP SWAP2 SWAP1 POP JUMP JUMPDEST PUSH1 0x0 DUP3 DUP3 MSTORE PUSH1 0x20 DUP3 ADD SWAP1 POP SWAP3 SWAP2 POP POP JUMP JUMPDEST PUSH1 0x0 PUSH2 0x57D DUP3 PUSH2 0x69B JUMP JUMPDEST SWAP2 POP PUSH2 0x588 DUP4 PUSH2 0x69B JUMP JUMPDEST SWAP3 POP DUP3 PUSH32 0x7FFFFFFFFFFFFFFFFFFFFFFFFFFFFFFFFFFFFFFFFFFFFFFFFFFFFFFFFFFFFFFF DIV DUP3 GT PUSH1 0x0 DUP5 SGT PUSH1 0x0 DUP5 SGT AND AND ISZERO PUSH2 0x5C7 JUMPI PUSH2 0x5C6 PUSH2 0x739 JUMP JUMPDEST JUMPDEST DUP2 PUSH32 0x8000000000000000000000000000000000000000000000000000000000000000 SDIV DUP4 SLT PUSH1 0x0 DUP5 SLT PUSH1 0x0 DUP5 SGT AND AND ISZERO PUSH2 0x604 JUMPI PUSH2 0x603 PUSH2 0x739 JUMP JUMPDEST JUMPDEST DUP3 PUSH32 0x8000000000000000000000000000000000000000000000000000000000000000 SDIV DUP3 SLT PUSH1 0x0 DUP5 SGT PUSH1 0x0 DUP5 SLT AND AND ISZERO PUSH2 0x641 JUMPI PUSH2 0x640 PUSH2 0x739 JUMP JUMPDEST JUMPDEST DUP3 PUSH32 0x7FFFFFFFFFFFFFFFFFFFFFFFFFFFFFFFFFFFFFFFFFFFFFFFFFFFFFFFFFFFFFFF SDIV DUP3 SLT PUSH1 0x0 DUP5 SLT PUSH1 0x0 DUP5 SLT AND AND ISZERO PUSH2 0x67E JUMPI PUSH2 0x67D PUSH2 0x739 JUMP JUMPDEST JUMPDEST DUP3 DUP3 MUL SWAP1 POP SWAP3 SWAP2 POP POP JUMP JUMPDEST PUSH1 0x0 PUSH2 0x694 DUP3 PUSH2 0x6A5 JUMP JUMPDEST SWAP1 POP SWAP2 SWAP1 POP JUMP JUMPDEST PUSH1 0x0 DUP2 SWAP1 POP SWAP2 SWAP1 POP JUMP JUMPDEST PUSH1 0x0 PUSH20 0xFFFFFFFFFFFFFFFFFFFFFFFFFFFFFFFFFFFFFFFF DUP3 AND SWAP1 POP SWAP2 SWAP1 POP JUMP JUMPDEST DUP3 DUP2 DUP4 CALLDATACOPY PUSH1 0x0 DUP4 DUP4 ADD MSTORE POP POP POP JUMP JUMPDEST PUSH1 0x0 JUMPDEST DUP4 DUP2 LT ISZERO PUSH2 0x6F2 JUMPI DUP1 DUP3 ADD MLOAD DUP2 DUP5 ADD MSTORE PUSH1 0x20 DUP2 ADD SWAP1 POP PUSH2 0x6D7 JUMP JUMPDEST DUP4 DUP2 GT ISZERO PUSH2 0x701 JUMPI PUSH1 0x0 DUP5 DUP5 ADD MSTORE JUMPDEST POP POP POP POP JUMP JUMPDEST PUSH1 0x0 PUSH1 0x2 DUP3 DIV SWAP1 POP PUSH1 0x1 DUP3 AND DUP1 PUSH2 0x71F JUMPI PUSH1 0x7F DUP3 AND SWAP2 POP JUMPDEST PUSH1 0x20 DUP3 LT DUP2 EQ ISZERO PUSH2 0x733 JUMPI PUSH2 0x732 PUSH2 0x768 JUMP JUMPDEST JUMPDEST POP SWAP2 SWAP1 POP JUMP JUMPDEST PUSH32 0x4E487B7100000000000000000000000000000000000000000000000000000000 PUSH1 0x0 MSTORE PUSH1 0x11 PUSH1 0x4 MSTORE PUSH1 0x24 PUSH1 0x0 REVERT JUMPDEST PUSH32 0x4E487B7100000000000000000000000000000000000000000000000000000000 PUSH1 0x0 MSTORE PUSH1 0x22 PUSH1 0x4 MSTORE PUSH1 0x24 PUSH1 0x0 REVERT JUMPDEST PUSH32 0x4E487B7100000000000000000000000000000000000000000000000000000000 PUSH1 0x0 MSTORE PUSH1 0x41 PUSH1 0x4 MSTORE PUSH1 0x24 PUSH1 0x0 REVERT JUMPDEST PUSH1 0x0 PUSH1 0x1F NOT PUSH1 0x1F DUP4 ADD AND SWAP1 POP SWAP2 SWAP1 POP JUMP JUMPDEST PUSH2 0x7E0 DUP2 PUSH2 0x69B JUMP JUMPDEST DUP2 EQ PUSH2 0x7EB JUMPI PUSH1 0x0 DUP1 REVERT JUMPDEST POP JUMP INVALID LOG2 PUSH5 0x6970667358 0x22 SLT KECCAK256 LT CODESIZE EXP ADDMOD PUSH12 0xA5541F8C3C14B972D9297330 0xB3 0xED 0xB9 PUSH2 0xECB5 DUP4 PUSH21 0x343EC6F794826464736F6C63430008000033000000 "
				},
				"gasEstimates": {
					"creation": {
						"codeDepositCost": "416800",
						"executionCost": "infinite",
						"totalCost": "infinite"
					},
					"external": {
						"Change(int256)": "20486",
						"changeuser(string)": "infinite",
						"getvalue()": "1181",
						"lifeline()": "1130",
						"star()": "infinite",
						"user()": "infinite",
						"value()": "1174",
						"wallet()": "infinite"
					}
				},
				"methodIdentifiers": {
					"Change(int256)": "9aa4a738",
					"changeuser(string)": "4ce077bc",
					"getvalue()": "69bd01c4",
					"lifeline()": "07890892",
					"star()": "2c6dbb1c",
					"user()": "4f8632ba",
					"value()": "3fa4f245",
					"wallet()": "521eb273"
				}
			},
			"storageLayout": {
				"storage": [
					{
						"astId": 4,
						"contract": "contracts/4_Mode.sol:Mode",
						"label": "value",
						"offset": 0,
						"slot": "0",
						"type": "t_int256"
					},
					{
						"astId": 7,
						"contract": "contracts/4_Mode.sol:Mode",
						"label": "user",
						"offset": 0,
						"slot": "1",
						"type": "t_string_storage"
					},
					{
						"astId": 9,
						"contract": "contracts/4_Mode.sol:Mode",
						"label": "lifeline",
						"offset": 0,
						"slot": "2",
						"type": "t_int256"
					}
				],
				"types": {
					"t_int256": {
						"encoding": "inplace",
						"label": "int256",
						"numberOfBytes": "32"
					},
					"t_string_storage": {
						"encoding": "bytes",
						"label": "string",
						"numberOfBytes": "32"
					}
				}
			},
			"userdoc": {
				"kind": "user",
				"methods": {},
				"version": 1
			}
		}
	}
}